:100000000C946D010C9495010C9495010C94950140
:100010000C9495010C9495010C9495010C94950108
:100020000C9495010C9495010C9495010C949501F8
:100030000C9495010C9495010C9495010C949501E8
:100040000C941E1E0C9495010C94341B0C940E1BE6
:100050000C9495010C9495010C9495010C949501C8
:100060000C942C1C0C9495018F0796079D07A407F0
:10007000AB07B207B907C007F807FB07FE07F5078C
:100080000108040819081908041537193719371910
:100090003719051837193719371937193719371913
:1000A0003719371937193719371900146917BB175A
:1000B000371937199E15371937193719371937195D
:1000C00037193719371937190415EF16E01437198E
:1000D00037194118C11637196F18371937193719D9
:1000E000371937193719371937190014EA17BB1799
:1000F0003719A5169E153E1D421D421D421D421D6B
:10010000421D421D421D4C1C421D421D421D421DEE
:10011000421D421D421D4C1C421D421D421D421DDE
:10012000421D421D421D541C421D421D421D421DC6
:10013000421D421D421D7A1C421D421D421D421D90
:10014000421D421D421D541C421D421D421D421DA6
:10015000421D421D421D801C421D421D421D421D6A
:10016000421D421D421D861C421D421D421D421D54
:10017000421D421D421D9B1C421D421D421D421D2F
:10018000421D421D421DC51C421D421D421D421DF5
:10019000421D421D421D8F1C421D421D421D421D1B
:1001A000421D421D421DA91C421D421D421D421DF1
:1001B000421D421D421DC81C421D421D421D421DC2
:1001C000421D421D421DC81C421D421D421D421DB2
:1001D000421D421D421DC81C421D421D421D421DA2
:1001E000421D421D421DC81C421D421D421D421D92
:1001F000421D421D421DD11C421D421D421D421D79
:10020000421D421D421D051D421D421D421D421D33
:10021000421D421D421DD11C421D421D421D421D58
:10022000421D421D421D051D421D421D421D421D13
:10023000421D421D421DE91C421D421D421D421D20
:10024000421D421D421D091D421D421D421D421DEF
:10025000421D421D421D091D421D421D421D421DDF
:10026000421D421D421D1E1D421D421D421D421DBA
:10027000421D421D421D381D421D421D421D421D90
:10028000421D421D421D381D0000000025002800AF
:100290002B0000000000240027002A0004040404AE
:1002A0000404040402020202020203030303030320
:1002B00001020408102040800102040810200102FD
:1002C00004081020000000080002010000030407D9
:1002D0000000000000000000AD1D11241FBECFEF84
:1002E000D8E0DEBFCDBF11E0A0E0B1E0E2ECF2E487
:1002F00002C005900D92AC34B107D9F723E0ACE40D
:10030000B1E001C01D92A131B207E1F711E0CDE6E5
:10031000D1E004C02197FE010E948A1ECC36D1078D
:10032000C9F70E941A130C945F210C9400002091CD
:100330006E0140914C01213208F050C08091B00113
:100340008111FCCF92E09093B0016093B2019FEFD6
:100350009093AF011092D4012093D301222369F02E
:10036000EDE4F1E0A3EBB1E0215030E0225B3E4F41
:1003700091919D93E217F307D9F71092D5019091CF
:10038000D501440F492B4093D5019091B101913093
:1003900081F41092B101ABEBB0E0ECEBF0E09091A6
:1003A000D5019C93908193FDFACF95EC9093BC007E
:1003B00003C095EE9093BC009091B0019230E1F3B0
:1003C0009091AF019F3F79F08091AF01803241F071
:1003D0008091AF01803331F084E005C081E003C03B
:1003E00082E001C083E010926D0110926E011092C4
:1003F0008C010895089580E090E00895DF92EF92D7
:10040000FF920F931F93CF93DF93FB01E080F18066
:1004100002811381D481C581B681D7802E2D3F2DD5
:10042000402F512F6D2F7C2F8B2F9D2D35534C40FE
:10043000510961097109810991092F3F34434C40E9
:100440005105610571058105910509F0A8F42E2D6E
:100450003F2D402F512F6D2F7C2F8B2F9D2D07E08F
:100460000E94C01F2083318342835383648375833A
:100470008683978387E015C12E2D3F2D402F512F66
:100480006D2F7C2F8B2F9D2D3A56484151096109C4
:100490007109810991092F3F39464841510561058C
:1004A00071058105910509F0A8F42E2D3F2D402FEF
:1004B000512F6D2F7C2F8B2F9D2D06E00E94C01F8A
:1004C0002083318342835383648375838683978338
:1004D00086E0E7C02E2D3F2D402F512F6D2F7C2F12
:1004E0008B2F9D2D345D40435109610971098109AC
:1004F00091092F3F334D4043510561057105810539
:10050000910509F0A8F42E2D3F2D402F512F6D2F6E
:100510007C2F8B2F9D2D05E00E94C01F20833183EF
:1005200042835383648375838683978385E0B9C050
:100530002E2D3F2D402F512F6D2F7C2F8B2F9D2D3A
:10054000385A4146510961097109810991092F3FC2
:10055000374A41465105610571058105910509F04C
:10056000A8F42E2D3F2D402F512F6D2F7C2F8B2F38
:100570009D2D04E00E94C01F20833183428353835A
:10058000648375838683978384E08BC02E2D3F2DF3
:10059000402F512F6D2F7C2F8B2F9D2D3055434C8D
:1005A000510961097109810991092F3F3F44434C69
:1005B0005105610571058105910509F0A8F42E2DFD
:1005C0003F2D402F512F6D2F7C2F8B2F9D2D03E022
:1005D0000E94C01F208331834283538364837583C9
:1005E0008683978383E05DC02E2D3F2D402F512FB2
:1005F0006D2F7C2F8B2F9D2D305A4648514061091D
:100600007109810991092F3F3F49464851406105D1
:1006100071058105910509F0A8F42E2D3F2D402F7D
:10062000512F6D2F7C2F8B2F9D2D02E00E94C01F1C
:1006300020833183428353836483758386839783C6
:1006400082E02FC02E2D3F2D402F512F6D2F7C2F5C
:100650008B2F9D2D30544D40534061097109810904
:1006600091092F3F3F434D4053406105710581057E
:10067000910509F0A8F42E2D3F2D402F512F6D2FFD
:100680007C2F8B2F9D2D01E00E94C01F2083318382
:1006900042835383648375838683978381E001C09B
:1006A00080E0DF91CF911F910F91FF90EF90DF904D
:1006B00008952F923F924F925F926F927F928F9206
:1006C0009F92AF92BF92CF92DF92EF92FF920F93E1
:1006D0001F93CF93DF93CDB7DEB761970FB6F89432
:1006E000DEBF0FBECDBFB22FA32FF42FE52F862F75
:1006F000972F8F829886A986BA86CB86DC86ED8670
:10070000FE86502E19832A83232E442E352E662EE4
:10071000772E202F312F4B2F5A2F6F2F7E2F211501
:10072000304A4C4A594B634071058105910589F067
:1007300080F0512CB0EAB983ECEAEA830F2EF9EB92
:100740002F2EF02D0F2EF3E04F2EF02D312C612C9B
:10075000712C252D39814A81522D642D732D862DC2
:10076000972D2F3FF0EE3F07F5EF4F07F5E05F07BE
:10077000610571058105910509F008F4C4C121E006
:10078000298B252D2F3F354D41415E476340710533
:100790008105910509F008F4198A2F81388549856A
:1007A0005A856B857C858D859E85A0E00E941220F0
:1007B00009F066C0B989B1113BC00DC0512CE1EE02
:1007C000E983F5EFFA830F2EF5E02F2EF02D412C63
:1007D000312C612C712CA52CB980CA80D22CE42C30
:1007E000F32C062D172D20E034E04BE654EF64E1A6
:1007F00070E080E090E00E941C1F2B833C834D83BF
:100800005E8360E070E080E090E00E94901E2F83A5
:10081000388749875A876B877C878D879E8710E04A
:10082000812C912C5401839480E090E0DC01FFC086
:10083000252D39814A81522D642D732D862D972DBA
:1008400002E00E94C01F2F83388749875A876B8731
:100850007C878D879E872989213009F49AC110E011
:10086000812C912C5401839480E090E0DC0124E001
:1008700030E040E050E02B833C834D835E83D7C063
:10088000A52CB980CA80D22CE42CF32C062D172D70
:100890002F81388549855A856B857C858D859E8518
:1008A0000E941C1F2B833C834D835E838B819C8124
:1008B000AD81BE810697A105B105E8F40F2EF6E0E3
:1008C000AF2EF02DB12CC12CD12CE12CF12C00E05D
:1008D00010E02F81388549855A856B857C858D850B
:1008E0009E850E941C1F522E39834A83252E462E38
:1008F000372E682E792E2B813C814D815E812930E7
:10090000374041055105F8F06894AA24A3F80F2E4A
:10091000F7E0BF2EF02DC12CD12CE12CF12C00E002
:1009200010E02F81388549855A856B857C858D85BA
:100930009E850E941C1F522E39834A83252E462EE7
:10094000372E682E792EA52CB980CA80D22CE42CA3
:10095000F32C062D172D2F81388549855A856B85F7
:100960007C858D859E850E941A1F2F87388B842E4B
:10097000952EB62FA72FF82FE92F592D6B2F7A2FF1
:100980008F2F9E2F05E00E94C01FAF84B888C82C0F
:10099000D92CEB2EFA2E0F2F1E2F0E94002005E0DF
:1009A0000E94C01F0F2F0E94F71F05E00E94C01F6A
:1009B0000F2F0E9400202F87388B842E952EB62F64
:1009C000A72FF82FE92F592D6B2F7A2F8F2F9E2FBE
:1009D00005E00E94C01FA22EB32EC42ED52EE62EF7
:1009E000F72E082F192F2F853889482D592D6B2F59
:1009F0007A2F8F2F9E2F0E94F71FA52CB980CA80B7
:100A0000D22CE42CF32C062D172D0E941C1FF22F44
:100A1000E32F8F2F9E2FA42FB52F0097A105B1058F
:100A200009F0AAC0812C912C54018394ADC0880F89
:100A3000991FAA1FBB1F880F991FAA1FBB1F880FD2
:100A4000991FAA1FBB1F880F991FAA1FBB1F880FC2
:100A5000991FAA1FBB1F880F991FAA1FBB1FBC018C
:100A6000CD01660F771F881F991FCB80DC80ED803A
:100A7000FE80CC0CDD1CEE1CFF1CCC0CDD1CEE1C27
:100A8000FF1CCC0CDD1CEE1CFF1CCC0CDD1CEE1C7A
:100A9000FF1CCC0CDD1CEE1CFF1CCC0CDD1CEE1C6A
:100AA000FF1CCC0CDD1CEE1CFF1CA2E0DA1AE108D6
:100AB000F108A50194010E94681EC20ED31EE41E17
:100AC000F51EEEA1FFA1C082D182E282F38264838F
:100AD00075838683978380869186A286B386112349
:100AE00049F0252D39814A81522D642D732D862D93
:100AF000972D6BC02F81388549855A856B857C85FC
:100B00008D859E8562C02F81388549855A856B8584
:100B10007C858D859E85A0E00E94122009F44ECE32
:100B2000198A512CF1EEF98325EF2A830F2EF5E077
:100B30002F2EF02D412C312C612C712CA1CEAEA189
:100B4000BFA11D921D921D921C921397FD0114824C
:100B500015821682178281E090E0A0E0B0E08087E5
:100B60009187A287B387252D39814A81522D642D23
:100B7000732D862D972D29C00F2E88248A94982CAA
:100B8000FFE0AF2EB12CF02DF989F130C1F211E068
:100B90004ECFAEA1BFA11D921D921D921C92139724
:100BA000FD01148215821682178281E090E0A0E098
:100BB000B0E080879187A287B3872F8138854985E8
:100BC0005A856B857C858D859E8561960FB6F894D8
:100BD000DEBF0FBECDBFDF91CF911F910F91FF9070
:100BE000EF90DF90CF90BF90AF909F908F907F90CD
:100BF0006F905F904F903F902F900895CF93DF9329
:100C00001F92CDB7DEB7FC01698390918C019923C7
:100C1000D9F090916E01903238F081E090E09383AA
:100C2000828380E090E017C080916D01E82FF0E0B2
:100C3000E35BFE4F998190838F5F80936D0180937A
:100C40006E0181E090E007C061E0CE0101960E9454
:100C5000531D81E090E00F90DF91CF910895CF93E5
:100C6000C42F81E080938C0180E680934C01109228
:100C70006D0110926E018AEB92E00E94FE056C2FCE
:100C80008AEB92E00E94FE0561E08AEB92E00E940E
:100C90009701CF910895FF920F931F93CF93DF9306
:100CA000F42E890181E080938C0180E680934C01D1
:100CB00010926D0110926E018AEB92E00E94FE0587
:100CC000FF2059F0E8010F0D111D69918AEB92E0A8
:100CD0000E94FE05C017D107C1F761E08AEB92E0E0
:100CE0000E949701DF91CF911F910F91FF9008957E
:100CF000CF9381E080938C0180E680934C01109229
:100D00006D0110926E018AEB92E00E94FE0561E097
:100D10008AEB92E00E9497018091B0018111FCCF93
:100D200081E08093B0011092B2019FEF9093AF01E8
:100D30001092D4011092D3018093D5018091D501F6
:100D4000806C8093D5018091B101813081F4109243
:100D5000B101ABEBB0E0ECEBF0E08091D5018C930E
:100D6000808183FDFACF85EC8093BC0003C085EEC3
:100D70008093BC008091B0018130E1F38091D40177
:100D8000811105C02091D401211102C00CC021E0C5
:100D900043EB51E0ADE8B1E0FA0191919D939E2FB4
:100DA000941B9217D0F31092AE012093AD01222331
:100DB00059F08AEB92E00E94731A2091AD01909154
:100DC000AE012913F6CFC82F8C2FCF910895EF9243
:100DD000FF920F931F93CF938C017A01C0E1C60F4E
:100DE0006C2F0E947806E114F10411F48F7D04C089
:100DF000EA94EF2809F48062482F6C2FC8010E9402
:100E00002F06CF911F910F91FF90EF9008950F93B0
:100E10001F93CF93DF93EC01062F142F63E00E9402
:100E20007806113051F441E050E002C0440F551FE4
:100E30000A95E2F74095482308C041E050E002C01F
:100E4000440F551F0A95E2F7482B63E0CE010E943C
:100E50002F06DF91CF911F910F9108952F923F920E
:100E60004F925F926F927F928F929F92AF92BF92BA
:100E7000CF92DF92EF92FF920F931F93CF93DF9366
:100E8000CDB7DEB72E970FB6F894DEBF0FBECDBF3D
:100E90003C01962E572E29873A874B875C873A2C40
:100EA0002B2CCE86BE2C4F2CA02EC984DA84EB844A
:100EB000FC8484E190E00E942D208C01FC01D08212
:100EC000C182692D660F660F660F645DC3010E94C3
:100ED00078068C7F9E859370892BF801828323820C
:100EE0003482D701C601072E7CE0B695A795979569
:100EF00087957A95D1F7702D807F9A2D9F70C92E96
:100F0000C80EC5824682B782E92CF52CF8E0EF16B0
:100F1000F104E0F5F701EC5CFF4F0C948A1E980198
:100F200048E06AE2C3010E944B0630C0980148E0E5
:100F300062E3C3010E944B0629C0980148E06AE3BE
:100F4000C3010E944B0622C0980148E062E4C3013D
:100F50000E944B061BC0980148E06AE4C3010E944E
:100F60004B0614C0980148E062E5C3010E944B069D
:100F70000DC0980148E06AE5C3010E944B0606C017
:100F8000980148E06BE5C3010E944B0640E1940ED6
:100F9000692DC3010E94780691E0891203C0482F91
:100FA000406402C0482F4F7B692DC3010E942F0669
:100FB000E1E0EE16F10451F0F2E0EF16F10449F031
:100FC000E114F10449F4F30181AA12C0F30182AAE9
:100FD00012C0F30183AA12C0F8E0EF16F104B0F4D6
:100FE000F701E45CFF4F0C948A1E44E44D870EC069
:100FF0008CE28D870BC094E39D8708C0ECE3ED87FE
:1010000005C0FCE4FD8702C044E54D876D85C30142
:101010000E94780683789CA191118C609BA1E0E1ED
:101020009E9F90011124482F422B6D85C3010E9481
:101030002F06C8010E94C2202E960FB6F894DEBF7C
:101040000FBECDBFDF91CF911F910F91FF90EF9019
:10105000DF90CF90BF90AF909F908F907F906F90D8
:101060005F904F903F902F9008952F923F924F9214
:101070005F926F927F928F929F92AF92BF92CF9228
:10108000DF92EF92FF920F931F93CF93DF93CDB731
:10109000DEB76C970FB6F894DEBF0FBECDBF988F4A
:1010A0008F8B0B8B1B8F2C8B3D8B4E8B452E562E97
:1010B000672EFA8EE98EFC0182AD93ADA4ADB5AD7D
:1010C0008C019D0140E050E0BA0189831A832B8393
:1010D0003C834D835E836F837887282F312F4B812C
:1010E0005C8160E070E080E090E002E00E94C01F60
:1010F000A980B12ECB80DC80E12CF12C00E010E047
:101100000E940020722E832E942E352EB62FA72FEC
:10111000F82FE92F05E00E94C01FA22EB32EC42E87
:10112000D52EE62EF72E082F192F272D382D492DD5
:10113000532D6B2F7A2F8F2F9E2F0E94F71FA98080
:10114000BA80CB80DC80E12CF12C00E010E00E9422
:10115000F71F322E39874A87252E762E7B878C877C
:101160009D87EF89F88D84A995A9A6A9B7A96C01D7
:101170007D01FF0CCC08DC2C7601282F392F4A2F5B
:101180005B2F6C2D7C2D8C2D9C2D0FE10E94C01FA0
:10119000A12C0F2EFAECBF2EF02D0F2EFAE9CF2E38
:1011A000F02D0F2EFBE3DF2EF02DE12CF12C00E0D3
:1011B0000E94EB1EA32CB984CA84D22CE72CFB849A
:1011C0000C851D850E94901E0FE10E94DB1F822E60
:1011D000932EA42EB52E95018401330F000B102FF2
:1011E000980109831A832B833C83282D392D69812B
:1011F000762F862F962FA32CB984CA84D22CE72C65
:10120000FB840C851D850E94F71F298339874A8737
:101210005B876C877D87382E292E2B893B8D4C89E7
:101220005D896E89742D852D962D2F3F3745474456
:10123000584F6D4071058105910509F060F41B8AD6
:1012400028E52B8F37E43C8B48EF4D8B5DE05E8BC0
:10125000412C512C612C6B896E877B8D7F878C890B
:10126000888B9D89998BAE89AC8F4A8A852C962C68
:10127000262F372F482F592F6A2F742D852D962D05
:10128000211534404B46544F644171058105910549
:1012900069F060F01E86E4E0EF87FBE6F88B04EF70
:1012A000098B14E11C8F1A8A812C912CA980B98496
:1012B000CA84DB84EC84FD84032D122D2E853F85AA
:1012C000488959896C8D7A89882D992D0E941C1F17
:1012D000422E532E642E752E2FE0421651046104C7
:1012E0007104B0F42A2D3B2D4C2D5D2D6E2D7F2DDC
:1012F000832D922D04E00E94C01F032D0E94002028
:101300002E873F87488B598B6C8F7A8B882E992E2E
:101310003BE5431651046104710470F1298139855C
:101320004A855B856C857D85832D922D02E00E9428
:10133000C01FA980B984CA84DB84EC84FD84032D9A
:10134000122D0E940020A22EB32EC42ED52EE62EE2
:10135000F72EE82F192F04E00E94C01F0E2F0E94C5
:10136000002001E00E94C01F2E873F87488B598BC9
:101370006C8F7A8B882E992EA980B984CA84DB84DD
:10138000EC84FD84032D122D2E853F8548895989D3
:101390006C8D7A89882D992D0E941A1F822E932E8A
:1013A0004F875E87B62FA72FF82FE92F05E00E9401
:1013B000C01FA82CB92CCF84DE84EB2EFA2E0F2F61
:1013C0001E2F0E94002005E00E94C01F0F2F0E94C8
:1013D000F71F05E00E94C01F0F2F0E940020822EE1
:1013E000932E4F875E87B62FA72FF82FE92F05E0A2
:1013F0000E94C01FA22EB32EC42ED52EE62EF72E8D
:10140000082F192F282D392D4F855E856B2F7A2FA8
:101410008F2F9E2F0E94F71FA980B984CA84DB8476
:10142000EC84FD84032D122D0E941C1FF22FE32F4C
:101430008F2F9E2FA42FB52F0097A105B10529F45A
:10144000C12CD12C7601C39408C00F2ECC24CA9491
:10145000DC2CFFE0EF2EF12CF02D880F991FAA1F36
:10146000BB1F880F991FAA1FBB1F880F991FAA1F98
:10147000BB1F880F991FAA1FBB1F880F991FAA1F88
:10148000BB1F880F991FAA1FBB1FBC01CD01660F90
:10149000771F881F991F53014201880C991CAA1CB1
:1014A000BB1C880C991CAA1CBB1C880C991CAA1C70
:1014B000BB1C880C991CAA1CBB1C880C991CAA1C60
:1014C000BB1C880C991CAA1CBB1C880C991CAA1C50
:1014D000BB1C42E0941AA108B108A70196010E9422
:1014E000681E062F772E182F820E931EA41EB51E7F
:1014F00084E190E00E942D202C01DC01DC92119609
:10150000CC9211978A2D837012968C931297139612
:101510009C92139714968C92D701C601072E7CE0FB
:10152000B695A795979587957A95D1F7702D807F79
:101530001F70C12EC80EF201C58276820783098D05
:101540001A8D012B41F4920148E06AE18F89988D50
:101550000E944B060CC0298D3A8D2130310539F49B
:10156000920148E062E28F89988D0E944B06C20189
:101570000E94C2206C960FB6F894DEBF0FBECDBF9E
:10158000DF91CF911F910F91FF90EF90DF90CF905F
:10159000BF90AF909F908F907F906F905F904F9093
:1015A0003F902F9008952F923F924F925F926F92AB
:1015B0007F928F929F92AF92BF92CF92DF92EF92E3
:1015C000FF920F931F93CF93DF93CDB7DEB7AD9705
:1015D0000FB6F894DEBF0FBECDBF1C01098F1A8F66
:1015E0002B8F3C8F4D8F5E8F6F8F78A3682C792C5B
:1015F000A9A2BAA2CBA2DCA2EDA2FEA2282D392D6F
:101600004A2D5B2D6C2D7D2D8E2D9F2DA0E00E94EF
:10161000122091F038554744584F6D4071098109A7
:10162000910921153C4A43425C4F66407105810592
:10163000910511F008F0BCC4198D4A8C5B8C9C8C10
:10164000BD8DAE8DFF8DE8A1212F342D452D592D57
:101650006B2F7A2F8F2F9E2F2F3F34434C405105F5
:10166000610571058105910509F058F4198E85E32E
:101670008A8F8CE08B8F1C8E1D8E1E8E1F8E18A263
:101680001EC0212F342D452D592D6B2F7A2F8F2FD2
:101690009E2F2115304A4C4A594B634071058105F4
:1016A000910569F060F0198E80EA8A8F8CEA8B8F41
:1016B00089EB8C8F83E08D8F1E8E1F8E18A2BE014A
:1016C000675E7F4FC1010E94FE018FA3262D372D3B
:1016D00049A15AA16BA17CA18DA19EA1A0E00E946D
:1016E000122009F494C0098D1A8D4B8C5C8CBD8D31
:1016F000AE8DFF8DE8A1E8A7202F312F442D552D69
:101700006B2F7A2F8F2F9E2F2F3F354D41415E47F4
:10171000634071058105910511F008F093C0CE0179
:101720000D969F938F93862C972CA9A0BAA0CBA03F
:10173000DCA0EDA0FEA0242D352D4B2F5A2F6F2FAE
:1017400078A5C1010E9459030F900F9024960EAD09
:101750001FAD24970130110539F102301105B1F1A7
:10176000012B09F0F7C3898DD10159968C935997B4
:101770008A8D5A968C935A978B8D5B968C935B9738
:101780008C8D5C968C935C978D8D5D968C935D971C
:101790008E8D5E968C935E978F8D5F968C935F9700
:1017A00088A190968C930AC4898DF10181A38A8DBA
:1017B00082A38B8D83A38C8D84A38D8D85A38E8D29
:1017C00086A38F8D87A388A180A7F8C3898DD101B7
:1017D00099968C9399978A8D9A968C939A978B8DDC
:1017E0009B968C939B978C8D9C968C939C978D8DC0
:1017F0009D968C939D978E8D9E968C939E978F8DA4
:101800009F968C939F9788A1D0968C93D7C3098D70
:101810001A8D4B8C5C8CBD8DAE8DFF8DE8A1E8A739
:10182000202F312F442D552D6B2F7A2F8F2F9E2F48
:101830002F3F354D41415E4763407105810591055C
:1018400019F110F1CE010D969F938F93812C912C5D
:10185000A12CB12CC12CD12CE12CF12C242D352D17
:101860004B2F5A2F6F2F78A5C1010E945903622E6A
:10187000732E49A35AA36BA37CA38DA39EA30F90A1
:101880000F904424439401C0412C24960EAD1FAD0B
:1018900024970130110509F489C00230110509F4BB
:1018A000EEC1012B09F086C3098D1A8D2B8D3C8D5D
:1018B0004D8D5E8D6F8D78A1CE010D969F938F9388
:1018C000812C912CA12CB12CC12CD12CE12CF12CF0
:1018D000C1010E945903622E732E49A35AA36BA320
:1018E0007CA38DA39EA340E050E060E070E0C101C6
:1018F0000E94E706D10119966C9219971A967C926C
:101900001A97E9A11B96EC931B97FAA11C96FC93DE
:101910001C970BA11D960C931D971CA11E961C9342
:101920001E978DA11F968C931F979EA150969C93F6
:101930005097898D59968C9359978A8D5A968C9386
:101940005A978B8D5B968C935B978C8D5C968C9362
:101950005C978D8D5D968C935D978E8D5E968C9346
:101960005E978F8D5F968C935F9788A190968C93EE
:101970004F92AFA1AF93842CAD84BE84CF84D8881E
:10198000E988FA880B891C892D893E894F89588DF1
:1019900024966EAD7FAD2497C1010E942E070F9053
:1019A0000F900F900F90E12CF12CF5C2F10181AD59
:1019B000823009F07AC0F98DF8A7AA8DA9A7BB8D4E
:1019C000BAA75C8CBD8DAE8DEF8DEBA7F8A1FCA7FF
:1019D00028A539A54AA5552D6B2F7A2F8E2F9F2F1D
:1019E00030584A41564061097109810991092F37E0
:1019F000304E424758496240710581059105F9F022
:101A0000F0F0F101A1A4B2A4C3A4D4A4E5A4F6A467
:101A100007A510A928A539A54AA5552D6B2F7A2F02
:101A20008BA59CA50E94092051F011A212A213A21D
:101A300014A215A216A217A210A6E1E0D9C2F101C4
:101A400061887288F389F9A3F101F489FAA3F1019D
:101A5000F589FBA3F101F689FCA3F101F789FDA348
:101A6000F101F08DFEA3CE010D969F938F93862CEE
:101A7000972CA9A0BAA0CBA0DCA0EDA0FEA008A541
:101A800019A52AA5352D4B2F5A2F6BA57CA5C10171
:101A90000E94590341E050E061E070E0C1010E9402
:101AA000E7060F900F90512C44C0D101618A728AD1
:101AB000E9A15396EC935397FAA15496FC9354974B
:101AC0000BA155960C9355971CA156961C935697AF
:101AD0008DA157968C9357979EA158969C93098DEC
:101AE0001A8D2B8D3C8D4D8D5E8D6F8D78A1CE0125
:101AF0000D969F938F93812C912CA12CB12CC12CEE
:101B0000D12CE12CF12CC1010E945903622E732EBD
:101B100049A35AA36BA37CA38DA39EA341E050E0ED
:101B200061E070E0C1010E94E7060F900F9055241C
:101B30005394298D3A8D4B8D5C8D6D8D7E8D8F8D5F
:101B400098A130584A4156406109710981099109AB
:101B50002F37304E42475849624071058105910543
:101B600009F008F468C081E0F10181AF21A532A538
:101B700043A554A565A576A587A590A9A0E00E94D8
:101B8000122009F45BC0B101675D7F4FC1010E9463
:101B9000FE018FA3D10151968C90519752969C9043
:101BA00052975396AC9053975496BC905497559631
:101BB000CC9055975696DC9056975796EC90579741
:101BC0005896FC90589799960C9199979A961C91D3
:101BD0009A979B962C919B979C963C919C979D964F
:101BE0004C919D979E965C919E979F966C919F9726
:101BF000D0967C91CE0101969F938F93C1010E9454
:101C000059031F92BFA1BF93812CA980BA80CB80BA
:101C1000DC80ED80FE800F81188529853A854B8513
:101C20005C8562E070E0C1010E942E070F900F906A
:101C30000F900F9003C088E0F10181AF898DD10131
:101C400091968C9391978A8D92968C9392978B8D87
:101C500093968C9393978C8D94968C9394978D8D6B
:101C600095968C9395978E8D96968C9396978F8D4F
:101C700097968C93979788A198968C936DC1D10174
:101C8000D996EC91E13009F0A3C0B98DBCA7FA8DCB
:101C9000FDA7FB8DAC8DA8A75D8CBE8DB9A7AF8DC0
:101CA000AAA7B8A1BBA72CA53DA54F2F58A5652D68
:101CB00079A58A2F9B2F30584A41564061097109F6
:101CC000810991092F37304E4247584962407105CA
:101CD00081059105E9F1E0F1D1019996AC909997D0
:101CE0009A96BC909A979B96CC909B979C96DC90EA
:101CF0009C979D96EC909D979E96FC909E979F96A4
:101D00000C919F97D0961C91D0972CA53DA54F2F55
:101D100058A5652D79A58AA59BA50E940920C1F02B
:101D200099961C9299979A961C929A979B961C92B8
:101D30009B979C961C929C979D961C929D979E9615
:101D40001C929E979F961C929F97D0961C9250C172
:101D5000D10151966C90519752967C905297539620
:101D6000BC91B9A3D1015496BC91BAA3D1015596A7
:101D7000BC91BBA3D1015696BC91BCA3D10157968F
:101D8000BC91BDA3D1015896BC91BEA3CE010D96C6
:101D90009F938F93862C972CA9A0BAA0CBA0DCA0F0
:101DA000EDA0FEA00CA51DA52F2F38A5452D59A5EA
:101DB0006AA57BA5C1010E94590341E050E062E0A1
:101DC00070E0C1010E94E7060F900F90512C39C0BE
:101DD000F101618A728A09A1038B1AA1148B8BA16C
:101DE000858B9CA1968BADA1A78BBEA1B08F098DD1
:101DF0001A8D2B8D3C8D4D8D5E8D6F8D78A1CE0112
:101E00000D969F938F93812C912CA12CB12CC12CDA
:101E1000D12CE12CF12CC1010E945903622E732EAA
:101E200049A35AA36BA37CA38DA39EA341E050E0DA
:101E300062E070E0C1010E94E7060F900F90552408
:101E40005394298D3A8D4B8D5C8D6D8D7E8D8F8D4C
:101E500098A130584A415640610971098109910998
:101E60002F37304E42475849624071058105910530
:101E700009F008F459C082E0D101D9968C93D99722
:101E800091962C91919792963C91929793964C9122
:101E9000939794965C91949795966C919597969656
:101EA0007C91969797968C91979798969C91A0E0A5
:101EB0000E941220E9F1B1016F5D7F4FC1010E94C4
:101EC000FE018FA3F10181889288A388B488C58818
:101ED000D688E788F08C01A112A123A134A145A1E5
:101EE00056A167A170A5CE0101969F938F93C10162
:101EF0000E9459031F92FFA1FF93812CA980BA80F1
:101F0000CB80DC80ED80FE800F81188529853A85A5
:101F10004B855C8561E070E0C1010E942E070F9047
:101F20000F900F900F9004C088E0D101D9968C9348
:101F3000898DF10181A78A8D82A78B8D83A78C8DD6
:101F400084A78D8D85A78E8D86A78F8D87A788A165
:101F500080AB02C0412C512C4F92FFA1FF93842CE7
:101F6000AD84BE84CF84D888E988FA880B891C891F
:101F70002D893E894F89588D24966EAD7FAD24976B
:101F8000C1010E942E070F900F9001E0501214C063
:101F9000EE24E394F12C062D172D29A13AA14BA193
:101FA0005CA16DA17EA1C1010E943508E0E020C0C6
:101FB000E1E01EC0E1E01CC0E0E01AC01F921FA1DA
:101FC0001F93812CAD84BE84CF84D888E988FA8899
:101FD0000B891C892D893E894F89588D24966EADB9
:101FE0007FAD2497C1010E942E070F900F90E0E073
:101FF0008E2FAD960FB6F894DEBF0FBECDBFDF912A
:10200000CF911F910F91FF90EF90DF90CF90BF90F5
:10201000AF909F908F907F906F905F904F903F9088
:102020002F9008956F927F928F929F92AF92BF925E
:10203000CF92DF92EF92FF920F931F93CF93DF9394
:10204000782ED62FC42F622E0CEB10E00F2EF5E465
:10205000FF2EF02DF801F0821092FA021092FB028E
:102060001092FC021092FD021092AE011092AD018E
:1020700010926D0110926E011092B00181E0809378
:10208000B2011092B10161E082E10E94D51B61E0D2
:1020900083E10E94D51BE9EBF0E080818E7F808395
:1020A00090819D7F908388E48093B800F801F0824E
:1020B00042E967EB86EC92E00E942F0640E860E17F
:1020C00086EC92E00E942F0640E861E186EC92E007
:1020D0000E942F0640E862E186EC92E00E942F0603
:1020E0004CE060E186EC92E00E942F064CE061E15A
:1020F00086EC92E00E942F064CE062E186EC92E0D2
:102100000E942F0640E261EB86EC92E00E942F06CF
:1021100040E861EB86EC92E00E942F06E12CF12C66
:1021200000E014E02BE634EF44E150E060E070E0C2
:1021300086EC92E00E943508EE24E394F12C2BE625
:1021400034EF44E150E060E070E086EC92E00E9401
:1021500035081F921F92812C6894992492F80F2EB3
:10216000FBE6AF2EF02D0F2EF4EFBF2EF02D0F2E2D
:10217000F4E1CF2EF02DD12CE12CF12C00E617EB61
:1021800023E030E840E050E060E070E086EC92E070
:102190000E94D30A0F900F90662091F01F9281E069
:1021A0008F9300E816E32EEB36E240E050E060E06B
:1021B00070E086EC92E00E94D30A0F900F9024C04A
:1021C0001F9281E08F93812C6894992492F80F2EAE
:1021D000FBE6AF2EF02D0F2EF4EFBF2EF02D0F2EBD
:1021E000F4E1CF2EF02DD12CE12CF12C04EC13EFE7
:1021F00025E535E140E050E060E070E086EC92E0FB
:102200000E94D30A0F900F901F9282E08F93812C2F
:102210006894992492F80F2EFBE6AF2EF02D0F2E26
:10222000F4EFBF2EF02D0F2EF4E1CF2EF02DD12C98
:10223000E12CF12C00E010E82FE432E140E050E026
:1022400060E070E086EC92E00E94D30A472D60E0E7
:1022500070E086EC92E00E9407074D2F61E070E08D
:1022600086EC92E00E9407074C2F62E070E086EC5B
:1022700092E00E9407071092BC000F900F90DF9130
:10228000CF911F910F91FF90EF90DF90CF90BF9073
:10229000AF909F908F907F906F900895CF93DF9332
:1022A0001F92CDB7DEB72A9A90916F01961709F168
:1022B0002B989BB193709BB99BB19B013327F9017C
:1022C000EE0FFF1FEE0FFF1FE92BEBB995B19C7FBF
:1022D00095B995B1022E232F000C221F330B000C51
:1022E000221F331F292B25B9419A41982B9A6093BD
:1022F0006F0190917001971719F195B19E7E95B974
:102300009BB193709BB99BB1272F30E0F901EE0F81
:10231000FF1FEE0FFF1FE92BEBB995B19C7F95B91D
:1023200095B1022E232F000C221F330B000C221F0D
:10233000331F292B25B9419A41982C9A709370012B
:1023400090917101891719F195B19C7D95B99BB157
:1023500093709BB99BB1282F30E0B901660F771FAE
:10236000660F771F692B6BB995B19C7F95B995B1B5
:10237000022E232F000C221F330B000C221F331FB1
:10238000292B25B9419A41982D9A809371018BB1DF
:1023900083708BB92BB150E0CA01880F991F880F49
:1023A000991F822B8BB985B18C7F85B985B1042E9D
:1023B000452F000C441F550B000C441F551F482B84
:1023C00045B9409A8FB78983F8942A9889818FBF3D
:1023D000429A000000000000000000000000000021
:1023E0000000449800000000000000000000000011
:1023F00000000000000000000000000000000000DD
:1024000000000000000000000000000000000000CC
:1024100000000000000000000000000000000000BC
:1024200000000000449A00000000000000000000CE
:10243000000000000000000000000000000000009C
:102440000000000000002A9A40980F90DF91CF9181
:102450000895482F85B127EF3FEF042E02C0220FC9
:10246000331F0A94E2F7282325B99BB193709BB9D7
:102470008BB170E09B01220F331F220F331F282BDB
:102480002BB995B19C7F95B985B1062E672F000CAD
:10249000661F770B000C661F771F682B65B9419A82
:1024A000419855B128E030E0C90102C0880F991F5A
:1024B0004A95E2F7852B85B90895CF93DF931F9254
:1024C000CDB7DEB7000000000000000000000000F3
:1024D00000000000000000000000000000000000FC
:1024E0000000000042982A9A90916F01961709F116
:1024F0002B989BB193709BB99BB19B013327A9018A
:10250000440F551F440F551F492B4BB995B19C7F64
:1025100095B995B1022E232F000C221F330B000C0E
:10252000221F331F292B25B9419A41982B9A60937A
:102530006F0190917001971719F195B19E7E95B931
:102540009BB193709BB99BB1272F30E0A901440F39
:10255000551F440F551F492B4BB995B19C7F95B919
:1025600095B1022E232F000C221F330B000C221FCB
:10257000331F292B25B9419A41982C9A70937001E9
:1025800090917101891719F195B19C7D95B99BB115
:1025900093709BB99BB1282F30E0A901440F551FC0
:1025A000440F551F492B4BB995B19C7F95B995B1F7
:1025B000022E232F000C221F330B000C221F331F6F
:1025C000292B25B9419A41982D9A809371010000D9
:1025D00000000000000000000000000000000000FB
:1025E0000000000000000000000000000000429811
:1025F0008AB183708AB984B18C7F84B98FB789839B
:10260000F8942A9889818FBF89B123B12A9A9AB107
:102610009C6F9AB994B1936094B9429A429A90E4AB
:10262000299F9001112486958695822B0F90DF912A
:10263000CF910895CF93DF93CDB7DEB762970FB6F2
:10264000F894DEBF0FBECDBF789484B5826084BDA0
:1026500084B5816084BD85B5826085BD85B58160A6
:1026600085BDEEE6F0E0808181608083E1E8F0E006
:102670001082808182608083808181608083E0E835
:10268000F0E0808181608083E1EBF0E08081846014
:102690008083E0EBF0E0808181608083EAE7F0E016
:1026A000808184608083808182608083808181607A
:1026B00080838081806880831092C10020E041E0A7
:1026C00060E081E00E9412102AE030E0C901992701
:1026D000FC01E055FD4F4491FC01E456FD4F84910F
:1026E000882399F090E0880F991FFC01EE56FD4F6A
:1026F000A591B49188579D4FFC01859194918FB716
:10270000F8949C91492B4C938FBF2F5F3F4F2431FE
:102710003105E1F660E08AE00E94D51B61E08AE0C5
:102720000E94D51B61E08BE00E94D51B61E08CE02C
:102730000E94D51B61E08DE00E94D51B60E08FE018
:102740000E94D51B60E08EE00E94D51B60E080E116
:102750000E94D51B60E081E10E94D51B61E082E10F
:102760000E94D51B61E083E10E94D51B8AB18C6F6A
:102770008AB984B1836084B92A9A60E080E00E94BB
:1027800029120FE611E0D8011C9260E081E00E945E
:102790002912F801118260E082E00E942912D8011A
:1027A00012961C9226E040E052EC61E070E08DE170
:1027B00092E00E946C1B0F2EF2E84F2EF1E05F2E8C
:1027C000F02D380100EC10E00F2EF6EC2F2E312CFE
:1027D000F02D8DE192E00E949D19892BD1F38DE1BE
:1027E00092E00E947B19982E9927FC01E154F1098F
:1027F000E733F10508F03BC5EC5BFF4F0C948A1EF4
:102800008DE192E00E949D190597D4F38DE192E04D
:102810000E947B197C018DE192E00E947B198887E0
:102820001F82EF81F885EE2AFF2A8DE192E00E9457
:102830007B19B82E8DE192E00E947B196C018DE12D
:1028400092E00E947B198A87198649855A854C290E
:102850005D294E0D5F1D7B2D770F6B2DE92DE23726
:1028600041F4FF2DFF1FFF27FF1FF72BC7019068C3
:1028700002C0C701F62F2A9AD3012C91281709F11B
:102880002B982BB123702BB9DBB09C013327D901D6
:10289000AA0FBB1FAA0FBB1FAD29ABB9A5B1AC7F57
:1028A000A5B9A5B1022E232F000C221F330B000C5B
:1028B000221F331F2A2B25B9419A41982B9AD30105
:1028C0008C93D30111962C91291721F185B18E7E1D
:1028D00085B98BB183708BB98BB1292F30E0D901C9
:1028E000AA0FBB1FAA0FBB1FA82BABB985B18C7F4A
:1028F00085B985B1022E232F000C221F330B000C4B
:10290000221F331F282B25B9419A41982C9AD301B5
:1029100011969C93D30112968C918F1721F185B15A
:102920008C7D85B98BB183708BB9ABB18F2F90E063
:102930009C01220F331F220F331F2A2B2BB925B1E5
:102940002C7F25B925B1082E892F000C881F990BE3
:10295000000C881F991F822B85B9419A41982D9AA6
:10296000D3011296FC9342988AB183708AB984B1DC
:102970008C7F84B98FB78A83F8942A988A818FBF15
:1029800039B123B1B0E42B9FC0011124932F969548
:102990009695982B2A9A8AB18C6F8AB984B18360F4
:1029A00084B9429AD8018C9185FFFCCFD1019C93C8
:1029B000BFEFEB1AFB0AE416F50609F050CF57C437
:1029C0008DE192E00E949D1918161906CCF78DE151
:1029D00092E00E947B19F82E682F617080E10E94BE
:1029E000D51BF1FA662760F981E10E94D51BF2FA46
:1029F000662760F982E10E94D51BF3FA662760F929
:102A000083E10E94D51B33C48DE192E00E949D19A1
:102A10000397D4F38DE192E00E947B197C018DE154
:102A200092E00E947B198C871B86EB85FC85EE2A41
:102A3000FF2A8DE192E00E947B19F1E69F1208C007
:102A4000880F9F2D991F9927991F892B6894F7F854
:102A50002A9AD3019C919E1501F12B989BB19370FA
:102A60009BB99BB197013327A901440F551F440F10
:102A7000551F492B4BB995B19C7F95B995B1022E45
:102A8000232F000C221F330B000C221F331F292B76
:102A900025B9419A41982B9AEC92F30191819F15A7
:102AA00011F195B19E7E95B99BB193709BB99BB185
:102AB0002F2D30E0A901440F551F440F551F492BFE
:102AC0004BB995B19C7F95B995B1022E232F000C7F
:102AD000221F330B000C221F331F292B25B9419ACB
:102AE00041982C9AF182D30112969C9112979817D3
:102AF00009F4BDC395B19C7D95B99BB193709BB909
:102B00009BB1282F30E0A901440F551F440F551FDA
:102B1000492B4BB995B19C7F95B995B1022E232FC6
:102B2000000C221F330B000C221F331F292B25B949
:102B3000419A41982D9A12968C9399C38DE192E017
:102B40000E949D190597D4F38DE192E00E947B19B4
:102B50006C018DE192E00E947B198E871D86ED85C8
:102B6000FE85CE2ADF2A8DE192E00E947B198D83BB
:102B70008DE192E00E947B197C018DE192E00E9440
:102B80007B19449A409A888B1F868F859889E82AFA
:102B9000F92A5701AC0CBD1C8D80880C40E1FD80EA
:102BA0001E830D83192D9F2C4031C0F00F2EF2E7AC
:102BB000EF2EF1E0FF2EF02D8DE192E00E949D19A5
:102BC00018161906CCF78DE192E00E947B19D70107
:102BD0008D937D01A415B50579F740E0173741F4D1
:102BE0005D2D551F5527551F5829C601906802C0F5
:102BF000C601592D2A9AF3012081281709F12B9833
:102C00002BB123702BB9EBB19C013327B901660FAF
:102C1000771F660F771F6E2B6BB965B16C7F65B937
:102C200065B1022E232F000C221F330B000C221F34
:102C3000331F262B25B9419A41982B9AD3018C93A7
:102C4000F3012181291711F185B18E7E85B98BB1F0
:102C500083708BB98BB1292F30E0B901660F771FD4
:102C6000660F771F682B6BB985B18C7F85B985B1ED
:102C7000022E232F000C221F330B000C221F331FA8
:102C8000282B25B9419A41982C9A9183D301129609
:102C90008C911297851719F185B18C7D85B98BB10F
:102CA00083708BB96BB1852F90E09C01220F331F8D
:102CB000220F331F262B2BB925B12C7F25B925B127
:102CC000082E892F000C881F990B000C881F991F54
:102CD000822B85B9419A41982D9A12965C93E42FE4
:102CE000F0E0EE58FE4F80819BB193709BB95BB1D1
:102CF00090E09C01220F331F220F331F252B2BB98D
:102D000025B12C7F25B925B1082E892F000C881FED
:102D1000990B000C881F991F822B85B98FB7898367
:102D2000F8942A9889818FBF4498BFEFCB1ADB0AA9
:102D30004F5FAC14BD0419F0449A2A9A35CF0D8127
:102D40001E81449A2A9A409892C20F2EFDE1EF2EDE
:102D5000F2E0FF2EF02DD701ED91FC910280F3817E
:102D6000E02D44E050E06AE271E0C7010995D70127
:102D7000ED91FC910190F081E02D63E3C70109958D
:102D800076C28DE192E00E949D1918161906CCF7C3
:102D90008DE192E00E947B199C01207F3327203334
:102DA0003105B1F49C0136952795369527953695D2
:102DB00027952170AC0156954795569547954170DA
:102DC000BC0176956795617081700E9412104FC2A8
:102DD00020E041E060E081E00E94121048C28DE1F5
:102DE00092E00E949D190497D4F38DE192E00E9435
:102DF0007B197C018DE192E00E947B194C018DE1F1
:102E000092E00E947B19092C000CAA08BB08BA2C7E
:102E1000A92C982C8824092E000CAA0BBB0BDC01D2
:102E20009927882788299929AA29BB294701FF0CB6
:102E3000AA08BB086C017D01C828D928EA28FB280C
:102E40008DE192E00E947B194C01990FAA08BB0802
:102E5000782D66275527442746015701842A952A4D
:102E6000A62AB72A0F2EFDE1EF2EF2E0FF2EF02D5D
:102E7000D701ED91FC910680F781E02DC7010995FE
:102E8000D7015296ED91FC91539780818F7E80837C
:102E90005296ED91FC9153978081877F8083529663
:102EA000ED91FC91539780818F7780835296ED91BD
:102EB000FC91539780818F7D80835A968C915A978D
:102EC00059968C9326E0B501A401C7010E946C1BA2
:102ED000CEC161E080E10E94D51B60E081E10E94EB
:102EE000D51B61E082E10E94D51B61E083E10E9475
:102EF000D51B49E060E074E280E00E944E1160E082
:102F000074E280E00E945D1248E261E074E280E0D9
:102F10000E944E1144E861E074E280E00E944E118C
:102F200046E060E074E280E00E944E1149E360E018
:102F300074E280E00E944E1160E074E280E00E9442
:102F40005D128A3239F46FE271E08DE192E00E9405
:102F5000F81A06C062E371E08DE192E00E94F81A6F
:102F600060E074E280E00E945D12682F8DE192E0E3
:102F70000E94DD197CC18DE192E00E949D190497A9
:102F8000D4F38DE192E00E947B19D82E8DE192E07E
:102F90000E947B197C018DE192E00E947B198A8B53
:102FA000198AE989FA89EE2AFF2A8DE192E00E94C6
:102FB0007B19F4E79F1208C0DD0C9F2D991F9927FC
:102FC000991FD92A6894F7F8482FB7018D2D0E94D0
:102FD0004E114DC160E070E080EC0E945D12682FE0
:102FE0008DE192E00E94F01A44E060E272E280E03B
:102FF0000E944E1160E070E080EC0E945D12682F2C
:103000008DE192E00E94F01A32C18DE192E00E94BF
:103010009D190A97D4F38DE192E00E947B19809369
:103020008B010F2EF5E8CF2EF1E0DF2EF02D0F2EC5
:10303000F2E88F2EF1E09F2EF02D0F2EFBE8AF2E41
:10304000F1E0BF2EF02D8DE192E00E947B197C0112
:103050008DE192E00E947B198C831B828B819C8185
:10306000E82AF92AD601ED92FD926D018DE192E0F8
:103070000E947B19F40181934F01CA14DB0419F7F4
:10308000F6C08DE192E00E949D1918161906CCF742
:103090008DE192E00E947B19809385010F2EF2E86A
:1030A000CF2EF1E0DF2EF02D0F2EF5E8EF2EF1E020
:1030B000FF2EF02D0F2EFBE8AF2EF1E0BF2EF02DEE
:1030C000D6014D916D01F701619171917F01809160
:1030D0008B010E944E11EA14FB0491F7C8C00F2E19
:1030E000FDE1EF2EF2E0FF2EF02DD701ED91FC91E6
:1030F0000280F381E02D44E050E06AE271E0C70114
:103100000995D701ED91FC910190F081E02D63E3E9
:10311000C701099565E371E0C7010E94F81A6AE3E7
:1031200071E0C7010E94F81AF301428150E060E0AB
:1031300070E020E1C7010E94911AD30111964C91D1
:1031400050E060E070E020E1C7010E94911AF301B5
:10315000408150E060E070E020E1C7010E94911AD8
:1031600061E471E0C7010E94F81A40918B0150E0C0
:1031700060E070E020E1C7010E94911AA5E8B1E08B
:103180004D915C9160E070E020E1C7010E94911ACE
:103190006FE371E0C7010E94F81AE2E8F1E04081B4
:1031A00050E060E070E020E1C7010E94911A69E4FC
:1031B00071E0C7010E94F81A40918B0150E060E075
:1031C00070E020E1C7010E94911A4091870150915F
:1031D000880160E070E020E1C7010E94911A6FE36E
:1031E00071E0C7010E94F81A4091830150E060E04D
:1031F00070E020E1C7010E94911A69E471E0C70103
:103200000E94F81A40918B0150E060E070E020E1EC
:10321000C7010E94911A4091890150918A0160E092
:1032200070E020E1C7010E94911A67E471E0C701D4
:103230000E94F81A0F2EF0ECEF2EFF24FA94F02DD6
:10324000B70180E00E945D12682F8DE192E00E943C
:10325000F01AFFEFEF1AFF0A84EDE8168FEFF80679
:1032600079F767E471E08DE192E00E94F81A0E941C
:103270004E1AAFCACF92DF92EF92FF920F931F9335
:10328000CF93DF9341155105C1F06A018C01E62E01
:10329000F72EC0E0D0E0D7016D917D01D801ED910E
:1032A000FC910190F081E02DC8010995892B39F03E
:1032B0002196CC16DD0679F702C0C0E0D0E0CE0141
:1032C000DF91CF911F910F91FF90EF90DF90CF9002
:1032D0000895FC01238D348D231738F08FE390E09F
:1032E000821B9109830F911D0895832F90E0821B0B
:1032F000910901970895FC01918D828D981761F0D5
:10330000828DDF01A80FB11D5D968C91928D9F5F1C
:103310009F73928F90E008958FEF9FEF0895FC01C7
:10332000918D828D981731F0828DE80FF11D858D7A
:1033300090E008958FEF9FEF0895FC01918D228D0D
:10334000892F90E0805C9F4F821B91098F73992792
:1033500008958DE192E00E949D1921E0892B09F4E6
:1033600020E0822F0895FC01848DDF01A80FB11D9C
:10337000A35ABF4F8C91248D30E02F5F3F4F2F73A6
:103380003078332334F421503109206C3F6F2F5FA4
:103390003F4F248FA689B7898C93A089B1898C91DE
:1033A00080648C93938D848D981306C00288F38972
:1033B000E02D80818F7D808308950F931F93CF939D
:1033C000DF93FC0181E0808F938D848D981322C060
:1033D000A089B1898C9185FD2FC01CC00FB607FC58
:1033E00008C0E889F989808185FF03C0CE010E9469
:1033F000B3199C8D091791F38B8DFE01E80FF11D18
:10340000E35AFF4F10830B8FEA89FB89808180622A
:1034100080831BC0238D30E02F5F3F4F2F733078A8
:10342000332334F421503109206C3F6F2F5F3F4F1D
:10343000162FEF01022FDDCFA689B7896C93008884
:10344000F189E02D80818064808381E090E0DF91CC
:10345000CF911F910F910895CF93DF93EC01888D49
:1034600081110FC018C00FB607FC0DC0908195FFE9
:103470000AC0A889B9898C9185FF05C0CE010E9438
:10348000B319EA89FB89908195FDEDCFA889B989A7
:103490008C9186FFE8CFDF91CF91089580E090E096
:1034A000892B29F00E94A91981110E94000008951A
:1034B00085ED8093BC00ECEBF0E0808184FDFDCFD6
:1034C0001092B00108950895E091AE018091AD0190
:1034D000E81730F4F0E0E357FE4F808190E0089564
:1034E0008FEF9FEF08959091AE018091AD019817F5
:1034F00050F4E92FF0E0E357FE4F208130E09F5F6A
:103500009093AE0102C02FEF3FEFC9010895809163
:10351000AD0190E02091AE01821B910908950E94B7
:103520005A218F929F92AF92BF92EF92FF920F9388
:103530001F93CF93DF93CDB7DEB7A1970FB6F89463
:10354000DEBF0FBECDBF7C01CB01BA0119A2223074
:1035500008F42AE08E010F5D1F4F822E912CA12CC2
:10356000B12CA50194010E94681EE62F622F732FD3
:10357000842F952F01501109EA3014F4E05D01C049
:10358000E95CD801EC93611571058105910549F756
:103590000115110591F0F80101900020E9F731972C
:1035A000AF01401B510BD701ED91FC910280F381DB
:1035B000E02DB801C701099502C080E090E0A19616
:1035C0000FB6F894DEBF0FBECDBFDF91CF911F9134
:1035D0000F91FF90EF90BF90AF909F908F900895C4
:1035E000DC01ED91FC910190F081E02D09950895A9
:1035F0006115710581F0FB0101900020E9F7319719
:10360000AF01461B570BDC01ED91FC910280F38169
:10361000E02D0995089580E090E008951F920F92A3
:103620000FB60F9211242F933F934F935F936F9395
:103630007F938F939F93AF93BF93EF93FF938DE10E
:1036400092E00E94B319FF91EF91BF91AF919F91CA
:103650008F917F916F915F914F913F912F910F903B
:103660000FBE0F901F9018951F920F920FB60F92DA
:1036700011242F938F939F93AF93BF93EF93FF9357
:10368000E0912D02F0912E02808182FD14C0EDE1C7
:10369000F2E0A689B7892C91818D8F5F8F73928D0F
:1036A000891771F0DF01E18DF0E0E35EFD4F258FBA
:1036B00059968C9305C0E0913302F09134028081D9
:1036C000FF91EF91BF91AF919F918F912F910F90AB
:1036D0000FBE0F901F901895BF92CF92DF92EF927E
:1036E000FF920F931F93CF93DF93EC016A017B014D
:1036F000B22EE889F98982E080834115514E610537
:103700007105B1F060E079E08DE390E0A7019601EA
:103710000E94681E89019A0101501109210931098D
:103720003695279517950795011580E11807A8F09C
:10373000E889F989108260E874E88EE190E0A701D9
:1037400096010E94681EDA01C9010197A109B10919
:10375000B695A795979587958C01EC85FD85108387
:10376000EE85FF850083188EEC89FD89B082EA8999
:10377000FB89808180618083EA89FB898081886000
:103780008083EA89FB89808180688083EA89FB895C
:1037900080818F7D8083DF91CF911F910F91FF906A
:1037A000EF90DF90CF90BF90089590E0FC01EC5334
:1037B000FD4F2491FC01E055FD4F3491FC01E4568E
:1037C000FD4F8491882309F446C0222371F12330F0
:1037D00069F028F42130B1F02230C1F026C0273042
:1037E000C9F02830E9F0243001F506C0E0E8F0E047
:1037F00090819F77908319C0E0E8F0E090819F7DF1
:10380000908313C094B59F7794BD0FC094B59F7DEE
:1038100094BD0BC0E0EBF0E090819F77908305C0F2
:10382000E0EBF0E090819F7D9083E82FF0E0EE0FD9
:10383000FF1FE857FD4FA591B4918FB7F894611120
:1038400006C09C91E32FE095E923EC9303C0EC9133
:10385000E32BEC938FBF08951F920F920FB60F9238
:1038600011242F933F934F935F936F937F938F9385
:103870009F93AF93BF93EF93FF938091B900E82F8D
:10388000E87F8E2F90E0893C910508F0FBC0FC0199
:10389000E558FF4F0C948A1E8091D5018093BB00A0
:1038A00085EC8093BC00EEC09091D4018091D3014F
:1038B000981780F4E091D40181E08E0F8093D401B9
:1038C000F0E0ED54FE4F80818093BB0085EC809347
:1038D000BC00D8C08091B201882319F00E94581A08
:1038E000D1C081E08093B10184EA8093BC00109242
:1038F000B001C8C080E28093AF010E94581AC2C0D4
:1039000080E38093AF010E94581ABCC088E3809383
:10391000AF0185EC8093BC001092B001B3C0E09180
:10392000D40181E08E0F8093D4018091BB00F0E040
:10393000ED54FE4F80839091D4018091D30198176C
:1039400020F485EC8093BC009DC085E88093BC008A
:1039500099C0E091D40181E08E0F8093D4018091D1
:10396000BB00F0E0ED54FE4F80838091B2018823CC
:1039700019F00E94581A86C081E08093B10184EA50
:103980008093BC001092B0017DC00E94581A7AC08A
:1039900083E08093B00110921C0285EC8093BC0000
:1039A00071C080911C02803280F4E0911C0281E0A1
:1039B0008E0F80931C028091BB00F0E0E450FE4F1C
:1039C000808385EC8093BC005DC085E88093BC005B
:1039D00059C085EC8093BC001092B00180911C020C
:1039E000803230F4E0911C02F0E0E450FE4F10828F
:1039F00060911C0270E0E091FA01F091FB018CEF04
:103A000091E0099510921C023DC085E88093BC00AE
:103A100039C084E08093B0011092F9011092F8014E
:103A2000E091F601F091F70109958091F80181117B
:103A300005C081E08093F8011092D601E091F90170
:103A400081E08E0F8093F901F0E0EA52FE4F808111
:103A50008093BB009091F9018091F801981720F4B0
:103A600085EC8093BC000EC085E88093BC000AC042
:103A700085EC8093BC001092B00104C01092AF019D
:103A80000E94581AFF91EF91BF91AF919F918F9132
:103A90007F916F915F914F913F912F910F900FBE4A
:103AA0000F901F9018954091F801262F30E0240FB9
:103AB000311D21323105ECF42091B0012430D9F4CC
:103AC000662381F0A82FB92F80E090E03091F801B3
:103AD0002D91FC01EA52FE4FE30FF11D2083019668
:103AE0008617A0F38091F801680F6093F80180E0D9
:103AF000089581E0089582E00895CF92DF92EF92D9
:103B0000FF920F931F93CF93DF938C01CB016A0138
:103B100020918C012223A1F041155105A1F0EB0168
:103B20007B01E40EF51E6991D801ED91FC910190A5
:103B3000F081E02DC8010995CE15DF05A1F703C07E
:103B4000642F0E94531DC601DF91CF911F910F91E9
:103B5000FF90EF90DF90CF900895EDE1F2E01382B7
:103B6000128288EE93E0A0E0B0E084839583A68380
:103B7000B7832AE031E03183208325EC30E03587BC
:103B8000248724EC30E03787268720EC30E0318B27
:103B9000208B21EC30E0338B228B22EC30E0358B14
:103BA000248B26EC30E0378B268B118E128E138EF1
:103BB000148EEAEBF2E01382128284839583A6834B
:103BC000B7838CE191E091838083E6ECF2E088E0BA
:103BD00080AF81AF11AA12AA13AA1186128613868A
:103BE0001486158616861786108A118A128A138AF9
:103BF000148A158A168A178A108E118E128E138EC9
:103C0000148E158E168E178E10A211A212A213A258
:103C100014A215A216A217A210A611A612A613A6E8
:103C200014A615A616A617A610AA80E498E7ADE775
:103C3000B1E082AF93AFA4AFB5AF08951F920F92DA
:103C40000FB60F9211242F933F938F939F93AF93AF
:103C5000BF938091090390910A03A0910B03B09147
:103C60000C033091080323E0230F2D3720F4019635
:103C7000A11DB11D05C026E8230F0296A11DB11D8F
:103C8000209308038093090390930A03A0930B03E6
:103C9000B0930C038091040390910503A091060357
:103CA000B09107030196A11DB11D80930403909369
:103CB0000503A0930603B0930703BF91AF919F91B3
:103CC0008F913F912F910F900FBE0F901F901895DD
:103CD000A1E21A2EAA1BBB1BFD010DC0AA1FBB1F10
:103CE000EE1FFF1FA217B307E407F50720F0A21B82
:103CF000B30BE40BF50B661F771F881F991F1A94EF
:103D000069F760957095809590959B01AC01BD0118
:103D1000CF010895EE0FFF1F0590F491E02D099457
:103D2000DF93CF931F930F939A9DF02D219FF00D5A
:103D30008B9DF00D8A9DE02DF10D039FF00D029FEC
:103D4000E00DF11D4E9DE00DF11D5E9DF00D4F9DAE
:103D5000F00D7F936F93BF92AF925F934F93D50116
:103D60000E941E208B01AC01D7010E941E20EB0196
:103D7000E80FF91FD6010E94E01E2F913F91D60156
:103D80000E941E20C60FD71FE81FF91FAF91BF91D9
:103D90000E94E01E2F913F910E941E20C60FD71F48
:103DA000E81FF91FD6010E941E20E60FF71F980199
:103DB000BE01CF0111240F911F91CF91DF91089582
:103DC0000E941E20460F571FC81FD91F08F43196A6
:103DD0000895689401C0E894F92FF12B12F00C9427
:103DE0001D1FA0E0B0E0E7EFFEE10C948F1F092E4D
:103DF000059422F40E94791F112392F4F0E80F2613
:103E0000FFEFE094F09400951095B094C094D09496
:103E1000A194BF0ACF0ADF0AEF0AFF0A0F0B1F0B9C
:103E20000E94281F07FC0E94791FCDB7DEB7ECE087
:103E30000C94AB1F689401C0E8948F929F92CF932B
:103E4000DF930E94281FDF91CF919F908F9008955C
:103E500088249924F401E401B0E49F93AA279A15D9
:103E60008B049C04ED05FE05CF05D007A10798F44F
:103E7000AD2FDC2FCF2FFE2FE92D982C892E982FD8
:103E8000872F762F652F542F432F322F2227B8509C
:103E900031F7BF9127C01B2EBF91BB27220F331FC5
:103EA000441F551F661F771F881F991F881C991C68
:103EB000EE1FFF1FCC1FDD1FAA1FBB1F8A149B0410
:103EC000EC05FD05CE05DF05A007B10748F08A180F
:103ED0009B08EC09FD09CE09DF09A00BB10B21609D
:103EE0001A94E1F62EF49401AF01BE01CD01000C4D
:103EF0000895609570958095909530954095509572
:103F000021953F4F4F4F5F4F6F4F7F4F8F4F9F4FC9
:103F100008952F923F924F925F926F927F928F926D
:103F20009F92AF92BF92CF92DF92EF92FF920F9348
:103F30001F93CF93DF93CDB7DEB7CA1BDB0B0FB652
:103F4000F894DEBF0FBECDBF09942A88398848880F
:103F50005F846E847D848C849B84AA84B984C884A5
:103F6000DF80EE80FD800C811B81AA81B981CE0F9C
:103F7000D11D0FB6F894DEBF0FBECDBFED01089581
:103F80000F93083090F0982F872F762F652F542F9E
:103F9000432F322F22270850F4CF220F331F441F04
:103FA000551F661F771F881F991F0A95B2F70F913B
:103FB000089597FB10F8169400080F93083098F0B6
:103FC0000850232F342F452F562F672F782F892FF6
:103FD000902DF4CF0594979587957795679557958C
:103FE0004795379527950A95AAF70F9108952A0DB9
:103FF0003B1D4C1D5D1D6E1D7F1D801F911F089573
:104000002A193B094C095D096E097F09800B910B48
:1040100008952A153B054C055D056E057F05800753
:10402000910708950024A7FD00942A173005400544
:10403000500560057005800590050895A29FB001A8
:10404000B39FC001A39F700D811D1124911DB29FCC
:10405000700D811D1124911D0895CF93DF9382303F
:10406000910510F482E090E0E0910F03F0911003CD
:1040700020E030E0C0E0D0E0309711F14081518184
:1040800048175907C0F04817590761F48281938196
:10409000209719F09B838A832BC090931003809301
:1040A0000F0326C02115310519F04217530718F4E4
:1040B0009A01BE01DF01EF010280F381E02DDCCF28
:1040C0002115310509F1281B390B2430310590F4F5
:1040D00012968D919C9113976115710521F0FB014A
:1040E0009383828304C09093100380930F03FD0198
:1040F000329644C0FD01E20FF31F81939193225049
:1041000031092D933C933AC020910D0330910E0359
:10411000232B41F4209102013091030130930E03CF
:1041200020930D03209100013091010121153105EB
:1041300041F42DB73EB74091040150910501241B75
:10414000350BE0910D03F0910E03E217F307A0F495
:104150002E1B3F0B2817390778F0AC014E5F5F4FDD
:104160002417350748F04E0F5F1F50930E034093FE
:104170000D038193919302C0E0E0F0E0CF01DF9165
:10418000CF9108950F931F93CF93DF93009709F476
:104190008CC0FC0132971382128200910F031091A0
:1041A00010030115110581F420813181820F931FC5
:1041B00020910D0330910E032817390779F5F093FC
:1041C0000E03E0930D0371C0D80140E050E0AE173C
:1041D000BF0750F412962D913C911397AD01211514
:1041E000310509F1D901F3CF9D01DA01338322832F
:1041F00060817181860F971F8217930769F4EC0124
:1042000028813981260F371F2E5F3F4F318320834E
:104210008A819B8193838283452B29F4F093100339
:10422000E0930F0342C01396FC93EE931297ED01B7
:10423000499159919E01240F351FE217F30771F43C
:1042400080819181840F951F029611969C938E9385
:104250008281938113969C938E931297E0E0F0E015
:10426000D80112968D919C911397009719F0F8013F
:104270008C01F6CF8D919C9198012E5F3F4F820F5C
:10428000931F20910D0330910E032817390769F40D
:10429000309729F41092100310920F0302C013827A
:1042A000128210930E0300930D03DF91CF911F91A3
:1042B0000F91089581E090E0F8940C945F21F894B8
:0242C000FFCF2E
:1042C20000001103800000000000DD193A1969198D
:1042D2002C1A9D197B198F1900000000FE057D1D07
:1042E200FB01631A871A731A641A484B4146004F3E
:1042F2004B004E47002D434943000A414275733A31
:0C430200000A466173683A0A002C0900AA
:107E0000112484B714BE81FFF0D085E080938100F7
:107E100082E08093C00088E18093C10086E0809377
:107E2000C20080E18093C4008EE0C9D0259A86E02C
:107E300020E33CEF91E0309385002093840096BBD3
:107E4000B09BFECF1D9AA8958150A9F7CC24DD24C4
:107E500088248394B5E0AB2EA1E19A2EF3E0BF2EE7
:107E6000A2D0813461F49FD0082FAFD0023811F036
:107E7000013811F484E001C083E08DD089C08234E0
:107E800011F484E103C0853419F485E0A6D080C0E4
:107E9000853579F488D0E82EFF2485D0082F10E0AE
:107EA000102F00270E291F29000F111F8ED06801E7
:107EB0006FC0863521F484E090D080E0DECF843638
:107EC00009F040C070D06FD0082F6DD080E0C81688
:107ED00080E7D80618F4F601B7BEE895C0E0D1E017
:107EE00062D089930C17E1F7F0E0CF16F0E7DF06D8
:107EF00018F0F601B7BEE89568D007B600FCFDCFD4
:107F0000A601A0E0B1E02C9130E011968C91119780
:107F100090E0982F8827822B932B1296FA010C0160
:107F200087BEE89511244E5F5F4FF1E0A038BF0790
:107F300051F7F601A7BEE89507B600FCFDCF97BE46
:107F4000E89526C08437B1F42ED02DD0F82E2BD052
:107F50003CD0F601EF2C8F010F5F1F4F84911BD097
:107F6000EA94F801C1F70894C11CD11CFA94CF0C13
:107F7000D11C0EC0853739F428D08EE10CD085E9AC
:107F80000AD08FE07ACF813511F488E018D01DD067
:107F900080E101D065CF982F8091C00085FFFCCF94
:107FA0009093C60008958091C00087FFFCCF809118
:107FB000C00084FD01C0A8958091C6000895E0E648
:107FC000F0E098E1908380830895EDDF803219F02E
:107FD00088E0F5DFFFCF84E1DECF1F93182FE3DFCA
:107FE0001150E9F7F2DF1F91089580E0E8DFEE27F6
:047FF000FF270994CA
:027FFE00040479
:0400000300007E007B
:00000001FF
