:100000000C9494000C94BC000C94BC000C94BC00A8
:100010000C94BC000C94BC000C94BC000C94BC0070
:100020000C94BC000C94BC000C94BC000C94BC0060
:100030000C94BC000C94BC000C94BC000C94BC0050
:100040000C94D60A0C94BC000C9412080C94EC0787
:100050000C94BC000C94BC000C94BC000C94BC0030
:100060000C94BC000C94BC0089021B061B061B06EA
:100070001B06E60328041B061B061B061B061B06A5
:100080001B061B061B061B061B06A80112056405A2
:100090001B061B0693051B061B061B061B061B06E1
:1000A0001B061B061B061B068902230399031B065E
:1000B0001B06BD031D041B0634041B061B061B0682
:1000C0001B061B061B061B061B06A801F70464057E
:1000D0001B060006930500000000250028002B00E9
:1000E00000000000240027002A0004040404040483
:1000F00004040202020202020303030303030102D7
:1001000004081020408001020408102001020408A5
:100110001020000000080002010000030407000096
:10012000000000000000BF0711241FBECFEFD4E085
:10013000DEBFCDBF11E0A0E0B1E0EEE9F6E102C024
:1001400005900D92A033B107D9F722E0A0E3B1E00A
:1001500001C01D92A23EB207E1F710E0C4E9D0E071
:1001600004C02197FE010E94420BC339D107C9F791
:100170000E94BE000C944D0B0C940000CF93DF93B3
:10018000CDB7DEB761970FB6F894DEBF0FBECDBF17
:10019000789484B5826084BD84B5816084BD85B562
:1001A000826085BD85B5816085BDEEE6F0E0808129
:1001B00081608083E1E8F0E010828081826080834A
:1001C000808181608083E0E8F0E0808181608083CD
:1001D000E1EBF0E0808184608083E0EBF0E08081FF
:1001E00081608083EAE7F0E08081846080838081A1
:1001F0008260808380818160808380818068808349
:100200001092C1002AE030E0C9019927FC01E250B8
:10021000FF4F4491FC01E651FF4F8491882399F0F0
:1002200090E0880F991FFC01E052FF4FA591B49117
:100230008A529F4FFC01859194918FB7F8949C91BD
:10024000492B4C938FBF2F5F3F4F24313105E1F68F
:1002500060E08AE00E94B30861E08AE00E94B3088F
:1002600061E08BE00E94B30861E08CE00E94B3087B
:1002700061E08DE00E94B30860E08FE00E94B30867
:1002800060E08EE00E94B30860E080E10E94B30865
:1002900060E081E10E94B30861E082E10E94B3085E
:1002A00061E083E10E94B3088AB18C6F8AB984B19E
:1002B000836084B92A9A60E080E00E94E50900E347
:1002C00011E0D8011C9260E081E00E94E509F8018C
:1002D000118260E082E00E94E509D80112961C922A
:1002E00026E040E052EC61E070E083E391E00E94A0
:1002F0004A080F2EF0ED4F2EF2E05F2EF02D0F2E5C
:10030000F0ECCF2ED12CF02D0F2EF6EC2F2E312C21
:10031000F02D0FEC12E00F2EF0E36F2EF1E07F2EA8
:10032000F02D83E391E00E948506892BD1F383E3CE
:1003300091E00E946306982E9927FC01E154F1098F
:10034000E733F10508F077C4EC5CFF4F0C94420BE7
:1003500083E391E00E9485060597D4F383E391E05F
:100360000E9463067C0183E391E00E9463068D8313
:100370001C82EC81FD81EE2AFF2A83E391E00E943A
:100380006306882E83E391E00E9463065C0183E3A9
:1003900091E00E9463068F831E826E817F816A29AD
:1003A0007B296E0D7F1D582D550FE92DF52F982CAB
:1003B000E23749F4BF2DBB1FBB27BB1FAB2EAF2AB3
:1003C000C701906802C0C701A92C2A9AD3012C91B9
:1003D000281701F12B982BB123702BB9BBB09C01CE
:1003E0003327A901440F551F440F551F4B294BB903
:1003F00045B14C7F45B945B1022E232F000C221F79
:10040000330B000C221F331F242B25B9419A41982E
:100410002B9A8C93D30111962C911197291719F1CE
:1004200085B18E7E85B98BB183708BB98BB1292F45
:1004300030E0A901440F551F440F551F482B4BB9FD
:1004400085B18C7F85B985B1022E232F000C221F28
:10045000330B000C221F331F282B25B9419A4198DA
:100460002C9A11969C93D30112968C9112978A150F
:1004700019F185B18C7D85B98BB183708BB94BB186
:100480008A2D90E09C01220F331F220F331F242B53
:100490002BB925B12C7F25B925B1082E892F000C49
:1004A000881F990B000C881F991F822B85B9419AD0
:1004B00041982D9A1296AC9242988AB183708AB96B
:1004C00084B18C7F84B98FB78983F8942A98898105
:1004D0008FBF29B183B1B0E48B9FC0011124922F4B
:1004E00096959695982B2A9A8AB18C6F8AB984B181
:1004F000836084B9429AD6018C9185FFFCCFD101EB
:100500009C93BFEFEB1AFB0AE616F70609F050CFF3
:1005100092C383E391E00E9485060397D4F383E3BB
:1005200091E00E9463067C0183E391E00E946306F0
:1005300089871886E885F985EE2AFF2A83E391E00A
:100540000E946306F1E69F1208C0880F9F2D991F35
:100550009927991F892B6894F7F82A9AD3019C91BF
:100560009E1501F12B989BB193709BB99BB197019C
:100570003327A901440F551F440F551F492B4BB971
:1005800095B19C7F95B995B1022E232F000C221FA7
:10059000330B000C221F331F292B25B9419A419898
:1005A0002B9AEC92F30191819F1511F195B19E7EEA
:1005B00095B99BB193709BB99BB12F2D30E0A901E8
:1005C000440F551F440F551F492B4BB995B19C7FC4
:1005D00095B995B1022E232F000C221F330B000C6E
:1005E000221F331F292B25B9419A41982C9AF18259
:1005F000D30112969C911297981709F41CC395B1D8
:100600009C7D95B99BB193709BB99BB1282F30E02D
:10061000A901440F551F440F551F492B4BB995B1E4
:100620009C7F95B995B1022E232F000C221F330B0E
:10063000000C221F331F292B25B9419A41982D9A6E
:1006400012968C93F8C283E391E00E94850604978A
:10065000D4F383E391E00E9463067C0183E391E09D
:100660000E9463065C0183E391E00E9463064501FA
:10067000BB0CAA08BB08BA2CA92C982C8824092EDC
:10068000000CAA0BBB0BDC01992788278829992924
:10069000AA29BB294701FF0CAA08BB08882A992A66
:1006A000AA2ABB2A83E391E00E946306AC01990F5A
:1006B000660B770B742F662755274427842A952AC3
:1006C000A62AB72A0F2EF3E3EF2EF1E0FF2EF02D2E
:1006D000D701ED91FC910680F781E02DC7010995C6
:1006E000D7015296ED91FC91539780818F7E808344
:1006F0005296ED91FC9153978081877F808352962B
:10070000ED91FC91539780818F7780835296ED9184
:10071000FC91539780818F7D80835A968C915A9754
:1007200059968C9326E0B501A401C7010E944A089E
:1007300082C283E391E00E94850618161906CCF761
:1007400083E391E00E946306F82E682F617080E1D8
:100750000E94B308F1FA662760F981E10E94B308AC
:10076000F2FA662760F982E10E94B308F3FA66277D
:1007700060F983E10E94B3085EC283E391E00E94C6
:10078000850618161906CCF783E391E00E946306EC
:100790008093D9020F2EF6ED8F2EF2E09F2EF02DD2
:1007A00072010F2EF6EDAF2EF2E0BF2EF02DF40108
:1007B00041914F01D7016D917D917D018091CF02D3
:1007C0000E940A09EA14FB0491F735C283E391E021
:1007D0000E9485060A97D4F383E391E00E946306A2
:1007E0008093CF02E6EDF2E0FB83EA830F2EF6ED75
:1007F0008F2EF2E09F2EF02D520183E391E00E94B4
:1008000063067C0183E391E00E9463068B871A866E
:100810008A859B85E82AF92AD501ED92FD925D0132
:1008200083E391E00E946306EA81FB818193FB836D
:10083000EA83A814B90409F7FEC183E391E00E949A
:10084000850618161906CCF783E391E00E9463062B
:10085000E0913301F09134010190F081E02D60E3EB
:1008600083E391E00995E7C10F2EF3E3EF2EF1E06A
:10087000FF2EF02DD701ED91FC910280F381E02D48
:1008800044E050E062E171E0C7010995D701ED91C4
:10089000FC910190F081E02D63E3C701099567E1C8
:1008A00071E0C7010E94A907F301428150E060E0B6
:1008B00070E020E1C7010E944207D30111964C91DC
:1008C00050E060E070E020E1C7010E944207F301C0
:1008D000408150E060E070E020E1C7010E944207E3
:1008E0006EE171E0C7010E94A9074091CF0250E07C
:1008F00060E070E020E1C7010E944207D2014D9103
:100900005C9160E070E020E1C7010E9442076CE169
:1009100071E0C7010E94A907E6EDF2E0408150E0D6
:1009200060E070E020E1C7010E94420766E271E0EA
:10093000C7010E94A9074091CF0250E060E070E03B
:1009400020E1C7010E944207D20112964D915C91AD
:10095000139760E070E020E1C7010E9442076CE15C
:1009600071E0C7010E94A9074091D70250E060E002
:1009700070E020E1C7010E94420766E271E0C70112
:100980000E94A9074091CF0250E060E070E020E1B2
:10099000C7010E944207F2014481558160E070E086
:1009A00020E1C7010E94420764E271E0C7010E9492
:1009B000A9070F2EF0ECEF2EFF24FA94F02DB701CB
:1009C00080E00E94190A682F83E391E00E94A1074A
:1009D000FFEFEF1AFF0A34EDE3163FEFF30679F766
:1009E00064E271E083E391E00E94A90724C160E022
:1009F00070E080EC0E94190A682F83E391E00E9466
:100A0000A10744E060E272E280E00E940A0960E02F
:100A100070E080EC0E94190A682F83E391E00E9445
:100A2000A10709C161E080E10E94B30860E081E1B3
:100A30000E94B30861E082E10E94B30861E083E1B3
:100A40000E94B30849E060E074E280E00E940A0975
:100A500060E074E280E00E94190A48E261E074E21A
:100A600080E00E940A0944E861E074E280E00E94AC
:100A70000A0946E060E074E280E00E940A0949E366
:100A800060E074E280E00E940A0960E074E280E0C5
:100A90000E94190A8A3239F469E271E083E391E035
:100AA0000E94A90706C06CE271E083E391E00E9416
:100AB000A90760E074E280E00E94190A682F83E3CE
:100AC00091E00E94C506B7C083E391E00E948506CD
:100AD0000497D4F383E391E00E946306B82E83E386
:100AE00091E00E9463067C0183E391E00E9463062B
:100AF0008D871C868C859D85E82AF92A83E391E001
:100B00000E94630694E7991208C0BB0C9F2D991FA1
:100B10009927991FB92A6894F7F8482FB7018B2DA8
:100B20000E940A0988C083E391E00E948506059728
:100B3000D4F383E391E00E9463065C0183E391E0D8
:100B40000E9463068F871E86AE85BF85AA2ABB2AB0
:100B500083E391E00E9463068A8383E391E00E942D
:100B600063067C0183E391E00E946306449A409A05
:100B7000898B188AE889F989EE2AFF2A47018A0CAD
:100B80009B1CFF24FA94FFEFFF121FC0D6018C912B
:100B900085FFFCCF32E5F10130830F2EF0EDEF2E13
:100BA000F1E0FF2EF02D83E391E00E9485061816F8
:100BB0001906CCF783E391E00E946306D7018D9379
:100BC0007D01A017B10779F7F12CEF2DF0E0E0538C
:100BD000FE4F4081B5018A810E940A09BFEFAB1A1E
:100BE000BB0AF3948A149B0471F6449A2A9A40989B
:100BF000F601808185FFFCCF85E4D1018C931BC079
:100C00000F2EF3E3EF2EF1E0FF2EF02DD701ED9143
:100C1000FC910280F381E02D44E050E062E171E05C
:100C2000C7010995D701ED91FC910190F081E02D6C
:100C300063E3C70109950E94360773CBCF92DF9219
:100C4000EF92FF920F931F93CF93DF9341155105BE
:100C5000C1F06A018C01E62EF72EC0E0D0E0D7018A
:100C60006D917D01D801ED91FC910190F081E02D15
:100C7000C8010995892B39F02196CC16DD0679F744
:100C800002C0C0E0D0E0CE01DF91CF911F910F9163
:100C9000FF90EF90DF90CF900895089580E090E06E
:100CA0000895FC01238D348D231738F08FE390E0F5
:100CB000821B9109830F911D0895832F90E0821B61
:100CC000910901970895FC01918D828D981761F02B
:100CD000828DDF01A80FB11D5D968C91928D9F5F73
:100CE0009F73928F90E008958FEF9FEF0895FC011E
:100CF000918D828D981731F0828DE80FF11D858DD1
:100D000090E008958FEF9FEF0895FC01918D228D63
:100D1000892F90E0805C9F4F821B91098F739927E8
:100D2000089583E391E00E94850621E0892B09F470
:100D300020E0822F0895FC01848DDF01A80FB11DF2
:100D4000A35ABF4F8C91248D30E02F5F3F4F2F73FC
:100D50003078332334F421503109206C3F6F2F5FFA
:100D60003F4F248FA689B7898C93A089B1898C9134
:100D700080648C93938D848D981306C00288F389C8
:100D8000E02D80818F7D808308950F931F93CF93F3
:100D9000DF93FC0181E0808F938D848D981322C0B6
:100DA000A089B1898C9185FD2FC01CC00FB607FCAE
:100DB00008C0E889F989808185FF03C0CE010E94BF
:100DC0009B069C8D091791F38B8DFE01E80FF11D99
:100DD000E35AFF4F10830B8FEA89FB898081806281
:100DE00080831BC0238D30E02F5F3F4F2F733078FF
:100DF000332334F421503109206C3F6F2F5F3F4F74
:100E0000162FEF01022FDDCFA689B7896C930088DA
:100E1000F189E02D80818064808381E090E0DF9122
:100E2000CF911F910F910895CF93DF93EC01888D9F
:100E300081110FC018C00FB607FC0DC0908195FF3F
:100E40000AC0A889B9898C9185FF05C0CE010E948E
:100E50009B06EA89FB89908195FDEDCFA889B98928
:100E60008C9186FFE8CFDF91CF91089580E090E0EC
:100E7000892B29F00E94910681110E94000008959B
:100E80000E94480B8F929F92AF92BF92EF92FF9277
:100E90000F931F93CF93DF93CDB7DEB7A1970FB614
:100EA000F894DEBF0FBECDBF7C01CB01BA0119A201
:100EB000223008F42AE08E010F5D1F4F822E912C04
:100EC000A12CB12CA50194010E94200BE62F622FCA
:100ED000732F842F952F01501109EA3014F4E05D2F
:100EE00001C0E95CD801EC9361157105810591059C
:100EF00049F70115110591F0F80101900020E9F77B
:100F00003197AF01401B510BD701ED91FC9102804D
:100F1000F381E02DB801C701099502C080E090E09F
:100F2000A1960FB6F894DEBF0FBECDBFDF91CF9173
:100F30001F910F91FF90EF90BF90AF909F908F9077
:100F40000895DC01ED91FC910190F081E02D09956F
:100F500008956115710581F0FB0101900020E9F70A
:100F60003197AF01461B570BDC01ED91FC910280DC
:100F7000F381E02D0995089580E090E00895E3E382
:100F8000F1E01382128288EE93E0A0E0B0E0848367
:100F90009583A683B78384E091E09183808385EC79
:100FA00090E09587848784EC90E09787868780EC33
:100FB00090E0918B808B81EC90E0938B828B82EC24
:100FC00090E0958B848B86EC90E0978B868B118ECE
:100FD000128E138E148E08951F920F920FB60F92D9
:100FE00011242F933F934F935F936F937F938F932E
:100FF0009F93AF93BF93EF93FF9383E391E00E949E
:101000009B06FF91EF91BF91AF919F918F917F913F
:101010006F915F914F913F912F910F900FBE0F9065
:101020001F9018951F920F920FB60F9211242F93B5
:101030008F939F93AF93BF93EF93FF93E0914301FF
:10104000F0914401808182FD14C0E3E3F1E0A689C0
:10105000B7892C91818D8F5F8F73928D891771F075
:10106000DF01E18DF0E0ED5CFE4F258F59968C930A
:1010700005C0E0914901F0914A018081FF91EF9113
:10108000BF91AF919F918F912F910F900FBE0F90B5
:101090001F901895BF92CF92DF92EF92FF920F931D
:1010A0001F93CF93DF93EC016A017B01B22EE88995
:1010B000F98982E080834115514E61057105B1F0D7
:1010C00060E079E08DE390E0A70196010E94200B9B
:1010D00089019A0101501109210931093695279595
:1010E00017950795011580E11807A8F0E889F98997
:1010F000108260E874E88EE190E0A70196010E94FA
:10110000200BDA01C9010197A109B109B695A7958C
:10111000979587958C01EC85FD851083EE85FF857D
:101120000083188EEC89FD89B082EA89FB89808171
:1011300080618083EA89FB89808188608083EA8975
:10114000FB89808180688083EA89FB8980818F7D2B
:101150008083DF91CF911F910F91FF90EF90DF90EF
:10116000CF90BF90089590E0FC01EE5EFE4F249179
:10117000FC01E250FF4F3491FC01E651FF4F849196
:10118000882309F446C0222371F1233069F028F442
:101190002130B1F02230C1F026C02730C9F028300C
:1011A000E9F0243001F506C0E0E8F0E090819F7797
:1011B000908319C0E0E8F0E090819F7D908313C098
:1011C00094B59F7794BD0FC094B59F7D94BD0BC01F
:1011D000E0EBF0E090819F77908305C0E0EBF0E0DA
:1011E00090819F7D9083E82FF0E0EE0FFF1FEA5281
:1011F000FF4FA591B4918FB7F894611106C09C91EF
:10120000E32FE095E923EC9303C0EC91E32BEC93FF
:101210008FBF0895CF93DF931F92CDB7DEB72A9A81
:1012200090913001961709F12B989BB193709BB95F
:101230009BB19B013327F901EE0FFF1FEE0FFF1F3C
:10124000E92BEBB995B19C7F95B995B1022E232F6F
:10125000000C221F330B000C221F331F292B25B932
:10126000419A41982B9A60933001909131019717E0
:1012700019F195B19E7E95B99BB193709BB99BB1C5
:10128000272F30E0F901EE0FFF1FEE0FFF1FE92BB4
:10129000EBB995B19C7F95B995B1022E232F000C27
:1012A000221F330B000C221F331F292B25B9419A13
:1012B00041982C9A7093310190913201891719F15C
:1012C00095B19C7D95B99BB193709BB99BB1282F2B
:1012D00030E0B901660F771F660F771F692B6BB976
:1012E00095B19C7F95B995B1022E232F000C221F3A
:1012F000330B000C221F331F292B25B9419A41982B
:101300002D9A809332018BB183708BB92BB150E051
:10131000CA01880F991F880F991F822B8BB985B13D
:101320008C7F85B985B1042E452F000C441F550BC9
:10133000000C441F551F482B45B9409A8FB789832D
:10134000F8942A9889818FBF429A0000000000001B
:1013500000000000000000000000449800000000B1
:10136000000000000000000000000000000000007D
:10137000000000000000000000000000000000006D
:10138000000000000000000000000000000000005D
:10139000000000000000000000000000449A00006F
:1013A000000000000000000000000000000000003D
:1013B00000000000000000000000000000002A9A69
:1013C00040980F90DF91CF910895482F85B127EF76
:1013D0003FEF042E02C0220F331F0A94E2F72823A6
:1013E00025B99BB193709BB98BB170E09B01220F23
:1013F000331F220F331F282B2BB995B19C7F95B932
:1014000085B1062E672F000C661F770B000C661F38
:10141000771F682B65B9419A419855B128E030E0B3
:10142000C90102C0880F991F4A95E2F7852B85B93B
:101430000895CF93DF931F92CDB7DEB70000000071
:10144000000000000000000000000000000000009C
:1014500000000000000000000000000042982A9AEE
:1014600090913001961709F12B989BB193709BB91D
:101470009BB19B013327A901440F551F440F551FF2
:10148000492B4BB995B19C7F95B995B1022E232F6D
:10149000000C221F330B000C221F331F292B25B9F0
:1014A000419A41982B9A609330019091310197179E
:1014B00019F195B19E7E95B99BB193709BB99BB183
:1014C000272F30E0A901440F551F440F551F492B0A
:1014D0004BB995B19C7F95B995B1022E232F000C85
:1014E000221F330B000C221F331F292B25B9419AD1
:1014F00041982C9A7093310190913201891719F11A
:1015000095B19C7D95B99BB193709BB99BB1282FE8
:1015100030E0A901440F551F440F551F492B4BB90B
:1015200095B19C7F95B995B1022E232F000C221FF7
:10153000330B000C221F331F292B25B9419A4198E8
:101540002D9A80933201000000000000000000008E
:10155000000000000000000000000000000000008B
:1015600000000000000042988AB183708AB984B1FB
:101570008C7F84B98FB78983F8942A9889818FBF2B
:1015800089B123B12A9A9AB19C6F9AB994B19360A8
:1015900094B9429A429A90E4299F90011124869529
:1015A0008695822B0F90DF91CF9108951F920F9215
:1015B0000FB60F9211242F933F938F939F93AF9366
:1015C000BF938091DE029091DF02A091E002B09182
:1015D000E1023091DD0223E0230F2D3720F4019644
:1015E000A11DB11D05C026E8230F0296A11DB11D46
:1015F0002093DD028093DE029093DF02A093E0024D
:10160000B093E1028091D9029091DA02A091DB02BD
:10161000B091DC020196A11DB11D8093D902909377
:10162000DA02A093DB02B093DC02BF91AF919F91ED
:101630008F913F912F910F900FBE0F901F90189593
:10164000A1E21A2EAA1BBB1BFD010DC0AA1FBB1FC6
:10165000EE1FFF1FA217B307E407F50720F0A21B38
:10166000B30BE40BF50B661F771F881F991F1A94A5
:1016700069F760957095809590959B01AC01BD01CF
:10168000CF010895EE0FFF1F0590F491E02D09940E
:0E16900081E090E0F8940C944D0BF894FFCF9D
:10169E0000000000C5061E065106140785066306E7
:1016AE007706484B4146000A414275733A000A4696
:1016BE006173683A0A002C09004F4B004E47000038
:00000001FF
