:100000000C946D010C9495010C9495010C94950140
:100010000C9495010C9495010C9495010C94950108
:100020000C9495010C9495010C9495010C949501F8
:100030000C9495010C9495010C9495010C949501E8
:100040000C9439270C9495010C94BD240C9497249E
:100050000C9495010C9495010C9495010C949501C8
:100060000C94B5250C9495017A03C10AC10AC10A02
:10007000C10AD8043C05C10AC10AC10AC10AC10AA1
:10008000C10AC10AC10AC10AC10A880215080A0ABE
:10009000C10AC10A390AC10AC10AC10AC10AC10A90
:1000A000C10AC10AC10AC10A7A0315048B04C10A34
:1000B000C10AAF040F05C10A4A05C10AC10AC10A33
:1000C000C10AC10AC10AC10AC10A8802E0060A0AB5
:1000D000C10AA60A390A0818C2170D18C717CC1783
:1000E000D117FF17FF17F81809191A192B193C19FE
:1000F0004D195E196A19C726CB26CB26CB26CB26EF
:10010000CB26CB26CB26D525CB26CB26CB26CB265E
:10011000CB26CB26CB26D525CB26CB26CB26CB264E
:10012000CB26CB26CB26DD25CB26CB26CB26CB2636
:10013000CB26CB26CB260326CB26CB26CB26CB26FF
:10014000CB26CB26CB26DD25CB26CB26CB26CB2616
:10015000CB26CB26CB260926CB26CB26CB26CB26D9
:10016000CB26CB26CB260F26CB26CB26CB26CB26C3
:10017000CB26CB26CB262426CB26CB26CB26CB269E
:10018000CB26CB26CB264E26CB26CB26CB26CB2664
:10019000CB26CB26CB261826CB26CB26CB26CB268A
:1001A000CB26CB26CB263226CB26CB26CB26CB2660
:1001B000CB26CB26CB265126CB26CB26CB26CB2631
:1001C000CB26CB26CB265126CB26CB26CB26CB2621
:1001D000CB26CB26CB265126CB26CB26CB26CB2611
:1001E000CB26CB26CB265126CB26CB26CB26CB2601
:1001F000CB26CB26CB265A26CB26CB26CB26CB26E8
:10020000CB26CB26CB268E26CB26CB26CB26CB26A3
:10021000CB26CB26CB265A26CB26CB26CB26CB26C7
:10022000CB26CB26CB268E26CB26CB26CB26CB2683
:10023000CB26CB26CB267226CB26CB26CB26CB268F
:10024000CB26CB26CB269226CB26CB26CB26CB265F
:10025000CB26CB26CB269226CB26CB26CB26CB264F
:10026000CB26CB26CB26A726CB26CB26CB26CB262A
:10027000CB26CB26CB26C126CB26CB26CB26CB2600
:10028000CB26CB26CB26C126000000002500280067
:100290002B0000000000240027002A0004040404AE
:1002A0000404040402020202020203030303030320
:1002B00001020408102040800102040810200102FD
:1002C00004081020000000080002010000030407D9
:1002D0000000000000000000DC2611241FBECFEF4C
:1002E000D8E0DEBFCDBF11E0A0E0B1E0EEEFF4E575
:1002F00002C005900D92AA35B107D9F724E0AAE50E
:10030000B1E001C01D92A835B207E1F711E0CDE6DA
:10031000D1E004C02197FE010E94A527CC36D10769
:10032000C9F70E9497010C947D2A0C940000CF938A
:10033000DF93CDB7DEB767970FB6F894DEBF0FBE79
:10034000CDBF789484B5826084BD84B5816084BD5E
:1003500085B5826085BD85B5816085BDEEE6F0E03E
:10036000808181608083E1E8F0E01082808182609A
:100370008083808181608083E0E8F0E0808181601B
:100380008083E1EBF0E0808184608083E0EBF0E04B
:10039000808181608083EAE7F0E0808184608083EF
:1003A0008081826080838081816080838081806899
:1003B00080831092C10020E041E060E081E00E9473
:1003C000291F2AE030E0C9019927FC01E055FD4FC3
:1003D0004491FC01E456FD4F8491882399F090E00C
:1003E000880F991FFC01EE56FD4FA591B4918857D7
:1003F0009D4FFC01859194918FB7F8949C91492B66
:100400004C938FBF2F5F3F4F24313105E1F660E001
:100410008AE00E945E2561E08AE00E945E2561E03C
:100420008BE00E945E2561E08CE00E945E2561E029
:100430008DE00E945E2560E08FE00E945E2560E016
:100440008EE00E945E2560E080E10E945E2560E013
:1004500081E10E945E2561E082E10E945E2561E00B
:1004600083E10E945E258AB18C6F8AB984B1836072
:1004700084B92A9A60E080E00E9404220AE511E033
:10048000D8011C9260E081E00E940422F8011182F0
:1004900060E082E00E940422D80112961C9226E0BD
:1004A00040E052EC61E070E08BE193E00E94F524C3
:1004B0000F2EFEE54F2EF2E05F2EF02D0F2EF0EC0A
:1004C0006F2E712CF02D0F2EF6EC2F2E312CF02DDF
:1004D0000DE512E00F2EFAE5CF2EF1E0DF2EF02D24
:1004E0008BE193E00E949B22892BD1F38BE193E077
:1004F0000E947922982E9927FC01E154F109E733F3
:10050000F10510F00C94C10AEC5CFF4F0C94A52788
:100510008BE193E00E949B220597D4F38BE193E05B
:100520000E9479227C018BE193E00E9479228B87E3
:100530001A86EA85FB85EE2AFF2A8BE193E00E946A
:100540007922882E8BE193E00E9479225C018BE175
:1005500093E00E9479228D871C866C857D856A29AF
:100560007B296E0D7F1D582D550FE92DF52F982CE9
:10057000E23749F4BF2DBB1FBB27BB1FAB2EAF2AF1
:10058000C701906802C0C701A92C2A9AD6012C91F4
:10059000281701F12B982BB123702BB9BBB09C010C
:1005A0003327A901440F551F440F551F4B294BB941
:1005B00045B14C7F45B945B1022E232F000C221FB7
:1005C000330B000C221F331F242B25B9419A41986D
:1005D0002B9A8C93D60111962C911197291719F10A
:1005E00085B18E7E85B98BB183708BB98BB1292F84
:1005F00030E0A901440F551F440F551F482B4BB93C
:1006000085B18C7F85B985B1022E232F000C221F66
:10061000330B000C221F331F282B25B9419A419818
:100620002C9A11969C93D60112968C9112978A154A
:1006300019F185B18C7D85B98BB183708BB94BB1C4
:100640008A2D90E09C01220F331F220F331F242B91
:100650002BB925B12C7F25B925B1082E892F000C87
:10066000881F990B000C881F991F822B85B9419A0E
:1006700041982D9A1296AC9242988AB183708AB9A9
:1006800084B18C7F84B98FB78F83F8942A988F8137
:100690008FBF00000000000000000000000000000C
:1006A000000000000000000000000000000000004A
:1006B000000029B183B1B0E48B9FC0011124922FB7
:1006C00096959695982B2A9A8AB18C6F8AB984B19F
:1006D000836084B9429AD3018C9185FFFCCFD1010C
:1006E0009C93BFEFEB1AFB0AE616F70609F040CF22
:1006F0000C94C10A8BE193E00E949B220397D4F3F0
:100700008BE193E00E9479227C018BE193E00E94CF
:1007100079228F871E86EE85FF85EE2AFF2A8BE1E0
:1007200093E00E947922F1E69F1208C0880F9F2D66
:10073000991F9927991F892B6894F7F82A9AD6014F
:100740009C919E1501F12B989BB193709BB99BB125
:1007500097013327A901440F551F440F551F492BFB
:100760004BB995B19C7F95B995B1022E232F000C02
:10077000221F330B000C221F331F292B25B9419A4E
:1007800041982B9AEC92F60191819F1511F195B148
:100790009E7E95B99BB193709BB99BB12F2D30E094
:1007A000A901440F551F440F551F492B4BB995B153
:1007B0009C7F95B995B1022E232F000C221F330B7D
:1007C000000C221F331F292B25B9419A41982C9ADE
:1007D000F182D60112969C911297981711F40C94FD
:1007E000C10A95B19C7D95B99BB193709BB99BB1A2
:1007F000282F30E0A901440F551F440F551F492BE6
:100800004BB995B19C7F95B995B1022E232F000C61
:10081000221F330B000C221F331F292B25B9419AAD
:1008200041982D9A12968C93ACC68BE193E00E946E
:100830009B220497D4F38BE193E00E9479227C0100
:100840008BE193E00E9479225C018BE193E00E94AE
:1008500079224501BB0CAA08BB08BA2CA92C982CFC
:100860008824092E000CAA0BBB0BDC0199278827D2
:1008700088299929AA29BB294701FF0CAA08BB0886
:10088000882A992AAA2ABB2A8BE193E00E9479221E
:10089000AC01990F660B770B742F662755274427F9
:1008A000842A952AA62AB72A0F2EFBE1EF2EF3E021
:1008B000FF2EF02DD701ED91FC910680F781E02D00
:1008C000C7010995D7015296ED91FC91539780810C
:1008D0008F7E80835296ED91FC9153978081877F24
:1008E00080835296ED91FC91539780818F7780831E
:1008F0005296ED91FC91539780818F7D80835A961B
:100900008C915A9759968C9326E0B501A401C701A2
:100910000E94F52436C68BE193E00E949B221816B4
:100920001906CCF78BE193E00E947922F82E682F0C
:10093000617080E10E945E25F1FA662760F981E12D
:100940000E945E25F2FA662760F982E10E945E2528
:10095000F3FA662760F983E10E945E2512C68BE1F7
:1009600093E00E949B2218161906CCF78BE193E0C6
:100970000E947922809367020F2EF4E68F2EF2E018
:100980009F2EF02D72010F2EF4E6AF2EF2E0BF2E57
:10099000F02DF40141914F01D7016D917D917D01C1
:1009A00080915D020E942921EA14FB0491F7E9C5B8
:1009B0008BE193E00E949B220A97D4F38BE193E0B2
:1009C0000E94792280935D02E4E6F2E0F987E887ED
:1009D0000F2EF4E68F2EF2E09F2EF02D52018BE1C8
:1009E00093E00E9479227C018BE193E00E947922BE
:1009F000898B188A28893989E22AF32AD501ED9250
:100A0000FD925D018BE193E00E947922E885F985F2
:100A10008193F987E887A814B90409F7B2C58BE177
:100A200093E00E949B2218161906CCF78BE193E005
:100A30000E9479229C01207F332720333105B1F4B5
:100A40009C013695279536952795369527952170E3
:100A5000AC0156954795569547954170BC017695E2
:100A60006795617081700E94291F06C020E041E0F7
:100A700060E081E00E94291FE0911B03F0911C03BC
:100A800060915D0160630190F081E02D8BE193E066
:100A9000099577C50F2EFBE1EF2EF3E0FF2EF02D29
:100AA000D701ED91FC910280F381E02D44E050E00C
:100AB00066E371E0C7010995D701ED91FC910190C2
:100AC000F081E02D63E3C70109956BE371E0C70195
:100AD0000E94812480915D01811103C060E371E077
:100AE00002C06AE271E08BE193E00E94812461E43C
:100AF00071E08BE193E00E948124F601428150E095
:100B000060E070E020E18BE193E00E941A24D601BE
:100B100011964C9150E060E070E020E18BE193E0B1
:100B20000E941A24F601408150E060E070E020E16C
:100B30008BE193E00E941A2468E471E08BE193E07A
:100B40000E94812440915D0250E060E070E020E16D
:100B50008BE193E00E941A24D2014D915C9160E0F8
:100B600070E020E18BE193E00E941A2466E471E0DA
:100B70008BE193E00E948124E4E6F2E0408150E0C2
:100B800060E070E020E18BE193E00E941A2460E5D0
:100B900071E08BE193E00E94812440915D0250E07E
:100BA00060E070E020E18BE193E00E941A24D20122
:100BB00012964D915C91139760E070E020E18BE11B
:100BC00093E00E941A2466E471E08BE193E00E94B6
:100BD00081244091650250E060E070E020E18BE10B
:100BE00093E00E941A2460E571E08BE193E00E949B
:100BF000812440915D0250E060E070E020E18BE1F3
:100C000093E00E941A24F2014481558160E070E073
:100C100020E18BE193E00E941A246EE471E08BE105
:100C200093E00E9481240F2EF0ECEF2EFF24FA9423
:100C3000F02D000000000000000000000000000097
:100C400000000000000000000000000000000000A4
:100C5000000042982A9AD6018C918E1501F12B98AA
:100C60008BB183708BB94BB1C70199279C01220FBF
:100C7000331F220F331F242B2BB925B12C7F25B90D
:100C800025B1082E892F000C881F990B000C881F96
:100C9000991F822B85B9419A41982B9AEC92F601C3
:100CA00081818F1511F185B18E7E85B98BB18370ED
:100CB0008BB94BB18F2D90E09C01220F331F220F77
:100CC000331F242B2BB925B12C7F25B925B1082E34
:100CD000892F000C881F990B000C881F991F822BED
:100CE00085B9419A41982C9AF182D60112968C913D
:100CF0001297882391F085B18C7D85B98BB1837073
:100D00008BB98BB18BB985B18C7F85B985B185B92C
:100D1000419A41982D9A12961C9200000000000002
:100D200000000000000000000000000000000000C3
:100D30000000000000000000000042988AB18370AB
:100D40008AB984B18C7F84B98FB78E83F8942A983E
:100D50008E818FBF00000000000000000000000036
:100D60000000000000000000000000000000000083
:100D70000000000069B193B12A9A8AB18C6F8AB9D8
:100D800084B1836084B9429A429AB0E49B9FC001C7
:100D9000112466956695682B8BE193E00E94792477
:100DA000EFEFEE1AFE0AF4EDEF16FFEFFF0609F083
:100DB00040CF6EE471E08BE193E00E948124E1C3B7
:100DC0000000000000000000000000000000000023
:100DD0000000000000000000000000000000000013
:100DE00042982A9AD6018C91882379F02B988BB15E
:100DF00083708BB98BB18BB985B18C7F85B985B187
:100E000085B9419A41982B9A1C92F60181818823D9
:100E100089F085B18E7E85B98BB183708BB98BB12A
:100E20008BB985B18C7F85B985B185B9419A4198D7
:100E30002C9A1182D60112968C911297803CA1F0C7
:100E400085B18C7D85B98BB183708BB98BB18BB932
:100E500085B18C7F85B985B1836085B9419A419808
:100E60002D9A80EC12968C93000000000000000088
:100E70000000000000000000000000000000000072
:100E8000000000000000000042988AB183708AB917
:100E900084B18C7F84B98FB78D83F8942A988D8123
:100EA0008FBF0000000000000000000000000000F4
:100EB0000000000000000000000000000000000032
:100EC000000069B183B12A9A9AB19C6F9AB994B122
:100ED000936094B9429A429AB0E48B9FC001112466
:100EE00066956695682B8BE193E00E94792444E037
:100EF00060E272E280E00E94292100000000000010
:100F000000000000000000000000000000000000E1
:100F10000000000000000000000042982A9AF6013C
:100F20008081882379F02B988BB183708BB98BB13A
:100F30008BB985B18C7F85B985B185B9419A4198C6
:100F40002B9A1082D60111968C911197882391F0DB
:100F500085B18E7E85B98BB183708BB98BB18BB91E
:100F600085B18C7F85B985B185B9419A41982C9A14
:100F700011961C92F6018281803C99F085B18C7D9E
:100F800085B98BB183708BB98BB18BB985B18C7FEF
:100F900085B985B1836085B9419A41982D9A80ECD5
:100FA000828300000000000000000000000000003C
:100FB0000000000000000000000000000000000031
:100FC000000042988AB183708AB984B18C7F84B959
:100FD0008FB78C83F8942A988C818FBF0000000013
:100FE0000000000000000000000000000000000001
:100FF00000000000000000000000000069B183B1A3
:101000002A9A9AB19C6F9AB994B1936094B9429A12
:10101000429AF0E48F9FC001112466956695682B73
:101020008BE193E00E947924ACC261E080E10E94F0
:101030005E2560E081E10E945E2561E082E10E9420
:101040005E2561E083E10E945E2549E060E074E294
:1010500080E00E9429210000000000000000000044
:101060000000000000000000000000000000000080
:1010700000000000000042982A9AD6018C91882333
:1010800079F02B988BB183708BB98BB18BB985B10B
:101090008C7F85B985B185B9419A41982B9A1C926C
:1010A000F6018181843299F085B18E7E85B98BB14C
:1010B00083708BB98BB180698BB985B18C7F85B911
:1010C00085B185B9419A41982C9A84E28183D601F1
:1010D00012968C911297882391F085B18C7D85B9F9
:1010E0008BB183708BB98BB18BB985B18C7F85B98E
:1010F00085B185B9419A41982D9A12961C920000AB
:1011000000000000000000000000000000000000DF
:1011100000000000000000000000000000004298F5
:101120008AB183708AB984B18C7F84B98FB78B837D
:10113000F8942A988B818FBF000000000000000007
:10114000000000000000000000000000000000009F
:10115000000000000000000089B183B12A9A8AB122
:101160008C6F8AB984B1836084B9429A429A48E20A
:1011700061E074E280E00E94292144E861E074E2C9
:1011800080E00E94292146E060E074E280E00E9455
:10119000292149E360E074E280E00E9429210000F7
:1011A000000000000000000000000000000000003F
:1011B0000000000000000000000000000000429855
:1011C0002A9AF6018081882379F02B988BB183705D
:1011D0008BB98BB18BB985B18C7F85B985B185B958
:1011E000419A41982B9A1082D60111968C911197B1
:1011F0008432A1F085B18E7E85B98BB183708BB9B5
:101200008BB180698BB985B18C7F85B985B185B982
:10121000419A41982C9A84E211968C93F60182812E
:10122000882389F085B18C7D85B98BB183708BB9AA
:101230008BB18BB985B18C7F85B985B185B9419A60
:1012400041982D9A1282000000000000000000006A
:10125000000000000000000000000000000000008E
:1012600000000000000042988AB183708AB984B1FE
:101270008C7F84B98FB78A83F8942A988A818FBF2C
:10128000000000000000000000000000000000005E
:10129000000000000000000000000000000000004E
:1012A00029B183B12A9A9AB19C6F9AB994B193608B
:1012B00094B9429A429AF0E48F9FC0011124922F70
:1012C00096959695892B8A3239F463E571E08BE126
:1012D00093E00E94812406C066E571E08BE193E013
:1012E0000E948124000000000000000000000000B7
:1012F00000000000000000000000000000000000EE
:101300000000000042982A9AD6018C91882379F037
:101310002B988BB183708BB98BB18BB985B18C7FD6
:1013200085B985B185B9419A41982B9A1C92F601ED
:101330008181843299F085B18E7E85B98BB18370BD
:101340008BB98BB180698BB985B18C7F85B985B13B
:1013500085B9419A41982C9A84E28183D6011296EC
:101360008C911297882391F085B18C7D85B98BB1D2
:1013700083708BB98BB18BB985B18C7F85B985B101
:1013800085B9419A41982D9A12961C92000000004E
:10139000000000000000000000000000000000004D
:1013A00000000000000000000000000042988AB128
:1013B00083708AB984B18C7F84B98FB78983F8949C
:1013C0002A9889818FBF0000000000000000000003
:1013D000000000000000000000000000000000000D
:1013E00000000000000069B183B12A9A9AB19C6F95
:1013F0009AB994B1936094B9429A429AB0E48B9F9F
:10140000C001112466956695682B8BE193E00E94DC
:10141000DB22B7C08BE193E00E949B220497D4F3B8
:101420008BE193E00E947922B82E8BE193E00E9439
:1014300079227C018BE193E00E9479228B8B1A8ABE
:10144000EA89FB89EE2AFF2A8BE193E00E94792248
:10145000F4E79F1208C0BB0C9F2D991F9927991F75
:10146000B92A6894F7F8482FB7018B2D0E942921DB
:1014700088C08BE193E00E949B220597D4F38BE117
:1014800093E00E9479225C018BE193E00E94792233
:101490008D8B1C8A2C893D89A22AB32A8BE193E08B
:1014A0000E94792288878BE193E00E9479227C0157
:1014B0008BE193E00E947922449A409A8F8B1E8A96
:1014C0008E899F89E82AF92A47018A0C9B1CFF24F0
:1014D000FA949FEFF9121FC0D3018C9185FFFCCFC6
:1014E00022E5F10120830F2EFEE5EF2EF1E0FF2E25
:1014F000F02D8BE193E00E949B2218161906CCF781
:101500008BE193E00E947922D7018D937D01A01792
:10151000B10779F7F12CEF2DF0E0E25AFE4F408150
:10152000B50188850E942921BFEFAB1ABB0AF3944D
:101530008A149B0471F6449A2A9A4098F301808198
:1015400085FFFCCF85E4D1018C931BC00F2EFBE1FE
:10155000EF2EF3E0FF2EF02DD701ED91FC910280EC
:10156000F381E02D44E050E066E371E0C7010995A6
:10157000D701ED91FC910190F081E02D63E3C7016B
:1015800009950E944C230C9470022091890240918D
:101590006702213208F050C08091AE028111FCCF69
:1015A00092E09093AE026093B0029FEF9093AD02F1
:1015B0001092D2022093D102222369F0E8E6F2E0F1
:1015C000A1EBB2E0215030E027593D4F91919D931E
:1015D000E217F307D9F71092D3029091D302440F88
:1015E000492B4093D3029091AF02913081F4109235
:1015F000AF02ABEBB0E0ECEBF0E09091D3029C9348
:10160000908193FDFACF95EC9093BC0003C095EECA
:101610009093BC009091AE029230E1F39091AD02B4
:101620009F3F79F08091AD02803241F08091AD0210
:10163000803331F084E005C081E003C082E001C066
:1016400083E0109288021092890210928A02089513
:10165000089580E090E00895DF92EF92FF920F935B
:101660001F93CF93DF93FB01E080F1800281138110
:10167000D481C581B681D7802E2D3F2D402F512F8B
:101680006D2F7C2F8B2F9D2D285938424C415109AD
:101690006109710981099109273938424C41510585
:1016A000610571058105910509F0A8F42E2D3F2DE6
:1016B000402F512F6D2F7C2F8B2F9D2D07E00E94E7
:1016C000DB2820833183428353836483758386833D
:1016D000978387E019C12E2D3F2D402F512F6D2F5D
:1016E0007C2F8B2F9D2D2053314548435109610993
:1016F0007109810991092F3231454843510561052E
:1017000071058105910509F0A8F42E2D3F2D402F7C
:10171000512F6D2F7C2F8B2F9D2D06E00E94DB28F3
:1017200020833183428353836483758386839783C5
:1017300086E0EAC02E2D3F2D402F512F6D2F7C2F9C
:101740008B2F9D2D2056324A40475109610971095E
:10175000810991092F35324A4047510561057105CC
:101760008105910509F0A8F42E2D3F2D402F512F12
:101770006D2F7C2F8B2F9D2D05E00E94DB28208371
:10178000318342835383648375838683978385E0A3
:10179000BBC02E2D3F2D402F512F6D2F7C2F8B2F17
:1017A0009D2D205C3444414E510961097109810924
:1017B00091092F3B3444414E510561057105810566
:1017C000910509F0A8F42E2D3F2D402F512F6D2F9C
:1017D0007C2F8B2F9D2D04E00E94DB2820833183FA
:1017E00042835383648375838683978384E08CC0AC
:1017F0002E2D3F2D402F512F6D2F7C2F8B2F9D2D68
:1018000020583948424C51406109710981099109B8
:101810002F373948424C51406105710581059105CA
:1018200009F0A8F42E2D3F2D402F512F6D2F7C2F26
:101830008B2F9D2D03E00E94DB2820833183428380
:101840005383648375838683978383E05DC02E2DE5
:101850003F2D402F512F6D2F7C2F8B2F9D2D3351DE
:101860004548534061097109810991092F3F32416F
:1018700045485340610571058105910509F0A8F4BB
:101880002E2D3F2D402F512F6D2F7C2F8B2F9D2DD7
:1018900002E00E94DB2820833183428353836483E8
:1018A00075838683978382E02FC02E2D3F2D402F96
:1018B000512F6D2F7C2F8B2F9D2D36524A40574034
:1018C00061097109810991092F3F35424A4057400A
:1018D000610571058105910509F0A8F42E2D3F2DB4
:1018E000402F512F6D2F7C2F8B2F9D2D01E00E94BB
:1018F000DB2820833183428353836483758386830B
:10190000978381E001C080E0DF91CF911F910F911B
:10191000FF90EF90DF900895DF92EF92FF920F9388
:101920001F93CF93DF93FB01E080F180028113814D
:10193000D481C581B681D7802E2D3F2D402F512FC8
:101940006D2F7C2F8B2F9D2D20583A4146405109F9
:1019500061097109810991092F373A4146405105C2
:10196000610571058105910509F0A8F42E2D3F2D23
:10197000402F512F6D2F7C2F8B2F9D2D07E00E9424
:10198000DB2820833183428353836483758386837A
:10199000978387E015C12E2D3F2D402F512F6D2F9E
:1019A0007C2F8B2F9D2D35534C40510961097109B6
:1019B000810991092F3F34434C4051056105710560
:1019C0008105910509F0A8F42E2D3F2D402F512FB0
:1019D0006D2F7C2F8B2F9D2D06E00E94DB2820830E
:1019E000318342835383648375838683978386E040
:1019F000E7C02E2D3F2D402F512F6D2F7C2F8B2F89
:101A00009D2D3A5648415109610971098109910991
:101A10002F3F394648415105610571058105910502
:101A200009F0A8F42E2D3F2D402F512F6D2F7C2F24
:101A30008B2F9D2D05E00E94DB282083318342837C
:101A40005383648375838683978385E0B9C02E2D85
:101A50003F2D402F512F6D2F7C2F8B2F9D2D345DCF
:101A60004043510961097109810991092F3F334DA3
:101A700040435105610571058105910509F0A8F400
:101A80002E2D3F2D402F512F6D2F7C2F8B2F9D2DD5
:101A900004E00E94DB2820833183428353836483E4
:101AA00075838683978384E08BC02E2D3F2D402F36
:101AB000512F6D2F7C2F8B2F9D2D385A4146510968
:101AC00061097109810991092F3F374A4146510542
:101AD000610571058105910509F0A8F42E2D3F2DB2
:101AE000402F512F6D2F7C2F8B2F9D2D03E00E94B7
:101AF000DB28208331834283538364837583868309
:101B0000978383E05DC02E2D3F2D402F512F6D2FE9
:101B10007C2F8B2F9D2D3055434C51096109710944
:101B2000810991092F3F3F44434C510561057105DF
:101B30008105910509F0A8F42E2D3F2D402F512F3E
:101B40006D2F7C2F8B2F9D2D02E00E94DB282083A0
:101B5000318342835383648375838683978382E0D2
:101B60002FC02E2D3F2D402F512F6D2F7C2F8B2FCF
:101B70009D2D305A464851406109710981099109EA
:101B80002F3F3F4946485140610571058105910548
:101B900009F0A8F42E2D3F2D402F512F6D2F7C2FB3
:101BA0008B2F9D2D01E00E94DB282083318342830F
:101BB0005383648375838683978381E001C080E0CB
:101BC000DF91CF911F910F91FF90EF90DF900895DB
:101BD0002F923F924F925F926F927F928F929F923D
:101BE000AF92BF92CF92DF92EF92FF920F931F932B
:101BF000CF93DF93CDB7DEB767970FB6F894DEBF0C
:101C00000FBECDBFB22FA32FF42FE52F862F972F16
:101C10007A2C6B2C5C2C4D2CE88A2F2C09871A8788
:101C20002B873C874D87352E6E877F87202F312F5E
:101C30004B2F5A2F6F2F7E2F2115364D41415E4776
:101C4000634071058105910569F060F01986F6ED34
:101C5000FA8721E12B873EE73C8743E04D87312C13
:101C60001E861F8629853A854B855C856D85732D7B
:101C70008E859F852F37304F4A4F52406105710541
:101C80008105910509F008F468C1282D392D472DEB
:101C9000562D652D742D8889922DA0E00E94302943
:101CA00009F0FEC0A984BA84CB84DC84ED84F32CD3
:101CB0000E851F8520E033E245E75EEE64E170E0CB
:101CC00080E090E00E943728822F932FA42FB52F19
:101CD0002C013D0120FF05C0FFEF4F1A5F0A6F0A7C
:101CE0007F0A26E04216510461047104E0F40F2ECD
:101CF000F6E04F2E512C612C712CF02D14C030E8E1
:101D0000398740EF4A875AEF5B8762E06C871D8610
:101D1000312C1E861F860F2EF6E04F2EF7E05F2E29
:101D2000612C712CF02D7FEF471651046104710472
:101D300038F00F2EFEEF4F2E512C612C712CF02D10
:101D4000A301920160E070E0CB01A984BA84CB8446
:101D5000DC84ED84F32C0E851F8549823A834B8306
:101D60005C836D837E838F83988760E070E080E082
:101D700090E00E94AB27E22EF32E042F152F262E83
:101D8000E72FB82FA92F298B3983D42EC52EB62E35
:101D9000A72E882E992E211534404B46544F64416E
:101DA00071058105910551F148F122E0421A51086F
:101DB00061087108A301920160E070E0CB014982E3
:101DC0003A834B835C836D837E838F839887A9845A
:101DD000BA84CB84DC84ED84F32C0E851F8560E00F
:101DE00070E080E090E00E94AB27298B3983D42EED
:101DF000C52EB62EA72E882E992E3AC02E2D3F2DF9
:101E0000402F512F622D7E2F8B2F9A2F2F3F37453A
:101E10004744584F6D4071058105910509F040F523
:101E2000F2E04F0E511C611C711CA301920160E095
:101E300070E0CB0149823A834B835C836D837E8360
:101E40008F839887A984BA84CB84DC84ED84F32CB7
:101E50000E851F8560E070E080E090E00E94AB2777
:101E6000298B3983D42EC52EB62EA72E882E992ED7
:101E7000552466247724ECA5FDA540825182628218
:101E8000738214821582168217821086118612863A
:101E90001386DA8ACB8ABC8AAD8A8E8A9F8A77C0FB
:101EA000A984BA84CB84DC84ED84F32C0E851F8551
:101EB000282D392D472D562D652D742D8889922D6D
:101EC0000E943528298B39834A8B5B8B6C8B7D8BE9
:101ED0008E8B9F8BA0E00E943029B1F5282D392DE3
:101EE000472D562D652D742D8889922D0E943728F7
:101EF000F22E022F132F242F352FD901C801069758
:101F0000A109B109893F9105A105B10508F03FC0BC
:101F10000F2D10E020E030E0ECA5FDA5008311833B
:101F200022833383148215821682178210861186CB
:101F300012861386F1E0F98B19821A8A1B8A1C8A91
:101F40001D8A1E8A1F8A23C0198A19821A8A1B8A2F
:101F50001C8A1D8A1E8A1F8A1AC0282D392D472DDA
:101F6000562D652D742D8889922DA0E00E94302970
:101F700009F4C5CE20E8298730EF3A874AEF4B872E
:101F800052E05C871D86312C1E861F8689CF2989E9
:101F900039814A895B896C897D898E899F89679699
:101FA0000FB6F894DEBF0FBECDBFDF91CF911F916A
:101FB0000F91FF90EF90DF90CF90BF90AF909F90E8
:101FC0008F907F906F905F904F903F902F900895EB
:101FD0002F923F924F925F926F927F928F929F9239
:101FE000AF92BF92CF92DF92EF92FF920F931F9327
:101FF000CF93DF93CDB7DEB762970FB6F894DEBF0D
:102000000FBECDBFB22FA32FF42FE52F862F972F12
:102010008F829886A986BA86CB86DC86ED86FE8678
:10202000502E19832A83232E442E352E662E772E8A
:10203000202F312F4B2F5A2F6F2F7E2F2115314CF0
:102040004A415D43654071058105910589F080F045
:10205000512CB1ECB983EAE1EA830F2EFDE32F2E78
:10206000F02D0F2EF5E04F2EF02D312C612C712C20
:10207000252D39814A81522D642D732D862D972D62
:102080002F37F0EF3F07FAEF4F07F2E05F076105E8
:1020900071058105910509F008F4DCC121E02F8765
:1020A000252D2F3F354D41415E4763407105810528
:1020B000910509F008F41F862F81388549855A85D6
:1020C0006B857C858D859E85A0E00E94302909F076
:1020D00093C0BF85B11168C0A52CB980CA80D22C2D
:1020E000E42CF32C062D172D20E034E04BE654EFC2
:1020F00064E170E080E090E00E943728922EB32FD8
:10210000F42FE52FA5E00E94302961F0A7E00E949E
:10211000302919F50F2EF6E09F2EF02DB0E0F0E0FB
:10212000E0E01BC06894992492F8B0E0F0E0E0E0B1
:1021300014C06894552457F8E0EFE983FAEFFA8366
:102140006894222421F8412C312C612C712C689444
:10215000992493F8B7E0F0E0E0E09B82BC83FD8334
:10216000EE83A52CB980CA80D22CE42CF32C062D4A
:10217000172D292D3B2F4F2F5E2F60E070E080E060
:1021800090E00E94AB272F83388749875A876B8757
:102190007C878D879E8710E0812C912C540183943D
:1021A00080E090E0DC01EAC0252D39814A81522D82
:1021B000642D732D862D972D02E00E94DB282F833E
:1021C000388749875A876B877C878D879E872F85BD
:1021D000213009F45CC110E0812C912C54018394CE
:1021E00080E090E0DC0124E030E040E050E02B8330
:1021F0003C834D835E83C2C0A52CB980CA80D22C9B
:10220000E42CF32C062D172D2F81388549855A850E
:102210006B857C858D859E850E9437282B833C832A
:102220004D835E838B819C81AD81BE810697A10524
:10223000B105E8F40F2EF6E0AF2EF02DB12CC12C35
:10224000D12CE12CF12C00E010E02F81388549855C
:102250005A856B857C858D859E850E943728522EF8
:1022600039834A83252E462E372E682E792E2B81D0
:102270003C814D815E812930374041055105F8F0A0
:102280006894AA24A3F80F2EF7E0BF2EF02DC12CDE
:10229000D12CE12CF12C00E010E02F81388549850C
:1022A0005A856B857C858D859E850E943728522EA8
:1022B00039834A83252E462E372E682E792EA52C5B
:1022C000B980CA80D22CE42CF32C062D172D2F8137
:1022D000388549855A856B857C858D859E850E94CC
:1022E0003528F22FA32FB42F588B698BE72F882E18
:1022F000992E05E00E94DB28AF2EBA2ECB2ED8886F
:10230000E988FE2E082D192D0E942729A22EB32E12
:10231000C42ED52EE62EF72E8A8B192F06E00E94AA
:10232000DB280A890E94272903E00E94DB28AF2EC0
:10233000BA2ECB2ED888E988FE2E082D192D0E94A2
:10234000122906E00E94DB28A52CB980CA80D22C75
:10235000E42CF32C062D172D0E943728F22FE32FA3
:102360008F2F9E2FA42FB52F0097A105B10509F03F
:10237000C8C0812C912C54018394CCC0880F991F24
:10238000AA1FBB1F880F991FAA1FBB1F880F991F69
:10239000AA1FBB1F880F991FAA1FBB1F880F991F59
:1023A000AA1FBB1F880F991FAA1FBB1FBC01CD010D
:1023B000660F771F881F991FCB80DC80ED80FE8021
:1023C000CC0CDD1CEE1CFF1CCC0CDD1CEE1CFF1C21
:1023D000CC0CDD1CEE1CFF1CCC0CDD1CEE1CFF1C11
:1023E000CC0CDD1CEE1CFF1CCC0CDD1CEE1CFF1C01
:1023F000CC0CDD1CEE1CFF1CA2E0DA1AE108F1088F
:10240000A50194010E948327C20ED31EE41EF51E6F
:10241000EFA1F8A5C082D182E282F3826483758342
:102420008683978380869186A286B386112349F09E
:10243000252D39814A81522D642D732D862D972D9E
:102440006EC02F81388549855A856B857C858D8541
:102450009E8565C02F81388549855A856B857C8529
:102460008D859E85A0E00E94302909F462CE1F86EA
:102470006894552457F8F0EFF9832AEF2A8368947B
:10248000222421F8412C312C612C712CB5CEAFA126
:10249000B8A51D921D921D921C921397FD011482E6
:1024A00015821682178281E090E0A0E0B0E080877C
:1024B0009187A287B3872F81388549855A856B8597
:1024C0007C858D859E852BC0AFA1B8A51D921D92E0
:1024D0001D921C921397FD01148215821682178299
:1024E00081E090E0A0E0B0E080879187A287B38789
:1024F000252D39814A81522D642D732D862D972DDE
:102500000EC00F2EF0E48F2EF2E49F2EFFE0AF2ED0
:10251000B12CF02DFF85F130B9F211E02FCF62968A
:102520000FB6F894DEBF0FBECDBFDF91CF911F91E4
:102530000F91FF90EF90DF90CF90BF90AF909F9062
:102540008F907F906F905F904F903F902F90089565
:102550002F923F924F925F926F927F928F929F92B3
:10256000AF92BF92CF92DF92EF92FF920F931F93A1
:10257000CF93DF93CDB7DEB76A970FB6F894DEBF7F
:102580000FBECDBFE98AFA8A0B8B1C8B2D8B3E8B3D
:102590004F8B588FDA8EC98E89829A82AB82BC8229
:1025A000672B09F05EC0FC01E759FF4F0190F081F5
:1025B000E02DFF27EE0FFF1FEE0FFF1F8E0F9F1F57
:1025C000FC01E359FF4F80819181A281B3811C01FD
:1025D0002D01282F332D442D552D60E070E080E033
:1025E00090E002E00E94DB28A22CB32CC42CD52C56
:1025F000E12CF12C00E010E00E94272929873A877E
:102600004B875C87B62FA72FF82FE92F7A2F8F2FB4
:102610009E2F05E00E94DB28A22EB32EC42ED52EBD
:10262000E62EF72E082F192F29853A854B855C85D4
:102630006B2F7A2F8F2F9E2F0E941229A22CB32C42
:10264000C42CD52CE12CF12C00E010E00E941229C2
:10265000322E432E542E652E762E79878A87292E88
:102660005DC0FC01E559FF4F0190F081E02DFF278F
:10267000EE0FFF1FEE0FFF1F8E0F9F1FFC01E35990
:10268000FF4F80819181A281B3811C012D01282FF0
:10269000332D442D552D60E070E080E090E002E0A5
:1026A0000E94DB28A22CB32CC42CD52CE12CF12CBD
:1026B00000E010E00E94272929873A874B875C8732
:1026C000B62FA72FF82FE92F7A2F8F2F9E2F05E0F7
:1026D0000E94DB28A22EB32EC42ED52EE62EF72E76
:1026E000082F192F29853A854B855C856B2F7A2F0A
:1026F0008F2F9E2F0E941229A22CB32CC42CD52CD4
:10270000E12CF12C00E010E00E941229322E432E21
:10271000542E652E762E79878A87292EC980DA80F5
:10272000EB80FC80FF0CCC08DC2C760129813A81FF
:102730004B815C816C2D7C2D8C2D9C2D0FE10E949A
:10274000DB28A12C0F2EFAECBF2EF02D0F2EFAE96C
:10275000CF2EF02D0F2EFBE3DF2EF02DE12CF12CF0
:1027600000E010E00E940628A22EB32EC42ED52E23
:10277000E62EF72E082F192F232D342D452D562DFB
:10278000672D79858A85922D0E94AB270FE10E94E3
:10279000F628822E932EA42EB52EA5019401550F56
:1027A000220B322FA90129833A834B835C83282D86
:1027B000392D4A2D5B2D6981762F862F962FA32CDC
:1027C000B42CC52CD62CE72CF9840A85122D0E9436
:1027D000122929873A874B875C876D877E878F8789
:1027E000988B29893A894B895C896D897E898F8983
:1027F000988D2F3F37454744584F6D4071058105EF
:10280000910509F060F4198AB8E5BA8BE7E4EB8B1F
:10281000F8EFFC8B2DE02D8B1E8A1F8A188E4988BD
:102820005A886B887C888D889E882F88388C242DC8
:10283000352D462D572D682D792D822D932D21155F
:1028400034404B46544F6441710581059105A1F018
:1028500098F0412C6894552452F80F2EFBE66F2E09
:10286000F02D0F2EF4EF7F2EF02D0F2EF4E18F2E92
:10287000F02D912C212C312CA984BA84CB84DC84BA
:10288000ED84FE840F851889242D352D462D572D76
:10289000682D792D822D932D0E943728298B3A8B14
:1028A0004B8B5C8B322F2A8939832A834B835C8341
:1028B00029813A814B815C812F30310541055105D9
:1028C000B0F42A2D3B2D4C2D5D2D6E2D7F2D802FAC
:1028D000912F04E00E94DB280F850E942729422EB9
:1028E000532E642E752E862E972E282E392E498132
:1028F0005A816B817C814B3551056105710570F101
:1029000029853A854B855C856D857E858F8598897F
:1029100002E00E94DB28A984BA84CB84DC84ED84A5
:10292000FE840F8518890E942729A22EB32EC42E5B
:10293000D52EE62EF72EE82F192F04E00E94DB2873
:102940000E2F0E94272901E00E94DB28422E532EE1
:10295000642E752E862E972E282E392E8FA588232D
:1029600009F408C1A984BA84CB84DC84ED84FE8494
:102970000F851889242D352D462D572D682D792D3D
:10298000822D932D0E943528722E832E942EB52FE2
:10299000A62FF72FE82F592E05E00E94DB28A72C41
:1029A000B82CC92CDB2EEA2EFF2E0E2F152D0E94DF
:1029B0002729A22EB32EC42ED52EE62EF72E682E52
:1029C000192F06E00E94DB28062D0E94272903E02C
:1029D0000E94DB28A72CB82CC92CDB2EEA2EFF2E58
:1029E0000E2F152D0E94122906E00E94DB28A984D3
:1029F000BA84CB84DC84ED84FE840F8518890E9420
:102A0000372829873A874B875C87C980DA80EB8033
:102A1000FC80CC0CDD1CEE1CFF1CCC0CDD1CEE1C69
:102A2000FF1CCC0CDD1CEE1CFF1CCC0CDD1CEE1CBA
:102A3000FF1CCC0CDD1CEE1CFF1CCC0CDD1CEE1CAA
:102A4000FF1CCC0CDD1CEE1CFF1C822F932FA42F2F
:102A5000B52F880F991FAA1FBB1F880F991FAA1F88
:102A6000BB1F880F991FAA1FBB1F880F991FAA1F82
:102A7000BB1F880F991FAA1FBB1F880F991FAA1F72
:102A8000BB1FBC01CD01660F771F881F991F260150
:102A9000370152E0551A610871080F2EF0E48F2EAD
:102AA000F2E49F2EFFE0AF2EB12CF02DA501940192
:102AB0000E94832789019A01040D151D261D371DCB
:102AC000A98DBA8D0D931D932D933C931397FD0102
:102AD000648375838683978318968D929D92AD92B9
:102AE000BC921B97160127012C2D332D442D552DFB
:102AF00060E070E080E090E005E00E94DB28AC2C14
:102B0000B32CC42CD52CE12CF12C00E010E00E9459
:102B10002729A22EB32EC42ED52EE62EF72EE82F6F
:102B2000192F06E00E94DB280E2F0E94272903E0C0
:102B30000E94DB28A22CB32CC42CD52CE12CF12C28
:102B400000E010E00E94122906E00E94DB28A22E7D
:102B5000B32EC42ED52EE62EF72E082F192F298539
:102B60003A854B855C8560E070E080E090E00E94F3
:102B7000122915C1A984BA84CB84DC84ED84FE8437
:102B80000F851889242D352D462D572D682D792D2B
:102B9000822D932D0E943528F22FA32FB42F952E2E
:102BA000862E772E682E592E05E00E94DB28AF2E48
:102BB000BA2ECB2ED92CE82CF72C062D152D0E94E1
:102BC0002729A22EB32EC42ED52EE62EF72EE82FBF
:102BD000192F06E00E94DB280E2F0E94272903E010
:102BE0000E94DB28AF2EBA2ECB2ED92CE82CF72C46
:102BF000062D152D0E94122906E00E94DB28A984CB
:102C0000BA84CB84DC84ED84FE840F8518890E940D
:102C10003728822E932EA42EB52E81149104A10460
:102C2000B10429F4412C512C3201439409C00F2ED8
:102C3000F0E44F2EF2E45F2EFFE06F2E712CF02DAA
:102C4000D501C401880F991FAA1FBB1F880F991FA8
:102C5000AA1FBB1F880F991FAA1FBB1F880F991F90
:102C6000AA1FBB1F880F991FAA1FBB1F880F991F80
:102C7000AA1FBB1FBC01CD01660F771F881F991FBC
:102C8000C980DA80EB80FC80CC0CDD1CEE1CFF1CC4
:102C9000CC0CDD1CEE1CFF1CCC0CDD1CEE1CFF1C48
:102CA000CC0CDD1CEE1CFF1CCC0CDD1CEE1CFF1C38
:102CB000CC0CDD1CEE1CFF1CCC0CDD1CEE1CFF1C28
:102CC000B2E0DB1AE108F108A30192010E94832718
:102CD00089019A010C0D1D1D2E1D3F1DE98DFA8DD8
:102CE0000083118322833383648375838683978370
:102CF0004086518662867386A501940160E070E08B
:102D0000CB0189823A834B835C836D837E838F837F
:102D10009887A984BA84CB84DC84ED84FE840F85F3
:102D2000188960E070E080E090E00E94AB2712011B
:102D30002301A22CB32CC42CD52CE12CF12C00E0C7
:102D400010E00E943728222E332E442E552E662E58
:102D5000772E882E992EA984BA84CB84DC84ED84C6
:102D6000FE840F85188929893A894B895C8960E03E
:102D700070E080E090E00E94AB27A22EB32EC42E1C
:102D8000D52EE62EF72E082F192F222D332D442D68
:102D9000552D662D772D882D992D0E9412296A9622
:102DA0000FB6F894DEBF0FBECDBFDF91CF911F915C
:102DB0000F91FF90EF90DF90CF90BF90AF909F90DA
:102DC0008F907F906F905F904F903F902F900895DD
:102DD000CF93C42FFC01E258FF4F808191E0909384
:102DE0008A0280936702109288021092890288EB0F
:102DF00093E00E94E7236C2F88EB93E00E94E72387
:102E000061E088EB93E00E94C50ACF910895FF929C
:102E10000F931F93CF93DF93F42E8901FC01E258A7
:102E2000FF4F808191E090938A0280936702109215
:102E300088021092890288EB93E00E94E723FF202A
:102E400059F0E8010F0D111D699188EB93E00E9484
:102E5000E723C017D107C1F761E088EB93E00E9438
:102E6000C50ADF91CF911F910F91FF900895CF93E5
:102E7000DF93EC01C258DF4F888191E090938A0282
:102E800080936702109288021092890288EB93E087
:102E90000E94E72361E088EB93E00E94C50A8881E5
:102EA0009091AE029111FCCF91E09093AE021092FE
:102EB000B0022FEF2093AD021092D2021092D102F5
:102EC0009093D3029091D302880F892B8093D302E1
:102ED0008091AF02813081F41092AF02ABEBB0E091
:102EE000ECEBF0E08091D3028C93808183FDFACFEC
:102EF00085EC8093BC0003C085EE8093BC0080917C
:102F0000AE028130E1F38091D202811105C090912F
:102F1000D202911102C00CC091E021EB32E0ABE88B
:102F2000B2E0F90181918D938E2F821B8917D0F326
:102F30001092AC029093AB02992359F088EB93E086
:102F40000E949B232091AB029091AC022913F6CFF3
:102F500001C080E0DF91CF910895AF92BF92DF92E0
:102F6000EF92FF920F931F93CF93DF938C01EB01AE
:102F7000F42ED22E68307105C8F4FB01E559FF4FDD
:102F80000C94A5270F2EF4E3EF2EF02D4AC00F2E40
:102F9000F4E4EF2EF02D45C00F2EFCE4EF2EF02DC3
:102FA00040C00F2EF4E5EF2EF02D3BC060E00E94F4
:102FB0003717482FC630D1055CF4E12C942F937855
:102FC000D1109C6080E1F89EA0011124492B12C011
:102FD000E12CC630D10529F4942F987F492F4F2931
:102FE00009C0279739F4942F9F7880E1F89EA001BB
:102FF0001124492B6E2DC8010E94E81618C06CE5FB
:103000000E943717482F0F2EFCE5EF2EF02DE1CF51
:103010000F2EFCE2EF2EF02D04C00F2EFCE3EF2E5E
:10302000F02D6E2DC8010E943717482FC7CFDF91B2
:10303000CF911F910F91FF90EF90DF90BF90AF90D5
:1030400008950F931F93CF93DF938C01D42FC0E18A
:10305000C60F6C2F0E943717D13019F4482F4064E7
:1030600002C0482F4F7B6C2FC8010E94E816DF91E9
:10307000CF911F910F910895DF92EF92FF920F93DE
:103080001F93CF93DF937C01EB018A01D62E80E161
:10309000D80E6D2DC7010E9437170115110511F4C7
:1030A0008F7D04C00130110509F48062482F6D2D19
:1030B000C7010E94E816DD27CC0FDD1FCE0DDF1DF6
:1030C0001A870987DF91CF911F910F91FF90EF90A1
:1030D000DF9008950F931F93CF93DF93EC01062F9A
:1030E000142F63E00E943717113051F441E050E093
:1030F00002C0440F551F0A95E2F74095482308C0C7
:1031000041E050E002C0440F551F0A95E2F7482BFA
:1031100063E0CE010E94E816DF91CF911F910F91DD
:1031200008952F923F924F925F926F927F928F926B
:103130009F92AF92BF92CF92DF92EF92FF920F9346
:103140001F93CF93DF93CDB7DEB72D970FB6F894CB
:10315000DEBF0FBECDBF2C013B01BA8229873A8763
:103160004B875C87BA2C2A80CD863E2CAF2C902EC4
:10317000C984DA84EB84FC8484E190E00E944B29CA
:103180008C01E5E0E61548F1FC01D082C182662D94
:10319000660F660F660F645DC2010E9437178C7F51
:1031A0009D859370892BF80182832382B482D70195
:1031B000C601072E7CE0B695A795979587957A95D9
:1031C000D1F7702D807F992D9F70C92EC80EC582B2
:1031D000A682B32C378248E001C040E0F8E06F16C9
:1031E000710408F082C0F301ED58FF4F0C94A5273D
:1031F00098016AE2C2010E940717482DB301C2017B
:103200000E9421182BA14AA1B301C2010E94AD174F
:103210006CC0980162E3C2010E940717482DB301F8
:10322000C2010E9421182BA14AA1B301C2010E9430
:10323000AD175BC098016AE3C2010E940717482DD1
:10324000B301C2010E9421182BA14AA1B301C201FE
:103250000E94AD174AC0980162E4C2010E9407179C
:10326000482DB301C2010E9421182BA14AA1B3012C
:10327000C2010E94AD1739C098016AE4C2010E94E0
:103280000717482DB301C2010E9421182BA14AA1A2
:10329000B301C2010E94AD1728C0980162E5C201C6
:1032A0000E940717482DB301C2010E9421182BA1CB
:1032B0004AA1B301C2010E94AD1717C04B2D6AE5A8
:1032C000C2010E94E8162BA14AA1B301C2010E94CB
:1032D000AD170BC04B2D6BE5C2010E94E8162BA168
:1032E0004AA1B301C2010E94AD17C8010E94E029A2
:1032F0002D960FB6F894DEBF0FBECDBFDF91CF91F4
:103300001F910F91FF90EF90DF90CF90BF90AF9003
:103310009F908F907F906F905F904F903F902F90F5
:1033200008952F923F924F925F926F927F928F9269
:103330009F92AF92BF92CF92DF92EF92FF920F9344
:103340001F93CF93DF93CDB7DEB762970FB6F89494
:10335000DEBF0FBECDBF3C01202E312E2D873E8714
:103360004F87588B698B7A8B2701EF2829F5FC0151
:10337000E759FF4F0190F081E02DEE0FFF1FEE0F98
:10338000FF1FE80FF91FEB58FF4F80809180A2804C
:10339000B3801F92CE0101966C01E02EF12E0D85B7
:1033A0001E852F85388949895A8960E070E0C301FC
:1033B0000E94A8120F9023C0FC01E559FF4F019015
:1033C000F081E02DEE0FFF1FEE0FFF1FE80FF91F3A
:1033D000EB58FF4F80809180A280B3801F92FE0146
:1033E00031966F01E02EF12E0D851E852F853889CF
:1033F00049895A8961E070E00E94A8120F9084E127
:1034000090E00E944B298C0189859A85AB85BC850B
:10341000F8019083818339814A812B812370228333
:1034200043833483072E7CE0B695A79597958795BF
:103430007A95D1F7702D807F2D813E819F819F707D
:10344000890F85833683278341145104C1F4980181
:1034500048E06AE1C3010E940717F301E75AFF4FF2
:10346000208231828D8582839E8593838F8584839C
:1034700098899583898986839A8997831AC04A9403
:103480004528B9F4980148E062E2C3010E94071799
:10349000F301EF59FF4F208231828D8582839E8513
:1034A00093838F85848398899583898986839A8974
:1034B0009783C8010E94E02962960FB6F894DEBF98
:1034C0000FBECDBFDF91CF911F910F91FF90EF9075
:1034D000DF90CF90BF90AF909F908F907F906F9034
:1034E0005F904F903F902F9008952F923F924F9270
:1034F0005F926F927F928F929F92AF92BF92CF9284
:10350000DF92EF92FF920F931F93CF93DF93CDB78C
:10351000DEB7E8970FB6F894DEBF0FBECDBF2C0123
:1035200009A31AA32BA33CA34DA35EA36FA378A763
:10353000FAA6E9A6B9A5B63008F03FC2202E312E72
:10354000E22EF32E642E752E062F172F222D332DEB
:103550004E2D5F2D662D772D802F912FAFEF0E947E
:103560001B292E373A4146405105610571058105F9
:10357000910509F0E0F480E889A38AE18AA386E056
:103580008BA31CA21DA21EA21FA218A6689422240F
:1035900027F80F2EFAE13F2EF02D0F2EF6E0EF2E3A
:1035A000F02DF12C612C712C00E010E078C1222D5F
:1035B000332D4E2D5F2D662D772D802F912F2115C8
:1035C000314C4A415D43654071058105910509F023
:1035D00008F412C419A281EC8AA38AE18BA38DE3BB
:1035E0008CA385E08DA31EA21FA218A63201F9E1CB
:1035F0006F0E711C58AE4FAA4201F301A0E009A55D
:103600001AA5000F111F040D151D075F1F4FEB2E8C
:10361000FA2E2081318142815381648175818681B6
:10362000978138962115344E4B40544562407105C0
:103630008105910579F070F0FE1461F0D4011996BE
:103640002D913C911A97D8018D919C91281739079B
:1036500009F4C6C3F394B2E08B0E911C86E0F81215
:10366000D8CF89A49AA49924F201E80DF91DE15854
:10367000FF4F808181110DC041E069A57AA5C2018B
:103680000E946A18F201E80DF91DE158FF4F81E030
:10369000808309A11AA12BA13CA14DA15EA16FA11C
:1036A00078A5880C991C880C991C880C991CF2012F
:1036B000E80DF91DDF015996018F11961C931197A2
:1036C00012962C93129713963C93139714964C933F
:1036D000149715965C93159716966C9316971796F4
:1036E0007C93CE010D969F938F93812C912CA12CCE
:1036F000B12CC12CD12CE12CF12CC2010E94E80F7D
:103700002FA738AB49AB5AAB6BAB7CAB8DAB9EAB49
:1037100089A49AA4F401EE0FFF1FE40DF51DE184C6
:10372000F284022F132F242F352F462F572F682F67
:10373000792FC2010E9491190F900F90212C312CEA
:10374000880C991C840C951CD4011996BCA7ABA7B6
:103750005EA64DA64FA858ACF301D080E180F28060
:1037600003811481B581C680B780F8E06F0E711CAB
:103770002D2D3E2D4F2D502F612F7B2F8C2D9B2DCE
:10378000A0E00E94302909F462C0F201218532854F
:10379000EBA5FCA5808191812817390709F057C056
:1037A000D98EEA8EFB8E0C8F1D8FBE8FCF8EB8A266
:1037B000BE01675E7F4F8DA59EA50E948C0C8FABCE
:1037C000098D1A8D2B8D3C8D4D8D5E8D6F8D78A161
:1037D00081E090E08C0F9D1F9F938F938FA498A8FA
:1037E000A9A8BAA8CBA8DCA8EDA8FEA88DA59EA57F
:1037F0000E94E80F882483940F900F90298D3A8DB2
:103800004B8D5C8D6D8D7E8D8F8D98A12F3F354DAD
:1038100041415E47634071058105910509F008F457
:10382000812C8F92BFA9BF93A980BA80CB80DC8006
:10383000ED80FE800F81188529853A854B855C8552
:10384000B1018DA59EA50E9491180F900F90EFEFEA
:103850002E1A3E0AF2E04F0E511C86E02816310463
:1038600009F07ACF4DA45EA4E9A5FAA5EE0FFF1FDB
:10387000E40DF51D81859285009739F440E261EBF6
:10388000C2010E94E81680E0CBC2019709F0AAC2EB
:1038900040E861EBC2010E94E81680E0C1C289A441
:1038A0009AA49924D401AA0FBB1FAA0FBB1FAA0F69
:1038B000BB1FA40DB51DFD01799659962C9231823E
:1038C000E282F3826482758206831783F201E80D37
:1038D000F91DE158FF4F808181110DC041E069A5BC
:1038E0007AA5C2010E946A18840C951CF401E15863
:1038F000FF4F81E08083BE016F5D7F4FC2010E9458
:103900008C0C782EE9A5FAA5EE0FFF1FE40DF51D2E
:1039100081859285892BE9F4F201E75AFF4F808077
:103920009180A280B380C480D580E680F78009A111
:103930001AA12BA13CA14DA15EA16FA178A5CE013A
:103940000D969F938F93C2010E94E80F0F900F90E6
:103950001CC0F201EF59FF4F80809180A280B3809C
:10396000C480D580E680F78009A11AA12BA13CA1D3
:103970004DA15EA16FA178A5CE010D969F938F9367
:10398000C2010E94E80F0F900F901F927F92812C2E
:10399000AD84BE84CF84D888E988FA880B891C89D5
:1039A0002D893E894F89588D69A57AA5C2010E944B
:1039B00091180F900F9080E033C279A08AA09BA04D
:1039C0000CA11DA1BEA1FFA1E8A5272D382D492DD1
:1039D000502F612F7B2F8F2F9E2FAFEF0E941B291F
:1039E000263938424C415105610571058105910523
:1039F00009F060F480E889A38AE18AA386E08BA3BA
:103A00001CA21DA21EA21FA218A61FC0272D382D62
:103A1000492D502F612F7B2F8F2F9E2F2F3F354DFC
:103A200041415E47634071058105910571F068F081
:103A30008FEF89A385ED8AA381E18BA38EE78CA309
:103A400083E08DA31EA21FA218A6E9A5FAA53697AA
:103A500009F0CAC0F201EF5AFF4F20813181428143
:103A600053816481758186819781A0E00E9430290D
:103A700009F478C0709680818FA7918198ABA2815C
:103A8000A9ABB381BAAB84818BAB95819CABA6818A
:103A9000ADABB781BEABE9A1EBA7FAA1FDA72BA007
:103AA0003CA06DA07EA08FA098A4AE2EBF2EC22CED
:103AB000D32CE62CF72C082D192D2FA538A949A9B0
:103AC0005AA9682F792F8A2F9B2F0E943528A0E0B2
:103AD0000E94302909F088C12FA538A949A95AA9FF
:103AE0006BA97CA98DA99EA90E943728217030E07E
:103AF00040E050E060E070E080E090E0A0E00E94F4
:103B0000302909F073C1F201E75BFF4FA082B18257
:103B1000228233826482758286829782BE016F5DC3
:103B20007F4FC2010E942C0B782EF201EF59FF4FFC
:103B300080809180A280B380C480D580E680F780A9
:103B400009A11AA12BA13CA14DA15EA16FA178A54D
:103B5000CE010D969F938F93C2010E94E80D0F90A6
:103B60000F9026C189A1F201E75BFF4F80838AA1F4
:103B700081838BA182838CA183838DA184838EA179
:103B800085838FA1868388A58783BE016F5D7F4F64
:103B9000C2010E942C0B782E09A11AA12BA13CA1D5
:103BA0004DA15EA16FA178A5CE010D969F938F9335
:103BB000812C912CA12CB12CC12CD12CE12CF12CDD
:103BC000C2010E94E80DEE24E394F12C022F132F82
:103BD000242F352F462F572F682F792FC2010E948F
:103BE00091190F900F90E4C0F201E75BFF4F208125
:103BF0003181428153816481758186819781A0E002
:103C00000E94302909F483C0789690819FA7A181F2
:103C1000A8ABB281B9AB83818AAB94819BABA58100
:103C2000ACABB681BDAB87818EAB99A19BA7AAA196
:103C3000ADA72BA03CA06DA07EA08FA098A4A92E1C
:103C4000BA2EC22CD32CE62CF72C082D192D2FA51B
:103C500038A949A95AA96BA97CA98B2F9EA90E94B2
:103C60003528A0E00E94302909F0C2C02FA538A94C
:103C700049A95AA96BA97CA98DA99EA90E94372898
:103C8000217030E040E050E060E070E080E090E0E3
:103C9000A0E00E94302909F0ADC0A9A5BAA5BB27B4
:103CA000AA0FBB1FAA0FBB1FAA0FBB1FA40DB51DD8
:103CB000FD0179965996AC92B18222823382648258
:103CC000758286829782BE016F5D7F4FC2010E941E
:103CD0002C0B782EF201EF59FF4F80809180A2804B
:103CE000B380C480D580E680F78009A11AA12BA1FA
:103CF0003CA14DA15EA16FA178A5CE010D969F9329
:103D00008F93C2010E94E80D0F900F9051C0A9A59A
:103D1000BAA5BB27AA0FBB1FAA0FBB1FAA0FBB1FA9
:103D2000A40DB51DFD01799689A159968C938AA1A0
:103D300081838BA182838CA183838DA184838EA1B7
:103D400085838FA1868388A58783BE016F5D7F4FA2
:103D5000C2010E942C0B782E09A11AA12BA13CA113
:103D60004DA15EA16FA178A5CE010D969F938F9373
:103D7000812C912CA12CB12CC12CD12CE12CF12C1B
:103D8000C2010E94E80DE9A5FAA5EE0FFF1FE40DA0
:103D9000F51DE184F284022F132F242F352F462F97
:103DA000572F682F792FC2010E9491190F900F9001
:103DB0001F927F92812CAD84BE84CF84D888E988FD
:103DC000FA880B891C892D893E894F89588D69A5F0
:103DD0007AA5C2010E9491180F900F9080E020C038
:103DE00081E01EC080E01CC081E01AC081E018C0E4
:103DF00081E016C081E014C0222D332D4E2D5F2DA1
:103E0000662D772D802F912F2115344E4B40544530
:103E1000624071058105910509F008F440CDE6CBBB
:103E2000E8960FB6F894DEBF0FBECDBFDF91CF91FD
:103E30001F910F91FF90EF90DF90CF90BF90AF90C8
:103E40009F908F907F906F905F904F903F902F90BA
:103E50000895AF92BF92CF92DF92EF92FF920F93AD
:103E60001F93CF93DF93C82EB62EA42ED22ECCEB69
:103E7000D0E005E408831092AC021092AB021092DD
:103E80008802109289021092AE0211E01093B002E3
:103E90001092AF0261E082E10E945E2561E083E161
:103EA0000E945E25E9EBF0E080818E7F8083808137
:103EB0008D7F808388E48093B800088380914204DA
:103EC00010938A02809367021092880210928902EE
:103ED00061E088EB93E00E94C50A8111ACC160E00B
:103EE00084EC93E00E943717E82FF0E0EE0FEF2FFD
:103EF000EE1FFF0B319799F342E967EB84EC93E0F7
:103F00000E94E816C4ECD3E080E498E7ADE7B1E0A6
:103F10008093310490933204A0933304B09334041B
:103F20001092390410923A0410923B0410923C040F
:103F3000EDE1F4E0008111812281338144815581DA
:103F400066817781E12CF12CCE010E949119E5E286
:103F5000F4E00081118122813381448155816681A1
:103F60007781EE24E394F12CCE010E94911940E870
:103F700060E1CE010E94E81640E861E1CE010E94B6
:103F8000E81640E862E1CE010E94E81640E863E1ED
:103F9000CE010E94E81640E864E1CE010E94E816D6
:103FA00040E865E1CE010E94E81640E866E1CE01F6
:103FB0000E94E81640E867E1CE010E94E8164CE056
:103FC00060E1CE010E94E8164CE061E1CE010E9462
:103FD000E8164CE062E1CE010E94E8164CE063E195
:103FE000CE010E94E8164CE064E1CE010E94E81682
:103FF0004CE065E1CE010E94E8164CE066E1CE019E
:104000000E94E8164CE067E1CE010E94E816E12C20
:10401000F12C00E010E22FE530EA42E150E060E0F0
:1040200070E0CE010E949119EE24E394F12C2FE56B
:1040300030EA42E150E060E070E0CE010E94911968
:104040001A8619861C861B861E861D86188A1F8660
:104050001A8A198A1C8A1B8A81E090E09E8B8D8BBC
:10406000988F8F8B40E050E060E070E0CE010E94BE
:104070003C1840E050E061E070E0CE010E943C1846
:1040800040E050E062E070E0CE010E943C1840E069
:1040900050E063E070E0CE010E943C1840E050E048
:1040A00064E070E0CE010E943C1840E050E065E022
:1040B00070E0CE010E943C1841E050E066E070E004
:1040C000CE010E943C1841E050E067E070E0CE0174
:1040D0000E943C1840E062EACE010E94E81640E0EF
:1040E00063EACE010E94E81640E064EACE010E9435
:1040F000E81640E261EBCE010E94E81640E861EB71
:10410000CE010E94E816CDEDD3E00F2EF3E4EF2EA2
:10411000F4E0FF2EF02D00E010E0188219821A82E0
:104120001B821C821D821E821F82289640E0B801DD
:1041300084EC93E00E946A18F70111927F010F5FEF
:104140001F4F0830110549F747C0EE24E394F12CC6
:1041500000EC1AE827E437E240E050E060E070E06D
:1041600084EC93E00E94751A0FC0EE24E394F12CC6
:1041700004EC13EF25E535E140E050E060E070E04D
:1041800084EC93E00E94751A6894EE24E1F8F12C17
:1041900000E010E82FE432E140E050E060E070E041
:1041A00084EC93E00E94751A4C2D60E070E084EC82
:1041B00093E00E946A184B2D61E070E084EC93E07C
:1041C0000E946A184A2D62E070E084EC93E00E943D
:1041D0006A181092BC0032C081E080935D01E12C2E
:1041E000F12C00E010E22FE530EA42E150E060E01F
:1041F00070E084EC93E00E949119EE24E394F12C9A
:104200002FE530EA42E150E060E070E084EC93E0BA
:104210000E949119E12CF12C00E617EB23E030E825
:1042200040E050E060E070E084EC93E00E94751A9A
:10423000D1108BCF9ACF10925D01CBCFDF91CF9170
:104240001F910F91FF90EF90DF90CF90BF90AF90B4
:104250000895CF93DF931F92CDB7DEB72A9A90913E
:104260005A01961709F12B989BB193709BB99BB19A
:104270009B013327F901EE0FFF1FEE0FFF1FE92B04
:10428000EBB995B19C7F95B995B1022E232F000C07
:10429000221F330B000C221F331F292B25B9419AF3
:1042A00041982B9A60935A0190915B01971719F1ED
:1042B00095B19E7E95B99BB193709BB99BB1272F09
:1042C00030E0F901EE0FFF1FEE0FFF1FE92BEBB9F6
:1042D00095B19C7F95B995B1022E232F000C221F1A
:1042E000330B000C221F331F292B25B9419A41980B
:1042F0002C9A70935B0190915C01891719F195B12B
:104300009C7D95B99BB193709BB99BB1282F30E0F0
:10431000B901660F771F660F771F692B6BB995B1CF
:104320009C7F95B995B1022E232F000C221F330BD1
:10433000000C221F331F292B25B9419A41982D9A31
:1043400080935C018BB183708BB92BB150E0CA01B3
:10435000880F991F880F991F822B8BB985B18C7F8D
:1043600085B985B1042E452F000C441F550B000C58
:10437000441F551F482B45B9409A8FB78983F8943D
:104380002A9889818FBF429A000000000000000037
:104390000000000000000000449800000000000041
:1043A000000000000000000000000000000000000D
:1043B00000000000000000000000000000000000FD
:1043C00000000000000000000000000000000000ED
:1043D00000000000000000000000449A00000000FF
:1043E00000000000000000000000000000000000CD
:1043F0000000000000000000000000002A9A409821
:104400000F90DF91CF910895482F85B127EF3FEFAF
:10441000042E02C0220F331F0A94E2F7282325B985
:104420009BB193709BB98BB170E09B01220F331F3E
:10443000220F331F282B2BB995B19C7F95B985B1DD
:10444000062E672F000C661F770B000C661F771F68
:10445000682B65B9419A419855B128E030E0C9010F
:1044600002C0880F991F4A95E2F7852B85B90895F8
:10447000CF92DF92EF92FF920F931F93CF93DF9330
:1044800041155105C1F06A018C01E62EF72EC0E0FE
:10449000D0E0D7016D917D01D801ED91FC910190A3
:1044A000F081E02DC8010995892B39F02196CC16B1
:1044B000DD0679F702C0C0E0D0E0CE01DF91CF91F8
:1044C0001F910F91FF90EF90DF90CF900895FC0126
:1044D000238D348D231738F08FE390E0821B9109F0
:1044E000830F911D0895832F90E0821B91090197FE
:1044F0000895FC01918D828D981761F0828DDF0106
:10450000A80FB11D5D968C91928D9F5F9F73928FC6
:1045100090E008958FEF9FEF0895FC01918D828DBB
:10452000981731F0828DE80FF11D858D90E0089588
:104530008FEF9FEF0895FC01918D228D892F90E0E0
:10454000805C9F4F821B91098F73992708958BE19F
:1045500093E00E949B2221E0892B09F420E0822F26
:104560000895FC01848DDF01A80FB11DA35ABF4F30
:104570008C91248D30E02F5F3F4F2F7330783323A1
:1045800034F421503109206C3F6F2F5F3F4F248F4F
:10459000A689B7898C93A089B1898C9180648C930A
:1045A000938D848D981306C00288F389E02D808155
:1045B0008F7D808308950F931F93CF93DF93FC012A
:1045C00081E0808F938D848D981322C0A089B1895A
:1045D0008C9185FD2FC01CC00FB607FC08C0E88970
:1045E000F989808185FF03C0CE010E94B1229C8D94
:1045F000091791F38B8DFE01E80FF11DE35AFF4F70
:1046000010830B8FEA89FB898081806280831BC0C5
:10461000238D30E02F5F3F4F2F733078332334F4F6
:1046200021503109206C3F6F2F5F3F4F162FEF0154
:10463000022FDDCFA689B7896C930088F189E02D20
:1046400080818064808381E090E0DF91CF911F9131
:104650000F910895CF93DF93EC01888D81110FC0E6
:1046600018C00FB607FC0DC0908195FF0AC0A8893D
:10467000B9898C9185FF05C0CE010E94B122EA89DB
:10468000FB89908195FDEDCFA889B9898C9186FF32
:10469000E8CFDF91CF91089580E090E0892B29F059
:1046A0000E94A72281110E940000089585ED809349
:1046B000BC00ECEBF0E0808184FDFDCF1092AE02F7
:1046C00008954091F602262F30E0240F311D21324B
:1046D0003105ECF42091AE022430D9F4662381F048
:1046E000A82FB92F80E090E03091F6022D91FC01C7
:1046F000EC52FD4FE30FF11D208301968617A0F3C6
:104700008091F602680F6093F60280E0089581E0E0
:10471000089582E008950895E091AC028091AB0283
:10472000E81730F4F0E0E557FD4F808190E0089500
:104730008FEF9FEF08959091AC028091AB02981794
:1047400050F4E92FF0E0E557FD4F208130E09F5F06
:104750009093AC0202C02FEF3FEFC9010895809102
:10476000AB0290E02091AC02821B91090895CF9298
:10477000DF92EF92FF920F931F93CF93DF938C0101
:10478000CB016A0120918A022223A1F04115510533
:10479000A1F0EB017B01E40EF51E6991D801ED91CA
:1047A000FC910190F081E02DC8010995CE15DF053F
:1047B000A1F703C0642F0E946123C601DF91CF914E
:1047C0001F910F91FF90EF90DF90CF900895CF93BE
:1047D000DF931F92CDB7DEB7FC01698390918A0207
:1047E0009923D9F090918902903238F081E090E0DD
:1047F0009383828380E090E017C080918802E82F45
:10480000F0E0E859FD4F998190838F5F8093880293
:104810008093890281E090E007C061E0CE010196BB
:104820000E94612381E090E00F90DF91CF91089585
:104830000E94782A8F929F92AF92BF92EF92FF923E
:104840000F931F93CF93DF93CDB7DEB7A1970FB62A
:10485000F894DEBF0FBECDBF7C01CB01BA0119A217
:10486000223008F42AE08E010F5D1F4F822E912C1A
:10487000A12CB12CA50194010E948327E62F622F61
:10488000732F842F952F01501109EA3014F4E05D45
:1048900001C0E95CD801EC936115710581059105B2
:1048A00049F70115110591F0F80101900020E9F791
:1048B0003197AF01401B510BD701ED91FC91028064
:1048C000F381E02DB801C701099502C080E090E0B6
:1048D000A1960FB6F894DEBF0FBECDBFDF91CF918A
:1048E0001F910F91FF90EF90BF90AF909F908F908E
:1048F0000895DC01ED91FC910190F081E02D099586
:1049000008956115710581F0FB0101900020E9F720
:104910003197AF01461B570BDC01ED91FC910280F2
:10492000F381E02D0995089580E090E008951F92AD
:104930000F920FB60F9211242F933F934F935F93D3
:104940006F937F938F939F93AF93BF93EF93FF9357
:104950008BE193E00E94B122FF91EF91BF91AF9163
:104960009F918F917F916F915F914F913F912F9187
:104970000F900FBE0F901F9018951F920F920FB6B9
:104980000F9211242F938F939F93AF93BF93EF9325
:10499000FF93E0912B03F0912C03808182FD14C0E2
:1049A000EBE1F3E0A689B7892C91818D8F5F8F733E
:1049B000928D891771F0DF01E18DF0E0E55EFC4F2B
:1049C000258F59968C9305C0E0913103F091320305
:1049D0008081FF91EF91BF91AF919F918F912F9126
:1049E0000F900FBE0F901F901895BF92CF92DF923D
:1049F000EF92FF920F931F93CF93DF93EC016A0125
:104A00007B01B22EE889F98982E080834115514EFD
:104A100061057105B1F060E079E08DE390E0A701F8
:104A200096010E94832789019A01015011092109E9
:104A300031093695279517950795011580E11807D7
:104A4000A8F0E889F989108260E874E88EE190E0C6
:104A5000A70196010E948327DA01C9010197A109E4
:104A6000B109B695A795979587958C01EC85FD853D
:104A70001083EE85FF850083188EEC89FD89B08256
:104A8000EA89FB89808180618083EA89FB89808152
:104A900088608083EA89FB89808180688083EA89D5
:104AA000FB8980818F7D8083DF91CF911F910F9152
:104AB000FF90EF90DF90CF90BF90089590E0FC01C1
:104AC000EC53FD4F2491FC01E055FD4F3491FC0166
:104AD000E456FD4F8491882309F446C0222371F1E6
:104AE000233069F028F42130B1F02230C1F026C023
:104AF0002730C9F02830E9F0243001F506C0E0E89D
:104B0000F0E090819F77908319C0E0E8F0E0908119
:104B10009F7D908313C094B59F7794BD0FC094B5CB
:104B20009F7D94BD0BC0E0EBF0E090819F77908378
:104B300005C0E0EBF0E090819F7D9083E82FF0E0EE
:104B4000EE0FFF1FE857FD4FA591B4918FB7F89472
:104B5000611106C09C91E32FE095E923EC9303C01B
:104B6000EC91E32BEC938FBF08951F920F920FB639
:104B70000F9211242F933F934F935F936F937F93E3
:104B80008F939F93AF93BF93EF93FF938091B9005F
:104B9000E82FE87F8E2F90E0893C910508F0FBC05C
:104BA000FC01E558FF4F0C94A5278091D302809318
:104BB000BB0085EC8093BC00EEC09091D202809146
:104BC000D102981780F4E091D20281E08E0F809399
:104BD000D202F0E0EF54FD4F80818093BB0085EC62
:104BE0008093BC00D8C08091B002882319F00E9445
:104BF0005623D1C081E08093AF0284EA8093BC0049
:104C00001092AE02C8C080E28093AD020E9456238B
:104C1000C2C080E38093AD020E945623BCC088E3EB
:104C20008093AD0285EC8093BC001092AE02B3C0BD
:104C3000E091D20281E08E0F8093D2028091BB007E
:104C4000F0E0EF54FD4F80839091D2028091D10229
:104C5000981720F485EC8093BC009DC085E8809374
:104C6000BC0099C0E091D20281E08E0F8093D20205
:104C70008091BB00F0E0EF54FD4F80838091B00243
:104C8000882319F00E94562386C081E08093AF02EA
:104C900084EA8093BC001092AE027DC00E9456232D
:104CA0007AC083E08093AE0210921A0385EC809361
:104CB000BC0071C080911A03803280F4E0911A0325
:104CC00081E08E0F80931A038091BB00F0E0E650E4
:104CD000FD4F808385EC8093BC005DC085E88093A8
:104CE000BC0059C085EC8093BC001092AE0280914C
:104CF0001A03803230F4E0911A03F0E0E650FD4FE1
:104D0000108260911A0370E0E091F802F091F902CC
:104D10008AEF92E0099510921A033DC085E88093CE
:104D2000BC0039C084E08093AE021092F70210926A
:104D3000F602E091F402F091F50209958091F602F5
:104D4000811105C081E08093F6021092D402E091B7
:104D5000F70281E08E0F8093F702F0E0EC52FD4FF6
:104D600080818093BB009091F7028091F6029817A2
:104D700020F485EC8093BC000EC085E88093BC00D5
:104D80000AC085EC8093BC001092AE0204C0109261
:104D9000AD020E945623FF91EF91BF91AF919F9179
:104DA0008F917F916F915F914F913F912F910F90D4
:104DB0000FBE0F901F901895EBE1F3E01382128263
:104DC00088EE93E0A0E0B0E084839583A683B78368
:104DD0002AE031E03183208325EC30E035872487D9
:104DE00024EC30E03787268720EC30E0318B208BB5
:104DF00021EC30E0338B228B22EC30E0358B248B9E
:104E000026EC30E0378B268B118E128E138E148E8B
:104E1000E8EBF3E01382128284839583A683B78341
:104E20008CE191E091838083E4ECF3E085E0DF01A5
:104E30001D928A95E9F7158216821782108680E600
:104E40008093420480E498E7ADE7B1E080933104B9
:104E500090933204A0933304B093340410922E0440
:104E600010922D041092300410922F0410924104DD
:104E700008951F920F920FB60F9211242F933F9314
:104E80008F939F93AF93BF9380915004909151045F
:104E9000A0915204B091530430914F0423E0230FAA
:104EA0002D3720F40196A11DB11D05C026E8230F62
:104EB0000296A11DB11D20934F048093500490933E
:104EC0005104A0935204B093530480914B049091E9
:104ED0004C04A0914D04B0914E040196A11DB11D4A
:104EE00080934B0490934C04A0934D04B0934E04D4
:104EF000BF91AF919F918F913F912F910F900FBED6
:104F00000F901F901895A1E21A2EAA1BBB1BFD0142
:104F10000DC0AA1FBB1FEE1FFF1FA217B307E40798
:104F2000F50720F0A21BB30BE40BF50B661F771FF0
:104F3000881F991F1A9469F76095709580959095D0
:104F40009B01AC01BD01CF010895EE0FFF1F05903D
:104F5000F491E02D0994DF93CF931F930F939A9DC3
:104F6000F02D219FF00D8B9DF00D8A9DE02DF10D10
:104F7000039FF00D029FE00DF11D4E9DE00DF11D10
:104F80005E9DF00D4F9DF00D7F936F93BF92AF929A
:104F90005F934F93D5010E943C298B01AC01D7014F
:104FA0000E943C29EB01E80FF91FD6010E94FB2764
:104FB0002F913F91D6010E943C29C60FD71FE81FB1
:104FC000F91FAF91BF910E94FB272F913F910E9443
:104FD0003C29C60FD71FE81FF91FD6010E943C29A4
:104FE000E60FF71F9801BE01CF0111240F911F9109
:104FF000CF91DF9108950E943C29460F571FC81F8B
:10500000D91F08F431960895689401C0E894F92FE7
:10501000F12B12F00C943828A0E0B0E0E2E1F8E2C5
:105020000C94AA28092E059422F40E949428112396
:1050300092F4F0E80F26FFEFE094F09400951095BD
:10504000B094C094D094A194BF0ACF0ADF0AEF0AAB
:10505000FF0A0F0B1F0B0E94432807FC0E94942895
:10506000CDB7DEB7ECE00C94C628689401C0E89494
:105070008F929F92CF93DF930E944328DF91CF912D
:105080009F908F90089588249924F401E401B0E45E
:105090009F93AA279A158B049C04ED05FE05CF0566
:1050A000D007A10798F4AD2FDC2FCF2FFE2FE92DCD
:1050B000982C892E982F872F762F652F542F432FCA
:1050C000322F2227B85031F7BF9127C01B2EBF9136
:1050D000BB27220F331F441F551F661F771F881FD2
:1050E000991F881C991CEE1FFF1FCC1FDD1FAA1FD4
:1050F000BB1F8A149B04EC05FD05CE05DF05A00748
:10510000B10748F08A189B08EC09FD09CE09DF09B0
:10511000A00BB10B21601A94E1F62EF49401AF01BB
:10512000BE01CD01000C0895609570958095909515
:1051300030954095509521953F4F4F4F5F4F6F4FA2
:105140007F4F8F4F9F4F08952F923F924F925F92C4
:105150006F927F928F929F92AF92BF92CF92DF9287
:10516000EF92FF920F931F93CF93DF93CDB7DEB7EC
:10517000CA1BDB0B0FB6F894DEBF0FBECDBF099480
:105180002A88398848885F846E847D848C849B84D7
:10519000AA84B984C884DF80EE80FD800C811B81E5
:1051A000AA81B981CE0FD11D0FB6F894DEBF0FBE14
:1051B000CDBFED0108950F93083090F0982F872F01
:1051C000762F652F542F432F322F22270850F4CFEC
:1051D000220F331F441F551F661F771F881F991FFB
:1051E0000A95B2F70F91089597FB10F816940008EE
:1051F0000F93083098F00850232F342F452F562F47
:10520000672F782F892F902DF4CF05949795879548
:105210007795679557954795379527950A95AAF7F6
:105220000F9108952A0D3B1D4C1D5D1D6E1D7F1DA8
:10523000801F911F08950024A7FD00942A0F301DA0
:10524000401D501D601D701D801D901D08952A1960
:105250003B094C095D096E097F09800B910B08958C
:105260000024A7FD00942A1730054005500560056D
:105270007005800590050895A29FB001B39FC001FD
:10528000A39F700D811D1124911DB29F700D811D72
:105290001124911D0895CF93DF938230910510F46E
:1052A00082E090E0E0915604F091570420E030E075
:1052B000C0E0D0E0309711F1408151814817590783
:1052C000C0F04817590761F482819381209719F043
:1052D0009B838A832BC0909357048093560426C0E7
:1052E0002115310519F04217530718F49A01BE0130
:1052F000DF01EF010280F381E02DDCCF21153105C4
:1053000009F1281B390B2430310590F412968D9148
:105310009C9113976115710521F0FB0193838283A2
:1053200004C09093570480935604FD01329644C004
:10533000FD01E20FF31F81939193225031092D93C8
:105340003C933AC02091540430915504232B41F4EE
:1053500020910201309103013093550420935404AD
:1053600020910001309101012115310541F42DB743
:105370003EB74091040150910501241B350BE0918B
:105380005404F0915504E217F307A0F42E1B3F0BD1
:105390002817390778F0AC014E5F5F4F24173507A7
:1053A00048F04E0F5F1F509355044093540481936F
:1053B000919302C0E0E0F0E0CF01DF91CF9108953A
:1053C0000F931F93CF93DF93009709F48CC0FC01D8
:1053D00032971382128200915604109157040115DE
:1053E000110581F420813181820F931F2091540493
:1053F000309155042817390779F5F0935504E09357
:10540000540471C0D80140E050E0AE17BF0750F41B
:1054100012962D913C911397AD012115310509F19B
:10542000D901F3CF9D01DA01338322836081718139
:10543000860F971F8217930769F4EC012881398141
:10544000260F371F2E5F3F4F318320838A819B8138
:1054500093838283452B29F4F0935704E0935604F9
:1054600042C01396FC93EE931297ED014991599126
:105470009E01240F351FE217F30771F4808191819B
:10548000840F951F029611969C938E93828193812F
:1054900013969C938E931297E0E0F0E0D801129659
:1054A0008D919C911397009719F0F8018C01F6CF1C
:1054B0008D919C9198012E5F3F4F820F931F2091F9
:1054C0005404309155042817390769F4309729F4AA
:1054D000109257041092560402C013821282109345
:1054E000550400935404DF91CF911F910F910895BB
:0E54F00081E090E0F8940C947D2AF894FFCFB0
:1054FE0000005804800000000000DB2238226722E2
:10550E002A239B2279228D2200000000E723B72355
:10551E00290B8B23AF239B238C235B636F6E5D0064
:10552E005B6469735D00484B4146002D434943203F
:10553E00000A414275733A000A466173683A0A00DE
:0A554E002C09004F4B004E470000EF
:00000001FF
