:100000000C945D000C9485000C9485000C94850084
:100010000C9485000C9485000C9485000C9485004C
:100020000C9485000C9485000C9485000C9485003C
:100030000C9485000C9485000C9485000C9485002C
:100040000C94BB1A0C9485000C94891A0C94631AB6
:100050000C9485000C9485000C9485000C9485000C
:100060000C94051B0C9485000000000800020100A0
:100070000003040700000000000000000000000072
:10008000250028002B0000000000240027002A0083
:10009000040404040404040402020202020203032E
:1000A0000303030301020408102040800102040836
:1000B0001020010204081020FE1C11241FBECFEFE7
:1000C000D8E0DEBFCDBF11E0A0E0B1E0E4EDF2E5A5
:1000D00002C005900D92AA36B107D9F724E0AAE62E
:1000E000B1E001C01D92A836B207E1F710E0CDE5FE
:1000F000D0E004C02197FE010E949F26CC35D10795
:10010000C9F70E945B1D0C9468290C940000809133
:100110003303813208F04AC090910F039111FCCF54
:100120003091320392E090930F0391E090930E038D
:100130009FEF90930D0310920C0380930B03882381
:1001400069F0E2E1F3E0ABEEB2E0815090E08D5E69
:100150009C4F21912D93E817F907D9F71092EA02E5
:100160009091EA02832F880F892B8093EA02809175
:10017000E902813019F185EE8093BC0080910F0374
:100180008230E1F380910D038F3F31F180910D03B7
:10019000803291F180910D03803331F184E010922F
:1001A00011031092330310921003089581E010920E
:1001B0001103109233031092100308951092E90274
:1001C0008091EA028093BB008091BC0083FDF8CF50
:1001D00085EC8093BC00D2CF80E010921103109286
:1001E000330310921003089583E0109211031092CC
:1001F000330310921003089582E0D1CF8091C7029B
:100200009091C802891B990B08952F923F924F92AB
:100210005F926F927F928F929F92AF92BF92CF9296
:10022000DF92EF92FF920F931F93CF93DF93CDB79F
:10023000DEB7AA970FB6F894DEBF0FBECDBF0B870F
:100240001A8B2E8B3F8B488F598F6C8F78A3FB8E28
:10025000EA8E25013601E0914604F0914704892B8E
:1002600021F0E0914804F0914904FF27EE0FFF1FB1
:10027000EE0FFF1FE65BFB4F80819181A281B3816E
:100280008C019D0140E050E0BA0189831A83AB8361
:100290003C834D835E836F8378879C014B815C81B7
:1002A00060E070E080E090E001E00E94D427A98047
:1002B000B12ECB80DC80E12CF12C00E010E00E941C
:1002C0000A2803E00E94D42700E00E940A2802E0E6
:1002D0000E94D4274901488B5F8769877A871C0170
:1002E00073016201FF0CCC08DC2C76019201A301A2
:1002F0006C2D7C2D8C2D9C2D0FE10E94D427A12CE0
:100300000AECB02EEAE9CE2EFBE3DF2EE12CF12C35
:1003100000E010E00E94FF265401C888DF84E984D1
:10032000FA8481010E94A5260FE10E94EF2729830C
:100330003A834B835C836D837E838F839887498068
:100340005A806B807C80770C4408542C32019401D5
:10035000A601B701C101A980BA80CB80DC80E42C62
:10036000F42C042D142D0E940A28298339874A87EA
:100370005F87688B798B1C016B847A888E889F8855
:10038000198D1A8B4C8C58A09301A401688D712F84
:10039000C201211534404B46544F6441710581051B
:1003A000910569F060F0612CE4E07E2EFBE68F2E73
:1003B000A4EF9A2EB4E1B88F1A8A412C512CE88D03
:1003C000EC8F9301A4016E2F7A89C2012115384563
:1003D0004744584F6D4071058105910560F4612CCB
:1003E00058E5752E67E4862E78EF972E0DE00C8F7A
:1003F0001A8A412C512CA980B984CA84DF84E888E8
:10040000F98881019301A4016C8D7A89C2010E944F
:1004100030272E8B3F8B488F598F2B873C874D87FA
:100420005E872B853C854D855E852F3031054105E6
:10043000510508F01CC19501A601B701C10104E0F6
:100440000E94D427022D0E941F2839014A016C8F77
:100450007A8B2C01A980B984CA84DF84E888F98862
:1004600081019301A4016C8D7A89C2010E942E271B
:10047000E0E4AE2EF2E4BF2EAFE0CA2ED12CE12C88
:10048000F12C00E010E00E94A526A980B984CA845E
:10049000DF84E888F98881010E94302749014CA354
:1004A0005BA3322F432E592C642E752ED301C2012B
:1004B000880F991FAA1FBB1F880F991FAA1FBB1F58
:1004C000880F991FAA1FBB1F880F991FAA1FBB1F48
:1004D000880F991FAA1FBB1F880F991FAA1FBB1F38
:1004E0008C019D01000F111F221F331F0A8B1B8BD4
:1004F0002C8B3D8B411451046104710409F4E3C059
:10050000C901B80120E432E44FE050E00E947D26AA
:100510002A8B3B8B4C8B5D8B2B013C0110E418A389
:1005200022E429A33FE03AA340E452E46FE070E004
:100530004C8F5D8F6E8F7F8FA980B984CA84DF84D2
:10054000E888F988810194014CA15BA160E070E02A
:1005500080E090E00E94A5262BA33CA34DA35EA3C0
:100560006FA378A789A79AA78B859C85AD85BE8543
:10057000880F991FAA1FBB1F880F991FAA1FBB1F97
:10058000880F991FAA1FBB1F880F991FAA1FBB1F87
:10059000880F991FAA1FBB1F880F991FAA1FBB1F77
:1005A000880F991FAA1FBB1F9250A109B1090A8980
:1005B0001B892C893D89800F911FA21FB31FEA8DD3
:1005C000FB8D80839183A283B383448255826682AC
:1005D00077820C8D1D8D2E8D3F8D00871187228790
:1005E000338781012E893F89488D598D60E070E005
:1005F00080E090E00E94A52629013A014B018987FD
:100600009983A8A0B9A0CAA0D12CE12CF12C00E0BC
:1006100010E02BA13CA14DA15EA16FA178A589A5F9
:100620009AA50E94302759016A017B018C01920131
:10063000A301B401898599810E940A28AA960FB660
:10064000F894DEBF0FBECDBFDF91CF911F910F9108
:10065000FF90EF90DF90CF90BF90AF909F908F90E2
:100660007F906F905F904F903F902F9008954B85B3
:100670005C856D857E854B3551056105710508F4F6
:10068000E9CE298139854A855F8568897989C101E3
:1006900001E00E94D427A980B984CA84DF84E88855
:1006A000F98881010E940A2859016A017B01E82F1B
:1006B000192F04E00E94D4270E2F0E941F2801E06A
:1006C0000E94D427C2CE51E058A319A21AA261E019
:1006D00070E080E090E06C8F7D8F8E8F9F8F2CCFAD
:1006E000DF92EF92FF920F931F93CF93DF93FC0162
:1006F000E080F18002811381D481C581B681D780E9
:100700009701A8016D2F7C2F8B2F9D2D28593842E2
:100710004C41510961097109810991092739384210
:100720004C415105610571058105910509F008F4F9
:10073000C1C09701A8016D2F7C2F8B2F9D2D2053B9
:1007400031454843510961097109810991092F32E5
:10075000314548435105610571058105910509F051
:1007600008F48EC09701A8016D2F7C2F8B2F9D2D33
:100770002056324A4047510961097109810991099E
:100780002F35324A404751056105710581059105B4
:1007900009F008F4BCC09701A8016D2F7C2F8B2FA6
:1007A0009D2D205C3444414E510961097109810934
:1007B00091092F3B3444414E510561057105810576
:1007C000910509F008F4BDC09701A8016D2F7C2F99
:1007D0008B2F9D2D20583948424C51406109710999
:1007E000810991092F373948424C51406105710503
:1007F0008105910509F008F477C09701A8016D2FD4
:100800007C2F8B2F9D2D3351454853406109710931
:10081000810991092F3F32414548534061057105D7
:100820008105910509F008F4A8C09701A8016D2F72
:100830007C2F8B2F9D2D36524A40574061097109FC
:10084000810991092F3F35424A40574061057105A2
:100850008105910511F008F08EC09701A8016D2F58
:100860007C2F8B2F9D2D01E00E94D4272083318384
:1008700042835383648375838683978381E012C0A8
:100880009701A8016D2F7C2F8B2F9D2D06E00E94D4
:10089000D427208331834283538364837583868383
:1008A000978386E0DF91CF911F910F91FF90EF909A
:1008B000DF9008959701A8016D2F7C2F8B2F9D2D20
:1008C00007E00E94D42720833183428353836483CB
:1008D00075838683978387E0DF91CF911F910F9176
:1008E000FF90EF90DF9008959701A8016D2F7C2F66
:1008F0008B2F9D2D03E00E94D427208331834283D8
:100900005383648375838683978383E0CBCF97017A
:10091000A8016D2F7C2F8B2F9D2D05E00E94D427E1
:1009200020833183428353836483758386839783D3
:1009300085E0DF91CF911F910F91FF90EF90DF90B5
:1009400008959701A8016D2F7C2F8B2F9D2D04E01A
:100950000E94D42720833183428353836483758329
:100960008683978384E0DF91CF911F910F91FF9051
:10097000EF90DF90089580E095CF9701A8016D2F4B
:100980007C2F8B2F9D2D02E00E94D4272083318362
:1009900042835383648375838683978382E082CF07
:1009A0002F923F924F925F926F927F928F929F927F
:1009B000AF92BF92CF92DF92EF92FF920F931F936D
:1009C000CF93DF93CDB7DEB765970FB6F894DEBF50
:1009D0000FBECDBF2D833E834F83588769877A87AB
:1009E0008B879C87A982BF86C88AD98AEA8AFB8AB4
:1009F0000C8B1D8B9E868D86211506ED300701E13F
:100A000040070EE7500703E0600771058105910577
:100A100011F008F04EC02F37304F4A4F5240610559
:100A200071058105910511F008F0EFC029813F851E
:100A3000488959896A897B898C899D89A0E00E94AF
:100A4000282809F045C1B0E8BD83E0EFEE83FAEF56
:100A5000FF8302E0088719861A861B861C862EEF04
:100A600030E040E050E029833A834B835C83898106
:100A70009A81AB81BC810296A11DB11D89839A83A5
:100A8000AB83BC831C012D01AD80BE80CF80D88498
:100A9000E984FA840B851C859101A20160E070E075
:100AA00080E090E00E94A52629013A014B011C013B
:100AB00022C029813F85488959896A897B898C8927
:100AC0009D89A0E00E94282809F047C016E0E12E89
:100AD000F12C00E010E0E982FA820B831C83412CA8
:100AE00094E0592E2BE6622E34EF732E44E1842ECF
:100AF000912C212C312C89819A81AB81BC81992741
:100B0000AA27BB27ED85FE8580839183A283B383CB
:100B10001482158216821782108611861286138619
:100B20009201A301B401C10165960FB6F894DEBF2E
:100B30000FBECDBFDF91CF911F910F91FF90EF902E
:100B4000DF90CF90BF90AF909F908F907F906F90ED
:100B50005F904F903F902F9008951D82B6EDBE8319
:100B6000E1E1EF83FEE7F88703E009871A861B8639
:100B70001C86AD80BE80CF80D884E984FA840B8542
:100B80001C8529813F85488959896A897B898C8997
:100B90009D890E942E2729013A014B011C01A0E0EA
:100BA0000E94282809F08BC029813F8548895989EE
:100BB0006A897B898C899D890E943027022F132F97
:100BC000242F352FD901C8010697A109B109893F02
:100BD0009105A105B10508F0A3CF10E030E020E0B9
:100BE000AD85BE850D931D932D933C931397FD0109
:100BF000148215821682178218961D921D921D92DC
:100C00001C921B97442443945BC09501A601B70135
:100C10008C899D89A0E00E94282809F0AACFAD8088
:100C2000BE80CF80D884E984FA840B851C8520E0BF
:100C300033E245E75EEE64E170E080E090E00E9420
:100C40003027C901DA0120FD50C085309105A1058A
:100C5000B10509F091C02D813E814F81588569858C
:100C60007A858B859C8501E00E94D427AD80BE806B
:100C7000CF80D884E984FA840B851C850E940A28D9
:100C800001E00E94D42729013A014B011C0106E032
:100C900010E020E030E009831A832B833C8392012B
:100CA000A301B401C1012F3F37454744584F6D4060
:100CB00071058105910509F008F4D9CE1CCF412CAE
:100CC000512C612C712C812C912C212C312C28CF72
:100CD00010E81D8320EF2E833AEF3F8342E04887E0
:100CE00019861A861B861C8644CF2F5F3F4F4F4FB5
:100CF0005F4F29833A834B835C832F3F3105410546
:100D0000510540F08EEF90E0A0E0B0E089839A8337
:100D1000AB83BC83E980FA800B811C81A801970119
:100D2000AD80BE80CF80D884E984FA840B851C8591
:100D300060E070E080E090E00E94A52629013A0181
:100D40004B011C01211534404B46544F6441710541
:100D50008105910509F008F4A2CF29813A814B81E0
:100D60005C81225031094109510929833A834B831F
:100D70005C8319012A0188CE89839A83AB83BC8363
:100D80008F3F9105A105B10528F22EEF30E040E03C
:100D900050E029833A834B835C83BCCF2F923F92F0
:100DA0004F925F926F927F928F929F92AF92BF927B
:100DB000CF92DF92EF92FF920F931F93CF93DF9327
:100DC000CDB7DEB76A970FB6F894DEBF0FBECDBFC2
:100DD000322E3983242E5A832B013C01AD86BE86E8
:100DE000CF86D88AE98AFA8A0B8B1C8B9C868B86E5
:100DF0002115A1EC3A07AAE14A07ADE35A07A5E09D
:100E00006A0771058105910511F008F007C12F37B8
:100E1000B0EF3B07BAEF4B07B2E05B076105710526
:100E20008105910509F008F458C12F3F354D414126
:100E30005E47634071058105910511F008F0FAC025
:100E40002D853E854F85588969897A898B899C894A
:100E5000A0E00E94282809F47FC1912CA32CB9801E
:100E6000C22CDA80720183012D853E854F85588919
:100E700069897A898B899C890E9430272B833C83DE
:100E80004D835E838B819C81AD81BE8106E0A02E67
:100E9000B12C0697A105B10570F08B819C81AD81C5
:100EA000BE8189309740A105B10508F4B4C1B8E00E
:100EB000AB2E17E0B12EC12CD12CE12CF12C00E08F
:100EC00010E02D853E854F85588969897A898B89FF
:100ED0009C890E9430272D8B39834E8B5A836F8BD0
:100EE000788F898F9A8FAD88B980CE88DA80EF8825
:100EF000F88C098D1A8D2D853E854F855889698915
:100F00007A898B899C890E942E27E0E4AE2EF2E438
:100F1000BF2EAFE0CA2ED12CE12CF12C00E010E066
:100F20000E94A526AD88B980CE88DA80EF88F88C3B
:100F3000098D1A8D0E943027C901DA0100E4402E84
:100F400002E4502E0FE0602E712C0097A105B10530
:100F500021F4412C512C32014394F1E09F1609F405
:100F600061C1880F991FAA1FBB1F880F991FAA1F55
:100F7000BB1FBC01CD01660F771F881F991F660F2D
:100F8000771F881F991F660F771F881F991F660F8D
:100F9000771F881F991F660F771F881F991FA3014E
:100FA00092010E947D268B809C80AD80BE80880C43
:100FB000991CAA1CBB1C880C991CAA1CBB1C880C65
:100FC000991CAA1CBB1C880C991CAA1CBB1C880C55
:100FD000991CAA1CBB1C880C991CAA1CBB1C880C45
:100FE000991CAA1CBB1CF2E09F1AA108B108820E32
:100FF000931EA41EB51EAB85BC858D929D92AD92AD
:10100000BC921397FD01648375838683978318963A
:101010004D925D926D927C921B973EC0312CF1EC0B
:10102000F9835AE1252E2DE32A8365E0462E512CC3
:10103000612C712C2D853E854F85588969897A8967
:101040008B899C89A0E00E94282809F075C0232D77
:101050003981422D5A81B201C30102E00E94D42796
:101060002D8B39834E8B5A836F8B788F898F9A8F14
:10107000AB85BC851D921D921D921C921397FD019C
:10108000148215821682178281E090E0A0E0B0E021
:1010900080879187A287B3872D8939814E895A81AC
:1010A0006F89788D898D9A8D6A960FB6F894DEBF18
:1010B0000FBECDBFDF91CF911F910F91FF90EF90A9
:1010C000DF90CF90BF90AF909F908F907F906F9068
:1010D0005F904F903F902F9008952D853E854F85CE
:1010E000588969897A898B899C89A0E00E9428287F
:1010F00031F580E092E8A3E0B0E01D8AE4E0E98306
:10110000FBE6FE8B24EF2A83E4E1EF8B188E198E29
:101110001A8EEB85FC8580839183A283B38314822E
:1011200015821682178281E090E0A0E0B0E080870F
:101130009187A287B387B0CF992493948FCE30E85C
:10114000332EF0EFF9834AEF242E22E02A83412C3C
:10115000512C612C712C81CEA32CB980C22CDA8049
:101160007201830120E034E04BE654EF64E170E06B
:1011700080E090E00E943027192F2B833C834D8321
:101180005E836F83788789879A87A7E00E942828E3
:10119000E1F4232D3B2D422D5D2DB201C30101E071
:1011A0000E94D42783010E940A2801E00E94D427CC
:1011B0002D8B39834E8B5A836F8B788F898F9A8FC3
:1011C00080E091E0A0E0B0E0A4CFAB80BC80CD8017
:1011D000DE80EF80F8840985232D3981422D5A81E4
:1011E000B201C3010E94A5262D8B39834E8B5A83F1
:1011F0006F8B788F898F9A8F8B819C81AD81BE8117
:1012000027E0880F991FAA1FBB1F2A95D1F792507C
:10121000A109B1097ECF3D8A2E8A4F8A588E698EE8
:101220007A8E61CEEB85FC85108211821282138248
:10123000148215821682178281E090E0A0E0B0E06F
:1012400080879187A287B38727CFDF92EF92FF92A3
:101250000F931F93CF93DF93FC01E080F180028115
:101260001381D481C581B681D7809701A8016D2FE4
:101270007C2F8B2F9D2D20583A4146405109610902
:101280007109810991092F373A414640510561059D
:1012900071058105910509F008F4BDC09701A80109
:1012A0006D2F7C2F8B2F9D2D35534C40510961099B
:1012B0007109810991092F3F34434C405105610563
:1012C00071058105910509F008F48BC09701A8010B
:1012D0006D2F7C2F8B2F9D2D3A5648415109610966
:1012E0007109810991092F3F39464841510561052E
:1012F00071058105910509F008F4BAC09701A801AC
:101300006D2F7C2F8B2F9D2D345D4043510961093A
:101310007109810991092F3F334D40435105610502
:1013200071058105910509F008F4BCC09701A80179
:101330006D2F7C2F8B2F9D2D385A41465109610905
:101340007109810991092F3F374A414651056105CD
:1013500071058105910509F008F477C09701A8018E
:101360006D2F7C2F8B2F9D2D3055434C51096109DA
:101370007109810991092F3F3F44434C5105610593
:1013800071058105910509F008F4A8C09701A8012D
:101390006D2F7C2F8B2F9D2D305A4648514061096F
:1013A0007109810991092F3F3F4946485140610524
:1013B00071058105910511F008F08EC09701A80113
:1013C0006D2F7C2F8B2F9D2D01E00E94D427208331
:1013D000318342835383648375838683978381E05B
:1013E00012C09701A8016D2F7C2F8B2F9D2D06E039
:1013F0000E94D4272083318342835383648375837F
:101400008683978386E0DF91CF911F910F91FF90A4
:10141000EF90DF9008959701A8016D2F7C2F8B2FFF
:101420009D2D07E00E94D42720833183428353837C
:10143000648375838683978387E0DF91CF911F91C3
:101440000F91FF90EF90DF9008959701A8016D2F05
:101450007C2F8B2F9D2D03E00E94D4272083318386
:1014600042835383648375838683978383E0CBCFE2
:101470009701A8016D2F7C2F8B2F9D2D05E00E94D9
:10148000D427208331834283538364837583868387
:10149000978385E0DF91CF911F910F91FF90EF909F
:1014A000DF9008959701A8016D2F7C2F8B2F9D2D24
:1014B00004E00E94D42720833183428353836483D2
:1014C00075838683978384E0DF91CF911F910F917D
:1014D000FF90EF90DF90089580E095CF9701A801ED
:1014E0006D2F7C2F8B2F9D2D02E00E94D42720830F
:1014F000318342835383648375838683978382E039
:1015000082CFCF92DF92EF92FF926B017C01E0914C
:101510004403F091450382E08083C11481EED80634
:10152000E104F104A1F060E079E08DE390E0A7012F
:1015300096010E947D262150310941095109569595
:10154000479537952795211580E13807A8F0E09158
:101550004403F0914503108260E874E88EE190E066
:10156000A70196010E947D262150310941095109A8
:101570005695479537952795E0914003F0914103A3
:101580003083E0914203F0914303208310924C0397
:10159000E0914803F091490386E08083E09146039F
:1015A000F0914703808180618083E0914603F09150
:1015B0004703808188608083E0914603F091470370
:1015C000808180688083E0914603F09147038081A9
:1015D0008F7D8083FF90EF90DF90CF90089595B13D
:1015E00027EF3FEF082E01C0220F0A94EAF792235B
:1015F00095B99BB193709BB99BB170E09B01220F91
:10160000331F220F331F922B9BB995B19C7F95B945
:1016100095B1062E672F000C661F770B000C661F16
:10162000771F692B65B9419A419895B128E030E060
:1016300001C0220F8A95EAF7892F822B85B9089578
:10164000CF92DF92EF92FF920F931F93CF93DF938E
:101650004115510509F16A018C017B01D0E0C0E020
:1016600004C02196CC16DD0669F0D7016D917D018D
:10167000D801ED91FC910190F081E02DC801099510
:10168000892B79F7CE01DF91CF911F910F91FF90B8
:10169000EF90DF90CF900895D0E0C0E0F3CFFC0151
:1016A000938D848D981720F4891B990B01970895C9
:1016B0002FE330E0291B3109820F932F911D0895EC
:1016C000FC01918D828D981761F0A28DAE0FBF2F16
:1016D000B11D5D968C91928D9F5F9F73928F90E06C
:1016E00008958FEF9FEF0895FC01918D828D9817DB
:1016F00031F0828DE80FF11D858D90E008958FEF18
:101700009FEF0895FC01918D228D892F90E0805CE0
:101710009F4F821B91098F739927089584E393E06B
:101720000E94820B21E0892B09F420E0822F08958A
:1017300080E090E0892B21F00E948E0B811101C086
:1017400008950C940000FC01A48DA80FB92FB11DC1
:10175000A35ABF4F2C91848D90E001968F739927E7
:10176000848FA689B7892C93A089B1898C918370C5
:1017700080648C93938D848D981308950288F389E7
:10178000E02D80818F7D80830895EF92FF920F93EB
:101790001F93CF93DF93EC0181E0888F9B8D8C8D1D
:1017A000981799F1062FEB8CF12C8FEFE81AF80AB5
:1017B0008FE3E822FF241E2D03C00FB607FE1CC0D6
:1017C0008C8D8117D1F3EB8DEC0FFD2FF11DE35ABA
:1017D000FF4F00839FB7F894EB8EEA89FB898081E5
:1017E000806280839FBF81E090E0DF91CF911F9165
:1017F0000F91FF90EF900895E889F989808185FF26
:10180000DFCFCE010E94A30BDBCFE889F98980816D
:1018100085FFC8CF9FB7F894EE89FF896083E88978
:10182000F98980818370806480839FBFDCCFCF93F0
:10183000DF93EC01888D8823B9F0EA89FB89A889B8
:10184000B989808185FD03C08C9186FD0DC00FB6DE
:1018500007FCF7CF808185FFF4CF8C9185FFF1CF16
:10186000CE010E94A30BE9CFDF91CF91089590E0C4
:10187000FC01E859FF4F2491FC01EC55FF4F3491D6
:1018800080579F4FFC0184918823A1F0211118C03B
:10189000E82FF0E0EE0FFF1FE458FF4FA591B49141
:1018A0008FB7F894611107C09C91E32FE095E9236D
:1018B000EC938FBF0895EC91E32BEC938FBFFACF9D
:1018C000233029F160F02730E1F02830A1F02430F6
:1018D000F9F6909180009F7D90938000D9CF2130C0
:1018E00031F02230A9F694B59F7D94BDD1CF94B547
:1018F0009F7794BDCDCF9091B0009F7D9093B00025
:10190000C7CF9091B0009F779093B000C1CF9091D6
:1019100080009F7790938000BBCF20918C01260F91
:101920003327331F21323105FCF420910F0324307B
:10193000C9F4662381F0DC0190E080E0E0918C0145
:101940002D91AC0146595E4FE40FF52FF11D208318
:101950000196861798F380918C01680F60938C0133
:1019600080E0089582E0089581E008950895089543
:101970000895E091C8028091C702E81730F4F0E0C2
:10198000E753FD4F808190E008958FEF9FEF08951A
:101990009091C8028091C702981758F4E92FF0E09F
:1019A000E753FD4F208130E09F5F9093C802C9014B
:1019B00008952FEF3FEFFBCFCF92DF92EF92FF9290
:1019C0000F931F93CF93DF938C01862F6A01209191
:1019D00010032223F1F04115510589F0C62FD72FAE
:1019E0007E01E40EF51E6991D801ED91FC91019004
:1019F000F081E02DC8010995CE15DF05A1F7C601DC
:101A0000DF91CF911F910F91FF90EF90DF90CF90DA
:101A10000895642F972F0E948D0CF1CFCF93DF9301
:101A20001F92CDB7DEB7FC01698390911003992313
:101A300009F190913303903298F480911103E82FCB
:101A4000F0E0EE5EFC4F998190838F5F80931103ED
:101A50008093330381E090E00F90DF91CF91089560
:101A600081E090E09383828390E080E00F90DF91AB
:101A7000CF91089561E0CE0101960E948D0C81E026
:101A800090E00F90DF91CF910895CF93C62F909162
:101A90005B0421E020931003909332031092110312
:101AA00010923303682F81ED93E00E940E0D6C2F8E
:101AB00081ED93E00E940E0DCF910C948700CF939F
:101AC00090915B0421E020931003909332031092D5
:101AD000110310923303682F81ED93E00E940E0DE5
:101AE0000E94870080915B0490910F039111FCCFBD
:101AF00091E090930F0310920E032FEF20930D03AC
:101B000010920C0310920B039093EA029091EA0258
:101B1000880F892B8093EA028091E902813009F4D1
:101B200047C085EE8093BC0080910F038130E1F3C4
:101B300080910C03811122C0C0910C03CC2389F148
:101B4000EBEEF2E0A9ECB2E02FEF2C0F30E02451E5
:101B50003D4F81918D932E173F07D9F71092C80200
:101B6000C093C70281ED93E00E94C80C9091C80217
:101B7000C9130EC0C82F8C2FCF9108958091EB020E
:101B80008093C9021092C80281E08093C702C1E02D
:101B900081ED93E00E94C80C9091C802C913F8CF60
:101BA000E9CF1092C8021092C7028C2FCF910895EE
:101BB0001092E9028091EA028093BB008091BC0000
:101BC00083FDF8CF85EC8093BC00AECFCF93DF933D
:101BD000D82FC62F83E00E945F0D61E070E001C046
:101BE000660FDA95EAF7C13031F0682B83E0DF91B8
:101BF000CF910C94450D6095682383E0DF91CF91E0
:101C00000C94450D1F93CF93DF93C62F142F8A5F3B
:101C10009E4FFC01D0818D2F0E945F0D83781111A2
:101C20008C60F0E1CF9FB0011124682B8D2FDF91E4
:101C3000CF911F910C94450DCF93DF93D62FC0E128
:101C4000C80F8C2F0E945F0D682FD13031F06F7B51
:101C50008C2FDF91CF910C94450D60648C2FDF9118
:101C6000CF910C94450DFF920F931F93CF93DF9369
:101C7000EC018B01F82E80E1F80E8F2D0E945F0D94
:101C8000682F0115110581F060628F2D0E94450DAE
:101C9000CC0FDD1FC352DC4F1A870987DF91CF912C
:101CA0001F910F91FF9008956F7DEFCFFF920F93DB
:101CB0001F93CF93DF93062FF42E152F90915B0483
:101CC00021E020931003909332031092110310929D
:101CD0003303682F81ED93E00E940E0D002369F01D
:101CE000CF2DD12F0C0F1D2F111D699181ED93E088
:101CF0000E940E0DC017D107C1F7DF91CF911F9140
:101D00000F91FF900C94870090E080E00895CF93AE
:101D1000DF931F92CDB7DEB72A9A9091B90296173A
:101D200009F12B989BB193709BB99BB19B01332711
:101D3000F901EE0FFF1FEE0FFF1F9E2B9BB995B110
:101D40009C7F95B995B1022E232F000C221F330BD7
:101D5000000C221F331F292B25B9419A41982B9A39
:101D60006093B9029091BA02971719F195B19E7ECE
:101D700095B99BB193709BB99BB1272F30E0F901C6
:101D8000EE0FFF1FEE0FFF1F9E2B9BB995B19C7F9F
:101D900095B995B1022E232F000C221F330B000C96
:101DA000221F331F292B25B9419A41982C9A7093F1
:101DB000BA029091BB02891719F195B19C7D95B932
:101DC0009BB193709BB99BB1282F30E0B901660F8E
:101DD000771F660F771F962B9BB995B19C7F95B99E
:101DE00095B1022E232F000C221F330B000C221F53
:101DF000331F292B25B9419A41982D9A8093BB0214
:101E00008BB183708BB98BB150E09A01220F331FD5
:101E1000220F331F822B8BB985B18C7F85B985B199
:101E2000042E452F000C441F550B000C441F551F5A
:101E3000482B45B9409A8FB78983F8942A988981AD
:101E40008FBF000000000000000000000000000044
:101E500000004498000000000000000000000000A6
:101E60000000000000000000000000000000000072
:101E70000000000000000000000000000000000062
:101E80000000000000000000000000000000000052
:101E900000000000449A0000000000000000000064
:101EA0000000000000000000000000000000000032
:101EB0000000000000002A9A40980F90DF91CF9117
:101EC0000895AF92BF92CF92DF92EF92FF920F935D
:101ED0001F93CF93DF9300D000D0CDB7DEB7A62EEF
:101EE00034E028E32A9A9091B902943079F02B9843
:101EF0009BB193709BB95C9A95B19C7F95B995B154
:101F000095B9419A41982B9A3093B9029091BA02AF
:101F1000983399F095B19E7E95B99BB193709BB91A
:101F20009BB1906E9BB995B19C7F95B995B195B9D0
:101F3000419A41982C9A2093BA029091BB0299231E
:101F400091F095B19C7D95B99BB193709BB99BB174
:101F50009BB995B19C7F95B995B195B9419A419836
:101F60002D9A1092BB02000000000000000000004B
:101F70000000000000000000000000000000000061
:101F80000000000000004298000000000000000077
:101F90000000000000000000000000000000000041
:101FA0000000000000000000000000000000000031
:101FB0000000000000000000000000000000000021
:101FC000000000000000000042989AB193709AB996
:101FD00094B19C7F94B99FB79C83F8942A989C8174
:101FE0009FBF000000000000000000000000000093
:101FF00000000000000000000000000000000000E1
:10200000000049B193B12A9A9AB19C6F9AB994B1E0
:10201000936094B9429A429A46FD64CF482F62E099
:1020200078E380E00E94870E24E098E32A9A80916A
:10203000B902843079F02B988BB183708BB95C9A9C
:1020400085B18C7F85B985B185B9419A41982B9A24
:102050002093B9028091BA02883399F085B18E7EBF
:1020600085B98BB183708BB98BB1806E8BB985B11B
:102070008C7F85B985B185B9419A41982C9A909306
:10208000BA028091BB02882391F085B18C7D85B91D
:102090008BB183708BB98BB18BB985B18C7F85B9CE
:1020A00085B185B9419A41982D9A1092BB020000E2
:1020B0000000000000000000000000000000000020
:1020C0000000000000000000000000000000429836
:1020D0000000000000000000000000000000000000
:1020E00000000000000000000000000000000000F0
:1020F00000000000000000000000000000000000E0
:1021000000000000000000000000000000000000CF
:1021100042988AB183708AB984B18C7F84B98FB7B1
:102120008B83F8942A988B818FBF000000000000F9
:10213000000000000000000000000000000000009F
:102140000000000000000000000039B183B12A9AAD
:102150008AB18C6F8AB984B1836084B9429A429AF9
:1021600036FD64CFB12C03E210E094E0C92E28E3E1
:10217000D22EE12C84E0F82E41E004C04F5FC8016C
:102180000197F1F72A9A8091B902843079F02B985F
:102190008BB183708BB95C9A85B18C7F85B985B121
:1021A00085B9419A41982B9AC092B9028091BA029E
:1021B000883399F085B18E7E85B98BB183708BB9E8
:1021C0008BB1806E8BB985B18C7F85B985B185B9AE
:1021D000419A41982C9AD092BA028091BB028823EE
:1021E00091F085B18C7D85B98BB183708BB98BB142
:1021F0008BB985B18C7F85B985B185B9419A4198F4
:102200002D9A1092BB0200000000000000000000A8
:1022100000000000000000000000000000000000BE
:1022200000000000000042980000000000000000D4
:10223000000000000000000000000000000000009E
:10224000000000000000000000000000000000008E
:10225000000000000000000000000000000000007E
:10226000000000000000000042988AB183708AB923
:1022700084B18C7F84B98FB78A83F8942A988A8135
:102280008FBF000000000000000000000000000000
:10229000000000000000000000000000000000003E
:1022A000000089B123B12A9A9AB19C6F9AB994B16E
:1022B000936094B9429A429A8695869590E4299FB4
:1022C00090011124822B80958170842309F056CFD0
:1022D00065E4442309F4A2C02A9A8091B9028823B4
:1022E00081F02B988BB183708BB98BB18BB985B191
:1022F0008C7F85B985B185B9419A41982B9A109206
:10230000B9028091BA02883399F085B18E7E85B981
:102310008BB183708BB98BB1806E8BB985B18C7F9B
:1023200085B985B185B9419A41982C9AD092BA0263
:102330008091BB02882391F085B18C7D85B98BB1EA
:1023400083708BB98BB18BB985B18C7F85B985B121
:1023500085B9419A41982D9A1092BB020000000065
:10236000000000000000000000000000000000006D
:102370000000000000000000000000004298000083
:10238000000000000000000000000000000000004D
:10239000000000000000000000000000000000003D
:1023A000000000000000000000000000000000002D
:1023B0000000000000000000000000000000429843
:1023C0008AB183708AB984B18C7F84B98FB78983CD
:1023D000F8942A9889818FBF000000000000000057
:1023E00000000000000000000000000000000000ED
:1023F000000000000000000069B183B16695669599
:1024000020E4829FC0011124682B2A9A8AB18C6F24
:102410008AB984B1836084B9429A429A84E393E092
:102420000E94C50B81E0E81AF10809F0A5CE84E30B
:1024300093E00E94820B18161906CCF784E393E010
:102440000E94600B8536910519F0B394AB1091CEC4
:102450000F900F900F900F90DF91CF911F910F91E0
:10246000FF90EF90DF90CF90BF90AF9008950F93C3
:102470001F93CF93DF931F92CDB7DEB740E064E0A8
:1024800078E380E00E94870E0BE811E0C801019715
:10249000F1F74FEF64E078E380E00E94870EC80117
:1024A0000197F1F740E064E078E380E00E94870E56
:1024B0006CEFE4E078E34BEF5CE706C0615009F4B1
:1024C000ADC0CA010197F1F72A9A8091B902843010
:1024D00079F02B988BB183708BB95C9A85B18C7F26
:1024E00085B985B185B9419A41982B9AE093B90293
:1024F0008091BA02883399F085B18E7E85B98BB10F
:1025000083708BB98BB1806E8BB985B18C7F85B9A7
:1025100085B185B9419A41982C9A7093BA028091FD
:10252000BB02882391F085B18C7D85B98BB1837016
:102530008BB98BB18BB985B18C7F85B985B185B9E4
:10254000419A41982D9A1092BB02000000000000B1
:10255000000000000000000000000000000000007B
:102560000000000000000000000042980000000091
:10257000000000000000000000000000000000005B
:10258000000000000000000000000000000000004B
:10259000000000000000000000000000000000003B
:1025A00000000000000000000000000042988AB116
:1025B00083708AB984B18C7F84B98FB78983F8948A
:1025C0002A9889818FBF00000000000000000000F1
:1025D00000000000000000000000000000000000FB
:1025E00000000000000089B123B12A9A9AB19C6FC3
:1025F0009AB994B1936094B9429A429A8695869515
:1026000090E4299F90011124822B09F457CF80E098
:102610000F90DF91CF911F910F91089581E00F905E
:10262000DF91CF911F910F910895FC01019000203F
:10263000E9F73197AF01481B590BBC0184E393E0E4
:102640000C94200BCF92DF92EF92FF920F931F9387
:10265000CF93DF93CDB7DEB7A1970FB6F894DEBF67
:102660000FBECDBF19A2423008F44AE0C42ED12CCF
:10267000F12CE12C8E010F5D1F4F08C0E05DD801E9
:10268000EE938D01232B242B252B89F0A701960196
:102690000E947D26E62FB901CA01EA307CF3E95C8D
:1026A000D801EE938D01232B242B252B79F790E075
:1026B00080E0109769F0FD0101900020E9F7319763
:1026C000AF014A1B5B0BBD0184E393E00E94200B2A
:1026D000A1960FB6F894DEBF0FBECDBFDF91CF91AC
:1026E0001F910F91FF90EF90DF90CF9008952F9260
:1026F0003F924F925F926F927F928F929F92AF9292
:10270000BF92CF92DF92EF92FF920F931F93CF93DE
:10271000DF93CDB7DEB72D970FB6F894DEBF0FBEAF
:10272000CDBF3C01C982DA82EB82FC820D831E831D
:102730002F83388749875A876B877C878AA18D8743
:102740004C2C3D2C9E2C202E512EB22EC984DA8486
:10275000EB84FC8484E190E00E9443288C01FC011E
:10276000D082C182862D880F880F880F845D0E94D9
:102770005F0DF92DF3709F2E8C7F982AF8019282BD
:10278000338244828CE0F694E794D794C7948A9578
:10279000D1F7FC2DF07FCF2E8B2D8F70C82AF8013A
:1027A000C58256822782F3E06F16710409F483C054
:1027B000D8F491E06916710409F46CC0E2E06E1679
:1027C000710409F045C0A80168E08AE30E94560E32
:1027D0006A2D82E090E00E941C0E4D85682D82E0FB
:1027E00090E00E94020E19C0F4E06F16710409F423
:1027F00040C085E06816710459F5A80168E082E5DB
:102800000E94560E6A2D85E090E00E941C0E4D85B8
:10281000682D85E090E00E94020EC8012D960FB64B
:10282000F894DEBF0FBECDBFDF91CF911F910F9106
:10283000FF90EF90DF90CF90BF90AF909F908F90E0
:102840007F906F905F904F903F902F900C94DF2877
:10285000A80168E08AE20E94560E6A2D90E080E0AE
:102860000E941C0E4D85682D90E080E00E94020EB3
:10287000D4CFA80168E08AE40E94560E6A2D84E055
:1028800090E00E941C0E4D85682D84E090E00E942F
:10289000020EC3CFA80168E082E30E94560E6A2DA3
:1028A00081E090E00E941C0E4D85682D81E090E053
:1028B0000E94020EB2CFA80168E082E40E94560E88
:1028C0006A2D83E090E00E941C0E4D85682D83E008
:1028D00090E00E94020EA1CF2F923F924F925F9202
:1028E0006F927F928F929F92AF92BF92CF92DF9220
:1028F000EF92FF920F931F93CF93DF93CDB7DEB785
:102900002E970FB6F894DEBF0FBECDBF19012A0176
:102910003B018D879E874801012B09F05FC0E09144
:102920004604F0914704EE0FFF1FEE0FFF1FEE5A13
:10293000FB4FA080B180C280D380CE0101967C0184
:1029400089019201AB016D857E8590E080E00E9457
:10295000050184E190E00E9443288C0189859A85D5
:10296000AB85BC85F8019083818339814A812B81B5
:1029700023702283438334832CE0B695A7959795E3
:1029800087952A95D1F7807F2D813E819F819F7009
:10299000892B85833683278381149104D1F18A940E
:1029A000892809F44EC0C8012E960FB6F894DEBFF0
:1029B0000FBECDBFDF91CF911F910F91FF90EF9090
:1029C000DF90CF90BF90AF909F908F907F906F904F
:1029D0005F904F903F902F900C94DF28E091480437
:1029E000F0914904EE0FFF1FEE0FFF1FEE5AFB4F51
:1029F000A080B180C280D380FE0131967F01810129
:102A00009A01AB016D857E8581E090E00E94050111
:102A1000A0CFA80168E08AE10E94560E20923604F9
:102A200030923704409238045092390460923A044C
:102A300070923B04FD85F0933C048E8580933D04A9
:102A4000B2CFA80168E082E20E94560E20923E04B6
:102A500030923F04409240045092410460924204FC
:102A600070924304ED85E0934404FE85F0934504A1
:102A70009ACF2F923F924F925F926F927F928F9256
:102A80009F92AF92BF92CF92DF92EF92FF920F93FD
:102A90001F93CF93DF93CDB7DEB7EE970FB6F894C1
:102AA000DEBF0FBECDBF722E29A3832E3AA3942E74
:102AB0004BA35CA36DA3E72F7EA38FA398A7502EF3
:102AC000412E052F162FD82EF92F272D382DAFEF99
:102AD0000E9413282E373A41464051056105710581
:102AE0008105910511F008F09DC080E889A38AE175
:102AF0008AA386E08BA31CA21DA21EA21FA218A659
:102B0000E52CF42C60E8762E7AE1872EE6E09E2E06
:102B100000E010E0E0E0D12CF0E09701220F331F3D
:102B2000220F331F220F331F23523C4FC9014996F6
:102B3000D90159967C92DC0111968C9211971296CC
:102B40009C92129713960C93139714961C931497B8
:102B50001596EC9315971696DC9216971796FC939C
:102B60008701045A1B4FF8018081882309F4FEC1B4
:102B7000CE0181960E942509782EF701EE0FFF1FE6
:102B8000E352FC4F81859285892B09F47BC1A0908B
:102B90003E04B0903F04C0904004D0904104E090C7
:102BA0004204F0904304009144041091450429A18B
:102BB0003AA14BA15CA16DA17EA1CE010D964C0165
:102BC0008FA198A50E94CE061F92872CA12CCD84A0
:102BD000DE84EF84F88809891A892B893C894D891C
:102BE0005E896F89788D852D942D0E9477130F90C3
:102BF00080E0EE960FB6F894DEBF0FBECDBFDF913A
:102C0000CF911F910F91FF90EF90DF90CF90BF90E9
:102C1000AF909F908F907F906F905F904F903F907C
:102C20002F900895272D382D492D502F612F7E2F5D
:102C30008D2D9F2F2115B1EC3B07BAE14B07BDE36A
:102C40005B07B5E06B0771058105910509F008F494
:102C50004AC219A281EC8AA38AE18BA38DE38CA3DB
:102C600085E08DA31EA21FA218A6052D142D46EFE8
:102C7000642E43E0742EEDEDF3E0FAAFE9AFDF012F
:102C8000F301312C9801220F331F3CA72BA72A51A7
:102C90003C4F49016D017801132D20813181428122
:102CA0005381648175818681978138962115344ED0
:102CB0004B405445624071058105910571F068F003
:102CC000151559F0D60119962D913C91D4018D918D
:102CD0009C912817390709F4D9C11F5FB2E0CB0EC8
:102CE000D11C1630D1F68701F701E45AFB4F7F0162
:102CF0008081882309F443C129A03AA04BA05CA09D
:102D00008DA09EA0BFA1B9A7E8A5EAA7000F111F3B
:102D1000000F111F000F111FF801E352FC4FDF01DC
:102D20005996218E11963C92119712964C921297B9
:102D300013965C92139714968C92149715969C9206
:102D40001597F9A51696FC9316970AA517960C9356
:102D50009101A201B4018F2F902F2115A1EC3A0708
:102D6000AAE14A07ADE35A07A5E06A0771058105A4
:102D7000910509F008F4A4C019A634E03AA74BE67F
:102D80004DA754EF5BAF84E18CAF1DAE212C1EAE7E
:102D90001DAA1EAA1FAA18AE2DA93EA94FA958AD5B
:102DA0002D873E874F87588B198A1A8A1B8A1C8A5F
:102DB00081E090E0A0E0B0E08D8B9E8BAF8BB88F70
:102DC0004BA55CA543525C4F7A01DA0119960D912F
:102DD0001C9129A53AA54DA55BAD6CAD7DAD822DAD
:102DE0009EAD0E946C14F70181849284512C412C79
:102DF0009701275F3F4F3CA72BA72DAA29AC3AACE0
:102E0000D301DC901196EC9011971296FC901297DA
:102E100013960C91139714961C9114971596BC91C8
:102E2000F301C680B780F8E06F0E711C2D2D3E2D8A
:102E30004F2D502F612F7B2F8C2D9B2DA0E00E94BA
:102E4000282839F0F101818592858815990509F4C2
:102E50009FC0FFEF4F1A5F0A02E0200E311C26E0F0
:102E60004216510469F68114910409F4DFC080E030
:102E70008A94892809F0BDCE60E881EB0E94450D57
:102E800080E0B7CEA0903604B0903704C0903804EC
:102E9000D0903904E0903A04F0903B0400913C0457
:102EA00010913D0429A13AA14BA15CA16DA17EA185
:102EB000FE013D964F018FA198A50E94CE0684CEBB
:102EC0002F37B0EF3B07BAEF4B07B2E05B07610566
:102ED00071058105910509F008F4AEC02F3F354D0D
:102EE00041415E47634071058105910511F008F08D
:102EF000B8C051016201740109A51AA520E034E0AF
:102F00004BE654EF64E170E080E090E00E943027EF
:102F1000192F2DA73EA74FA758AB69AB7AAB8BAB48
:102F20009CABA7E00E94282809F0B2C09101A20141
:102F3000B401802F9AA501E00E94D42709A51AA503
:102F40000E940A2801E00E94D42729A73AA74DA78A
:102F50005BAF6CAF7DAF282E9EAF20E031E040E04C
:102F600050E02DAB3EAB4FAB58AF16CF61E0852D97
:102F7000942D0E94E60D81E0D8018C93F9CD61E09B
:102F8000852D942D0E94E60D81E0D7018C93B4CE5F
:102F9000D98EEA8EFB8E0C8F1D8FBE8FCF8EB8A27E
:102FA000CE0149960E94250989AF298D3A8D4B8D16
:102FB0005C8D6D8D7E8DCE0101964C01A9A4BAA4C5
:102FC000CDA4DBACECACFDAC0DA91EAD8F8D98A1F2
:102FD0000E94CE06AA24A394298D3A8D4B8D5C8D38
:102FE0006D8D7E8D8F8D98A12F3F354D41415E4770
:102FF000634071058105910509F008F4A12CAF9299
:1030000089ACC980DA80EB80FC800D811E812F8124
:10301000388549855A856B857C85C2010E94771366
:10302000EBA5FCA5808091800F9013CF60E281EB2F
:103030000E94450D80E0DDCD19A634E03AA74BE6AD
:103040004DA754EF5BAF84E18CAF1DAE212C1EAEBB
:1030500020E032E843E050E02DAB3EAB4FAB58AF41
:103060009BCE9101A201B40189A59AA502E00E941C
:10307000D42729A73AA74DA75BAF6CAF7DAF282E09
:103080009EAF1DAA1EAA1FAA18AE86CE81E0B1CDA2
:103090008DA59EA5AFA5B8A927E0880F991FAA1FE7
:1030A000BB1F2A95D1F79C01AD013250410951094E
:1030B0002DAB3EAB4FAB58AFADA4BEA4CFA4D8A8A8
:1030C000E9A8FAA80BA99101A201B40189A59AA5C2
:1030D0000E94A52629A73AA74DA75BAF6CAF7DAF8D
:1030E000282E9EAF59CEE52CF42C2115344E4B40A2
:1030F0005445624071058105910509F008F40DCD34
:10310000B4CD682F70E090E080E040E10C94221391
:10311000AF92BF92CF92DF92EF92FF920F931F93E5
:10312000CF93DF93A82EB62EC42ED22ED5E4D09303
:10313000BC001092C8021092C702109211031092A4
:10314000330310920F03C1E0C0930E031092E90203
:1031500061E082E10E94370C61E083E10E94370C5C
:103160008091B9008E7F8093B9008091B9008D7FE6
:103170008093B90088E48093B800D093BC0086EBBC
:103180009CE090938B0180938A0187EB9CE0909365
:103190008F0180938E0180915B04C0931003809314
:1031A000320310921103109233030E9487008111A1
:1031B00076C180E00E945F0D90E0880F892F881F04
:1031C000990B0197B1F362E987EB0E94450D80E40A
:1031D00098E7ADE7B1E080934A0490934B04A09345
:1031E0004C04B0934D041092520410925304109268
:1031F00054041092550420913604309137044091C4
:1032000038045091390460913A0470913B0410E005
:1032100000E080913C0490913D040E946C14209148
:103220003E0430913F04409140045091410460912C
:1032300042047091430401E010E0809144049091B5
:1032400045040E946C1460E880E10E94450D60E82E
:1032500081E10E94450D60E882E10E94450D60E831
:1032600083E10E94450D60E884E10E94450D60E81D
:1032700085E10E94450D60E886E10E94450D60E809
:1032800087E10E94450D6CE080E10E94450D6CE0F5
:1032900081E10E94450D6CE082E10E94450D6CE0E9
:1032A00083E10E94450D6CE084E10E94450D6CE0D5
:1032B00085E10E94450D6CE086E10E94450D6CE0C1
:1032C00087E10E94450D10E000E020E030E24FE58C
:1032D00050EA62E170E080E090E00E946C1401E04E
:1032E00010E020E030E24FE550EA62E170E080E07B
:1032F00090E00E946C141092E7031092E603109283
:10330000E9031092E8031092EB031092EA03109283
:10331000ED031092EC031092EF031092EE03109263
:10332000F1031092F00381E090E09093F303809317
:10333000F2039093F5038093F40370E060E090E073
:1033400080E00E94330E70E060E081E090E00E9437
:10335000330E70E060E082E090E00E94330E70E097
:1033600060E083E090E00E94330E70E060E084E073
:1033700090E00E94330E70E060E085E090E00E94F3
:10338000330E61E070E086E090E00E94330E61E071
:1033900070E087E090E00E94330E60E082EA0E94D5
:1033A000450D60E083EA0E94450D60E084EA0E94DA
:1033B000450D60E281EB0E94450D60E881EB0E94C3
:1033C000450DC6EFD3E08CE5E82E84E0F82E10E042
:1033D00000E0188219821A821B821C821D821E82C2
:1033E0001F82289660E0C8010E94E60DF701119245
:1033F0007F010F5F1F4F0830110559F781E080935F
:10340000BC0210E000E020E030E24FE550EA62E16B
:1034100070E080E090E00E946C1401E010E020E099
:1034200030E24FE550EA62E170E080E090E00E9417
:103430006C1410E000E020E637EB43E050E860E079
:1034400070E080E090E00E94391501E010E0D110BA
:1034500035C024EC33EF45E555E160E070E080E0F5
:1034600090E00E94391502E010E020E030E84FE4DF
:1034700052E160E070E080E090E00E9439156A2D32
:1034800090E080E00E94E60D6B2D81E090E00E94CC
:10349000E60D6C2D82E090E00E94E60D02C01092D5
:1034A000BC021092BC00DF91CF911F910F91FF9051
:1034B000EF90DF90CF90BF90AF90089520EC3AE866
:1034C00047E457E2CACF1F920F920FB60F92112412
:1034D0002F933F934F935F936F937F938F939F931C
:1034E000AF93BF93EF93FF9384E393E00E94A30B0A
:1034F000FF91EF91BF91AF919F918F917F916F91CC
:103500005F914F913F912F910F900FBE0F901F90A1
:1035100018951F920F920FB60F9211242F938F932D
:103520009F93EF93FF93E0914403F09145038081D3
:10353000E0914A03F0914B0382FF0BC08081FF9121
:10354000EF919F918F912F910F900FBE0F901F9031
:103550001895208180914D038F5F8F7390914E035A
:10356000891769F3E0914D03F0E0EC5CFC4F258F87
:1035700080934D03E4CF1F920F920FB60F92112448
:103580002F933F938F939F93AF93BF938091B601F7
:103590009091B701A091B801B091B9013091B501F6
:1035A00023E0230F2D3768F126E8230F0296A11D93
:1035B000B11D2093B5018093B6019093B701A093FC
:1035C000B801B093B9018091B1019091B201A0917D
:1035D000B301B091B4010196A11DB11D8093B10159
:1035E0009093B201A093B301B093B401BF91AF9196
:1035F0009F918F913F912F910F900FBE0F901F9031
:1036000018950196A11DB11DD4CF1F920F920FB630
:103610000F9211242F933F934F935F936F937F9358
:103620008F939F93AF93BF93EF93FF93E091B90074
:10363000E87FE93C08F0DAC0F0E0EF5DF44E0C946E
:103640009F267A1CF61BF61BF61BF61BF61BF61BB9
:10365000F61B841CF61BF61BF61BF61BF61BF61B53
:10366000F61B841CF61BF61BF61BF61BF61BF61B43
:10367000F61B8C1CF61BF61BF61BF61BF61BF61B2B
:10368000F61BA01CF61BF61BF61BF61BF61BF61B07
:10369000F61B8C1CF61BF61BF61BF61BF61BF61B0B
:1036A000F61BEA1BF61BF61BF61BF61BF61BF61B9E
:1036B000F61B4F1CF61BF61BF61BF61BF61BF61B28
:1036C000F61B471CF61BF61BF61BF61BF61BF61B20
:1036D000F61BCD1CF61BF61BF61BF61BF61BF61B8A
:1036E000F61B3B1CF61BF61BF61BF61BF61BF61B0C
:1036F000F61B581CF61BF61BF61BF61BF61BF61BDF
:10370000F61B711CF61BF61BF61BF61BF61BF61BB5
:10371000F61B711CF61BF61BF61BF61BF61BF61BA5
:10372000F61B711CF61BF61BF61BF61BF61BF61B95
:10373000F61B711CF61BF61BF61BF61BF61BF61B85
:10374000F61B071CF61BF61BF61BF61BF61BF61BDF
:10375000F61B0C1CF61BF61BF61BF61BF61BF61BCA
:10376000F61B071CF61BF61BF61BF61BF61BF61BBF
:10377000F61B0C1CF61BF61BF61BF61BF61BF61BAA
:10378000F61BAB1CF61BF61BF61BF61BF61BF61BFB
:10379000F61B101CF61BF61BF61BF61BF61BF61B86
:1037A000F61B101CF61BF61BF61BF61BF61BF61B76
:1037B000F61B251CF61BF61BF61BF61BF61BF61B51
:1037C000F61BC71CF61BF61BF61BF61BF61BF61B9F
:1037D000F61BC71C80E380930D0385ED8093BC002E
:1037E0008091BC0084FDFCCF10920F03FF91EF91FC
:1037F000BF91AF919F918F917F916F915F914F9109
:103800003F912F910F900FBE0F901F9018958091B0
:10381000B001803208F4C9C085E88093BC00E6CFCF
:1038200084E080930F0310928D0110928C01E0913F
:103830008A01F0918B01099580918C01811105C05D
:1038400081E080938C0110926A01E0918D0181E00A
:103850008E0F80938D01F0E0E659FE4F80818093BA
:10386000BB0090918D0180918C019817A8F685EC92
:103870008093BC00BBCFE0910C0381E08E0F80935E
:103880000C038091BB00F0E0E551FD4F80839091E7
:103890000C0380910B03981708F0BECFE8CF88E3A4
:1038A00080930D0385EC8093BC0010920F039ECF94
:1038B000E0910C0381E08E0F80930C038091BB009C
:1038C000F0E0E551FD4F808380910E03882309F4D9
:1038D0007CC085ED8093BC008091BC0084FF84CFC8
:1038E000FBCF83E080930F031092B00185EC8093AF
:1038F000BC007CCF10920D0385ED8093BC008091BD
:10390000BC0084FF71CFFBCF8091EA028093BB00A3
:1039100085EC8093BC006ACF90910C0380910B03DF
:10392000981708F45BC080910E03882309F44DC0FA
:1039300085ED8093BC008091BC0084FF55CFFBCF08
:1039400080E280930D0385ED8093BC008091BC00E4
:1039500084FF4ACFFBCF85EC8093BC0010920F030D
:103960008091B001803230F4E091B001F0E0E05796
:10397000FE4F10826091B00170E0E0918E01F091F5
:103980008F0180E991E009951092B0012FCF85EC6D
:103990008093BC0010920F0329CF85ED8093BC006B
:1039A0008091BC0084FF20CFFBCFE091B00181E08B
:1039B0008E0F8093B0018091BB00F0E0E057FE4F86
:1039C000808385EC8093BC0011CF81E08093E90275
:1039D00084EA8093BC0010920F0308CFE0910C039F
:1039E00081E08E0F80930C03F0E0E551FD4F808164
:1039F0008093BB0085EC8093BC00F8CEE4E3F3E059
:103A00001382128288EE93E0A0E0B0E08483958375
:103A1000A683B78322E131E03183208325EC30E0B7
:103A20003587248724EC30E03787268720EC30E088
:103A3000318B208B21EC30E0338B228B22EC30E079
:103A4000358B248B26EC30E0378B268B118E128E33
:103A5000138E148EE1EDF3E013821282848395833A
:103A6000A683B78384E291E091838083EDEDF3E058
:103A700085E0DF011D928A95E9F71582168217828B
:103A8000108680E680935B0480E498E7ADE7B1E0C0
:103A900080934A0490934B04A0934C04B0934D043C
:103AA0001092470410924604109249041092480460
:103AB00010925A040895CF93DF93CDB7DEB7639782
:103AC0000FB6F894DEBF0FBECDBF789484B5826088
:103AD00084BD84B5816084BD85B5826085BD85B5B2
:103AE000816085BD80916E00816080936E00109230
:103AF00081008091810082608093810080918100AB
:103B0000816080938100809180008160809380003B
:103B10008091B10084608093B1008091B000816099
:103B20008093B00080917A00846080937A008091C5
:103B30007A00826080937A0080917A00816080931D
:103B40007A0080917A00806880937A001092C10098
:103B50002EEA30E04AE950E068EB70E0F901A49108
:103B6000FA0184918823A1F090E0880F991FFC014D
:103B7000EA57FF4F0591149184589F4FFC0185919E
:103B800094918FB7F894F8019081A92BA0838FBFEF
:103B90002F5F3F4F4F5F5F4F62177307F9F660E08B
:103BA0008AE00E94370C61E08AE00E94370C61E0F5
:103BB0008BE00E94370C61E08CE00E94370C61E0E2
:103BC0008DE00E94370C60E08FE00E94370C60E0CF
:103BD0008EE00E94370C61E080E10E94370C61E0CA
:103BE00081E10E94370C61E082E10E94370C60E0C5
:103BF00083E10E94370C8AB18C6F8AB984B18360EB
:103C000084B92A9A60E080E00E94EF0A1092B9021B
:103C100060E081E00E94EF0A1092BA0260E082E068
:103C20000E94EF0A1092BB0220E041E060E081E0D8
:103C30000E94881861E080E10E94370C60E081E119
:103C40000E94370C61E082E10E94370C61E083E161
:103C50000E94370C60E072EC81E090E00E94810AE3
:103C600019EBA12E12E0B12E00E0C02E00E0D02E04
:103C700082E5282E33243A9484E393E00E94820B59
:103C8000892BD1F384E393E00E94600BF82E8154DA
:103C9000990B8A33910508F05EC38E5A914EFC0150
:103CA0000C949F268C1EAB21AB21AB21AB214D2167
:103CB0003E1FAB21AB21AB21AB21AB21AB21AB2113
:103CC000AB21AB21AB21F31FCF217E21AB21AB2157
:103CD000EA20AB21AB21B721AB21AB21AB21AB213A
:103CE000AB21AB218C1E891F6A1FAB21AB21461F64
:103CF000251FAB21EB23AB21AB21AB21AB21AB21AA
:103D0000AB21AB21AB21F31F20257E21AB21122556
:103D1000EA20AB21AB21B72184E393E00E94820B20
:103D20000397D4F384E393E00E94600B8C0184E357
:103D300093E00E94600B8D871C868C859D85082BE7
:103D4000192B84E393E00E94600B91E6F91207C0FF
:103D5000880F912F991F9927991F892B10682A9AEC
:103D60009091B902901709F12B989BB193709BB970
:103D70009BB198013327A901440F551F440F551FCC
:103D8000942B9BB995B19C7F95B995B1022E232FA9
:103D9000000C221F330B000C221F331F292B25B9C7
:103DA000419A41982B9A0093B9029091BA029117C7
:103DB00019F195B19E7E95B99BB193709BB99BB15A
:103DC000212F30E0A901440F551F440F551F942B9C
:103DD0009BB995B19C7F95B995B1022E232F000C0C
:103DE000221F330B000C221F331F292B25B9419AA8
:103DF00041982C9A1093BA029091BB02981709F43B
:103E0000AAC295B19C7D95B99BB193709BB99BB1AA
:103E1000282F30E0A901440F551F440F551F942B44
:103E20009BB995B19C7F95B995B1022E232F000CBB
:103E3000221F330B000C221F331F292B25B9419A57
:103E400041982D9A8093BB0286C284E393E00E943E
:103E5000820B18161906CCF784E393E00E94600BDE
:103E60009C01207F33272033310511F40C94662602
:103E700020E041E060E081E00E9488186091BC028F
:103E8000606384E393E00E94C50B65C284E393E022
:103E90000E94820B18161906CCF784E393E00E9467
:103EA000600B8093C7029090BD0204EC12E0BEEB61
:103EB000EB2EB2E0FB2EF80141918F01F7016191E9
:103EC00071917F01892D0E94870EF2E0073C1F0748
:103ED00091F741C284E393E00E94820B1816190601
:103EE000CCF784E393E00E94600B8C01BC017595D4
:103EF0006795617081E10E94370C159507951595BE
:103F0000079515950795602F617083E10E94370C26
:103F100022C284E393E00E94820B0497D4F384E3EB
:103F200093E00E94600B8C0184E393E00E94600B9D
:103F30003C0184E393E00E94600B072C000C88088E
:103F40009908982C872C762C6624092E000CAA0B35
:103F5000BB0BDC019927882786299729A829B9292D
:103F6000012E000C220B330B3C014D01602A712AFB
:103F7000822A932A84E393E00E94600B092E000CAE
:103F8000AA0BBB0BB82FAA2799278827682A792A5A
:103F90008A2A9B2A84E393E00E94170CE09146034F
:103FA000F091470380818F7E8083E0914603F091FA
:103FB00047038081877F8083E0914603F091470328
:103FC00080818F778083E0914603F0914703808161
:103FD0008F7D808380914E0380934D03C401B30194
:103FE0000E94810AB8C184E393E00E94820B059786
:103FF000D4F384E393E00E94600B8C0184E393E0AC
:104000000E94600B8987188688859985082B192B53
:1040100084E393E00E94600BE82E84E393E00E9427
:10402000600B4C0184E393E00E94600B8B871A863F
:10403000EA85FB858E2A9F2A800E911E4E2D440F05
:104040005F2DC8012E2D523731F4212F221F222738
:10405000221F242B90682A9A3091B902381709F14F
:104060002B983BB133703BB93BB1BC017727FB01C7
:10407000EE0FFF1FEE0FFF1F3E2B3BB935B13C7F0C
:1040800035B935B1062E672F000C661F770B000C73
:10409000661F771F632B65B9419A41982B9A8093CD
:1040A000B9023091BA02391719F185B18E7E85B9FE
:1040B0008BB183708BB98BB1692F70E0FB01EE0F70
:1040C000FF1FEE0FFF1F8E2B8BB985B18C7F85B93B
:1040D00085B1062E672F000C661F770B000C661F3C
:1040E000771F682B65B9419A41982C9A9093BA0230
:1040F0008091BB02821719F185B18C7D85B98BB196
:1041000083708BB93BB1822F90E0BC01660F771FA3
:10411000660F771F362B3BB935B13C7F35B935B1CA
:10412000082E892F000C881F990B000C881F991FDF
:10413000832B85B9419A41982D9A2093BB020000A8
:10414000000000000000000000000000000000006F
:104150000000000000000000000000000000429885
:104160008AB183708AB984B18C7F84B98FB78F8309
:10417000F8942A988F818FBF000000000000000093
:10418000000000000000000000000000000000002F
:10419000000000000000000099B123B196959695AB
:1041A000F0E42F9F90011124922B2A9A8AB18C6FF0
:1041B0008AB984B1836084B9429A8091C00085FF36
:1041C000FCCF9093C6000F5F1F4F8016910609F039
:1041D00038CFC1C084E393E00E94820B0597D4F3EB
:1041E00084E393E00E94600B8C0184E393E00E94DF
:1041F000600B898B188AE889F9890E2B1F2B84E3C1
:1042000093E00E94600B782E84E393E00E94600BA1
:104210004C0184E393E00E94600B449A409A8B8B9C
:104220001A8A8A899B89882A992A800E911EFF24DE
:10423000FA9410C0EF2DF0E0F394E654FE4F408165
:10424000B801872D0E94870E0F5F1F4F80169106C1
:1042500009F424C59FEFF912EDCF8091C00085FFCE
:10426000FCCF2092C6008AEBE82E81E0F82E84E392
:1042700093E00E94820B18161906CCF784E393E0B2
:104280000E94600BF70181937F01AE16BF0679F79C
:10429000FF24F394F0E0E0E0D0CF84E393E00E94C9
:1042A000820B0A97D4F384E393E00E94600B80931F
:1042B000BD02FEEBEF2EF2E0FF2EA4EC8A2EA2E070
:1042C0009A2E84E393E00E94600B8C0184E393E0D8
:1042D0000E94600B412C0429182BF70101931193C4
:1042E0007F0184E393E00E94600BF40181934F010E
:1042F000F4ECEF16F2E0FF0621F72DC084E393E023
:104300000E94820B0497D4F384E393E00E94600B35
:10431000E82E84E393E00E94600B8C0184E393E039
:104320000E94600B8F871E868E859F85082B192B18
:1043300084E393E00E94600B94E7F91207C0EE0C4F
:10434000912F991F9927991FE92A1068482FB801C2
:104350008E2D0E94870EC114D10409F48DCC0E94C9
:104360008E0B882309F488CC0E94000085CC61E084
:1043700081E10E94370C0E94371281119DC463E5D0
:1043800084E393E00E94C50B60E883EF0E94610F15
:1043900060E284EF0E94610F0E943712DCCF61E07F
:1043A00080E10E94370C60E081E10E94370C61E0FF
:1043B00082E10E94370C61E083E10E94370C49E002
:1043C00060E074E280E00E94870E2A9A8091B90230
:1043D000882381F02B988BB183708BB98BB18BB90B
:1043E00085B18C7F85B985B185B9419A41982B9A61
:1043F0001092B9028091BA028432A1F085B18E7E0A
:1044000085B98BB183708BB98BB180698BB985B15C
:104410008C7F85B985B185B9419A41982C9A84E2FF
:104420008093BA028091BB02882391F085B18C7D84
:1044300085B98BB183708BB98BB18BB985B18C7F0A
:1044400085B985B185B9419A41982D9A1092BB02E0
:10445000000000000000000000000000000000005C
:10446000000000000000000000000000000000004C
:104470004298000000000000000000000000000062
:10448000000000000000000000000000000000002C
:10449000000000000000000000000000000000001C
:1044A000000000000000000000000000000000000C
:1044B000000042988AB183708AB984B18C7F84B934
:1044C0008FB78B83F8942A988B818FBF00000000F0
:1044D00000000000000000000000000000000000DC
:1044E00000000000000000000000000089B183B15E
:1044F0002A9A8AB18C6F8AB984B1836084B9429A4E
:10450000429A48E261E074E280E00E94870E44E84B
:1045100061E074E280E00E94870E46E060E074E2B1
:1045200080E00E94870E49E360E074E280E00E9430
:10453000870E2A9A8091B902882381F02B988BB13B
:1045400083708BB98BB18BB985B18C7F85B985B1FF
:1045500085B9419A41982B9A1092B9028091BA027A
:104560008432A1F085B18E7E85B98BB183708BB911
:104570008BB180698BB985B18C7F85B985B185B9DF
:10458000419A41982C9A94E29093BA028091BB028E
:10459000882391F085B18C7D85B98BB183708BB9FF
:1045A0008BB18BB985B18C7F85B985B185B9419ABD
:1045B00041982D9A1092BB020000000000000000FC
:1045C00000000000000000000000000000000000EB
:1045D0000000000000000000429800000000000001
:1045E00000000000000000000000000000000000CB
:1045F00000000000000000000000000000000000BB
:1046000000000000000000000000000000000000AA
:104610000000000000000000000042988AB1837092
:104620008AB984B18C7F84B98FB78A83F8942A9829
:104630008A818FBF00000000000000000000000021
:10464000000000000000000000000000000000006A
:104650000000000089B123B12A9A9AB19C6F9AB9DF
:1046600094B1936094B9429A429A86958695E0E413
:104670002E9F90011124822B8A3209F422C38EE5E9
:1046800091E00E9415132A9A8091B902882381F043
:104690002B988BB183708BB98BB18BB985B18C7F23
:1046A00085B985B185B9419A41982B9A1092B90282
:1046B0008091BA028432A1F085B18E7E85B98BB12A
:1046C00083708BB98BB180698BB985B18C7F85B9CB
:1046D00085B185B9419A41982C9AF4E2F093BA02D7
:1046E0008091BB02882391F085B18C7D85B98BB117
:1046F00083708BB98BB18BB985B18C7F85B985B14E
:1047000085B9419A41982D9A1092BB020000000091
:104710000000000000000000000000000000000099
:1047200000000000000000000000000042980000AF
:104730000000000000000000000000000000000079
:104740000000000000000000000000000000000069
:104750000000000000000000000000000000000059
:10476000000000000000000000000000000042986F
:104770008AB183708AB984B18C7F84B98FB78983F9
:10478000F8942A9889818FBF000000000000000083
:104790000000000000000000000000000000000019
:1047A000000000000000000069B183B12A9A9AB1AC
:1047B0009C6F9AB994B1936094B9429A429A669563
:1047C000669520E4829FC0011124682B84E393E066
:1047D0000E94C50BC0CD44E050E06EE371E084E37D
:1047E00093E00E94200B64E384E393E00E94C50BF6
:1047F00083E491E00E9415138091BC02882309F4A0
:1048000058C282E391E00E94151389E491E00E946E
:1048100015138091BB020E9481188091BA020E94F8
:1048200081188091B9020E94811880E591E00E9470
:1048300015138091BD020E9481186091BE02709193
:10484000BF0290E080E040E10E9422138EE491E0FC
:104850000E9415138091C4020E94811888E591E09E
:104860000E9415138091BD020E9481186091C002C0
:104870007091C10290E080E040E10E9422138EE43A
:1048800091E00E9415138091C5020E94811888E56D
:1048900091E00E9415138091BD020E9481186091E1
:1048A000C2027091C30290E080E040E10E942213B6
:1048B00086E591E00E94151310EC2A9A8091B902C6
:1048C0001817A9F02B988BB183708BB99BB1812FEE
:1048D000880F880F892B8BB985B18C7F85B985B1FD
:1048E000836085B9419A41982B9A1093B9028091BF
:1048F000BA028F3FA1F085B18E7E85B98BB18370EE
:104900008BB98BB18C6F8BB985B18C7F85B985B133
:10491000836085B9419A41982C9A3092BA0280916D
:10492000BB02882391F085B18C7D85B98BB18370F2
:104930008BB98BB18BB985B18C7F85B985B185B9C0
:10494000419A41982D9A1092BB020000000000008D
:104950000000000000000000000000000000000057
:10496000000000000000000000004298000000006D
:104970000000000000000000000000000000000037
:104980000000000000000000000000000000000027
:104990000000000000000000000000000000000017
:1049A00000000000000000000000000042988AB1F2
:1049B00083708AB984B18C7F84B98FB78E83F89461
:1049C0002A988E818FBF00000000000000000000C8
:1049D00000000000000000000000000000000000D7
:1049E00000000000000069B183B12A9A9AB19C6F5F
:1049F0009AB994B1936094B9429A429A6695669531
:104A000020E4829FC0011124682B84E393E00E947C
:104A1000C50B1F5F143D09F050CF86E591E00E9461
:104A2000151399CC44E050E06EE371E084E393E029
:104A30000E94200B64E384E393E00E94C50B8BCCBF
:104A40002A9A8091B902882381F02B988BB18370C8
:104A50008BB98BB18BB985B18C7F85B985B185B99F
:104A6000419A41982B9A1092B9028091BA028823F8
:104A700091F085B18E7E85B98BB183708BB98BB186
:104A80008BB985B18C7F85B985B185B9419A41983B
:104A90002C9A1092BA028091BB02803CA1F085B1A1
:104AA0008C7D85B98BB183708BB98BB18BB985B196
:104AB0008C7F85B985B1836085B9419A41982D9ADB
:104AC00080EC8093BB0200000000000000000000AA
:104AD00000000000000000000000000000000000D6
:104AE00000000000000042980000000000000000EC
:104AF00000000000000000000000000000000000B6
:104B000000000000000000000000000000000000A5
:104B10000000000000000000000000000000000095
:104B2000000000000000000042988AB183708AB93A
:104B300084B18C7F84B98FB78D83F8942A988D8146
:104B40008FBF000000000000000000000000000017
:104B50000000000000000000000000000000000055
:104B6000000069B183B12A9A9AB19C6F9AB994B145
:104B7000936094B9429A429A66956695E0E48E9F56
:104B8000C0011124682B84E393E00E94C50B44E02C
:104B900060E272E280E00E94870E2A9A8091B90258
:104BA000882381F02B988BB183708BB98BB18BB933
:104BB00085B18C7F85B985B185B9419A41982B9A89
:104BC0001092B9028091BA02882391F085B18E7E4D
:104BD00085B98BB183708BB98BB18BB985B18C7F63
:104BE00085B985B185B9419A41982C9A1092BA023B
:104BF0008091BB02803CA1F085B18C7D85B98BB1E1
:104C000083708BB98BB18BB985B18C7F85B985B138
:104C1000836085B9419A41982D9AF0ECF093BB02DC
:104C20000000000000000000000000000000000084
:104C30000000000000000000000000000000000074
:104C4000429800000000000000000000000000008A
:104C50000000000000000000000000000000000054
:104C60000000000000000000000000000000000044
:104C70000000000000000000000000000000000034
:104C8000000042988AB183708AB984B18C7F84B95C
:104C90008FB78C83F8942A988C8175CD449A2A9A80
:104CA00040988091C00085FFFCCFF5E4F093C600EA
:104CB00052CB88E391E0A7CD81E691E00E941513E5
:104CC0004ACB8BE591E00E941513DDCC9C01369513
:104CD000279536952795369527952170AC015695E1
:104CE0004795569547954170BC01769567956170DB
:104CF00081700E9488180C943E1FA1E21A2EAA1BF4
:104D0000BB1BFD010DC0AA1FBB1FEE1FFF1FA2177B
:104D1000B307E407F50720F0A21BB30BE40BF50B78
:104D2000661F771F881F991F1A9469F76095709501
:104D3000809590959B01AC01BD01CF010895EE0FC8
:104D4000FF1F0590F491E02D0994DF93CF931F93FB
:104D50000F939A9DF02D219FF00D8B9DF00D8A9D54
:104D6000E02DF10D039FF00D029FE00DF11D4E9D12
:104D7000E00DF11D5E9DF00D4F9DF00D7F936F9343
:104D8000BF92AF925F934F93D5010E9434288B015D
:104D9000AC01D7010E943428EB01E80FF91FD601BE
:104DA0000E94F4262F913F91D6010E943428C60F0D
:104DB000D71FE81FF91FAF91BF910E94F4262F91D2
:104DC0003F910E943428C60FD71FE81FF91FD60154
:104DD0000E943428E60FF71F9801BE01CF010F9102
:104DE0001F91CF91DF9108950E943428460F571FDD
:104DF000C81FD91F08F431960895689401C0E8943B
:104E0000F92FF12B12F00C943127A0E0B0E0EBE089
:104E1000F7E20C94A327092E059422F40E948D2713
:104E2000112392F4F0E80F26FFEFE094F094009540
:104E30001095B094C094D094A194BF0ACF0ADF0A11
:104E4000EF0AFF0A0F0B1F0B0E943C2707FC0E9472
:104E50008D27CDB7DEB7ECE00C94BF27689401C076
:104E6000E8948F929F92CF93DF930E943C27DF912B
:104E7000CF919F908F90089588249924F401E401A4
:104E8000B0E49F93AA279A158B049C04ED05FE05B8
:104E9000CF05D007A10798F4AD2FDC2FCF2FFE2F21
:104EA000E92D982C892E982F872F762F652F542F38
:104EB000432F322F2227B85031F7BF9127C01B2E26
:104EC000BF91BB27220F331F441F551F661F771F3B
:104ED000881F991F881C991CEE1FFF1FCC1FDD1F08
:104EE000AA1FBB1F8A149B04EC05FD05CE05DF0538
:104EF000A007B10748F08A189B08EC09FD09CE0904
:104F0000DF09A00BB10B21601A94E1F62EF4940195
:104F1000AF01BE01CD01000C08956095709580959C
:104F2000909530954095509521953F4F4F4F5F4F4D
:104F30006F4F7F4F8F4F9F4F08952F923F924F9209
:104F40005F926F927F928F929F92AF92BF92CF9219
:104F5000DF92EF92FF920F931F93CF93DF93CDB722
:104F6000DEB7CA1BDB0B0FB6F894DEBF0FBECDBF9A
:104F700009942A88398848885F846E847D848C846B
:104F80009B84AA84B984C884DF80EE80FD800C8174
:104F90001B81AA81B981CE0FD11D0FB6F894DEBF57
:104FA0000FBECDBFED010895002E083090F0982F70
:104FB000872F762F652F542F432F322F222708500B
:104FC000F4CF220F331F441F551F661F771F881F02
:104FD000991F0A95B2F7002D089597FD1094002EA1
:104FE000083098F00850232F342F452F562F672F65
:104FF000782F892F912DF4CF1594979587957795D4
:10500000679557954795379527950A95AAF71124DF
:10501000002D08952A0D3B1D4C1D5D1D6E1D7F1D2D
:10502000801F911F08950024A7FD00942A0F301DB2
:10503000401D501D601D701D801D901D08952A1972
:105040003B094C095D096E097F09800B910B08959E
:105050000024A7FD00942A1730054005500560057F
:105060007005800590050895A29FB001B39FC0010F
:10507000A39F700D811D1124911DB29F700D811D84
:105080001124911D08950F931F93CF93DF938230C6
:10509000910510F482E090E0E0916604F0916704DD
:1050A00030E020E0B0E0A0E0309799F42115310520
:1050B00009F44AC0281B390B24303105D8F58A8100
:1050C0009B816115710589F1FB0193838283FE0148
:1050D00011C0408151810281138148175907E0F0C6
:1050E0004817590799F4109761F012960C9312978C
:1050F00013961C933296CF01DF91CF911F910F91A0
:1051000008950093660410936704F4CF21153105C8
:1051100051F04217530738F0A901DB019A01BD0194
:10512000DF01F801C1CFEF01F9CF909367048093BD
:105130006604CDCFFE01E20FF31F819391932250BD
:10514000310939832883D7CF2091640430916504D5
:10515000232B41F420910201309103013093650427
:105160002093640420910001309101012115310543
:1051700041F42DB73EB74091040150910501241B25
:10518000350BE0916404F0916504E217F307A0F495
:105190002E1B3F0B2817390778F0AC014E5F5F4F8D
:1051A0002417350748F04E0F5F1F50936504409356
:1051B0006404819391939FCFF0E0E0E09CCFCF9384
:1051C000DF930097E9F0FC01329713821282A091DD
:1051D0006604B0916704ED0130E020E01097A1F47F
:1051E00020813181820F931F2091640430916504E6
:1051F0002817390709F061C0F0936504E09364044F
:10520000DF91CF910895EA01CE17DF07E8F54A81D3
:105210005B819E0141155105B1F7E901FB83EA83EA
:1052200049915991C40FD51FEC17FD0761F4808196
:1052300091810296840F951FE90199838883828169
:1052400093819B838A83F0E0E0E012968D919C919C
:1052500013970097B9F52D913C911197CD010296C6
:10526000820F931F20916404309165042817390739
:1052700039F6309751F51092670410926604B09396
:105280006504A0936404BCCFD383C2834081518161
:10529000840F951FC817D90761F44E5F5F4F88814F
:1052A0009981480F591F518340838A819B81938341
:1052B00082832115310509F0B0CFF0936704E093A4
:1052C00066049ECFFD01DC01C0CF13821282D7CFCE
:0452D000F894FFCF80
:1052D4000000680480002C343C444C545C5C0000A6
:1052E4000000C50B200B4F0B170C820B600B740BCB
:1052F400000000000E0DDC0C840EB80CFE00C80C7F
:10530400B90C5B636F6E5D005B6469735D00484B51
:105314004146002D43494320000A414275733A0037
:105324000A466173683A0A002C09004F4B004E4745
:0A533400005253542045525200006D
:107E0000112484B714BE81FFF0D085E080938100F7
:107E100082E08093C00088E18093C10086E0809377
:107E2000C20080E18093C4008EE0C9D0259A86E02C
:107E300020E33CEF91E0309385002093840096BBD3
:107E4000B09BFECF1D9AA8958150A9F7CC24DD24C4
:107E500088248394B5E0AB2EA1E19A2EF3E0BF2EE7
:107E6000A2D0813461F49FD0082FAFD0023811F036
:107E7000013811F484E001C083E08DD089C08234E0
:107E800011F484E103C0853419F485E0A6D080C0E4
:107E9000853579F488D0E82EFF2485D0082F10E0AE
:107EA000102F00270E291F29000F111F8ED06801E7
:107EB0006FC0863521F484E090D080E0DECF843638
:107EC00009F040C070D06FD0082F6DD080E0C81688
:107ED00080E7D80618F4F601B7BEE895C0E0D1E017
:107EE00062D089930C17E1F7F0E0CF16F0E7DF06D8
:107EF00018F0F601B7BEE89568D007B600FCFDCFD4
:107F0000A601A0E0B1E02C9130E011968C91119780
:107F100090E0982F8827822B932B1296FA010C0160
:107F200087BEE89511244E5F5F4FF1E0A038BF0790
:107F300051F7F601A7BEE89507B600FCFDCF97BE46
:107F4000E89526C08437B1F42ED02DD0F82E2BD052
:107F50003CD0F601EF2C8F010F5F1F4F84911BD097
:107F6000EA94F801C1F70894C11CD11CFA94CF0C13
:107F7000D11C0EC0853739F428D08EE10CD085E9AC
:107F80000AD08FE07ACF813511F488E018D01DD067
:107F900080E101D065CF982F8091C00085FFFCCF94
:107FA0009093C60008958091C00087FFFCCF809118
:107FB000C00084FD01C0A8958091C6000895E0E648
:107FC000F0E098E1908380830895EDDF803219F02E
:107FD00088E0F5DFFFCF84E1DECF1F93182FE3DFCA
:107FE0001150E9F7F2DF1F91089580E0E8DFEE27F6
:047FF000FF270994CA
:027FFE00040479
:0400000300007E007B
:00000001FF
