:100000000C946D010C9495010C9495010C94950140
:100010000C9495010C9495010C9495010C94950108
:100020000C9495010C9495010C9495010C949501F8
:100030000C9495010C9495010C9495010C949501E8
:100040000C948F090C9495010C9471080C944B0836
:100050000C9495010C9495010C9495010C949501C8
:100060000C94D9090C949501EB0AEF0AEF0AEF0AF8
:10007000EF0AEF0AEF0AEF0AF909EF0AEF0AEF0AAF
:10008000EF0AEF0AEF0AEF0AF909EF0AEF0AEF0A9F
:10009000EF0AEF0AEF0AEF0A010AEF0AEF0AEF0A86
:1000A000EF0AEF0AEF0AEF0A270AEF0AEF0AEF0A50
:1000B000EF0AEF0AEF0AEF0A010AEF0AEF0AEF0A66
:1000C000EF0AEF0AEF0AEF0A2D0AEF0AEF0AEF0A2A
:1000D000EF0AEF0AEF0AEF0A330AEF0AEF0AEF0A14
:1000E000EF0AEF0AEF0AEF0A480AEF0AEF0AEF0AEF
:1000F000EF0AEF0AEF0AEF0A720AEF0AEF0AEF0AB5
:10010000EF0AEF0AEF0AEF0A3C0AEF0AEF0AEF0ADA
:10011000EF0AEF0AEF0AEF0A560AEF0AEF0AEF0AB0
:10012000EF0AEF0AEF0AEF0A750AEF0AEF0AEF0A81
:10013000EF0AEF0AEF0AEF0A750AEF0AEF0AEF0A71
:10014000EF0AEF0AEF0AEF0A750AEF0AEF0AEF0A61
:10015000EF0AEF0AEF0AEF0A750AEF0AEF0AEF0A51
:10016000EF0AEF0AEF0AEF0A7E0AEF0AEF0AEF0A38
:10017000EF0AEF0AEF0AEF0AB20AEF0AEF0AEF0AF4
:10018000EF0AEF0AEF0AEF0A7E0AEF0AEF0AEF0A18
:10019000EF0AEF0AEF0AEF0AB20AEF0AEF0AEF0AD4
:1001A000EF0AEF0AEF0AEF0A960AEF0AEF0AEF0AE0
:1001B000EF0AEF0AEF0AEF0AB60AEF0AEF0AEF0AB0
:1001C000EF0AEF0AEF0AEF0AB60AEF0AEF0AEF0AA0
:1001D000EF0AEF0AEF0AEF0ACB0AEF0AEF0AEF0A7B
:1001E000EF0AEF0AEF0AEF0AE50AEF0AEF0AEF0A51
:1001F000EF0AEF0AEF0AEF0AE50A9D0BA40BAB0B1F
:10020000B20BB90BC00BC70BCE0B060C090C0C0CB8
:10021000030C0F0C120C270C270C7F17EC19EC1990
:10022000EC19EC19EC19EC19EC19EC19EC19EC19A6
:10023000EC19EC19EC19EC19EC19EC198016EC1905
:10024000EC19EC19EC191718EC19EC19EC19EC195C
:10025000EC19EC19EC19EC19EC197F1777195B17ED
:10026000EC19EC19EC193619EC19EC19EC19EC191C
:10027000EC19EC19EC19EC19EC19EC198016EC19C5
:10028000EC19EC191E1917180000000800020100F3
:100290000003040700000000000000000000000050
:1002A000250028002B0000000000240027002A0061
:1002B000040404040404040402020202020203030C
:1002C0000303030301020408102040800102040814
:1002D0001020010204081020EF1911241FBECFEFD7
:1002E000D8E0DEBFCDBF11E0A0E0B1E0E2EBFAE381
:1002F00002C005900D92A033B107D9F722E0A0E328
:10030000B1E001C01D92AB3EB207E1F711E0CDE6CE
:10031000D1E004C02197FE010E94821ACC36D10799
:10032000C9F70E94AC140C94571D0C940000FC01FA
:10033000238D348D231738F08FE390E0821B9109D1
:10034000830F911D0895832F90E0821B91090197DF
:100350000895FC01918D828D981761F0828DDF01E7
:10036000A80FB11D5D968C91928D9F5F9F73928FA8
:1003700090E008958FEF9FEF0895FC01918D828D9D
:10038000981731F0828DE80FF11D858D90E008956A
:100390008FEF9FEF0895FC01918D228D892F90E0C2
:1003A000805C9F4F821B91098F739927089580E08D
:1003B00092E00E94CB0121E0892B09F420E0822FFA
:1003C0000895FC01848DDF01A80FB11DA35ABF4F12
:1003D0008C91248D30E02F5F3F4F2F733078332383
:1003E00034F421503109206C3F6F2F5F3F4F248F31
:1003F000A689B7898C93A089B1898C9180648C93EC
:10040000938D848D981306C00288F389E02D808136
:100410008F7D808308950F931F93CF93DF93FC010B
:1004200081E0808F938D848D981322C0A089B1893B
:100430008C9185FD2FC01CC00FB607FC08C0E88951
:10044000F989808185FF03C0CE010E94E1019C8D66
:10045000091791F38B8DFE01E80FF11DE35AFF4F51
:1004600010830B8FEA89FB898081806280831BC0A7
:10047000238D30E02F5F3F4F2F733078332334F4D8
:1004800021503109206C3F6F2F5F3F4F162FEF0136
:10049000022FDDCFA689B7896C930088F189E02D02
:1004A00080818064808381E090E0DF91CF911F9113
:1004B0000F910895CF93DF93EC01888D81110FC0C8
:1004C00018C00FB607FC0DC0908195FF0AC0A8891F
:1004D000B9898C9185FF05C0CE010E94E101EA89AE
:1004E000FB89908195FDEDCFA889B9898C9186FF14
:1004F000E8CFDF91CF91089580E090E0892B29F03B
:100500000E94D70181110E940000089585ED80931B
:10051000BC00ECEBF0E0808184FDFDCF1092E8019F
:10052000089540919401262F30E0240F311D21328F
:100530003105ECF42091E8012430D9F4662381F0F0
:10054000A82FB92F80E090E0309194012D91FC010B
:10055000EE58FE4FE30FF11D208301968617A0F39E
:1005600080919401680F6093940180E0089581E088
:10057000089582E008950895E091EC018091EB01E7
:10058000E81730F4F0E0EE5AFE4F808190E00895D5
:100590008FEF9FEF08959091EC018091EB019817F8
:1005A00050F4E92FF0E0EE5AFE4F208130E09F5FDB
:1005B0009093EC0102C02FEF3FEFC90108958091A5
:1005C000EB0190E02091EC01821B91090895CF92FC
:1005D000DF92EF92FF920F931F93CF93DF938C01E3
:1005E000CB016A01209151012223A1F0411551054F
:1005F000A1F0EB017B01E40EF51E6991D801ED91AC
:10060000FC910190F081E02DC8010995CE15DF0520
:10061000A1F703C0642F0E949102C601DF91CF9120
:100620001F910F91FF90EF90DF90CF900895CF939F
:10063000DF931F92CDB7DEB7FC0169839091510122
:100640009923D9F09091E901903238F081E090E05F
:100650009383828380E090E017C08091EA01E82FC5
:10066000F0E0EF5CFE4F998190838F5F8093EA0109
:100670008093E90181E090E007C061E0CE0101963E
:100680000E94910281E090E00F90DF91CF91089558
:100690002091E90140913001213208F050C0809151
:1006A000E8018111FCCF92E09093E8016093E701AB
:1006B0009FEF9093B9011092DB012093DA0122237E
:1006C00069F0E1E3F1E0AAEBB1E0215030E02E5C0B
:1006D0003E4F91919D93E217F307D9F71092DC01F9
:1006E0009091DC01440F492B4093DC019091E6018D
:1006F000913081F41092E601ABEBB0E0ECEBF0E06E
:100700009091DC019C93908193FDFACF95EC9093AE
:10071000BC0003C095EE9093BC009091E80192302C
:10072000E1F39091B9019F3F79F08091B901803256
:1007300041F08091B901803331F084E005C081E05F
:1007400003C082E001C083E01092EA011092E90147
:10075000109251010895089580E090E00895DF928D
:10076000EF92FF920F931F93CF93DF93FB01E080F3
:10077000F18002811381D481C581B681D7802E2D6D
:100780003F2D402F512F6D2F7C2F8B2F9D2D3553BB
:100790004C40510961097109810991092F3F344386
:1007A0004C405105610571058105910509F0A8F4DA
:1007B0002E2D3F2D402F512F6D2F7C2F8B2F9D2DB8
:1007C00007E00E94B81B20833183428353836483F4
:1007D00075838683978387E015C12E2D3F2D402F8B
:1007E000512F6D2F7C2F8B2F9D2D3A56484151094B
:1007F00061097109810991092F3F39464841510525
:10080000610571058105910509F0A8F42E2D3F2D94
:10081000402F512F6D2F7C2F8B2F9D2D06E00E9496
:10082000B81B20833183428353836483758386831B
:10083000978386E0E7C02E2D3F2D402F512F6D2F3F
:100840007C2F8B2F9D2D345D404351096109710927
:10085000810991092F3F334D4043510561057105D1
:100860008105910509F0A8F42E2D3F2D402F512F21
:100870006D2F7C2F8B2F9D2D05E00E94B81B2083B0
:10088000318342835383648375838683978385E0B2
:10089000B9C02E2D3F2D402F512F6D2F7C2F8B2F28
:1008A0009D2D385A41465109610971098109910903
:1008B0002F3F374A41465105610571058105910574
:1008C00009F0A8F42E2D3F2D402F512F6D2F7C2F96
:1008D0008B2F9D2D04E00E94B81B2083318342831F
:1008E0005383648375838683978384E08BC02E2D26
:1008F0003F2D402F512F6D2F7C2F8B2F9D2D30554D
:10090000434C510961097109810991092F3F3F4405
:10091000434C5105610571058105910509F0A8F465
:100920002E2D3F2D402F512F6D2F7C2F8B2F9D2D46
:1009300003E00E94B81B2083318342835383648386
:1009400075838683978383E05DC02E2D3F2D402FD6
:10095000512F6D2F7C2F8B2F9D2D305A46485140A3
:1009600061097109810991092F3F3F49464851406A
:10097000610571058105910509F0A8F42E2D3F2D23
:10098000402F512F6D2F7C2F8B2F9D2D02E00E9429
:10099000B81B2083318342835383648375838683AA
:1009A000978382E02FC02E2D3F2D402F512F6D2F8A
:1009B0007C2F8B2F9D2D30544D4053406109710980
:1009C000810991092F3F3F434D4053406105710517
:1009D0008105910509F0A8F42E2D3F2D402F512FB0
:1009E0006D2F7C2F8B2F9D2D01E00E94B81B208343
:1009F000318342835383648375838683978381E045
:100A000001C080E0DF91CF911F910F91FF90EF9097
:100A1000DF9008952F923F924F925F926F927F9254
:100A20008F929F92AF92BF92CF92DF92EF92FF92FE
:100A30000F931F93CF93DF93CDB7DEB761970FB6B8
:100A4000F894DEBF0FBECDBFB22FA32FF42FE52F3A
:100A5000862F972F8F829886A986BA86CB86DC86CA
:100A6000ED86FE86502E19832A83232E442E352EA2
:100A7000662E772E202F312F4B2F5A2F6F2F7E2F40
:100A80002115304A4C4A594B634071058105910547
:100A900089F080F0512CB0EAB983ECEAEA830F2E9A
:100AA000F9EB2F2EF02D0F2EF3E04F2EF02D312CE1
:100AB000612C712C252D39814A81522D642D732D85
:100AC000862D972D2F3FF0EE3F07F5EF4F07F5E00E
:100AD0005F07610571058105910509F008F4C4C13E
:100AE00021E0298B252D2F3F354D41415E47634045
:100AF00071058105910509F008F4198A2F8138855F
:100B000049855A856B857C858D859E85A0E00E94F0
:100B10000A1C09F066C0B989B1113BC00DC0512C47
:100B2000E1EEE983F5EFFA830F2EF5E02F2EF02D9D
:100B3000412C312C612C712CA52CB980CA80D22C6F
:100B4000E42CF32C062D172D20E034E04BE654EF77
:100B500064E170E080E090E00E94141B2B833C83F2
:100B60004D835E8360E070E080E090E00E94881A30
:100B70002F83388749875A876B877C878D879E8725
:100B800010E0812C912C5401839480E090E0DC01F2
:100B9000FFC0252D39814A81522D642D732D862D5C
:100BA000972D02E00E94B81B2F83388749875A8708
:100BB0006B877C878D879E872989213009F49AC1AC
:100BC00010E0812C912C5401839480E090E0DC01B2
:100BD00024E030E040E050E02B833C834D835E8393
:100BE000D7C0A52CB980CA80D22CE42CF32C062DBA
:100BF000172D2F81388549855A856B857C858D8594
:100C00009E850E94141B2B833C834D835E838B81C6
:100C10009C81AD81BE810697A105B105E8F40F2E38
:100C2000F6E0AF2EF02DB12CC12CD12CE12CF12C03
:100C300000E010E02F81388549855A856B857C85D9
:100C40008D859E850E94141B522E39834A83252E42
:100C5000462E372E682E792E2B813C814D815E8168
:100C60002930374041055105F8F06894AA24A3F8CB
:100C70000F2EF7E0BF2EF02DC12CD12CE12CF12C42
:100C800000E010E02F81388549855A856B857C8589
:100C90008D859E850E94141B522E39834A83252EF2
:100CA000462E372E682E792EA52CB980CA80D22CDC
:100CB000E42CF32C062D172D2F81388549855A8574
:100CC0006B857C858D859E850E94121B2F87388BB6
:100CD000842E952EB62FA72FF82FE92F592D6B2F85
:100CE0007A2F8F2F9E2F05E00E94B81BAF84B88803
:100CF000C82CD92CEB2EFA2E0F2F1E2F0E94F81B7A
:100D000005E00E94B81B0F2F0E94EF1B05E00E9418
:100D1000B81B0F2F0E94F81B2F87388B842E952E1F
:100D2000B62FA72FF82FE92F592D6B2F7A2F8F2F42
:100D30009E2F05E00E94B81BA22EB32EC42ED52EE6
:100D4000E62EF72E082F192F2F853889482D592D7B
:100D50006B2F7A2F8F2F9E2F0E94EF1BA52CB9800F
:100D6000CA80D22CE42CF32C062D172D0E94141BC4
:100D7000F22FE32F8F2F9E2FA42FB52F0097A105C1
:100D8000B10509F0AAC0812C912C54018394ADC007
:100D9000880F991FAA1FBB1F880F991FAA1FBB1F6F
:100DA000880F991FAA1FBB1F880F991FAA1FBB1F5F
:100DB000880F991FAA1FBB1F880F991FAA1FBB1F4F
:100DC000BC01CD01660F771F881F991FCB80DC8087
:100DD000ED80FE80CC0CDD1CEE1CFF1CCC0CDD1C61
:100DE000EE1CFF1CCC0CDD1CEE1CFF1CCC0CDD1C17
:100DF000EE1CFF1CCC0CDD1CEE1CFF1CCC0CDD1C07
:100E0000EE1CFF1CCC0CDD1CEE1CFF1CA2E0DA1A51
:100E1000E108F108A50194010E94601AC20ED31ED8
:100E2000E41EF51EEEA1FFA1C082D182E282F38210
:100E3000648375838683978380869186A286B38632
:100E4000112349F0252D39814A81522D642D732DAE
:100E5000862D972D6BC02F81388549855A856B85E6
:100E60007C858D859E8562C02F81388549855A8510
:100E70006B857C858D859E85A0E00E940A1C09F407
:100E80004ECE198A512CF1EEF98325EF2A830F2ECD
:100E9000F5E02F2EF02D412C312C612C712CA1CEA0
:100EA000AEA1BFA11D921D921D921C921397FD0130
:100EB000148215821682178281E090E0A0E0B0E0F3
:100EC00080879187A287B387252D39814A81522D4A
:100ED000642D732D862D972D29C00F2E88248A947A
:100EE000982CFFE0AF2EB12CF02DF989F130C1F232
:100EF00011E04ECFAEA1BFA11D921D921D921C927A
:100F00001397FD01148215821682178281E090E00A
:100F1000A0E0B0E080879187A287B3872F813885D2
:100F200049855A856B857C858D859E8561960FB632
:100F3000F894DEBF0FBECDBFDF91CF911F910F910F
:100F4000FF90EF90DF90CF90BF90AF909F908F90E9
:100F50007F906F905F904F903F902F900895FF92F9
:100F60000F931F93CF93DF93F42E890181E0809339
:100F7000510180E6809330011092EA011092E9015C
:100F80008DE992E00E941703FF2059F0E8010F0D50
:100F9000111D69918DE992E00E941703C017D107D6
:100FA000C1F761E08DE992E00E944803DF91CF91A3
:100FB0001F910F91FF900895CF9381E0809351018D
:100FC00080E6809330011092EA011092E9018DE9E8
:100FD00092E00E94170361E08DE992E00E944803CD
:100FE0008091E8018111FCCF81E08093E8011092AB
:100FF000E7019FEF9093B9011092DB011092DA01A3
:101000008093DC018091DC01806C8093DC01809115
:10101000E601813081F41092E601ABEBB0E0ECEB3D
:10102000F0E08091DC018C93808183FDFACF85EC28
:101030008093BC0003C085EE8093BC008091E801E2
:101040008130E1F38091DB01811105C02091DB014A
:10105000211102C00CC021E04AEB51E0A2E5B1E051
:10106000FA0191919D939E2F941B9217D0F31092A9
:10107000EC012093EB01222359F08DE992E00E94CC
:10108000CB022091EB019091EC012913F6CFC82FF0
:101090008C2FCF9108951F920F920FB60F921124AB
:1010A0002F933F934F935F936F937F938F939F9370
:1010B000AF93BF93EF93FF9380E092E00E94E10132
:1010C000FF91EF91BF91AF919F918F917F916F9120
:1010D0005F914F913F912F910F900FBE0F901F90F6
:1010E00018951F920F920FB60F9211242F938F9382
:1010F0009F93AF93BF93EF93FF93E0911002F09112
:101100001102808182FD14C0E0E0F2E0A689B78977
:101110002C91818D8F5F8F73928D891771F0DF0114
:10112000E18DF0E0E050FE4F258F59968C9305C07D
:10113000E0911602F09117028081FF91EF91BF912B
:10114000AF919F918F912F910F900FBE0F901F9095
:101150001895BF92CF92DF92EF92FF920F931F9359
:10116000CF93DF93EC016A017B01B22EE889F98904
:1011700082E080834115514E61057105B1F060E058
:1011800079E08DE390E0A70196010E94601A890141
:101190009A010150110921093109369527951795B2
:1011A0000795011580E11807A8F0E889F9891082F0
:1011B00060E874E88EE190E0A70196010E94601A51
:1011C000DA01C9010197A109B109B695A7959795CB
:1011D00087958C01EC85FD851083EE85FF85008366
:1011E000188EEC89FD89B082EA89FB898081806153
:1011F0008083EA89FB89808188608083EA89FB8912
:10120000808180688083EA89FB8980818F7D8083EB
:10121000DF91CF911F910F91FF90EF90DF90CF90D2
:10122000BF90089590E0FC01E857FD4F2491FC0128
:10123000EC53FD4F3491FC01E055FD4F8491882320
:1012400009F446C0222371F1233069F028F42130DB
:10125000B1F02230C1F026C02730C9F02830E9F0C3
:10126000243001F506C0E0E8F0E090819F7790839C
:1012700019C0E0E8F0E090819F7D908313C094B5A1
:101280009F7794BD0FC094B59F7D94BD0BC0E0EBDC
:10129000F0E090819F77908305C0E0EBF0E09081D3
:1012A0009F7D9083E82FF0E0EE0FFF1FE456FD4F87
:1012B000A591B4918FB7F894611106C09C91E32F6A
:1012C000E095E923EC9303C0EC91E32BEC938FBF03
:1012D00008953FB7F8948091E2019091E301A091C5
:1012E000E401B091E50126B5A89B05C02F3F19F098
:1012F0000196A11DB11D3FBFBA2FA92F982F882796
:10130000820F911DA11DB11DBC01CD01660F771F7C
:10131000881F991F660F771F881F991F08951F92B6
:101320000F920FB60F9211242F933F938F939F9399
:10133000AF93BF938091DE019091DF01A091E00116
:10134000B091E1013091DD0123E0230F2D3720F42E
:101350000196A11DB11D05C026E8230F0296A11D0F
:10136000B11D2093DD018093DE019093DF01A093F6
:10137000E001B093E1018091E2019091E301A0913D
:10138000E401B091E5010196A11DB11D8093E20138
:101390009093E301A093E401B093E501BF91AF9175
:1013A0009F918F913F912F910F900FBE0F901F90A3
:1013B00018951F920F920FB60F9211242F933F93FF
:1013C0004F935F936F937F938F939F93AF93BF934D
:1013D000EF93FF938091B900E82FE87F8E2F90E084
:1013E000893C910508F0FBC0FC01EC5CFF4F0C94BC
:1013F000821A8091DC018093BB0085EC8093BC0055
:10140000EEC09091DB018091DA01981780F4E091B1
:10141000DB0181E08E0F8093DB01F0E0E654FE4FAC
:1014200080818093BB0085EC8093BC00D8C0809104
:10143000E701882319F00E948602D1C081E08093E1
:10144000E60184EA8093BC001092E801C8C080E203
:101450008093B9010E948602C2C080E38093B901E3
:101460000E948602BCC088E38093B90185EC80931A
:10147000BC001092E801B3C0E091DB0181E08E0F67
:101480008093DB018091BB00F0E0E654FE4F808347
:101490009091DB018091DA01981720F485EC80931C
:1014A000BC009DC085E88093BC0099C0E091DB0141
:1014B00081E08E0F8093DB018091BB00F0E0E65469
:1014C000FE4F80838091E701882319F00E948602F5
:1014D00086C081E08093E60184EA8093BC0010928C
:1014E000E8017DC00E9486027AC083E08093E80113
:1014F0001092B80185EC8093BC0071C08091B80156
:10150000803280F4E091B80181E08E0F8093B801C1
:101510008091BB00F0E0E856FE4F808385EC80931D
:10152000BC005DC085E88093BC0059C085EC809309
:10153000BC001092E8018091B801803230F4E09153
:10154000B801F0E0E856FE4F10826091B80170E0FB
:10155000E0919601F091970188E991E00995109248
:10156000B8013DC085E88093BC0039C084E0809319
:10157000E8011092950110929401E0919201F0918E
:101580009301099580919401811105C081E08093B8
:10159000940110927201E091950181E08E0F809389
:1015A0009501F0E0EE58FE4F80818093BB00909152
:1015B000950180919401981720F485EC8093BC00EC
:1015C0000EC085E88093BC000AC085EC8093BC0007
:1015D0001092E80104C01092B9010E948602FF91A6
:1015E000EF91BF91AF919F918F917F916F915F919B
:1015F0004F913F912F910F900FBE0F901F90189514
:10160000CF93C42F81E08093510180E68093300115
:101610001092EA011092E9018DE992E00E9417030D
:101620006C2F8DE992E00E94170361E08DE992E052
:101630000E944803CF910895EF92FF920F931F935A
:10164000CF938C017A01C0E1C60F6C2F0E94DC079A
:10165000E114F10411F48F7D04C0EA94EF2809F439
:101660008062482F6C2FC8010E94000BCF911F9100
:101670000F91FF90EF9008952F923F924F925F92BB
:101680006F927F928F929F92AF92BF92CF92DF9292
:10169000EF92FF920F931F93CF93DF93CDB7DEB7F7
:1016A0002E970FB6F894DEBF0FBECDBF3C01962E2D
:1016B000572E29873A874B875C873A2C2B2CCE866E
:1016C000BE2C4F2CA02EC984DA84EB84FC8484E1E8
:1016D00090E00E94251C8C01FC01D082C182692D02
:1016E000660F660F660F645DC3010E94DC078C7F86
:1016F0009E859370892BF801828323823482D701DF
:10170000C601072E7CE0B695A795979587957A95A3
:10171000D1F7702D807F9A2D9F70C92EC80EC5827B
:101720004682B782E92CF52CF8E0EF16F104E0F5DB
:10173000F701E350FF4F0C94821A980148E06AE2E7
:10174000C3010E94AF0730C0980148E062E3C301C3
:101750000E94AF0729C0980148E06AE3C3010E94D4
:10176000AF0722C0980148E062E4C3010E94AF07BE
:101770001BC0980148E06AE4C3010E94AF0714C08F
:10178000980148E062E5C3010E94AF070DC09801CF
:1017900048E06AE5C3010E94AF0706C0980148E02F
:1017A0006BE5C3010E94AF0740E1940E692DC301B0
:1017B0000E94DC0791E0891203C0482F406402C0F8
:1017C000482F4F7B692DC3010E94000BE1E0EE160C
:1017D000F10451F0F2E0EF16F10449F0E114F104E4
:1017E00049F4F30181AA12C0F30182AA12C0F301E5
:1017F00083AA12C0F8E0EF16F104B0F4F701EB5F32
:10180000FE4F0C94821A44E44D870EC08CE28D8703
:101810000BC094E39D8708C0ECE3ED8705C0FCE4B2
:10182000FD8702C044E54D876D85C3010E94DC073A
:1018300083789CA191118C609BA1E0E19E9F900117
:101840001124482F422B6D85C3010E94000BC80153
:101850000E94BA1C2E960FB6F894DEBF0FBECDBF05
:10186000DF91CF911F910F91FF90EF90DF90CF907C
:10187000BF90AF909F908F907F906F905F904F90B0
:101880003F902F9008950F931F93CF93DF93EC0118
:10189000062F142F63E00E94DC07113051F441E061
:1018A00050E002C0440F551F0A95E2F740954823C7
:1018B00008C041E050E002C0440F551F0A95E2F70E
:1018C000482B63E0CE010E94000BDF91CF911F9166
:1018D0000F9108952F923F924F925F926F927F9255
:1018E0008F929F92AF92BF92CF92DF92EF92FF9230
:1018F0000F931F93CF93DF93CDB7DEB76C970FB6DF
:10190000F894DEBF0FBECDBF988F8F8B0B8B1B8FD4
:101910002C8B3D8B4E8B452E562E672EFA8EE98EE4
:10192000FC0182AD93ADA4ADB5AD8C019D0140E04D
:1019300050E0BA0189831A832B833C834D835E83F5
:101940006F837887282F312F4B815C8160E070E0B6
:1019500080E090E002E00E94B81BA980B12ECB800D
:10196000DC80E12CF12C00E010E00E94F81B722ECC
:10197000832E942E352EB62FA72FF82FE92F05E0B2
:101980000E94B81BA22EB32EC42ED52EE62EF72E03
:10199000082F192F272D382D492D532D6B2F7A2FD6
:1019A0008F2F9E2F0E94EF1BA980BA80CB80DC80F6
:1019B000E12CF12C00E010E00E94EF1B322E398761
:1019C0004A87252E762E7B878C879D87EF89F88D19
:1019D00084A995A9A6A9B7A96C017D01FF0CCC0823
:1019E000DC2C7601282F392F4A2F5B2F6C2D7C2D74
:1019F0008C2D9C2D0FE10E94B81BA12C0F2EFAEC10
:101A0000BF2EF02D0F2EFAE9CF2EF02D0F2EFBE377
:101A1000DF2EF02DE12CF12C00E00E94E31AA32C24
:101A2000B984CA84D22CE72CFB840C851D850E94C6
:101A3000881A0FE10E94D31B822E932EA42EB52E5E
:101A400095018401330F000B102F980109831A832D
:101A50002B833C83282D392D6981762F862F962F55
:101A6000A32CB984CA84D22CE72CFB840C851D8559
:101A70000E94EF1B298339874A875B876C877D87A4
:101A8000382E292E2B893B8D4C895D896E89742DCA
:101A9000852D962D2F3F37454744584F6D40710592
:101AA0008105910509F060F41B8A28E52B8F37E446
:101AB0003C8B48EF4D8B5DE05E8B412C512C612CB3
:101AC0006B896E877B8D7F878C89888B9D89998BAD
:101AD000AE89AC8F4A8A852C962C262F372F482F1B
:101AE000592F6A2F742D852D962D211534404B4684
:101AF000544F644171058105910569F060F01E86BF
:101B0000E4E0EF87FBE6F88B04EF098B14E11C8F10
:101B10001A8A812C912CA980B984CA84DB84EC8434
:101B2000FD84032D122D2E853F85488959896C8DA2
:101B30007A89882D992D0E94141B422E532E642ED3
:101B4000752E2FE04216510461047104B0F42A2D61
:101B50003B2D4C2D5D2D6E2D7F2D832D922D04E080
:101B60000E94B81B032D0E94F81B2E873F87488BCD
:101B7000598B6C8F7A8B882E992E3BE54316510436
:101B80006104710470F1298139854A855B856C8512
:101B90007D85832D922D02E00E94B81BA980B98417
:101BA000CA84DB84EC84FD84032D122D0E94F81B73
:101BB000A22EB32EC42ED52EE62EF72EE82F192FE7
:101BC00004E00E94B81B0E2F0E94F81B01E00E9447
:101BD000B81B2E873F87488B598B6C8F7A8B882E4A
:101BE000992EA980B984CA84DB84EC84FD84032DFA
:101BF000122D2E853F85488959896C8D7A89882DCB
:101C0000992D0E94121B822E932E4F875E87B62F2E
:101C1000A72FF82FE92F05E00E94B81BA82CB92C9C
:101C2000CF84DE84EB2EFA2E0F2F1E2F0E94F81B7E
:101C300005E00E94B81B0F2F0E94EF1B05E00E94D9
:101C4000B81B0F2F0E94F81B822E932E4F875E87A2
:101C5000B62FA72FF82FE92F05E00E94B81BA22E60
:101C6000B32EC42ED52EE62EF72E082F192F282D91
:101C7000392D4F855E856B2F7A2F8F2F9E2F0E94D7
:101C8000EF1BA980B984CA84DB84EC84FD84032D16
:101C9000122D0E94141BF22FE32F8F2F9E2FA42FA3
:101CA000B52F0097A105B10529F4C12CD12C7601DF
:101CB000C39408C00F2ECC24CA94DC2CFFE0EF2E76
:101CC000F12CF02D880F991FAA1FBB1F880F991F99
:101CD000AA1FBB1F880F991FAA1FBB1F880F991F20
:101CE000AA1FBB1F880F991FAA1FBB1F880F991F10
:101CF000AA1FBB1FBC01CD01660F771F881F991F4C
:101D000053014201880C991CAA1CBB1C880C991C0D
:101D1000AA1CBB1C880C991CAA1CBB1C880C991CF7
:101D2000AA1CBB1C880C991CAA1CBB1C880C991CE7
:101D3000AA1CBB1C880C991CAA1CBB1C42E0941A50
:101D4000A108B108A70196010E94601A062F772EFC
:101D5000182F820E931EA41EB51E84E190E00E94EF
:101D6000251C2C01DC01DC921196CC9211978A2D56
:101D7000837012968C93129713969C9213971496D5
:101D80008C92D701C601072E7CE0B695A795979552
:101D900087957A95D1F7702D807F1F70C12EC80E60
:101DA000F201C58276820783098D1A8D012B41F4D9
:101DB000920148E06AE18F89988D0E94AF070CC0BC
:101DC000298D3A8D2130310539F4920148E062E2E3
:101DD0008F89988D0E94AF07C2010E94BA1C6C9631
:101DE0000FB6F894DEBF0FBECDBFDF91CF911F912C
:101DF0000F91FF90EF90DF90CF90BF90AF909F90AA
:101E00008F907F906F905F904F903F902F900895AC
:101E10002F923F924F925F926F927F928F929F92FA
:101E2000AF92BF92CF92DF92EF92FF920F931F93E8
:101E3000CF93DF93CDB7DEB7AD970FB6F894DEBF83
:101E40000FBECDBF1C01098F1A8F2B8F3C8F4D8F7A
:101E50005E8F6F8F78A3682C792CA9A2BAA2CBA22F
:101E6000DCA2EDA2FEA2282D392D4A2D5B2D6C2D72
:101E70007D2D8E2D9F2DA0E00E940A1C91F03855DB
:101E80004744584F6D4071098109910921153C4A19
:101E900043425C4F664071058105910511F008F0E1
:101EA000BCC4198D4A8C5B8C9C8CBD8DAE8DFF8D16
:101EB000E8A1212F342D452D592D6B2F7A2F8F2FEF
:101EC0009E2F2F3F34434C4051056105710581051C
:101ED000910509F058F4198E85E38A8F8CE08B8F79
:101EE0001C8E1D8E1E8E1F8E18A21EC0212F342DFB
:101EF000452D592D6B2F7A2F8F2F9E2F2115304A6C
:101F00004C4A594B634071058105910569F060F0B9
:101F1000198E80EA8A8F8CEA8B8F89EB8C8F83E015
:101F20008D8F1E8E1F8E18A2BE01675E7F4FC1016E
:101F30000E94AF038FA3262D372D49A15AA16BA173
:101F40007CA18DA19EA1A0E00E940A1C09F494C06E
:101F5000098D1A8D4B8C5C8CBD8DAE8DFF8DE8A1EB
:101F6000E8A7202F312F442D552D6B2F7A2F8F2F3F
:101F70009E2F2F3F354D41415E47634071058105DE
:101F8000910511F008F093C0CE010D969F938F93A9
:101F9000862C972CA9A0BAA0CBA0DCA0EDA0FEA017
:101FA000242D352D4B2F5A2F6F2F78A5C1010E945C
:101FB0000A050F900F9024960EAD1FAD24970130A7
:101FC000110539F102301105B1F1012B09F0F7C308
:101FD000898DD10159968C9359978A8D5A968C93F5
:101FE0005A978B8D5B968C935B978C8D5C968C93BC
:101FF0005C978D8D5D968C935D978E8D5E968C93A0
:102000005E978F8D5F968C935F9788A190968C9347
:102010000AC4898DF10181A38A8D82A38B8D83A34C
:102020008C8D84A38D8D85A38E8D86A38F8D87A3A4
:1020300088A180A7F8C3898DD10199968C9399972F
:102040008A8D9A968C939A978B8D9B968C939B975F
:102050008C8D9C968C939C978D8D9D968C939D9743
:102060008E8D9E968C939E978F8D9F968C939F9727
:1020700088A1D0968C93D7C3098D1A8D4B8C5C8C1C
:10208000BD8DAE8DFF8DE8A1E8A7202F312F442D07
:10209000552D6B2F7A2F8F2F9E2F2F3F354D41417E
:1020A0005E47634071058105910519F110F1CE017C
:1020B0000D969F938F93812C912CA12CB12CC12C28
:1020C000D12CE12CF12C242D352D4B2F5A2F6F2F95
:1020D00078A5C1010E940A05622E732E49A35AA356
:1020E0006BA37CA38DA39EA30F900F9044244394D5
:1020F00001C0412C24960EAD1FAD2497013011056F
:1021000009F489C00230110509F4EEC1012B09F070
:1021100086C3098D1A8D2B8D3C8D4D8D5E8D6F8DF7
:1021200078A1CE010D969F938F93812C912CA12C99
:10213000B12CC12CD12CE12CF12CC1010E940A053B
:10214000622E732E49A35AA36BA37CA38DA39EA3D7
:1021500040E050E060E070E0C1010E941C0BD10142
:1021600019966C9219971A967C921A97E9A11B9668
:10217000EC931B97FAA11C96FC931C970BA11D9640
:102180000C931D971CA11E961C931E978DA11F9644
:102190008C931F979EA150969C935097898D59962A
:1021A0008C9359978A8D5A968C935A978B8D5B9600
:1021B0008C935B978C8D5C968C935C978D8D5D96E4
:1021C0008C935D978E8D5E968C935E978F8D5F96C8
:1021D0008C935F9788A190968C934F92AFA1AF9309
:1021E000842CAD84BE84CF84D888E988FA880B8992
:1021F0001C892D893E894F89588D24966EAD7FADFF
:102200002497C1010E943C0B0F900F900F900F90EC
:10221000E12CF12CF5C2F10181AD823009F07AC0D8
:10222000F98DF8A7AA8DA9A7BB8DBAA75C8CBD8D27
:10223000AE8DEF8DEBA7F8A1FCA728A539A54AA57F
:10224000552D6B2F7A2F8E2F9F2F30584A41564095
:1022500061097109810991092F37304E4247584968
:102260006240710581059105F9F0F0F0F101A1A43A
:10227000B2A4C3A4D4A4E5A4F6A407A510A928A5D4
:1022800039A54AA5552D6B2F7A2F8BA59CA50E94A9
:10229000011C51F011A212A213A214A215A216A29F
:1022A00017A210A6E1E0D9C2F10161887288F38912
:1022B000F9A3F101F489FAA3F101F589FBA3F10176
:1022C000F689FCA3F101F789FDA3F101F08DFEA3CE
:1022D000CE010D969F938F93862C972CA9A0BAA020
:1022E000CBA0DCA0EDA0FEA008A519A52AA5352D40
:1022F0004B2F5A2F6BA57CA5C1010E940A0541E016
:1023000050E061E070E0C1010E941C0B0F900F9043
:10231000512C44C0D101618A728AE9A15396EC9391
:102320005397FAA15496FC9354970BA155960C938E
:1023300055971CA156961C9356978DA157968C9332
:1023400057979EA158969C93098D1A8D2B8D3C8D85
:102350004D8D5E8D6F8D78A1CE010D969F938F93DD
:10236000812C912CA12CB12CC12CD12CE12CF12C45
:10237000C1010E940A05622E732E49A35AA36BA3C2
:102380007CA38DA39EA341E050E061E070E0C10119
:102390000E941C0B0F900F9055245394298D3A8D59
:1023A0004B8D5C8D6D8D7E8D8F8D98A130584A41FF
:1023B000564061097109810991092F37304E424712
:1023C0005849624071058105910509F008F468C01B
:1023D00081E0F10181AF21A532A543A554A565A5F2
:1023E00076A587A590A9A0E00E940A1C09F45BC00D
:1023F000B101675D7F4FC1010E94AF038FA3D1017F
:1024000051968C90519752969C9052975396AC90BF
:1024100053975496BC9054975596CC905597569692
:10242000DC9056975796EC9057975896FC90589793
:1024300099960C9199979A961C919A979B962C91A4
:102440009B979C963C919C979D964C919D979E96B0
:102450005C919E979F966C919F97D0967C91CE01B0
:1024600001969F938F93C1010E940A051F92BFA1FD
:10247000BF93812CA980BA80CB80DC80ED80FE8068
:102480000F81188529853A854B855C8562E070E06F
:10249000C1010E943C0B0F900F900F900F9003C052
:1024A00088E0F10181AF898DD10191968C9391974C
:1024B0008A8D92968C9392978B8D93968C9393970B
:1024C0008C8D94968C9394978D8D95968C939597EF
:1024D0008E8D96968C9396978F8D97968C939797D3
:1024E00088A198968C936DC1D101D996EC91E13079
:1024F00009F0A3C0B98DBCA7FA8DFDA7FB8DAC8DEB
:10250000A8A75D8CBE8DB9A7AF8DAAA7B8A1BBA7A0
:102510002CA53DA54F2F58A5652D79A58A2F9B2F5A
:1025200030584A41564061097109810991092F3794
:10253000304E424758496240710581059105E9F1E5
:10254000E0F1D1019996AC9099979A96BC909A97A0
:102550009B96CC909B979C96DC909C979D96EC903C
:102560009D979E96FC909E979F960C919F97D096D4
:102570001C91D0972CA53DA54F2F58A5652D79A569
:102580008AA59BA50E94011CC1F099961C9299975F
:102590009A961C929A979B961C929B979C961C923B
:1025A0009C979D961C929D979E961C929E979F9697
:1025B0001C929F97D0961C9250C1D10151966C905D
:1025C000519752967C9052975396BC91B9A3D101E2
:1025D0005496BC91BAA3D1015596BC91BBA3D1012D
:1025E0005696BC91BCA3D1015796BC91BDA3D10115
:1025F0005896BC91BEA3CE010D969F938F93862CC7
:10260000972CA9A0BAA0CBA0DCA0EDA0FEA00CA5A1
:102610001DA52F2F38A5452D59A56AA57BA5C1015C
:102620000E940A0541E050E062E070E0C1010E94B2
:102630001C0B0F900F90512C39C0F101618A728AE6
:1026400009A1038B1AA1148B8BA1858B9CA1968B5E
:10265000ADA1A78BBEA1B08F098D1A8D2B8D3C8D9E
:102660004D8D5E8D6F8D78A1CE010D969F938F93CA
:10267000812C912CA12CB12CC12CD12CE12CF12C32
:10268000C1010E940A05622E732E49A35AA36BA3AF
:102690007CA38DA39EA341E050E062E070E0C10105
:1026A0000E941C0B0F900F9055245394298D3A8D46
:1026B0004B8D5C8D6D8D7E8D8F8D98A130584A41EC
:1026C000564061097109810991092F37304E4247FF
:1026D0005849624071058105910509F008F459C017
:1026E00082E0D101D9968C93D99791962C919197AC
:1026F00092963C91929793964C91939794965C9175
:10270000949795966C91959796967C9196979796B7
:102710008C91979798969C91A0E00E940A1CE9F1F1
:10272000B1016F5D7F4FC1010E94AF038FA3F10123
:1027300081889288A388B488C588D688E788F08C79
:1027400001A112A123A134A145A156A167A170A5A1
:10275000CE0101969F938F93C1010E940A051F929B
:10276000FFA1FF93812CA980BA80CB80DC80ED8013
:10277000FE800F81188529853A854B855C8561E04F
:1027800070E0C1010E943C0B0F900F900F900F90D2
:1027900004C088E0D101D9968C93898DF10181A77D
:1027A0008A8D82A78B8D83A78C8D84A78D8D85A71D
:1027B0008E8D86A78F8D87A788A180AB02C0412C04
:1027C000512C4F92FFA1FF93842CAD84BE84CF8403
:1027D000D888E988FA880B891C892D893E894F8918
:1027E000588D24966EAD7FAD2497C1010E943C0B9D
:1027F0000F900F9001E0501214C0EE24E394F12CDE
:10280000062D172D29A13AA14BA15CA16DA17EA196
:10281000C1010E946A0CE0E020C0E1E01EC0E1E0DE
:102820001CC0E0E01AC01F921FA11F93812CAD8431
:10283000BE84CF84D888E988FA880B891C892D89C1
:102840003E894F89588D24966EAD7FAD2497C10186
:102850000E943C0B0F900F90E0E08E2FAD960FB6CC
:10286000F894DEBF0FBECDBFDF91CF911F910F91C6
:10287000FF90EF90DF90CF90BF90AF909F908F90A0
:102880007F906F905F904F903F902F900895482FCA
:1028900085B127EF3FEF042E02C0220F331F0A94A9
:1028A000E2F7282325B99BB193709BB98BB170E0F7
:1028B0009B01220F331F220F331F282B2BB995B1F9
:1028C0009C7F95B985B1062E672F000C661F770B8C
:1028D000000C661F771F682B65B9419A419855B166
:1028E00028E030E0C90102C0880F991F4A95E2F73D
:1028F000852B85B90895CF92DF92EF92FF920F93C7
:102900001F93CF93DF9341155105C1F06A018C01EC
:10291000E62EF72EC0E0D0E0D7016D917D01D80101
:10292000ED91FC910190F081E02DC8010995892B72
:1029300039F02196CC16DD0679F702C0C0E0D0E070
:10294000CE01DF91CF911F910F91FF90EF90DF901B
:10295000CF9008950E94521DCF93DF93CDB7DEB77D
:102960002C970FB6F894DEBF0FBECDBF789484B518
:10297000826084BD84B5816084BD85B5826085BD7B
:1029800085B5816085BDEEE6F0E080818160808361
:10299000E1E8F0E010828081826080838081816044
:1029A0008083E0E8F0E0808181608083E1EBF0E00B
:1029B000808184608083E0EBF0E0808181608083AF
:1029C000EAE7F0E080818460808380818260808398
:1029D0008081816080838081806880831092C100C3
:1029E0001092DD021092DE021092DF021092E002DD
:1029F0001092EC011092EB011092EA011092E901A1
:102A00001092E80181E08093E7011092E60161E015
:102A100082E10E94120961E083E10E941209E9EB60
:102A2000F0E080818E7F808380818D7F808388E449
:102A30008093B80085E48093BC0042E967EB89EAA3
:102A400092E00E94000B40E860E189EA92E00E9477
:102A5000000B40E861E189EA92E00E94000B40E847
:102A600062E189EA92E00E94000B4CE060E189EAB1
:102A700092E00E94000B4CE061E189EA92E00E9442
:102A8000000B4CE062E189EA92E00E94000B40E218
:102A900061EB89EA92E00E94000B40E861EB89EA71
:102AA00092E00E94000BE12CF12C00E014E02BE6F8
:102AB00034EF44E150E060E070E089EA92E00E9487
:102AC0006A0CEE24E394F12C2BE634EF44E150E061
:102AD00060E070E089EA92E00E946A0C1F921F9207
:102AE000812C6894992492F80F2EFBE6AF2EF02DDE
:102AF0000F2EF4EFBF2EF02D0F2EF4E1CF2EF02D80
:102B0000D12CE12CF12C00E617EB23E030E840E07B
:102B100050E060E070E089EA92E00E94080F1F92A6
:102B200082E08F9300E010E82FE432E140E050E0D3
:102B300060E070E089EA92E00E94080F41E060E006
:102B400070E089EA92E00E94430C40E061E070E0AE
:102B500089EA92E00E94430C41E062E070E089EA79
:102B600092E00E94430C0E9469094B015C010F90A6
:102B70000F900F900F900F2EF4E6CF2ED12CE12C5A
:102B8000F12CF02D10C021E0C21AD108E108F108A3
:102B900088EE880E83E0981EA11CB11CC114D104DC
:102BA000E104F10491F00E946909DC01CB0188196C
:102BB0009909AA09BB09883E9340A105B10518F7F8
:102BC000C114D104E104F10471F71092BC002AE0B1
:102BD00030E0C9019927FC01EC53FD4F4491FC0101
:102BE000E055FD4F8491882399F090E0880F991F5C
:102BF000FC01EA55FD4FA591B49184569D4FFC010F
:102C0000859194918FB7F8949C91492B4C938FBFE9
:102C10002F5F3F4F24313105E1F660E08AE00E94EA
:102C2000120961E08AE00E94120961E08BE00E94D3
:102C3000120961E08CE00E94120961E08DE00E94BF
:102C4000120960E08FE00E94120960E08EE00E94AD
:102C5000120960E080E10E94120960E081E10E94B7
:102C6000120961E082E10E94120961E083E10E94A1
:102C700012098AB18C6F8AB984B1836084B960E02B
:102C800080E00E9447140DEE11E0D8011C9260E034
:102C900081E00E944714F801118260E082E00E9406
:102CA0004714D80112961C9226E040E052EC61E0F5
:102CB00070E080E092E00E94A9080F2EF0E04F2E15
:102CC000F2E05F2EF02D18010F2EF0EC6F2E712C1C
:102CD000F02D80E092E00E94CB01892BD1F380E0BF
:102CE00092E00E94A901B82E9927FC01E154F10954
:102CF000E733F10508F070C3E35FFE4F0C94821ACE
:102D000080E092E00E94CB010597D4F380E092E04E
:102D10000E94A9018C0180E092E00E94A9018C83AD
:102D20001B82EB81FC810E2B1F2B80E092E00E9426
:102D3000A901D82E80E092E00E94A9017C0180E0E8
:102D400092E00E94A9018E831D824D815E814E29F1
:102D50005F29400F511F6D2D660F3D2D7B2D723762
:102D600041F4212F221F2227221F262BC801906801
:102D700002C0C801232FD101EC91E81709F12B986B
:102D8000EBB1E370EBB9FBB0FC01FF27DF01AA0F49
:102D9000BB1FAA0FBB1FAF29ABB9A5B1AC7FA5B9AB
:102DA000A5B10E2EEF2F000CEE1FFF0B000CEE1F37
:102DB000FF1FEA2BE5B9419A41982B9AF1018083D4
:102DC000D1011196EC91E91719F185B18E7E85B983
:102DD0008BB183708BB98BB1E92FF0E0DF01AA0FC3
:102DE000BB1FAA0FBB1FA82BABB985B18C7F85B9C0
:102DF00085B10E2EEF2F000CEE1FFF0B000CEE1F07
:102E0000FF1FE82BE5B9419A41982C9AF101918373
:102E1000D10112968C91821719F185B18C7D85B9FB
:102E20008BB183708BB9ABB1822F90E0FC01EE0FB8
:102E3000FF1FEE0FFF1FEA2BEBB9E5B1EC7FE5B901
:102E4000E5B1082E892F000C881F990B000C881FF4
:102E5000991F8E2B85B9419A41982D9AF1012283B1
:102E60008AB183708AB984B18C7F84B98FB78A8321
:102E7000F8942A988A818FBFE9B123B1F0E42F9F9B
:102E8000C00111249E2F96959695982B2A9A8AB167
:102E90008C6F8AB984B1836084B9D3018C9185FF2A
:102EA000FCCFE6ECF0E090830F5F1F4F041715078F
:102EB00009F055CF91C280E092E00E94CB01181634
:102EC0001906CCF780E092E00E94A901182F682F24
:102ED000617080E10E94120911FB662760F981E1AF
:102EE0000E94120912FB662760F982E10E94120912
:102EF00013FB662760F983E10E9412096DC280E02E
:102F000092E00E94CB010397D4F380E092E00E940C
:102F1000A9018C0180E092E00E94A90188871F82AC
:102F20008F819885082B192B80E092E00E94A901DF
:102F300091E6B91207C0880F912F991F9927991F01
:102F4000892B1068D1019C91901701F12B989BB1AE
:102F500093709BB99BB198013327A901440F551F6A
:102F6000440F551F492B4BB995B19C7F95B995B12D
:102F7000022E232F000C221F330B000C221F331FA5
:102F8000292B25B9419A41982B9A0C93F1019181F3
:102F9000911711F195B19E7E95B99BB193709BB934
:102FA0009BB1212F30E0A901440F551F440F551F3D
:102FB000492B4BB995B19C7F95B995B1022E232F22
:102FC000000C221F330B000C221F331F292B25B9A5
:102FD000419A41982C9A1183D10112969C91129793
:102FE000981709F4F9C195B19C7D95B99BB193707F
:102FF0009BB99BB1282F30E0A901440F551F440F06
:10300000551F492B4BB995B19C7F95B995B1022EAF
:10301000232F000C221F330B000C221F331F292BE0
:1030200025B9419A41982D9A12968C93D5C180E08A
:1030300092E00E94CB010597D4F380E092E00E94D9
:10304000A9017C0180E092E00E94A9018A8719868B
:10305000E985FA85EE2AFF2A80E092E00E94A90124
:10306000882E80E092E00E94A9016C0180E092E04D
:103070000E94A9018C871B868B859C85C82AD92A2A
:10308000449A61E08EE00E9412098FB78983F89418
:103090002A9889818FBF8AB18C6F8AB994B1936065
:1030A00094B9CE0CDF1C982C990C40E1A12C403136
:1030B000A0F000EF11E080E092E00E94CB01181632
:1030C0001906CCF780E092E00E94A901D8018D9307
:1030D0008D01A415B50579F74A2DB7E7BB1208C0D5
:1030E0005F2D551F5527551F5929C701906802C0EC
:1030F000C701582DF1012081281709F12B982BB118
:1031000023702BB9EBB19C013327B901660F771FF0
:10311000660F771F6E2B6BB965B16C7F65B965B1B2
:10312000022E232F000C221F330B000C221F331FF3
:10313000262B25B9419A41982B9AD1018C93F10104
:103140002181291711F185B18E7E85B98BB18370EC
:103150008BB98BB1292F30E0B901660F771F660F4D
:10316000771F682B6BB985B18C7F85B985B1022E2D
:10317000232F000C221F330B000C221F331F282B80
:1031800025B9419A41982C9A9183D10112968C913C
:103190001297851719F185B18C7D85B98BB1837034
:1031A0008BB96BB1852F90E09C01220F331F220F4A
:1031B000331F262B2BB925B12C7F25B925B1082E1D
:1031C000892F000C881F990B000C881F991F822BD8
:1031D00085B9419A41982D9A12965C93E42FF0E0BC
:1031E000E051FE4F80819BB193709BB95BB190E041
:1031F0009C01220F331F220F331F252B2BB925B122
:103200002C7F25B925B1082E892F000C881F990B1A
:10321000000C881F991F822B85B94498BFEFEB1AC9
:10322000FB0A4F5FCE14DF0411F0449A40CF449A5A
:103230002A9A60E08EE00E941209CEC000E012E0FF
:10324000D801ED91FC910280F381E02D44E050E043
:103250006AE271E0C8010995D801ED91FC910190F5
:10326000F081E02D61E3C8010995B6C080E092E0ED
:103270000E94CB0118161906CCF780E092E00E945C
:10328000A901813361F51F92B1E0BF93812C68944D
:10329000992492F80F2EFBE6AF2EF02D0F2EF4EFAF
:1032A000BF2EF02D0F2EF4E1CF2EF02DD12CE12CDE
:1032B000F12C04EC13EF25E535E140E050E060E04F
:1032C00070E089EA92E00E94080F41E061E070E05E
:1032D00089EA92E00E94430C0F900F907DC040E07D
:1032E00061E070E089EA92E00E94430C75C080E0E2
:1032F00092E00E94CB010497D4F380E092E00E9418
:10330000A9018C0180E092E00E94A9016C0180E09B
:1033100092E00E94A9010D2C000CEE08FF08FE2C83
:10332000ED2CDC2CCC24092E000CAA0BBB0BDC01F1
:10333000992788278C299D29AE29BF296801110F5B
:10334000EE08FF084C015D018C289D28AE28BF289F
:1033500080E092E00E94A9016C01990FEE08FF083D
:103360007C2D66275527442775016401C42AD52A78
:10337000E62AF72A00E012E0D801ED91FC910680E0
:10338000F781E02DC8010995D8015296ED91FC9185
:10339000539780818F7E80835296ED91FC91539755
:1033A0008081877F80835296ED91FC915397808135
:1033B0008F7780835296ED91FC91539780818F7D1A
:1033C00080835A968C915A9759968C9326E0B70130
:1033D000A601C8010E94A9080E947C027ACCE0E004
:1033E000F2E01382128288EE93E0A0E0B0E08483E2
:1033F0009583A683B7832AE031E03183208325ECCF
:1034000030E03587248724EC30E03787268720ECAE
:1034100030E0318B208B21EC30E0338B228B22EC9F
:1034200030E0358B248B26EC30E0378B268B118EE9
:10343000128E138E148EEDE9F2E0138212828483D1
:103440009583A683B7838CE191E091838083E9EA39
:10345000F2E088E080AF81AF11AA12AA13AA118608
:10346000128613861486158616861786108A118A88
:10347000128A138A148A158A168A178A108E118E58
:10348000128E138E148E158E168E178E10A211A208
:1034900012A213A214A215A216A217A210A611A678
:1034A00012A613A614A615A616A617A610AA80E49F
:1034B00098E7ADE7B1E082AF93AFA4AFB5AF0895A1
:1034C000A1E21A2EAA1BBB1BFD010DC0AA1FBB1F28
:1034D000EE1FFF1FA217B307E407F50720F0A21B9A
:1034E000B30BE40BF50B661F771F881F991F1A9407
:1034F00069F760957095809590959B01AC01BD0131
:10350000CF010895EE0FFF1F0590F491E02D09946F
:10351000DF93CF931F930F939A9DF02D219FF00D72
:103520008B9DF00D8A9DE02DF10D039FF00D029F04
:10353000E00DF11D4E9DE00DF11D5E9DF00D4F9DC6
:10354000F00D7F936F93BF92AF925F934F93D5012E
:103550000E94161C8B01AC01D7010E94161CEB01C6
:10356000E80FF91FD6010E94D81A2F913F91D6017A
:103570000E94161CC60FD71FE81FF91FAF91BF91FD
:103580000E94D81A2F913F910E94161CC60FD71F78
:10359000E81FF91FD6010E94161CE60FF71F9801BD
:1035A000BE01CF0111240F911F91CF91DF9108959A
:1035B0000E94161C460F571FC81FD91F08F43196CA
:1035C0000895689401C0E894F92FF12B12F00C943F
:1035D000151BA0E0B0E0EFEEFAE10C94871B092E7A
:1035E000059422F40E94711B112392F4F0E80F2637
:1035F000FFEFE094F09400951095B094C094D094AF
:10360000A194BF0ACF0ADF0AEF0AFF0A0F0B1F0BB4
:103610000E94201B07FC0E94711BCDB7DEB7ECE0B7
:103620000C94A31B689401C0E8948F929F92CF934F
:10363000DF930E94201BDF91CF919F908F90089580
:1036400088249924F401E401B0E49F93AA279A15F1
:103650008B049C04ED05FE05CF05D007A10798F467
:10366000AD2FDC2FCF2FFE2FE92D982C892E982FF0
:10367000872F762F652F542F432F322F2227B850B4
:1036800031F7BF9127C01B2EBF91BB27220F331FDD
:10369000441F551F661F771F881F991F881C991C80
:1036A000EE1FFF1FCC1FDD1FAA1FBB1F8A149B0428
:1036B000EC05FD05CE05DF05A007B10748F08A1827
:1036C0009B08EC09FD09CE09DF09A00BB10B2160B5
:1036D0001A94E1F62EF49401AF01BE01CD01000C65
:1036E000089560957095809590953095409550958A
:1036F00021953F4F4F4F5F4F6F4F7F4F8F4F9F4FE2
:1037000008952F923F924F925F926F927F928F9285
:103710009F92AF92BF92CF92DF92EF92FF920F9360
:103720001F93CF93DF93CDB7DEB7CA1BDB0B0FB66A
:10373000F894DEBF0FBECDBF09942A883988488827
:103740005F846E847D848C849B84AA84B984C884BD
:10375000DF80EE80FD800C811B81AA81B981CE0FB4
:10376000D11D0FB6F894DEBF0FBECDBFED01089599
:103770000F93083090F0982F872F762F652F542FB6
:10378000432F322F22270850F4CF220F331F441F1C
:10379000551F661F771F881F991F0A95B2F70F9153
:1037A000089597FB10F8169400080F93083098F0CE
:1037B0000850232F342F452F562F672F782F892F0E
:1037C000902DF4CF059497958795779567955795A4
:1037D0004795379527950A95AAF70F9108952A0DD1
:1037E0003B1D4C1D5D1D6E1D7F1D801F911F08958B
:1037F0002A193B094C095D096E097F09800B910B61
:1038000008952A153B054C055D056E057F0580076B
:10381000910708950024A7FD00942A17300540055C
:10382000500560057005800590050895A29FB001C0
:10383000B39FC001A39F700D811D1124911DB29FE4
:10384000700D811D1124911D0895CF93DF93823057
:10385000910510F482E090E0E091E902F091EA0233
:1038600020E030E0C0E0D0E0309711F1408151819C
:1038700048175907C0F04817590761F482819381AE
:10388000209719F09B838A832BC09093EA02809340
:10389000E90226C02115310519F04217530718F423
:1038A0009A01BE01DF01EF010280F381E02DDCCF40
:1038B0002115310509F1281B390B2430310590F40D
:1038C00012968D919C9113976115710521F0FB0162
:1038D0009383828304C09093EA028093E902FD01FE
:1038E000329644C0FD01E20FF31F81939193225061
:1038F00031092D933C933AC02091E7023091E802C0
:10390000232B41F420910201309103013093E8020E
:103910002093E7022091000130910101211531052A
:1039200041F42DB73EB74091040150910501241B8D
:10393000350BE091E702F091E802E217F307A0F4FB
:103940002E1B3F0B2817390778F0AC014E5F5F4FF5
:103950002417350748F04E0F5F1F5093E80240933D
:10396000E7028193919302C0E0E0F0E0CF01DF91A4
:10397000CF9108950F931F93CF93DF93009709F48E
:103980008CC0FC013297138212820091E9021091DF
:10399000EA020115110581F420813181820F931F04
:1039A0002091E7023091E8022817390779F5F09362
:1039B000E802E093E70271C0D80140E050E0AE17A2
:1039C000BF0750F412962D913C911397AD0121152C
:1039D000310509F1D901F3CF9D01DA013383228347
:1039E00060817181860F971F8217930769F4EC013C
:1039F00028813981260F371F2E5F3F4F3183208367
:103A00008A819B8193838283452B29F4F093EA0278
:103A1000E093E90242C01396FC93EE931297ED01F6
:103A2000499159919E01240F351FE217F30771F454
:103A300080819181840F951F029611969C938E939D
:103A40008281938113969C938E931297E0E0F0E02D
:103A5000D80112968D919C911397009719F0F80157
:103A60008C01F6CF8D919C9198012E5F3F4F820F74
:103A7000931F2091E7023091E8022817390769F473
:103A8000309729F41092EA021092E90202C01382E0
:103A900012821093E8020093E702DF91CF911F9109
:103AA0000F91089581E090E0F8940C94571DF894DC
:023AB000FFCF46
:103AB2000000EB028000000000000B027B14970163
:103AC2005A02CB01A901BD01000000001703E70261
:103AD200AC03BB02DF02CB02BC02484B41460000F2
:107E0000112484B714BE81FFF0D085E080938100F7
:107E100082E08093C00088E18093C10086E0809377
:107E2000C20080E18093C4008EE0C9D0259A86E02C
:107E300020E33CEF91E0309385002093840096BBD3
:107E4000B09BFECF1D9AA8958150A9F7CC24DD24C4
:107E500088248394B5E0AB2EA1E19A2EF3E0BF2EE7
:107E6000A2D0813461F49FD0082FAFD0023811F036
:107E7000013811F484E001C083E08DD089C08234E0
:107E800011F484E103C0853419F485E0A6D080C0E4
:107E9000853579F488D0E82EFF2485D0082F10E0AE
:107EA000102F00270E291F29000F111F8ED06801E7
:107EB0006FC0863521F484E090D080E0DECF843638
:107EC00009F040C070D06FD0082F6DD080E0C81688
:107ED00080E7D80618F4F601B7BEE895C0E0D1E017
:107EE00062D089930C17E1F7F0E0CF16F0E7DF06D8
:107EF00018F0F601B7BEE89568D007B600FCFDCFD4
:107F0000A601A0E0B1E02C9130E011968C91119780
:107F100090E0982F8827822B932B1296FA010C0160
:107F200087BEE89511244E5F5F4FF1E0A038BF0790
:107F300051F7F601A7BEE89507B600FCFDCF97BE46
:107F4000E89526C08437B1F42ED02DD0F82E2BD052
:107F50003CD0F601EF2C8F010F5F1F4F84911BD097
:107F6000EA94F801C1F70894C11CD11CFA94CF0C13
:107F7000D11C0EC0853739F428D08EE10CD085E9AC
:107F80000AD08FE07ACF813511F488E018D01DD067
:107F900080E101D065CF982F8091C00085FFFCCF94
:107FA0009093C60008958091C00087FFFCCF809118
:107FB000C00084FD01C0A8958091C6000895E0E648
:107FC000F0E098E1908380830895EDDF803219F02E
:107FD00088E0F5DFFFCF84E1DECF1F93182FE3DFCA
:107FE0001150E9F7F2DF1F91089580E0E8DFEE27F6
:047FF000FF270994CA
:027FFE00040479
:0400000300007E007B
:00000001FF
