:100000000C946D000C9495000C9495000C94950044
:100010000C9495000C9495000C9495000C9495000C
:100020000C9495000C9495000C9495000C949500FC
:100030000C9495000C9495000C9495000C949500EC
:100040000C9445080C9495000C9413080C94ED073F
:100050000C9495000C9495000C9495000C949500CC
:100060000C948F080C9495006B0D6D0D6F0D710D38
:10007000730D750D770D790DAB0DAE0DB10DA80D8E
:10008000B40DB70DC80DC80D000000080002010036
:100090000003040700000000000000000000000052
:1000A000250028002B0000000000240027002A0063
:1000B000040404040404040402020202020203030E
:1000C0000303030301020408102040800102040816
:1000D0001020010204081020911411241FBECFEF3C
:1000E000D8E0DEBFCDBF11E0A0E0B1E0ECE4F0E38A
:1000F00002C005900D92AC32B107D9F722E0ACE214
:10010000B1E001C01D92A73EB207E1F710E0CDE6D5
:10011000D0E004C02197FE010E942415CC36D107FF
:10012000C9F70E9430110C9424180C940000CF924F
:10013000DF92EF92FF926B017C01E0910B02F09154
:100140000C0282E08083C11481EED806E104F10440
:10015000B1F060E079E08DE390E0A70196010E94A4
:100160000215DA01C9010197A109B109B695A79550
:10017000979587959C01211580E13807B8F0E091AB
:100180000B02F0910C02108260E874E88EE190E0BE
:10019000A70196010E940215DA01C9010197A10980
:1001A000B109B695A795979587959C01E0910702AF
:1001B000F09108023083E0910902F0910A02208355
:1001C00010921302E0910F02F091100286E08083FA
:1001D000E0910D02F0910E02808180618083E091B8
:1001E0000D02F0910E02808188608083E0910D0203
:1001F000F0910E02808180688083E0910D02F09181
:100200000E0280818F7D8083FF90EF90DF90CF90F2
:100210000895CF92DF92EF92FF920F931F93CF93A7
:10022000DF936C017A018B01C0E0D0E0CE15DF05D1
:1002300089F0D8016D918D01D601ED91FC9101906D
:10024000F081E02DC6010995892B11F47E0102C0D1
:100250002196ECCFC701DF91CF911F910F91FF90B5
:10026000EF90DF90CF900895FC01918D828D9817CB
:1002700061F0828DDF01A80FB11D5D968C91928D8A
:100280009F5F9F73928F90E008958FEF9FEF089587
:10029000FC01918D828D981731F0828DE80FF11D50
:1002A000858D90E008958FEF9FEF0895FC01918D6B
:1002B000228D892F90E0805C9F4F821B91098F7364
:1002C000992708958BEF91E00E94560121E0892B38
:1002D00009F420E0822F0895FC01848DDF01A80F2E
:1002E000B11DA35ABF4F2C91848D90E001968F735E
:1002F0009927848FA689B7892C93A089B1898C917D
:1003000080648C93938D848D981306C00288F38942
:10031000E02D80818F7D80830895EF92FF920F936F
:100320001F93CF93DF93EC0181E0888F9B8D8C8DA1
:10033000981305C0E889F989808185FD24C0F62ECF
:100340000B8D10E00F5F1F4F0F731127E02E8C8D68
:10035000E8120CC00FB607FCFACFE889F989808152
:1003600085FFF5CFCE010E946C01F1CF8B8DFE0190
:10037000E80FF11DE35AFF4FF0820B8FEA89FB89EA
:100380008081806207C0EE89FF896083E889F989EE
:1003900080818064808381E090E0DF91CF911F9124
:1003A0000F91FF90EF900895CF93DF93EC01888D2C
:1003B0008823C9F0EA89FB89808185FD05C0A88969
:1003C000B9898C9186FD0FC00FB607FCF5CF8081EF
:1003D00085FFF2CFA889B9898C9185FFEDCFCE0139
:1003E0000E946C01E7CFDF91CF91089580E090E00B
:1003F000892B29F00E94620181110C94000008955C
:1004000090E0FC01E857FF4F3491FC01EC53FF4FA3
:100410002491FC01E055FF4FE491EE2309F43BC029
:10042000332339F1333091F038F43130A9F03230E0
:1004300001F584B58F7D12C0373091F03830A1F0CE
:100440003430B9F4809180008F7D03C080918000AA
:100450008F77809380000DC084B58F7784BD09C0ED
:100460008091B0008F7703C08091B0008F7D809322
:10047000B000F0E0EE0FFF1FE456FF4FA591B491DE
:100480008FB7F894EC91611103C020952E2301C021
:100490002E2B2C938FBF08953FB7F894809178014D
:1004A00090917901A0917A01B0917B0126B5A89B2A
:1004B00005C02F3F19F00196A11DB11D3FBFBA2FF6
:1004C000A92F982F8827820F911DA11DB11DBC0156
:1004D000CD0142E0660F771F881F991F4A95D1F71B
:1004E000089540914E01262F30E0240F311D213216
:1004F0003105DCF42091D7012430C9F4FC0180E0FF
:1005000090E0861758F430914E012191DC01A45DF2
:10051000BE4FA30FB11D2C930196F3CF80914E01D6
:10052000680F60934E0180E0089581E0089582E0B5
:1005300008950895E091900180918F01E81730F4BB
:10054000F0E0EF56FE4F808190E008958FEF9FEF2F
:1005500008959091900180918F01981750F4E92FA0
:10056000F0E0EF56FE4F208130E09F5F90939001C6
:1005700002C02FEF3FEFC901089580918F0190E0F5
:1005800020919001821B91090895CF92DF92EF9202
:10059000FF920F931F93CF93DF937C01262F972F0A
:1005A0008A018091D801882391F0C62FD72F6E0140
:1005B000C40ED51ECC15DD0571F06991D701ED9102
:1005C000FC910190F081E02DC7010995F3CF642FD4
:1005D000822F0E947102C801DF91CF911F910F916C
:1005E000FF90EF90DF90CF900895CF93DF931F920D
:1005F000CDB7DEB769832091D8012223D1F02091B5
:10060000FA01203240F021E030E0FC013383228304
:1006100080E090E015C08091D901E82FF0E0E6522B
:10062000FE4F998190838F5F8093D9018093FA0167
:1006300005C061E0CE0101960E94710281E090E068
:100640000F90DF91CF9108959BB193709BB94BB1FF
:1006500090E09C01220F331F220F331F242B2BB954
:1006600025B12C7F25B925B166E0959587956A95CA
:10067000E1F7822B85B90895CF93C82F862F95B1C6
:1006800027EF3FEF0C2E01C0220F0A94EAF729232F
:1006900025B90E942403419A419845B128E030E0F1
:1006A000C90101C0880FCA95EAF7842B85B9CF919B
:1006B00008951F93CF93DF93182FEB01442339F054
:1006C000110F8D2F881F8827881F182BD0688091C5
:1006D0007C018C1731F06C2F80E00E943C03C093AA
:1006E0007C0180917D018D1731F06D2F81E00E949A
:1006F0003C03D0937D0180917E01811731F0612F01
:1007000082E00E943C0310937E01DF91CF911F9104
:1007100008950F931F93CF938B01C0E1C80F8C2FC7
:100720000E949B0A0115110511F48F7D04C0013050
:10073000110509F48062682F8C2FCF911F910F91C2
:100740000C94810A2F923F924F925F926F927F9208
:100750008F929F92AF92BF92CF92DF92EF92FF92D1
:100760000F931F93CF93DF93CDB7DEB7AA970FB642
:10077000F894DEBF0FBECDBF622E298F732E3A8F45
:100780004B8F5C8F6D8F7E8F8F8F98A319A708A7D3
:1007900093012F3F34434C4051056105710581059C
:1007A000910509F050F4198E85E38A8F8CE08B8FC8
:1007B0001C8E1D8E1E8E1F8E18A2298D3A8D4B8D7C
:1007C0005C8D6D8D7E8D8F8D98A12115304A4C4AA0
:1007D000594B634071058105910569F060F0198EF0
:1007E00080EA8A8F8CEA8B8F89EB8C8F83E08D8FE8
:1007F0001E8E1F8E18A2CE0149960E94F10F8AA765
:10080000798CBA8DAB8DFC8DED8D6E8C5F8C48A094
:10081000272D3B2F4A2F5F2F6E2F762D852D942D60
:100820002F3F05ED300701E140070EE7500703E0D9
:10083000600771058105910511F008F081C09E01E6
:10084000235F3F4F4901A12CE4E0BE2EFBE6CF2EF3
:10085000A4EFDA2E14E1E12EF12C00E010E0272DB8
:100860003B2F0E94E30D88A599A58130910559F190
:100870008230910509F440C0892B09F05DC3898D50
:100880008093BD028A8D8093BE028B8D8093BF02C0
:100890008C8D8093C0028D8D8093C1028E8D80934C
:1008A000C2028F8D8093C30288A18093C40280E02E
:1008B00019A2212C54E0352E6BE6462E94EF9CA312
:1008C000E4E1EDA344C3898D8093C5028A8D8093B2
:1008D000C6028B8D8093C7028C8D8093C8028D8D4C
:1008E0008093C9028E8D8093CA028F8D8093CB0234
:1008F00088A18093CC0220C3898D8093CD028A8DFC
:100900008093CE028B8D8093CF028C8D8093D0020A
:100910008D8D8093D1028E8D8093D2028F8D8093A6
:10092000D30288A18093D40280E019A2212C34E064
:10093000332E4BE6442E14EF1CA324E12DA307C352
:10094000CE010D964C01A12CB12CC12CD12CE12C47
:10095000F12C00E010E0272D3B2F4A2F5F2F6E2F48
:10096000762D852D942D0E94E30DE8A5F9A5E130A3
:10097000F10509F450C0E230F10509F492C1EF2B02
:1009800009F00BC3298D3A8D4B8D5C8D6D8D7E8D5D
:1009900000E010E08F8D98A10E94E30D1901442E14
:1009A0005CA36DA3772E582E692E60E070E080E086
:1009B00090E00E9489032092AD023092AE024092F4
:1009C000AF021CA11093B0022DA12093B10270922E
:1009D000B2025092B3026092B402898D8093BD023C
:1009E0008A8D8093BE028B8D8093BF028C8D809305
:1009F000C0028D8D8093C1028E8D8093C2028F8D37
:100A00008093C30288A18093C40281E031E039A3BE
:100A10001BA21AA29FC21091DD02B98DAA8DFB8D77
:100A2000EC8D0D8D09A30E8D0AA30F8D0EA308A1C9
:100A30000FA3123009F073C02B2F3A2F4F2F5E2FC8
:100A400069A17AA18EA1902F30584A415640610980
:100A50007109810991092F37304E42475849624048
:100A600071058105910569F160F1A090CD02B0900A
:100A7000CE02C090CF02D090D002E090D102F09090
:100A8000D2020091D3021091D4022B2F3A2F4F2F74
:100A90005E2F69A17AA18EA19FA10E94CE1689F036
:100AA0001092C5021092C6021092C7021092C8029C
:100AB0001092C9021092CA021092CB021092CC027C
:100AC0006CC22090B5023090B6024090B7022091DF
:100AD000B8022CA33091B9023DA37090BA02509095
:100AE000BB026090BC02CE010D964C015101C42C9A
:100AF000D22EE32EF72C052D162D2B2F3A2F4F2F0C
:100B00005E2F69A17AA18EA19FA10E94E30D61E0F1
:100B100070E081E090E00E94890319A235C0209323
:100B2000B5023093B6024093B7025093B802609377
:100B3000B9027093BA028093BB029093BC028E01FB
:100B4000035F1F4F4801A12CB12CC12CD12CE12CEB
:100B5000F12C00E010E02B2F3A2F4F2F5E2F69A1D0
:100B60007AA18EA19FA10E94E30D1901442E5CA3DE
:100B70006DA3772E582E692E61E070E081E090E041
:100B80000E94890311E019A3298D3A8D4B8D5C8D4C
:100B90006D8D7E8D8F8D98A130584A4156406109E8
:100BA0007109810991092F37304E424758496240F7
:100BB00071058105910509F008F457C081E0809323
:100BC000DD022091CD023091CE024091CF025091B2
:100BD000D0026091D1027091D2028091D3029091A3
:100BE000D402A0E00E94D71609F442C08DEC92E036
:100BF0000E94F10F8AA7A090B502B090B602C090F3
:100C0000B702D090B802E090B902F090BA02009119
:100C1000BB021091BC022091CD023091CE024091D6
:100C2000CF025091D0026091D1027091D202CE01D8
:100C300001964C018091D3029091D4020E94E30D61
:100C40001F928AA4A12CC980DA80EB80FC800D81E0
:100C50001E812F81388549855A856B857C8582E088
:100C600090E00E94080D0F9003C088E08093DD02A1
:100C7000898D8093C5028A8D8093C6028B8D809367
:100C8000C7028C8D8093C8028D8D8093C9028E8D92
:100C90008093CA028F8D8093CB0288A18093CC026F
:100CA00045C17090DD02B98DAA8DFB8DEC8D0D8D47
:100CB00009A31E8D1AA30F8D0EA318A11FA301E077
:100CC000701273C02B2F3A2F4F2F5E2F69A17AA17C
:100CD0008EA1912F30584A4156406109710981090E
:100CE00091092F37304E42475849624071058105BE
:100CF000910569F160F1A090CD02B090CE02C09054
:100D0000CF02D090D002E090D102F090D2020091B8
:100D1000D3021091D4022B2F3A2F4F2F5E2F69A1AF
:100D20007AA18EA19FA10E94CE1689F01092CD02C9
:100D30001092CE021092CF021092D0021092D102E5
:100D40001092D2021092D3021092D4022AC12090A3
:100D5000B5023090B6024090B7022091B8022CA3A1
:100D60003091B9023DA37090BA025090BB026090DE
:100D7000BC02CE010D964C015101C42CD22EE32EA3
:100D8000F72C052D162D2B2F3A2F4F2F5E2F69A1F3
:100D90007AA18EA19FA10E94E30D61E070E082E044
:100DA00090E00E94890319A235C02093B5023093C8
:100DB000B6024093B7025093B8026093B9027093A1
:100DC000BA028093BB029093BC028E01035F1F4F57
:100DD0004801A12CB12CC12CD12CE12CF12C00E02C
:100DE00010E02B2F3A2F4F2F5E2F69A17AA18EA1F1
:100DF0009FA10E94E30D1901442E5CA36DA3772EE1
:100E0000582E692E61E070E082E090E00E94890334
:100E100011E019A3298D3A8D4B8D5C8D6D8D7E8DE2
:100E20008F8D98A130584A41564061097109810956
:100E300091092F37304E424758496240710581056C
:100E4000910509F008F457C082E08093DD022091FB
:100E5000C5023091C6024091C7025091C80260910C
:100E6000C9027091CA028091CB029091CC02A0E09D
:100E70000E94D71609F442C085EC92E00E94F10F5F
:100E80008AA7A090B502B090B602C090B702D090E9
:100E9000B802E090B902F090BA020091BB02109142
:100EA000BC022091C5023091C6024091C702509108
:100EB000C8026091C9027091CA02CE0101964C012C
:100EC0008091CB029091CC020E94E30D1F928AA4E4
:100ED000A12CC980DA80EB80FC800D811E812F81DE
:100EE000388549855A856B857C8581E090E00E9434
:100EF000080D0F9003C088E08093DD02898D8093F8
:100F0000CD028A8D8093CE028B8D8093CF028C8D03
:100F10008093D0028D8D8093D1028E8D8093D202EA
:100F20008F8D8093D30288A18093D40281E0E1E089
:100F3000F0E0FBA3EAA30EC080E019A2212C94E00C
:100F4000392E2BE6422EF4EFFCA304E10DA3712C05
:100F5000512C612C8F938AA4A82ECD84DE84EF843B
:100F6000F88809891A892B893C894D895E896F899E
:100F7000788D88A599A50E94080D0F9019A11130B0
:100F800079F40AA11BA19101442D5CA16DA1772DDB
:100F9000852D962D0E942C0B03C07724739401C0DD
:100FA000712C872DAA960FB6F894DEBF0FBECDBF69
:100FB000DF91CF911F910F91FF90EF90DF90CF9035
:100FC000BF90AF909F908F907F906F905F904F9069
:100FD0003F902F9008950E941F181F920F920FB6F6
:100FE0000F9211242F933F934F935F936F937F93AF
:100FF0008F939F93AF93BF93EF93FF938BEF91E00A
:101000000E946C01FF91EF91BF91AF919F918F91E1
:101010007F916F915F914F913F912F910F900FBEF4
:101020000F901F9018951F920F920FB60F921124D8
:101030002F938F939F93EF93FF93E0910B02F09187
:101040000C028081E0911102F091120282FD12C027
:101050009081809114028F5F8F7320911502821707
:1010600051F0E0911402F0E0E550FE4F958F80932F
:10107000140201C08081FF91EF919F918F912F9178
:101080000F900FBE0F901F9018951F920F920FB6E2
:101090000F9211242F933F938F939F93AF93BF93FE
:1010A0008091740190917501A0917601B0917701C2
:1010B0003091730123E0230F2D3720F40196A11DF9
:1010C000B11D05C026E8230F0296A11DB11D209376
:1010D00073018093740190937501A0937601B0938E
:1010E00077018091780190917901A0917A01B09176
:1010F0007B010196A11DB11D809378019093790128
:10110000A0937A01B0937B01BF91AF919F918F9192
:101110003F912F910F900FBE0F901F9018951F9227
:101120000F920FB60F9211242F933F934F935F931B
:101130006F937F938F939F93AF93BF93EF93FF939F
:101140008091B900887F803609F4C9C0A8F588323B
:1011500009F463C0B8F4803109F45CC038F4882322
:1011600009F422C1883009F455C029C1883109F435
:1011700054C0803209F023C18093D50185ED80935E
:10118000BC006BC0803409F483C048F4803309F498
:1011900069C0883309F013C18093D50101C180353E
:1011A00009F46AC0883509F478C0883409F007C1A9
:1011B00085ED8093BC008EC0883909F4EDC0A8F499
:1011C000883709F48CC038F4883609F488C0803731
:1011D00009F485C0F4C0883809F4DEC0803909F408
:1011E00084C0803809F0EBC080C0803B09F4ABC0FC
:1011F00038F4803A09F48BC0883A09F4A4C0DFC0FF
:10120000803C09F4CDC0883C09F4CAC0883B09F48D
:10121000AFC0D5C08091B20110C09091D40180912F
:10122000D301981768F4E091D40181E08E0F809388
:10123000D401F0E0ED54FE4F80818093BB00AAC042
:101240008091D601882309F440C085ED8093BC00CD
:101250008091BC0084FDFCCFB0C08091BC0084FDB7
:10126000FCCFABC08093D50185ED8093BC0080910D
:10127000BC0084FDFCCFA1C0E091D40181E08E0FC1
:101280008093D4018091BB00F0E0ED54FE4F808349
:101290009091D4018091D3017BC0E091D40181E091
:1012A0008E0F8093D4018091BB00F0E0ED54FE4F8F
:1012B00080838091D601882341F085ED8093BC0026
:1012C0008091BC0084FDFCCF78C081E08093B101A7
:1012D00084EA67C08091BC0084FDFCCF6EC083E0CF
:1012E0008093D7011092720155C0809172018032B3
:1012F00008F052C0E091720181E08E0F809372017C
:101300008091BB00F0E0EE5AFE4F808343C085EC35
:101310008093BC001092D70180917201803230F42A
:10132000E0917201F0E0EE5AFE4F1082609172017E
:1013300070E0E0915001F091510182E591E0099552
:10134000109272013CC084E08093D70110924F014B
:1013500010924E01E0914C01F0914D010995809160
:101360004E01811105C081E080934E0110922C0145
:10137000E0914F0181E08E0F80934F01F0E0E45D3A
:10138000FE4F80818093BB0090914F0180914E0170
:10139000981710F485EC01C085E88093BC000FC05D
:1013A00085EC8093BC0009C01092D50185ED809337
:1013B000BC008091BC0084FDFCCF1092D701FF914E
:1013C000EF91BF91AF919F918F917F916F915F91BD
:1013D0004F913F912F910F900FBE0F901F90189536
:1013E000382F2091FA019091E202213208F049C091
:1013F0008091D7018111FCCF42E04093D701309317
:10140000D6013FEF3093D5011092D4012093D30140
:10141000AAEDB1E043EB51E0FA013E2F341B321745
:1014200018F43D913193F9CF1092B2012091B2019D
:10143000990F922B9093B2019091B101913061F488
:101440001092B1019091B2019093BB009091BC00B9
:1014500093FDF8CF95EC01C095EE9093BC00909170
:10146000D7019230E1F39091D5019F3F79F08091BF
:10147000D501803241F08091D501803331F084E094
:1014800005C081E003C082E001C083E01092D90171
:101490001092FA011092D8010895EF92FF920F93E3
:1014A0001F93CF93DF931F92CDB7DEB7162F91E036
:1014B0009093D80190E69093E2021092D901109295
:1014C000FA01682F88E992E079830E94F502E12E03
:1014D0007981F72E8701085F1F4FF70161917F0126
:1014E00088E992E00E94F502E016F106B1F781E08A
:1014F0000F90DF91CF911F910F91FF90EF900C947F
:10150000F009CF93C62F91E09093D80190E6909385
:10151000E2021092D9011092FA01682F88E992E054
:101520000E94F5026C2F88E992E00E94F50281E0AA
:10153000CF910C94F009CF93DF9391E09093D80171
:1015400090E69093E2021092D9011092FA01682F6E
:1015500088E992E00E94F50281E00E94F009809102
:10156000D7018111FCCF91E09093D7011092D60161
:101570008FEF8093D5011092D4011092D3019093F4
:10158000B2019091B201906C9093B2018091B1013F
:10159000813061F41092B1018091B2018093BB005F
:1015A0008091BC0083FDF8CF85EC01C085EE80936F
:1015B000BC008091D7018130E1F38091D401811189
:1015C00003C0C091D40101C0C1E0A3EBB1E021E9A7
:1015D00031E0F9018E2F821B8C1718F48D918193C5
:1015E000F9CF10929001C0938F0180919001C8179C
:1015F00031F088E992E00E94A902D82FF6CF8D2F12
:10160000DF91CF9108950F931F93CF93DF931F9294
:10161000CDB7DEB78C0183E069830E949B0A9801F5
:1016200033276981613049F461E070E001C0660FE1
:101630002A95EAF76095682307C061E070E001C071
:10164000660F2A95EAF7682B83E00F90DF91CF9120
:101650001F910F910C94810A2F923F924F925F92AB
:101660006F927F928F929F92AF92BF92CF92DF92B2
:10167000EF92FF920F931F93CF93DF93CDB7DEB717
:1016800065970FB6F894DEBF0FBECDBF322E3A87F6
:101690004B875C876D87272E2C011F870E876091F3
:1016A000DE027091DF028091E0029091E10224E677
:1016B00030E040E050E00E9483152C8B3D8B4D8341
:1016C0005E83762E672E888B998B8091D8029091BD
:1016D000D902A091DA02B091DB026C017D01FF0C0E
:1016E000CC08DC2C76019C01AD016C2D7C2D8C2D61
:1016F0009C2D0FE10E948516A12CEAECBE2EFAE982
:10170000CF2EABE3DA2EE12CF12C00E010E00E94AA
:10171000B015AC88BD88CD80DE80E72CF62C08891A
:1017200019890E942A150FE10E94A01649015A0149
:10173000D501C401BB0F880B982FDC0189839A83E4
:10174000AB83BC839401A5016981762F862F962FE8
:10175000AC88BD88CD80DE80E72CF62C08890E94FD
:10176000BC1639014A01688B798B89839D83232DAF
:101770003A854B855C856D85722DC2012F3FA7E5AB
:101780003A07A7E44A07A8EF5A07ADE06A077105D0
:1017900081059105A9F0A0F0211534404B46544F26
:1017A0006441710581059105B9F0B0F0312C94E0E8
:1017B0009A87ABE6AB87B4EFBC87E4E1ED8709C05D
:1017C000312CE8E5EA87F7E4FB8728EF2C878DE0EA
:1017D0008D87212C412C512C53016401E888F98814
:1017E00009811D81232D3A854B855C856D85722D80
:1017F000C2010E94E1152E833F83488759878E815D
:101800009F81A885B9850F97A105B10558F493016B
:10181000A401B701C80104E00E94851609810E9455
:10182000C51628C08E819F81A885B9858B35910505
:10183000A105B10530F19301A401688979898981F5
:101840009D8102E00E94851653016401E888F988B1
:1018500009811D810E94C51659016A017B01E82F8B
:10186000192F04E00E9485160E2F0E94C51601E074
:101870000E948516322E3A874B875C876D87272E0C
:101880002C0153016401E888F98809811D81232D09
:101890003A854B855C856D85722DC2010E94DF15EE
:1018A0002901B42FA52FF62FE72F382E292E05E07A
:1018B0000E9485165201CB2EDA2EEF2EFE2E032D1E
:1018C000122D0E94C51605E00E948516032D0E9468
:1018D000BC1605E00E948516032D0E94C51619014D
:1018E0002A01B62FA72FF82FE92F05E00E948516B1
:1018F00059016A017B018C019101A2016B2F7A2FA2
:101900008F2F9E2F0E94BC1653016401E888F9882E
:1019100009811D810E94E115C901DA010097A10525
:10192000B10529F4C12CD12C7601C39406C0CC2476
:10193000CA94DC2C5FE0E52EF12CBC01CD0127E040
:10194000660F771F881F991F2A95D1F78E809F8079
:10195000A884B98437E0880C991CAA1CBB1C3A9552
:10196000D1F7A2E09A1AA108B108A70196010E9436
:101970000215182F820E931EA41EB51E84E190E05E
:101980006A8B7B8B0E94F2163C01FC01D082C182E3
:101990008A2D8370828393828482D701C6014CE0B2
:1019A000B695A795979587954A95D1F7807FC82ECC
:1019B000C10EC5827B8976836A8967838E859F8500
:1019C000892B19F4B3018AE106C0AE85BF85119752
:1019D00021F4B30182E20E944D0AC30165960FB65D
:1019E000F894DEBF0FBECDBFDF91CF911F910F9155
:1019F000FF90EF90DF90CF90BF90AF909F908F902F
:101A00007F906F905F904F903F902F900C9487172E
:101A10002F923F924F925F926F927F928F929F92FE
:101A2000AF92BF92CF92DF92EF92FF920F931F93EC
:101A3000CF93DF93CDB7DEB72E970FB6F894DEBF06
:101A40000FBECDBF982E792E49875A876B877C872A
:101A50006BA05C2C2D2C3E2D402E312EC984DA84B7
:101A6000EB84FC8484E190E02E873D870E94F2168F
:101A70008C01FC01D082C182892D880F880F880FCC
:101A8000845D0E949B0A8C7F3D85932F9370892BE8
:101A9000F801828323825482D701C6016CE0B69597
:101AA000A795979587956A95D1F7982F907F2E8562
:101AB000822F8F70C82EC90EC58236824782E92CCC
:101AC000F72CF8E0EF16F104B8F4F701EC5CFF4FE7
:101AD000B8010C9424158AE20DC082E30BC08AE39E
:101AE00009C082E407C08AE405C082E503C08AE534
:101AF00001C08BE50E944D0A80E1980E892D0E945D
:101B00009B0A91E0682FA91202C0606401C06F7B3C
:101B1000892D0E94810AE1E0EE16F10451F0F2E015
:101B2000EF16F10449F0E114F10449F4A092D50252
:101B300012C0A092D60212C0A092D70212C088E0B2
:101B4000E816F104B0F4F701E45CFF4F0C9424159F
:101B500054E4B52E0EC04CE2B42E0BC034E3B32EC9
:101B600008C02CE3B22E05C09CE4B92E02C084E567
:101B7000B82E8B2D0E949B0A837861108C6090E1B7
:101B8000899E40011124682F68298B2D0E94810AAB
:101B9000C8012E960FB6F894DEBF0FBECDBFDF9101
:101BA000CF911F910F91FF90EF90DF90CF90BF905A
:101BB000AF909F908F907F906F905F904F903F90ED
:101BC0002F900C9487172F923F924F925F926F92B3
:101BD0007F928F929F92AF92BF92CF92DF92EF92BD
:101BE000FF920F931F93CF93DF93CDB7DEB76A9722
:101BF0000FB6F894DEBF0FBECDBF322E232E4D8719
:101C00005E873B012C01A982B98ACA8ADB8AEC8AE9
:101C1000FD8A0E8B1F8B988A8F86211500EA30076C
:101C20000CEA400709EB500703E0600771058105E6
:101C3000910511F008F046C02F3F10EE310715EF67
:101C4000410715E05107610571058105910561F0B6
:101C500058F02F3F354D41415E4763407105810586
:101C6000910509F0D8F50BC0312CB1EE2B2EF5EF14
:101C7000FD8705E00E87612C712C412C512C2981A8
:101C800039894A895B896C897D898E899F89A0E021
:101C90000E94D71609F0A7C0A32CB22CCD84DE84F5
:101CA0007301820120E034E04BE654EF64E170E020
:101CB00080E090E00E94E11529873A874B875C8796
:101CC000912C24C0312CF0EA2F2E1CEA1D8729EB21
:101CD0002E87A3E06A2E712C412C512C2981398941
:101CE0004A895B896C897D898E899F89A0E00E94E1
:101CF000D71609F021C19924939414E0E12EF12C18
:101D000000E010E0E986FA860B871C87E984FA84F4
:101D10000B851C85A801970160E070E0CB01A32C26
:101D2000B22CCD84DE847301820129833A834B83F4
:101D30005C836D837E838F83988760E070E080E0B2
:101D400090E00E942A152983398B4A8B5B8B6C8B20
:101D50007D8B8E8B9F8BFF24F3949F1409F4EFC02F
:101D600010E0C12CD12C7601C39440E050E0BA01C0
:101D700001C011E0CB01BA0107E0660F771F881F91
:101D8000991F0A95D1F789849A84AB84BC8427E093
:101D9000880C991CAA1CBB1C2A95D1F7A2E09A1AA0
:101DA000A108B108A70196010E940215820E931E98
:101DB000A41EB51EEF85F88980829182A282B3822B
:101DC0006483758386839783C086D186E286F38693
:101DD0001111E8C0298139894A895B896C897D891B
:101DE0008E899F89E5C01A8EA32CB22CCD84DE8407
:101DF00073018201298139894A895B896C897D89CE
:101E00008E899F890E94E11529873A874B875C87D5
:101E100089859A85AB85BC850697A105B10520F417
:101E200056E0A52EB12C0FC0E984FA840B851C85E1
:101E300029E0E21627E0F20601051105D0F038E0AE
:101E4000A32E47E0B42EC12CD12CE12CF12C00E0C4
:101E500010E0298139894A895B896C897D898E895D
:101E60009F890E94E115322E232E4D875E873B010C
:101E70002C01A32CB22CCD84DE8473018201298134
:101E800039894A895B896C897D898E899F890E94FD
:101E9000DF154901B42FA52FF62FE72F888F998FD3
:101EA00005E00E9485165401CB2EDA2EEF2EFE2E71
:101EB000088D198D0E94C51605E00E948516088DB3
:101EC0000E94BC1605E00E948516088D0E94C5166A
:101ED000288F398F4A01B62FA72FF82FE92F6B2FA4
:101EE0007A2F8F2F9E2F05E00E94851659016A01D7
:101EF0007B018C01288D398DA4016B2F7A2F8F2FB8
:101F00009E2F0E94BC16A32CB22CCD84DE847301BC
:101F100082010E94E115A32FF42FE52F422F5A2FA3
:101F20006F2F7E2F4115510561057105F9F4C12C04
:101F3000D12C7601C39420C081E08A8F55CFAF8524
:101F4000B8891D921D921D921C921397FD01148257
:101F5000158216821782C12CD12C7601C394189653
:101F6000CD92DD92ED92FC921B9722C0CC24CA94B4
:101F7000DC2C8FE0E82EF12CFA8DF13009F0F9CE4F
:101F8000EF85F889108211821282138214821582E1
:101F90001682178281E090E0A0E0B0E08087918710
:101FA000A287B387232D322D4D855E85B301C201F3
:101FB0006A960FB6F894DEBF0FBECDBFDF91CF910A
:101FC0001F910F91FF90EF90DF90CF90BF90AF9057
:101FD0009F908F907F906F905F904F903F902F9049
:101FE0000895DF92EF92FF920F931F93CF93DF93A9
:101FF000FC01E080F18002811381D481C581B6812A
:10200000D7809701A8016D2F7C2F8B2F9D2D3553E5
:102010004C40510961097109810991092F3F3443ED
:102020004C405105610571058105910509F098F451
:102030009701A8016D2F7C2F8B2F9D2D07E00E940B
:10204000851620833183428353836483758386831B
:10205000978387E0FDC09701A8016D2F7C2F8B2F00
:102060009D2D3A564841510961097109810991092B
:102070002F3F39464841510561057105810591059C
:1020800009F098F49701A8016D2F7C2F8B2F9D2DBF
:1020900006E00E9485162083318342835383648344
:1020A00075838683978386E0D3C09701A8016D2F3F
:1020B0007C2F8B2F9D2D345D40435109610971099F
:1020C000810991092F3F334D404351056105710549
:1020D0008105910509F098F49701A8016D2F7C2FD7
:1020E0008B2F9D2D05E00E9485162083318342832E
:1020F0005383648375838683978385E0A9C09701A2
:10210000A8016D2F7C2F8B2F9D2D385A41465109E8
:1021100061097109810991092F3F374A41465105EB
:10212000610571058105910509F098F49701A801F1
:102130006D2F7C2F8B2F9D2D04E00E948516208310
:10214000318342835383648375838683978384E0DA
:102150007FC09701A8016D2F7C2F8B2F9D2D3055AF
:10216000434C510961097109810991092F3F3F448D
:10217000434C5105610571058105910509F098F4FD
:102180009701A8016D2F7C2F8B2F9D2D03E00E94BE
:1021900085162083318342835383648375838683CA
:1021A000978383E055C09701A8016D2F7C2F8B2F5B
:1021B0009D2D305A464851406109710981099109A4
:1021C0002F3F3F4946485140610571058105910502
:1021D00009F098F49701A8016D2F7C2F8B2F9D2D6E
:1021E00002E00E94851620833183428353836483F7
:1021F00075838683978382E02BC09701A8016D2F9A
:102200007C2F8B2F9D2D30544D4053406109710917
:10221000810991092F3F3F434D40534061057105AE
:102220008105910509F098F49701A8016D2F7C2F85
:102230008B2F9D2D01E00E948516208331834283E0
:102240005383648375838683978381E001C080E034
:10225000DF91CF911F910F91FF90EF90DF90089544
:10226000CF93DF93CDB7DEB729970FB6F894DEBFD3
:102270000FBECDBF789484B5826084BD84B5816083
:1022800084BD85B5826085BD85B5816085BD809141
:102290006E00816080936E001092810080918100B9
:1022A00082608093810080918100816080938100B1
:1022B000809180008160809380008091B100846073
:1022C0008093B1008091B00081608093B0008091D4
:1022D0007A00846080937A0080917A008260809393
:1022E0007A0080917A00816080937A0080917A00F0
:1022F000806880937A001092C1001092D8021092E8
:10230000D9021092DA021092DB0210929001109220
:102310008F011092D9011092FA011092D70181E039
:102320008093D6011092B10161E082E10E94000227
:1023300061E083E10E9400028091B9008E7F80936A
:10234000B9008091B9008D7F8093B90088E48093B3
:10235000B80085E48093BC0062E987EB0E94810AA3
:1023600060E880E10E94810A60E881E10E94810AC0
:1023700060E882E10E94810A6CE080E10E94810AAB
:102380006CE081E10E94810A6CE082E10E94810A96
:1023900060E281EB0E94810A60E881EB0E94810A81
:1023A00000E010E020E034E04BE654EF64E170E040
:1023B00080E090E00E942C0B01E010E020E034E08F
:1023C0004BE654EF64E170E080E090E00E942C0B5B
:1023D00000E010E020E637EB43E050E860E070E01A
:1023E00080E090E00E94A20302E010E020E030E8EC
:1023F0004FE452E160E070E080E090E00E94A203D0
:1024000061E080E090E00E94030B60E081E090E0FA
:102410000E94030B61E082E090E00E94030B0E94A7
:102420004C022B013C0114E6C12ED12CE12CF12CE5
:102430000E944C02DC01CB0184199509A609B70959
:10244000883E9340A105B10558F021E0C21AD10899
:10245000E108F10838EE430E33E0531E611C711C95
:10246000C114D104E104F10419F71092BC002AE070
:1024700030E0F901EC53FF4F4491F901E055FF4F73
:102480008491882399F090E0880F991FFC01EA5508
:10249000FF4FA591B491FC01E456FF4F85919491B3
:1024A0008FB7F894EC914E2B4C938FBF2F5F3F4F1B
:1024B00024313105F1F660E08AE00E94000261E01B
:1024C0008AE00E94000261E08BE00E94000261E06D
:1024D0008CE00E94000261E08DE00E94000260E05A
:1024E0008FE00E94000260E08EE00E94000260E047
:1024F00080E10E94000260E081E10E94000261E050
:1025000082E10E94000261E083E10E9400028AB140
:102510008C6F8AB984B1836084B960E080E00E94E6
:102520003C0310927C0160E081E00E943C03109229
:102530007D0160E082E00E943C0310927E0160E039
:1025400072EC81E090E00E9497008FE791E0F0E16B
:10255000F80FF9878BEF91E00E945601892BD1F398
:102560008BEF91E00E943401F82E99278236910575
:1025700009F46BC194F48235910529F12CF481346E
:10258000910509F4A0C0CAC18735910509F4BCC002
:102590008136910509F497C0C1C18237910599F040
:1025A0004CF48336910509F46CC08736910509F423
:1025B0002BC1B4C18637910509F418C1873791053D
:1025C00009F4A2C0ABC16624639422E7F212612C25
:1025D0008BEF91E00E9456010597D4F38BEF91E0C9
:1025E0000E9434018C018BEF91E00E9434018C83B6
:1025F0001B828B819C81082B192B8BEF91E00E9411
:102600003401782E8BEF91E00E9434017C018BEF36
:1026100091E00E9434018E831D82ED81FE81EE2ABD
:10262000FF2AE00EF11E462DB801872D0E945903A6
:102630008AB183708AB984B18C7F84B98FB78A8359
:10264000F8942A988A818FBF29B193B1F0E49F9FB3
:10265000C0011124922F96959695892B2A9A9AB1AA
:102660009C6F9AB994B1936094B99091C00095FF12
:10267000FCCF8093C6000F5F1F4F0E151F0599F604
:102680004DC18BEF91E00E94560118161906CCF748
:102690008BEF91E00E943401182F682F617080E168
:1026A0000E94000211FB662760F981E10E9400028E
:1026B00012FB662760F982E10E94000213FB662785
:1026C00060F983E190C08BEF91E00E94560103977F
:1026D000D4F38BEF91E00E9434018C018BEF91E0F9
:1026E0000E94340188871F822F813885022B132B8B
:1026F0008BEF91E00E94340141E031E6F31240E0BB
:10270000B8010E9459030AC12224239487E7F812D2
:10271000212C8BEF91E00E9456010597D4F38BEFAB
:1027200091E00E9434018C018BEF91E00E94340112
:10273000B82EA12C0A291B298BEF91E00E943401AD
:10274000382E8BEF91E00E9434013C018BEF91E039
:102750000E943401982E812C68287928449A61E0DF
:102760008EE00E9400028FB78983F8942A988981AD
:102770008FBF8AB18C6F8AB984B1836084B9600ECF
:10278000711EA0E1FA2E90E1F91216C0FFE7EF2EBC
:10279000F1E0FF2E8BEF91E00E945601181619060A
:1027A000CCF78BEF91E00E943401F70181937F0118
:1027B000F985FE11EFCFF12C422DB801832D0E9437
:1027C0005903EF2DF0E0E158FE4F80810E94240371
:1027D00044980F5F1F4FF394449A0615170599F616
:1027E0002A9A60E08EE00E94000298C044E050E027
:1027F00066E271E08BEF91E00E94090161E38BEFEB
:1028000091E00E948D018AC08BEF91E00E945601F9
:1028100018161906CCF78BEF91E00E943401813332
:1028200071F401E010E024EC33EF45E555E160E0A0
:1028300070E080E090E00E94A20361E001C060E0EF
:1028400081E090E00E94030B69C08BEF91E00E9451
:1028500056010497D4F38BEF91E00E9434018C0170
:102860008BEF91E00E9434017C018BEF91E00E949C
:102870003401A701FF0C660B770B762F652F542FC1
:102880004427092E000CAA0BBB0BDC0199278827D3
:10289000842B952BA62BB72BA801110F660B770B5A
:1028A0006C017D01C42AD52AE62AF72A8BEF91E034
:1028B0000E943401AC01990F660B770B742F6627C9
:1028C00055274427C42AD52AE62AF72A8BEF91E018
:1028D0000E94D401E0910D02F0910E0280818F7E62
:1028E0008083E0910D02F0910E028081877F8083CA
:1028F000E0910D02F0910E0280818F778083E0914C
:102900000D02F0910E0280818F7D808380911502EF
:1029100080931402C701B6010E9497000E94F6013D
:1029200019CEEBEFF1E01382128288EE93E0A0E083
:10293000B0E084839583A683B7832AE031E03183B6
:10294000208325EC30E03587248724EC30E037877E
:10295000268720EC30E0318B208B21EC30E0338B6C
:10296000228B22EC30E0358B248B26EC30E0378B49
:10297000268B118E128E138E148EE8E9F2E01382EC
:10298000128284839583A683B7838AE191E0918341
:102990008083E4EAF2E088E080AF81AF11AA12AA56
:1029A00013AA118612861386148615861686178634
:1029B000108A118A128A138A148A158A168A178A2B
:1029C000108E118E128E138E148E158E168E178EFB
:1029D00010A211A212A213A214A215A216A217A24B
:1029E00010A611A612A613A614A615A616A617A61B
:1029F00010AA80E498E7ADE7B1E082AF93AFA4AF4F
:102A0000B5AF0895A1E21A2EAA1BBB1BFD010DC094
:102A1000AA1FBB1FEE1FFF1FA217B307E407F5078E
:102A200020F0A21BB30BE40BF50B661F771F881F6A
:102A3000991F1A9469F760957095809590959B0100
:102A4000AC01BD01CF010895EE0FFF1F0590F49179
:102A5000E02D0994DF93CF931F930F939A9DF02D50
:102A6000219FF00D8B9DF00D8A9DE02DF10D039FB0
:102A7000F00D029FE00DF11D4E9DE00DF11D5E9DDC
:102A8000F00D4F9DF00D7F936F93BF92AF925F93C8
:102A90004F93D5010E94E3168B01AC01D7010E9430
:102AA000E316EB01E80FF91FD6010E947A152F916A
:102AB0003F91D6010E94E316C60FD71FE81FF91FEA
:102AC000AF91BF910E947A152F913F910E94E3161A
:102AD000C60FD71FE81FF91FD6010E94E316E60FA5
:102AE000F71F9801BE01CF0111240F911F91CF91C3
:102AF000DF9108950E94E316460F571FC81FD91F84
:102B000008F431960895E894DF93CF93FC01DB013C
:102B10000E94E3167F936F93E9019A01AC01BF9382
:102B2000AF933F932F93DF010E94E31626F46C1BB3
:102B30007D0B820B930B9E01EB01FC010E947A1529
:102B4000AF91BF912F913F910E947A15BE01CF01A5
:102B5000F9012F913F91CF91DF910895689401C0C1
:102B6000E894F92FF12B12F00C94E215A0E0B0E0FC
:102B7000ECEBF5E10C945416092E059422F40E9416
:102B80003E16112392F4F0E80F26FFEFE094F09444
:102B900000951095B094C094D094A194BF0ACF0A28
:102BA000DF0AEF0AFF0A0F0B1F0B0E94ED1507FC4F
:102BB0000E943E16CDB7DEB7ECE00C947016689418
:102BC00001C0E8948F929F92CF93DF930E94ED15FE
:102BD000DF91CF919F908F90089588249924F401DC
:102BE000E401B0E49F93AA279A158B049C04ED0599
:102BF000FE05CF05D007A10798F4AD2FDC2FCF2F0E
:102C0000FE2FE92D982C892E982F872F762F652F50
:102C1000542F432F322F2227B85031F7BF9127C0AE
:102C20001B2EBF91BB27220F331F441F551F661F4A
:102C3000771F881F991F881C991CEE1FFF1FCC1F30
:102C4000DD1FAA1FBB1F8A149B04EC05FD05CE05E2
:102C5000DF05A007B10748F08A189B08EC09FD09B9
:102C6000CE09DF09A00BB10B21601A94E1F62EF416
:102C70009401AF01BE01CD01000C089560957095DF
:102C80008095909530954095509521953F4F4F4FA9
:102C90005F4F6F4F7F4F8F4F9F4F08952F923F92FF
:102CA0004F925F926F927F928F929F92AF92BF925C
:102CB000CF92DF92EF92FF920F931F93CF93DF9308
:102CC000CDB7DEB7CA1BDB0B0FB6F894DEBF0FBE65
:102CD000CDBF09942A88398848885F846E847D84B2
:102CE0008C849B84AA84B984C884DF80EE80FD80B4
:102CF0000C811B81AA81B981CE0FD11D0FB6F8942A
:102D0000DEBF0FBECDBFED0108950F93083090F0E8
:102D1000982F872F762F652F542F432F322F22275E
:102D20000850F4CF220F331F441F551F661F771F13
:102D3000881F991F0A95B2F70F91089597FB10F815
:102D4000169400080F93083098F00850232F342F62
:102D5000452F562F672F782F892F902DF4CF05946C
:102D600097958795779567955795479537952795C3
:102D70000A95AAF70F9108952A0D3B1D4C1D5D1D64
:102D80006E1D7F1D801F911F08952A193B094C0954
:102D90005D096E097F09800B910B08952A153B058B
:102DA0004C055D056E057F05800791070895002499
:102DB000A7FD00942A1730054005500560057005F1
:102DC000800590050895A29FB001B39FC001A39F05
:102DD000700D811D1124911DB29F700D811D112454
:102DE000911D0895CF93DF938230910510F482E016
:102DF00090E0E091E502F091E60220E030E0C0E0F2
:102E0000D0E0309711F14081518148175907C0F047
:102E10004817590761F482819381209719F09B83A9
:102E20008A832BC09093E6028093E50226C0211589
:102E3000310519F04217530718F49A01BE01DF015A
:102E4000EF010280F381E02DDCCF2115310509F17E
:102E5000281B390B2430310590F412968D919C91EA
:102E600013976115710521F0FB019383828304C0E0
:102E70009093E6028093E502FD01329644C0FD0185
:102E8000E20FF31F81939193225031092D933C93CC
:102E90003AC02091E3023091E402232B41F42091C7
:102EA0000201309103013093E4022093E302209168
:102EB0000001309101012115310541F42DB73EB7D4
:102EC0004091040150910501241B350BE091E30270
:102ED000F091E402E217F307A0F42E1B3F0B281732
:102EE000390778F0AC014E5F5F4F2417350748F083
:102EF0004E0F5F1F5093E4024093E302819391933E
:102F000002C0E0E0F0E0CF01DF91CF9108950F9390
:102F10001F93CF93DF93009709F48CC0FC01329785
:102F2000138212820091E5021091E602011511054B
:102F300081F420813181820F931F2091E30230912F
:102F4000E4022817390779F5F093E402E093E302ED
:102F500071C0D80140E050E0AE17BF0750F41296A0
:102F60002D913C911397AD012115310509F1D9013E
:102F7000F3CF9D01DA013383228360817181860F53
:102F8000971F8217930769F4EC0128813981260F76
:102F9000371F2E5F3F4F318320838A819B8193832C
:102FA0008283452B29F4F093E602E093E50242C0C8
:102FB0001396FC93EE931297ED01499159919E015E
:102FC000240F351FE217F30771F480819181840F7C
:102FD000951F029611969C938E93828193811396EE
:102FE0009C938E931297E0E0F0E0D80112968D91B9
:102FF0009C911397009719F0F8018C01F6CF8D91F1
:103000009C9198012E5F3F4F820F931F2091E30206
:103010003091E4022817390769F4309729F41092A7
:10302000E6021092E50202C0138212821093E402BB
:103030000093E302DF91CF911F910F91089581E0FA
:0C30400090E0F8940C942418F894FFCF52
:10304C000000E7028000000000008D01090156011C
:10305C0034014801D40100000000F502C502BD0294
:0C306C00A9029A029902484B414600005C
:107E0000112484B714BE81FFF0D085E080938100F7
:107E100082E08093C00088E18093C10086E0809377
:107E2000C20080E18093C4008EE0C9D0259A86E02C
:107E300020E33CEF91E0309385002093840096BBD3
:107E4000B09BFECF1D9AA8958150A9F7CC24DD24C4
:107E500088248394B5E0AB2EA1E19A2EF3E0BF2EE7
:107E6000A2D0813461F49FD0082FAFD0023811F036
:107E7000013811F484E001C083E08DD089C08234E0
:107E800011F484E103C0853419F485E0A6D080C0E4
:107E9000853579F488D0E82EFF2485D0082F10E0AE
:107EA000102F00270E291F29000F111F8ED06801E7
:107EB0006FC0863521F484E090D080E0DECF843638
:107EC00009F040C070D06FD0082F6DD080E0C81688
:107ED00080E7D80618F4F601B7BEE895C0E0D1E017
:107EE00062D089930C17E1F7F0E0CF16F0E7DF06D8
:107EF00018F0F601B7BEE89568D007B600FCFDCFD4
:107F0000A601A0E0B1E02C9130E011968C91119780
:107F100090E0982F8827822B932B1296FA010C0160
:107F200087BEE89511244E5F5F4FF1E0A038BF0790
:107F300051F7F601A7BEE89507B600FCFDCF97BE46
:107F4000E89526C08437B1F42ED02DD0F82E2BD052
:107F50003CD0F601EF2C8F010F5F1F4F84911BD097
:107F6000EA94F801C1F70894C11CD11CFA94CF0C13
:107F7000D11C0EC0853739F428D08EE10CD085E9AC
:107F80000AD08FE07ACF813511F488E018D01DD067
:107F900080E101D065CF982F8091C00085FFFCCF94
:107FA0009093C60008958091C00087FFFCCF809118
:107FB000C00084FD01C0A8958091C6000895E0E648
:107FC000F0E098E1908380830895EDDF803219F02E
:107FD00088E0F5DFFFCF84E1DECF1F93182FE3DFCA
:107FE0001150E9F7F2DF1F91089580E0E8DFEE27F6
:047FF000FF270994CA
:027FFE00040479
:0400000300007E007B
:00000001FF
