:100000000C946D000C9495000C9495000C94950044
:100010000C9495000C9495000C9495000C9495000C
:100020000C9495000C9495000C9495000C949500FC
:100030000C9495000C9495000C9495000C949500EC
:100040000C9419080C9495000C94E7070C94C107C4
:100050000C9495000C9495000C9495000C949500CC
:100060000C9463080C949500160D180D1A0D1C0DB8
:100070001E0D200D220D240D560D590D5C0D530D36
:100080005F0D620D730D730D00000008000201008A
:100090000003040700000000000000000000000052
:1000A000250028002B0000000000240027002A0063
:1000B000040404040404040402020202020203030E
:1000C0000303030301020408102040800102040816
:1000D0001020010204081020501411241FBECFEF7D
:1000E000D8E0DEBFCDBF11E0A0E0B1E0EAECFFE276
:1000F00002C005900D92AC32B107D9F722E0ACE214
:10010000B1E001C01D92A73DB207E1F710E0CDE6D6
:10011000D0E004C02197FE010E94E314CC36D10741
:10012000C9F70E94F4100C94E3170C940000CF92CE
:10013000DF92EF92FF920F931F93CF93DF936C01A7
:100140007A018B01C0E0D0E0CE15DF0589F0D8013F
:100150006D918D01D601ED91FC910190F081E02D22
:10016000C6010995892B11F47E0102C02196ECCFBE
:10017000C701DF91CF911F910F91FF90EF90DF901A
:10018000CF900895FC01918D828D981761F0828D3A
:10019000DF01A80FB11D5D968C91928D9F5F9F73BB
:1001A000928F90E008958FEF9FEF0895FC01918D5D
:1001B000828D981731F0828DE80FF11D858D90E0CA
:1001C00008958FEF9FEF0895FC01918D228D892F67
:1001D00090E0805C9F4F821B91098F73992708954F
:1001E0008BEE91E00E94E40021E0892B09F420E0ED
:1001F000822F0895FC01848DDF01A80FB11DA35A41
:10020000BF4F2C91848D90E001968F739927848F36
:10021000A689B7892C93A089B1898C9180648C932D
:10022000938D848D981306C00288F389E02D808118
:100230008F7D80830895EF92FF920F931F93CF934A
:10024000DF93EC0181E0888F9B8D8C8D981305C026
:10025000E889F989808185FD24C0F62E0B8D10E098
:100260000F5F1F4F0F731127E02E8C8DE8120CC00B
:100270000FB607FCFACFE889F989808185FFF5CFB1
:10028000CE010E94FA00F1CF8B8DFE01E80FF11D27
:10029000E35AFF4FF0820B8FEA89FB8980818062ED
:1002A00007C0EE89FF896083E889F98980818064CD
:1002B000808381E090E0DF91CF911F910F91FF90BB
:1002C000EF900895CF93DF93EC01888D8823C9F0D8
:1002D000EA89FB89808185FD05C0A889B9898C914F
:1002E00086FD0FC00FB607FCF5CF808185FFF2CFEA
:1002F000A889B9898C9185FFEDCFCE010E94FA00C3
:10030000E7CFDF91CF91089580E090E0892B29F02D
:100310000E94F00081110C940000089590E0FC010F
:10032000E857FF4F3491FC01EC53FF4F2491FC013F
:10033000E055FF4FE491EE2309F43BC0332339F13C
:10034000333091F038F43130A9F0323001F584B512
:100350008F7D12C0373091F03830A1F03430B9F4CD
:10036000809180008F7D03C0809180008F77809383
:1003700080000DC084B58F7784BD09C08091B00026
:100380008F7703C08091B0008F7D8093B000F0E044
:10039000EE0FFF1FE456FF4FA591B4918FB7F8946D
:1003A000EC91611103C020952E2301C02E2B2C93BC
:1003B0008FBF08953FB7F8948091780190917901AB
:1003C000A0917A01B0917B0126B5A89B05C02F3F73
:1003D00019F00196A11DB11D3FBFBA2FA92F982F6B
:1003E0008827820F911DA11DB11DBC01CD0142E0E6
:1003F000660F771F881F991F4A95D1F708958F922E
:100400009F92AF92BF92CF92DF92EF92FF926B01D9
:100410007C010E94DA014B015C01C114D104E104AA
:10042000F104F1F00E94DA01DC01CB01881999098D
:10043000AA09BB09883E9340A105B10570F321E0EC
:10044000C21AD108E108F10888EE880E83E0981EF0
:10045000A11CB11CC114D104E104F10419F7DDCFD2
:10046000FF90EF90DF90CF90BF90AF909F908F90D4
:10047000089540914E01262F30E0240F311D213286
:100480003105DCF42091C7012430C9F4FC0180E07F
:1004900090E0861758F430914E012191DC01A45D63
:1004A000BE4FA30FB11D2C930196F3CF80914E0147
:1004B000680F60934E0180E0089581E0089582E026
:1004C00008950895E091800180917F01E81730F44C
:1004D000F0E0EF57FE4F808190E008958FEF9FEF9F
:1004E00008959091800180917F01981750F4E92F31
:1004F000F0E0EF57FE4F208130E09F5F9093800146
:1005000002C02FEF3FEFC901089580917F0190E075
:1005100020918001821B91090895CF92DF92EF9282
:10052000FF920F931F93CF93DF937C01262F972F7A
:100530008A018091C801882391F0C62FD72F6E01C0
:10054000C40ED51ECC15DD0571F06991D701ED9172
:10055000FC910190F081E02DC7010995F3CF642F44
:10056000822F0E943902C801DF91CF911F910F9114
:10057000FF90EF90DF90CF900895CF93DF931F927D
:10058000CDB7DEB769832091C8012223D1F0209135
:10059000EA01203240F021E030E0FC013383228385
:1005A00080E090E015C08091C901E82FF0E0E653AB
:1005B000FE4F998190838F5F8093C9018093EA01F8
:1005C00005C061E0CE0101960E94390281E090E011
:1005D0000F90DF91CF9108959BB193709BB94BB170
:1005E00090E09C01220F331F220F331F242B2BB9C5
:1005F00025B12C7F25B925B166E0959587956A953B
:10060000E1F7822B85B90895CF93C82F862F95B136
:1006100027EF3FEF0C2E01C0220F0A94EAF729239F
:1006200025B90E94EC02419A419845B128E030E09A
:10063000C90101C0880FCA95EAF7842B85B9CF910B
:1006400008958F929F92AF92BF92CF92DF92EF92D6
:10065000FF926B017C01452BC1F0DC01CB012FE047
:10066000B695A795979587952A95D1F7DC01992797
:100670008827E894D7F8EE24FF2420E8D20EE11C66
:10068000F11CC80ED91EEA1EFB1E80917C018C1540
:1006900039F06C2D80E090E00E940403C0927C0150
:1006A0008D2C9E2CAF2CBB2480917D01881539F0B8
:1006B000682D81E090E00E94040380927D01670133
:1006C000EE24FF2480917E018C1539F06C2D82E0A0
:1006D00090E00E940403C0927E01FF90EF90DF90B3
:1006E000CF90BF90AF909F908F9008952F923F92A0
:1006F0004F925F926F927F928F929F92AF92BF9232
:10070000CF92DF92EF92FF920F931F93CF93DF93DD
:10071000CDB7DEB7AA970FB6F894DEBF0FBECDBF38
:10072000622E298F732E3A8F4B8F5C8F6D8F7E8F49
:100730008F8F98A319A708A793012F3F34434C40EC
:100740005105610571058105910509F050F4198E77
:1007500085E38A8F8CE08B8F1C8E1D8E1E8E1F8EE4
:1007600018A2298D3A8D4B8D5C8D6D8D7E8D8F8D70
:1007700098A12115304A4C4A594B634071058105B7
:10078000910569F060F0198E80EA8A8F8CEA8B8F70
:1007900089EB8C8F83E08D8F1E8E1F8E18A2CE0169
:1007A00049960E949C0F8AA7798CBA8DAB8DFC8DDF
:1007B000ED8D6E8C5F8C48A0272D3B2F4A2F5F2F2D
:1007C0006E2F762D852D942D2F3F05ED300701E1FD
:1007D00040070EE7500703E06007710581059105AA
:1007E00011F008F081C09E01235F3F4F4901A12C09
:1007F000E4E0BE2EFBE6CF2EA4EFDA2E14E1E12ECC
:10080000F12C00E010E0272D3B2F0E948E0D88A5D3
:1008100099A58130910559F18230910509F440C0C4
:10082000892B09F05DC3898D8093AD028A8D8093F9
:10083000AE028B8D8093AF028C8D8093B0028D8D34
:100840008093B1028E8D8093B2028F8D8093B3021C
:1008500088A18093B40280E019A2212C54E0352EA7
:100860006BE6462E94EF9CA3E4E1EDA344C3898D8F
:100870008093B5028A8D8093B6028B8D8093B702E8
:100880008C8D8093B8028D8D8093B9028E8D80936C
:10089000BA028F8D8093BB0288A18093BC0220C3D3
:1008A000898D8093BD028A8D8093BE028B8D80934B
:1008B000BF028C8D8093C0028D8D8093C1028E8D7E
:1008C0008093C2028F8D8093C30288A18093C4025B
:1008D00080E019A2212C34E0332E4BE6442E14EF95
:1008E0001CA324E12DA307C3CE010D964C01A12C1E
:1008F000B12CC12CD12CE12CF12C00E010E0272DE3
:100900003B2F4A2F5F2F6E2F762D852D942D0E9421
:100910008E0DE8A5F9A5E130F10509F450C0E230EB
:10092000F10509F492C1EF2B09F00BC3298D3A8D23
:100930004B8D5C8D6D8D7E8D00E010E08F8D98A1CC
:100940000E948E0D1901442E5CA36DA3772E582EA4
:10095000692E60E070E080E090E00E94DB10209261
:100960009D0230929E0240929F021CA11093A00211
:100970002DA12093A1027092A2025092A302609234
:10098000A402898D8093AD028A8D8093AE028B8DF7
:100990008093AF028C8D8093B0028D8D8093B102D5
:1009A0008E8D8093B2028F8D8093B30288A1809345
:1009B000B40281E031E039A31BA21AA29FC21091B8
:1009C000CD02B98DAA8DFB8DEC8D0D8D09A30E8DF9
:1009D0000AA30F8D0EA308A10FA3123009F073C054
:1009E0002B2F3A2F4F2F5E2F69A17AA18EA1902F26
:1009F00030584A41564061097109810991092F37E0
:100A0000304E42475849624071058105910569F1B0
:100A100060F1A090BD02B090BE02C090BF02D09025
:100A2000C002E090C102F090C2020091C302109196
:100A3000C4022B2F3A2F4F2F5E2F69A17AA18EA1CE
:100A40009FA10E948D1689F01092B5021092B602F5
:100A50001092B7021092B8021092B9021092BA0224
:100A60001092BB021092BC026CC22090A502309082
:100A7000A6024090A7022091A8022CA33091A902BF
:100A80003DA37090AA025090AB026090AC02CE01E0
:100A90000D964C015101C42CD22EE32EF72C052DBE
:100AA000162D2B2F3A2F4F2F5E2F69A17AA18EA1E1
:100AB0009FA10E948E0D61E070E081E090E00E94B5
:100AC000DB1019A235C02093A5023093A6024093F3
:100AD000A7025093A8026093A9027093AA02809380
:100AE000AB029093AC028E01035F1F4F4801A12C13
:100AF000B12CC12CD12CE12CF12C00E010E02B2FDB
:100B00003A2F4F2F5E2F69A17AA18EA19FA10E943B
:100B10008E0D1901442E5CA36DA3772E582E692EDD
:100B200061E070E081E090E00E94DB1011E019A329
:100B3000298D3A8D4B8D5C8D6D8D7E8D8F8D98A11D
:100B400030584A41564061097109810991092F378E
:100B5000304E42475849624071058105910509F0C0
:100B600008F457C081E08093CD022091BD023091FE
:100B7000BE024091BF025091C0026091C1027091CB
:100B8000C2028091C3029091C402A0E00E94961616
:100B900009F442C08DEB92E00E949C0F8AA7A090BE
:100BA000A502B090A602C090A702D090A802E09043
:100BB000A902F090AA020091AB021091AC02209120
:100BC000BD023091BE024091BF025091C0026091BF
:100BD000C1027091C202CE0101964C018091C30204
:100BE0009091C4020E948E0D1F928AA4A12CC980EC
:100BF000DA80EB80FC800D811E812F81388549854C
:100C00005A856B857C8582E090E00E94B30C0F9042
:100C100003C088E08093CD02898D8093B5028A8DD0
:100C20008093B6028B8D8093B7028C8D8093B8022F
:100C30008D8D8093B9028E8D8093BA028F8D8093B3
:100C4000BB0288A18093BC0245C17090CD02B98DD2
:100C5000AA8DFB8DEC8D0D8D09A31E8D1AA30F8D12
:100C60000EA318A11FA301E0701273C02B2F3A2FFF
:100C70004F2F5E2F69A17AA18EA1912F30584A4142
:100C8000564061097109810991092F37304E424759
:100C90005849624071058105910569F160F1A090A4
:100CA000BD02B090BE02C090BF02D090C002E090E2
:100CB000C102F090C2020091C3021091C4022B2F16
:100CC0003A2F4F2F5E2F69A17AA18EA19FA10E947A
:100CD0008D1689F01092BD021092BE021092BF02D2
:100CE0001092C0021092C1021092C2021092C3026E
:100CF0001092C4022AC12090A5023090A602409012
:100D0000A7022091A8022CA33091A9023DA37090C4
:100D1000AA025090AB026090AC02CE010D964C013D
:100D20005101C42CD22EE32EF72C052D162D2B2F7E
:100D30003A2F4F2F5E2F69A17AA18EA19FA10E9409
:100D40008E0D61E070E082E090E00E94DB1019A25D
:100D500035C02093A5023093A6024093A70250937A
:100D6000A8026093A9027093AA028093AB029093A9
:100D7000AC028E01035F1F4F4801A12CB12CC12C86
:100D8000D12CE12CF12C00E010E02B2F3A2F4F2F2B
:100D90005E2F69A17AA18EA19FA10E948E0D1901DB
:100DA000442E5CA36DA3772E582E692E61E070E06F
:100DB00082E090E00E94DB1011E019A3298D3A8DAA
:100DC0004B8D5C8D6D8D7E8D8F8D98A130584A41F5
:100DD000564061097109810991092F37304E424708
:100DE0005849624071058105910509F008F457C022
:100DF00082E08093CD022091B5023091B6024091FD
:100E0000B7025091B8026091B9027091BA02809114
:100E1000BB029091BC02A0E00E94961609F442C069
:100E200085EB92E00E949C0F8AA7A090A502B0904B
:100E3000A602C090A702D090A802E090A902F0906C
:100E4000AA020091AB021091AC022091B502309140
:100E5000B6024091B7025091B8026091B902709108
:100E6000BA02CE0101964C018091BB029091BC0266
:100E70000E948E0D1F928AA4A12CC980DA80EB807B
:100E8000FC800D811E812F81388549855A856B85AF
:100E90007C8581E090E00E94B30C0F9003C088E055
:100EA0008093CD02898D8093BD028A8D8093BE028E
:100EB0008B8D8093BF028C8D8093C0028D8D80932B
:100EC000C1028E8D8093C2028F8D8093C30288A150
:100ED0008093C40281E0E1E0F0E0FBA3EAA30EC04E
:100EE00080E019A2212C94E0392E2BE6422EF4EF5B
:100EF000FCA304E10DA3712C512C612C8F938AA4C7
:100F0000A82ECD84DE84EF84F88809891A892B897C
:100F10003C894D895E896F89788D88A599A50E9445
:100F2000B30C0F9019A1113079F40AA11BA1910102
:100F3000442D5CA16DA1772D852D962D0E94D70A99
:100F400003C07724739401C0712C872DAA960FB625
:100F5000F894DEBF0FBECDBFDF91CF911F910F91EF
:100F6000FF90EF90DF90CF90BF90AF909F908F90C9
:100F70007F906F905F904F903F902F9008950E94C8
:100F8000DE171F920F920FB60F9211242F933F93EB
:100F90004F935F936F937F938F939F93AF93BF9381
:100FA000EF93FF938BEE91E00E94FA00FF91EF9197
:100FB000BF91AF919F918F917F916F915F914F9171
:100FC0003F912F910F900FBE0F901F9018951F9279
:100FD0000F920FB60F9211242F938F939F93EF933D
:100FE000FF93E091FB01F091FC018081E09101020F
:100FF000F091020282FD12C09081809104028F5F05
:101000008F7320910502821751F0E0910402F0E005
:10101000E551FE4F958F8093040201C08081FF91BE
:10102000EF919F918F912F910F900FBE0F901F9076
:1010300018951F920F920FB60F9211242F933F9382
:101040008F939F93AF93BF9380917401909175019B
:10105000A0917601B09177013091730123E0230FC5
:101060002D3720F40196A11DB11D05C026E8230FE0
:101070000296A11DB11D209373018093740190937A
:101080007501A0937601B0937701809178019091DA
:101090007901A0917A01B0917B010196A11DB11D4A
:1010A0008093780190937901A0937A01B0937B01AA
:1010B000BF91AF919F918F913F912F910F900FBE54
:1010C0000F901F9018951F920F920FB60F92112438
:1010D0002F933F934F935F936F937F938F939F9340
:1010E000AF93BF93EF93FF938091B900887F8036D1
:1010F00009F4C9C0A8F5883209F463C0B8F4803196
:1011000009F45CC038F4882309F422C1883009F45A
:1011100055C029C1883109F454C0803209F023C177
:101120008093C50185ED8093BC006BC0803409F4C9
:1011300083C048F4803309F469C0883309F013C1CF
:101140008093C50101C1803509F46AC0883509F46E
:1011500078C0883409F007C185ED8093BC008EC04B
:10116000883909F4EDC0A8F4883709F48CC038F444
:10117000883609F488C0803709F485C0F4C08838FF
:1011800009F4DEC0803909F484C0803809F0EBC06E
:1011900080C0803B09F4ABC038F4803A09F48BC0BE
:1011A000883A09F4A4C0DFC0803C09F4CDC0883C73
:1011B00009F4CAC0883B09F4AFC0D5C08091A20130
:1011C00010C09091C4018091C301981768F4E09118
:1011D000C40181E08E0F8093C401F0E0ED55FE4F15
:1011E00080818093BB00AAC08091C601882309F446
:1011F00040C085ED8093BC008091BC0084FDFCCF95
:10120000B0C08091BC0084FDFCCFABC08093C50111
:1012100085ED8093BC008091BC0084FDFCCFA1C013
:10122000E091C40181E08E0F8093C4018091BB00E6
:10123000F0E0ED55FE4F80839091C4018091C30191
:101240007BC0E091C40181E08E0F8093C401809146
:10125000BB00F0E0ED55FE4F80838091C6018823EE
:1012600041F085ED8093BC008091BC0084FDFCCFF3
:1012700078C081E08093A10184EA67C08091BC00BE
:1012800084FDFCCF6EC083E08093C7011092720191
:1012900055C080917201803208F052C0E091720115
:1012A00081E08E0F809372018091BB00F0E0EE5AD6
:1012B000FE4F808343C085EC8093BC001092C70131
:1012C00080917201803230F4E0917201F0E0EE5AC8
:1012D000FE4F10826091720170E0E0915001F09138
:1012E000510182E591E00995109272013CC084E0C1
:1012F0008093C70110924F0110924E01E0914C0172
:10130000F0914D01099580914E01811105C081E058
:1013100080934E0110922C01E0914F0181E08E0FDD
:1013200080934F01F0E0E45DFE4F80818093BB002D
:1013300090914F0180914E01981710F485EC01C0F7
:1013400085E88093BC000FC085EC8093BC0009C089
:101350001092C50185ED8093BC008091BC0084FD96
:10136000FCCF1092C701FF91EF91BF91AF919F9178
:101370008F917F916F915F914F913F912F910F903E
:101380000FBE0F901F901895382F2091EA01909171
:10139000D202213208F049C08091C7018111FCCFEF
:1013A00042E04093C7013093C6013FEF3093C5013F
:1013B0001092C4012093C301AAECB1E043EA51E0CA
:1013C000FA013E2F341B321718F43D913193F9CFB7
:1013D0001092A2012091A201990F922B9093A20149
:1013E0009091A101913061F41092A1019091A2011C
:1013F0009093BB009091BC0093FDF8CF95EC01C099
:1014000095EE9093BC009091C7019230E1F39091DA
:10141000C5019F3F79F08091C501803241F08091F4
:10142000C501803331F084E005C081E003C082E073
:1014300001C083E01092C9011092EA011092C80124
:101440000895EF92FF920F931F93CF93DF931F9214
:10145000CDB7DEB7162F91E09093C80190E6909338
:10146000D2021092C9011092EA01682F88E892E036
:1014700079830E94BD02E12E7981F72E8701085FF2
:101480001F4FF70161917F0188E892E00E94BD0241
:10149000E016F106B1F781E00F90DF91CF911F9137
:1014A0000F91FF90EF900C94C409CF93C62F91E059
:1014B0009093C80190E69093D2021092C9011092C5
:1014C000EA01682F88E892E00E94BD026C2F88E84C
:1014D00092E00E94BD0281E0CF910C94C409CF93A9
:1014E000DF9391E09093C80190E69093D20210921E
:1014F000C9011092EA01682F88E892E00E94BD02BB
:1015000081E00E94C4098091C7018111FCCF91E064
:101510009093C7011092C6018FEF8093C50110927E
:10152000C4011092C3019093A2019091A201906C0A
:101530009093A2018091A101813061F41092A101E8
:101540008091A2018093BB008091BC0083FDF8CF05
:1015500085EC01C085EE8093BC008091C70181308D
:10156000E1F38091C401811103C0C091C40101C0A5
:10157000C1E0A3EAB1E021E831E0F9018E2F821B3E
:101580008C1718F48D918193F9CF10928001C0933C
:101590007F0180918001C81731F088E892E00E94B5
:1015A0007102D82FF6CF8D2FDF91CF9108952F9212
:1015B0003F924F925F926F927F928F929F92AF92E3
:1015C000BF92CF92DF92EF92FF920F931F93CF9330
:1015D000DF93CDB7DEB765970FB6F894DEBF0FBEC9
:1015E000CDBF322E3A874B875C876D87272E2C0123
:1015F0001F870E876091CE027091CF028091D0023A
:101600009091D10224E630E040E050E00E94421583
:101610002C8B3D8B4D835E83762E672E888B998B2A
:101620008091C8029091C902A091CA02B091CB02E8
:101630006C017D01FF0CCC08DC2C76019C01AD0116
:101640006C2D7C2D8C2D9C2D0FE10E944416A12C1D
:10165000EAECBE2EFAE9CF2EABE3DA2EE12CF12C28
:1016600000E010E00E946F15AC88BD88CD80DE8060
:10167000E72CF62C088919890E94E9140FE10E94D1
:101680005F1649015A01D501C401BB0F880B982F81
:10169000DC0189839A83AB83BC839401A5016981B2
:1016A000762F862F962FAC88BD88CD80DE80E72CE4
:1016B000F62C08890E947B1639014A01688B798BC8
:1016C00089839D83232D3A854B855C856D85722D9D
:1016D000C2012F3FA7E53A07A7E44A07A8EF5A0738
:1016E000ADE06A07710581059105A9F0A0F021150B
:1016F00034404B46544F6441710581059105B9F062
:10170000B0F0312C94E09A87ABE6AB87B4EFBC879E
:10171000E4E1ED8709C0312CE8E5EA87F7E4FB87CF
:1017200028EF2C878DE08D87212C412C512C5301E3
:101730006401E888F98809811D81232D3A854B854C
:101740005C856D85722DC2010E94A0152E833F839A
:10175000488759878E819F81A885B9850F97A105F4
:10176000B10558F49301A401B701C80104E00E9437
:10177000441609810E94841628C08E819F81A88505
:10178000B9858B359105A105B10530F19301A4010F
:101790006889798989819D8102E00E9444165301FC
:1017A0006401E888F98809811D810E948416590125
:1017B0006A017B01E82F192F04E00E9444160E2FC6
:1017C0000E94841601E00E944416322E3A874B870D
:1017D0005C876D87272E2C0153016401E888F98806
:1017E00009811D81232D3A854B855C856D85722D80
:1017F000C2010E949E152901B42FA52FF62FE72FB5
:10180000382E292E05E00E9444165201CB2EDA2EE6
:10181000EF2EFE2E032D122D0E94841605E00E944D
:101820004416032D0E947B1605E00E944416032DEA
:101830000E94841619012A01B62FA72FF82FE92F2D
:1018400005E00E94441659016A017B018C01910157
:10185000A2016B2F7A2F8F2F9E2F0E947B16530190
:101860006401E888F98809811D810E94A015C901D9
:10187000DA010097A105B10529F4C12CD12C76011C
:10188000C39406C0CC24CA94DC2C5FE0E52EF12C76
:10189000BC01CD0127E0660F771F881F991F2A958D
:1018A000D1F78E809F80A884B98437E0880C991C7A
:1018B000AA1CBB1C3A95D1F7A2E09A1AA108B1085C
:1018C000A70196010E94C114182F820E931EA41E18
:1018D000B51E84E190E06A8B7B8B0E94B1163C01BF
:1018E000FC01D082C1828A2D83708283938284829C
:1018F000D701C6014CE0B695A795979587954A956F
:10190000D1F7807FC82EC10EC5827B8976836A8914
:1019100067838E859F85892B19F4B3018AE106C000
:10192000AE85BF85119721F4B30182E20E94210A9E
:10193000C30165960FB6F894DEBF0FBECDBFDF9131
:10194000CF911F910F91FF90EF90DF90CF90BF90BC
:10195000AF909F908F907F906F905F904F903F904F
:101960002F900C9446172F923F924F925F926F9256
:101970007F928F929F92AF92BF92CF92DF92EF921F
:10198000FF920F931F93CF93DF93CDB7DEB72E97C0
:101990000FB6F894DEBF0FBECDBF982E792E4987C3
:1019A0005A876B877C876BA05C2C2D2C3E2D402E9C
:1019B000312EC984DA84EB84FC8484E190E02E87A4
:1019C0003D870E94B1168C01FC01D082C182892D15
:1019D000880F880F880F845D0E946F0A8C7F3D8579
:1019E000932F9370892BF801828323825482D7012D
:1019F000C6016CE0B695A795979587956A95D1F73E
:101A0000982F907F2E85822F8F70C82EC90EC58289
:101A100036824782E92CF72CF8E0EF16F104B8F48F
:101A2000F701EC5CFF4FB8010C94E3148AE20DC09F
:101A300082E30BC08AE309C082E407C08AE405C0E0
:101A400082E503C08AE501C08BE50E94210A80E19E
:101A5000980E892D0E946F0A91E0682FA91202C08A
:101A6000606401C06F7B892D0E94550AE1E0EE168B
:101A7000F10451F0F2E0EF16F10449F0E114F10441
:101A800049F4A092C50212C0A092C60212C0A09250
:101A9000C70212C088E0E816F104B0F4F701E45C74
:101AA000FF4F0C94E31454E4B52E0EC04CE2B42E58
:101AB0000BC034E3B32E08C02CE3B22E05C09CE467
:101AC000B92E02C084E5B82E8B2D0E946F0A837850
:101AD00061108C6090E1899E40011124682F682973
:101AE0008B2D0E94550AC8012E960FB6F894DEBFC2
:101AF0000FBECDBFDF91CF911F910F91FF90EF905F
:101B0000DF90CF90BF90AF909F908F907F906F901D
:101B10005F904F903F902F900C9446172F923F92DA
:101B20004F925F926F927F928F929F92AF92BF92ED
:101B3000CF92DF92EF92FF920F931F93CF93DF9399
:101B4000CDB7DEB76A970FB6F894DEBF0FBECDBF34
:101B5000322E232E4D875E873B012C01A982B98A44
:101B6000CA8ADB8AEC8AFD8A0E8B1F8B988A8F8645
:101B7000211500EA30070CEA400709EB500703E0A3
:101B8000600771058105910511F008F046C02F3FEF
:101B900010EE310715EF410715E05107610571059A
:101BA0008105910561F058F02F3F354D41415E4769
:101BB000634071058105910509F0D8F50BC0312C02
:101BC000B1EE2B2EF5EFFD8705E00E87612C712C11
:101BD000412C512C298139894A895B896C897D89FD
:101BE0008E899F89A0E00E94961609F0A7C0A32CB9
:101BF000B22CCD84DE847301820120E034E04BE618
:101C000054EF64E170E080E090E00E94A015298725
:101C10003A874B875C87912C24C0312CF0EA2F2E19
:101C20001CEA1D8729EB2E87A3E06A2E712C412C1C
:101C3000512C298139894A895B896C897D898E89F2
:101C40009F89A0E00E94961609F021C199249394DF
:101C500014E0E12EF12C00E010E0E986FA860B8713
:101C60001C87E984FA840B851C85A801970160E034
:101C700070E0CB01A32CB22CCD84DE8473018201F1
:101C800029833A834B835C836D837E838F8398871C
:101C900060E070E080E090E00E94E9142983398BD5
:101CA0004A8B5B8B6C8B7D8B8E8B9F8BFF24F3948D
:101CB0009F1409F4EFC010E0C12CD12C7601C3941D
:101CC00040E050E0BA0101C011E0CB01BA0107E0E9
:101CD000660F771F881F991F0A95D1F789849A8408
:101CE000AB84BC8427E0880C991CAA1CBB1C2A95D9
:101CF000D1F7A2E09A1AA108B108A70196010E94A3
:101D0000C114820E931EA41EB51EEF85F889808231
:101D10009182A282B3826483758386839783C0860F
:101D2000D186E286F3861111E8C0298139894A8972
:101D30005B896C897D898E899F89E5C01A8EA32C69
:101D4000B22CCD84DE8473018201298139894A89CC
:101D50005B896C897D898E899F890E94A01529875E
:101D60003A874B875C8789859A85AB85BC850697C2
:101D7000A105B10520F456E0A52EB12C0FC0E984D1
:101D8000FA840B851C8529E0E21627E0F20601059E
:101D90001105D0F038E0A32E47E0B42EC12CD12C91
:101DA000E12CF12C00E010E0298139894A895B8916
:101DB0006C897D898E899F890E94A015322E232EE1
:101DC0004D875E873B012C01A32CB22CCD84DE8491
:101DD00073018201298139894A895B896C897D89EE
:101DE0008E899F890E949E154901B42FA52FF62F39
:101DF000E72F888F998F05E00E9444165401CB2E5F
:101E0000DA2EEF2EFE2E088D198D0E94841605E025
:101E10000E944416088D0E947B1605E00E9444161D
:101E2000088D0E948416288F398F4A01B62FA72F5C
:101E3000F82FE92F6B2F7A2F8F2F9E2F05E00E940E
:101E4000441659016A017B018C01288D398DA4014A
:101E50006B2F7A2F8F2F9E2F0E947B16A32CB22CD4
:101E6000CD84DE84730182010E94A015A32FF42F7C
:101E7000E52F422F5A2F6F2F7E2F411551056105F7
:101E80007105F9F4C12CD12C7601C39420C081E0F6
:101E90008A8F55CFAF85B8891D921D921D921C92D5
:101EA0001397FD011482158216821782C12CD12C42
:101EB0007601C3941896CD92DD92ED92FC921B9719
:101EC00022C0CC24CA94DC2C8FE0E82EF12CFA8DB1
:101ED000F13009F0F9CEEF85F88910821182128273
:101EE0001382148215821682178281E090E0A0E0AE
:101EF000B0E080879187A287B387232D322D4D854F
:101F00005E85B301C2016A960FB6F894DEBF0FBEBC
:101F1000CDBFDF91CF911F910F91FF90EF90DF9098
:101F2000CF90BF90AF909F908F907F906F905F9079
:101F30004F903F902F900895DF92EF92FF920F9372
:101F40001F93CF93DF93FC01E080F1800281138126
:101F5000D481C581B681D7809701A8016D2F7C2FD0
:101F60008B2F9D2D35534C40510961097109810911
:101F700091092F3F34434C4051056105710581059E
:101F8000910509F098F49701A8016D2F7C2F8B2FF4
:101F90009D2D07E00E9444162083318342835383A2
:101FA000648375838683978387E0FDC09701A801CA
:101FB0006D2F7C2F8B2F9D2D3A5648415109610979
:101FC0007109810991092F3F394648415105610541
:101FD00071058105910509F098F49701A8016D2F0D
:101FE0007C2F8B2F9D2D06E00E9444162083318389
:101FF00042835383648375838683978386E0D3C04B
:102000009701A8016D2F7C2F8B2F9D2D345D4043B0
:10201000510961097109810991092F3F334D4043ED
:102020005105610571058105910509F098F4970145
:10203000A8016D2F7C2F8B2F9D2D05E00E9444164B
:10204000208331834283538364837583868397839C
:1020500085E0A9C09701A8016D2F7C2F8B2F9D2DA6
:10206000385A4146510961097109810991092F3F87
:10207000374A41465105610571058105910509F011
:1020800098F49701A8016D2F7C2F8B2F9D2D04E0D4
:102090000E94441620833183428353836483758373
:1020A0008683978384E07FC09701A8016D2F7C2FE2
:1020B0008B2F9D2D3055434C5109610971098109C0
:1020C00091092F3F3F44434C51056105710581053E
:1020D000910509F098F49701A8016D2F7C2F8B2FA3
:1020E0009D2D03E00E944416208331834283538355
:1020F000648375838683978383E055C09701A80125
:102100006D2F7C2F8B2F9D2D305A464851406109F1
:102110007109810991092F3F3F49464851406105A6
:1021200071058105910509F098F49701A8016D2FBB
:102130007C2F8B2F9D2D02E00E944416208331833B
:1021400042835383648375838683978382E02BC0A5
:102150009701A8016D2F7C2F8B2F9D2D30544D4062
:10216000534061097109810991092F3F3F434D4057
:102170005340610571058105910509F098F49701B7
:10218000A8016D2F7C2F8B2F9D2D01E00E944416FE
:10219000208331834283538364837583868397834B
:1021A00081E001C080E0DF91CF911F910F91FF90FE
:1021B000EF90DF9008950F931F93CF938B01C0E1B1
:1021C000C80F8C2F0E946F0A0115110511F48F7D25
:1021D00004C00130110509F48062682F8C2FCF9163
:1021E0001F910F910C94550ACF93DF9300D0CDB778
:1021F000DEB7789484B5826084BD84B5816084BD87
:1022000085B5826085BD85B5816085BD80916E0094
:10221000816080936E0010928100809181008260C5
:102220008093810080918100816080938100809102
:1022300080008160809380008091B10084608093F1
:10224000B1008091B00081608093B00080917A00ED
:10225000846080937A0080917A00826080937A0013
:1022600080917A00816080937A0080917A00806802
:1022700080937A001092C1001092C8021092C90295
:102280001092CA021092CB021092800110927F012C
:102290001092C9011092EA011092C70181E0809367
:1022A000C6011092A10161E082E10E948E0161E00D
:1022B00083E10E948E018091B9008E7F8093B900E6
:1022C0008091B9008D7F8093B90088E48093B80035
:1022D00085E48093BC0062E987EB0E94550A60E8C0
:1022E00080E10E94550A60E881E10E94550A60E899
:1022F00082E10E94550A6CE080E10E94550A6CE080
:1023000081E10E94550A6CE082E10E94550A60E278
:1023100081EB0E94550A60E881EB0E94550A00E0BB
:1023200010E020E034E04BE654EF64E170E080E040
:1023300090E00E94D70A01E010E020E034E04BE694
:1023400054EF64E170E080E090E00E94D70A00E082
:1023500010E020E637EB43E050E860E070E080E01A
:1023600090E00E94760302E010E020E030E84FE4C5
:1023700052E160E070E080E090E00E94760383E04C
:102380000E946F0A682F6E7F83E00E94550A83E0E7
:102390000E946F0A682F626083E00E94550A83E002
:1023A0000E946F0A682F6B7F83E00E94550A64E6E3
:1023B00070E080E090E00E94FF011092BC002AE0F3
:1023C00030E0F901EC53FF4F4491F901E055FF4F24
:1023D0008491882399F090E0880F991FFC01EA55B9
:1023E000FF4FA591B491FC01E456FF4F8591949164
:1023F0008FB7F894EC91E42BEC938FBF2F5F3F4F96
:1024000024313105F1F660E08AE00E948E0161E03E
:102410008AE00E948E0161E08BE00E948E0161E003
:102420008CE00E948E0161E08DE00E948E0160E0F0
:102430008FE00E948E0160E08EE00E948E0160E0DD
:1024400080E10E948E0160E081E10E948E0161E0E6
:1024500082E10E948E0161E083E10E948E018AB1D7
:102460008C6F8AB984B1836084B960E080E090E0C9
:102470000E94040310927C0160E081E090E00E94E1
:10248000040310927D0160E082E090E00E9404036A
:1024900010927E01E091FB01F091FC0182E08083CB
:1024A000E091F701F091F8011082E091F901F091CB
:1024B000FA0181E0808310920302E091FF01F09124
:1024C000000286E08083E091FD01F091FE018081B1
:1024D00080618083E091FD01F091FE018081886040
:1024E0008083E091FD01F091FE018081806880830E
:1024F000E091FD01F091FE0180818F7D80838BEE64
:1025000091E00E94E400892BD1F38BEE91E00E94D0
:10251000C200782E99278136910509F4D3C064F45E
:1025200082359105D9F08735910509F406C18134CA
:10253000910509F0B2C1C6C08237910579F02CF43B
:102540008336910509F49CC0A8C18637910509F42A
:1025500097C18737910509F4F0C09FC18BEE91E0D8
:102560000E94E4000697D4F3BB24B39422E77212CE
:10257000B12C8BEE91E00E94C2002C01990F6608ED
:1025800077088BEE91E00E94C2006C018BEE91E027
:102590000E94C2000D2C000CEE08FF08FE2CED2C52
:1025A000DC2CCC24AC01990F660B770BBA015527B4
:1025B0004427C42AD52AE62AF72AC428D528E6289B
:1025C000F7288BEE91E00E94C2002C01990F66085B
:1025D00077088BEE91E00E94C2008C018BEE91E0B7
:1025E0000E94C200012E000C220B330B322F212F30
:1025F000102F0027092E000CAA0BBB0BDC0199271A
:102600008827802B912BA22BB32B482A592A6A2A80
:102610007B2A4C0C5D1C6E1C7F1C0B2D10E0C4141F
:10262000D504E604F70408F038C1A801C701B601D3
:102630000E9421038AB183708AB984B18C7F84B9E6
:102640008FB78A83F8942A988A818FBF69B193B132
:1026500020E4929FC001112466956695682B2A9A02
:102660008AB18C6F8AB984B1836084B98BEE91E0B2
:102670000E941B018FEFC81AD80AE80AF80ACFCFC8
:102680008BEE91E00E94E40018161906CCF78BEE51
:1026900091E00E94C200182F682F617080E10E94B3
:1026A0008E0111FB662760F981E10E948E0112FB09
:1026B000662760F982E10E948E0113FB662760F9AC
:1026C00083E1DBC08BEE91E00E94E4000397D4F33A
:1026D0008BEE91E00E94C2006C01990FEE08FF089A
:1026E0008BEE91E00E94C2005C018BEE91E00E94B3
:1026F000C2008C0141E050E021E6721611F040E08A
:1027000050E0C501BB0CAA0BBB0BBA2FA92F982F09
:102710008827012E000C220B330B9801112700276C
:10272000800F911FA21FB31FBC01CD016C0D7D1D39
:102730008E1D9F1D0E942103B0C0AA24A394B12C1A
:1027400087E7781611F0A12CB12C8BEE91E00E9456
:10275000E40007973CF461E070E080E090E00E94C4
:10276000FF01F3CF8BEE91E00E94C2002C01990F84
:10277000660877088BEE91E00E94C2006C018BEE38
:1027800091E00E94C2000D2C000CEE08FF08FE2C08
:10279000ED2CDC2CCC24AC01990F660B770BBA0125
:1027A00055274427C40ED51EE61EF71EC40CD51CA3
:1027B000E61CF71C8BEE91E00E94C2002C01990FE1
:1027C000660877088BEE91E00E94C2008C018BEEC8
:1027D00091E00E94C200012E000C220B330B322F1D
:1027E000212F102F0027092E000CAA0BBB0BDC0198
:1027F00099278827080F191F2A1F3B1F400E511EBB
:10280000621E731E8AB18C6F8AB984B1836084B9E9
:1028100061E08EE00E948E014C0C5D1C6E1C7F1CE2
:10282000C414D504E604F70428F58BEE91E00E9469
:10283000E400892BC1F02A9AA501C701B6010E94C4
:1028400021038FB78983F8942A9889818FBF8BEEF3
:1028500091E00E94C2000E94EC022FEFC21AD20A3D
:10286000E20AF20ADDCF61E070E080E090E00E94D1
:10287000FF01D6CF2A9A60E08EE00E948E010DC043
:1028800044E050E066E271E08BEE91E00E94970038
:1028900060E38BEE91E00E941B010E9484012FCE29
:1028A000EBEEF1E01382128288EE93E0A0E0B0E05C
:1028B00084839583A683B7832AE031E03183208324
:1028C00025EC30E03587248724EC30E037872687F5
:1028D00020EC30E0318B208B21EC30E0338B228BED
:1028E00022EC30E0358B248B26EC30E0378B268BC6
:1028F000118E128E138E148EE8E8F2E0138212828B
:1029000084839583A683B7838AE191E09183808352
:10291000E4E9F2E088E080AF81AF11AA12AA13AA1D
:102920001186128613861486158616861786108AD7
:10293000118A128A138A148A158A168A178A108EA7
:10294000118E128E138E148E158E168E178E10A267
:1029500011A212A213A214A215A216A217A210A6C7
:1029600011A612A613A614A615A616A617A610AA97
:1029700080E498E7ADE7B1E082AF93AFA4AFB5AF25
:102980000895A1E21A2EAA1BBB1BFD010DC0AA1FB0
:10299000BB1FEE1FFF1FA217B307E407F50720F0C8
:1029A000A21BB30BE40BF50B661F771F881F991F43
:1029B0001A9469F760957095809590959B01AC018C
:1029C000BD01CF010895EE0FFF1F0590F491E02D9A
:1029D0000994DF93CF931F930F939A9DF02D219F1E
:1029E000F00D8B9DF00D8A9DE02DF10D039FF00DF4
:1029F000029FE00DF11D4E9DE00DF11D5E9DF00D5D
:102A00004F9DF00D7F936F93BF92AF925F934F9363
:102A1000D5010E94A2168B01AC01D7010E94A2161B
:102A2000EB01E80FF91FD6010E9439152F913F9154
:102A3000D6010E94A216C60FD71FE81FF91FAF913B
:102A4000BF910E9439152F913F910E94A216C60F87
:102A5000D71FE81FF91FD6010E94A216E60FF71F25
:102A60009801BE01CF0111240F911F91CF91DF91E9
:102A700008950E94A216460F571FC81FD91F08F4B9
:102A800031960895E894DF93CF93FC01DB010E9417
:102A9000A2167F936F93E9019A01AC01BF93AF93A4
:102AA0003F932F93DF010E94A21626F46C1B7D0B2F
:102AB000820B930B9E01EB01FC010E943915AF9133
:102AC000BF912F913F910E943915BE01CF01F901AD
:102AD0002F913F91CF91DF910895689401C0E894C0
:102AE000F92FF12B12F00C94A115A0E0B0E0EBE768
:102AF000F5E10C941316092E059422F40E94FD159D
:102B0000112392F4F0E80F26FFEFE094F094009583
:102B10001095B094C094D094A194BF0ACF0ADF0A54
:102B2000EF0AFF0A0F0B1F0B0E94AC1507FC0E9457
:102B3000FD15CDB7DEB7ECE00C942F16689401C0FC
:102B4000E8948F929F92CF93DF930E94AC15DF9110
:102B5000CF919F908F90089588249924F401E401E7
:102B6000B0E49F93AA279A158B049C04ED05FE05FB
:102B7000CF05D007A10798F4AD2FDC2FCF2FFE2F64
:102B8000E92D982C892E982F872F762F652F542F7B
:102B9000432F322F2227B85031F7BF9127C01B2E69
:102BA000BF91BB27220F331F441F551F661F771F7E
:102BB000881F991F881C991CEE1FFF1FCC1FDD1F4B
:102BC000AA1FBB1F8A149B04EC05FD05CE05DF057B
:102BD000A007B10748F08A189B08EC09FD09CE0947
:102BE000DF09A00BB10B21601A94E1F62EF49401D9
:102BF000AF01BE01CD01000C0895609570958095E0
:102C0000909530954095509521953F4F4F4F5F4F90
:102C10006F4F7F4F8F4F9F4F08952F923F924F924C
:102C20005F926F927F928F929F92AF92BF92CF925C
:102C3000DF92EF92FF920F931F93CF93DF93CDB765
:102C4000DEB7CA1BDB0B0FB6F894DEBF0FBECDBFDD
:102C500009942A88398848885F846E847D848C84AE
:102C60009B84AA84B984C884DF80EE80FD800C81B7
:102C70001B81AA81B981CE0FD11D0FB6F894DEBF9A
:102C80000FBECDBFED0108950F93083090F0982F3F
:102C9000872F762F652F542F432F322F222708504E
:102CA000F4CF220F331F441F551F661F771F881F45
:102CB000991F0A95B2F70F91089597FB10F8169493
:102CC00000080F93083098F00850232F342F452F19
:102CD000562F672F782F892F902DF4CF0594979535
:102CE00087957795679557954795379527950A95D1
:102CF000AAF70F9108952A0D3B1D4C1D5D1D6E1DF9
:102D00007F1D801F911F08952A193B094C095D09F9
:102D10006E097F09800B910B08952A153B054C0520
:102D20005D056E057F058007910708950024A7FDC6
:102D300000942A1730054005500560057005800590
:102D400090050895A29FB001B39FC001A39F700D8D
:102D5000811D1124911DB29F700D811D1124911DA3
:102D60000895CF93DF938230910510F482E090E0D4
:102D7000E091D502F091D60220E030E0C0E0D0E052
:102D8000309711F14081518148175907C0F0481719
:102D9000590761F482819381209719F09B838A837C
:102DA0002BC09093D6028093D50226C02115310501
:102DB00019F04217530718F49A01BE01DF01EF0121
:102DC0000280F381E02DDCCF2115310509F1281BAC
:102DD000390B2430310590F412968D919C91139704
:102DE0006115710521F0FB019383828304C09093E8
:102DF000D6028093D502FD01329644C0FD01E20F58
:102E0000F31F81939193225031092D933C933AC043
:102E10002091D3023091D402232B41F4209102015E
:102E2000309103013093D4022093D302209100010A
:102E3000309101012115310541F42DB73EB7409184
:102E4000040150910501241B350BE091D302F09150
:102E5000D402E217F307A0F42E1B3F0B2817390703
:102E600078F0AC014E5F5F4F2417350748F04E0FE6
:102E70005F1F5093D4024093D3028193919302C079
:102E8000E0E0F0E0CF01DF91CF9108950F931F9321
:102E9000CF93DF93009709F48CC0FC013297138223
:102EA00012820091D5021091D6020115110581F40C
:102EB00020813181820F931F2091D3023091D4025F
:102EC0002817390779F5F093D402E093D30271C043
:102ED000D80140E050E0AE17BF0750F412962D9194
:102EE0003C911397AD012115310509F1D901F3CFBB
:102EF0009D01DA013383228360817181860F971FE0
:102F00008217930769F4EC0128813981260F371F56
:102F10002E5F3F4F318320838A819B8193838283FD
:102F2000452B29F4F093D602E093D50242C01396C4
:102F3000FC93EE931297ED01499159919E01240F54
:102F4000351FE217F30771F480819181840F951F7B
:102F5000029611969C938E938281938113969C93F3
:102F60008E931297E0E0F0E0D80112968D919C913B
:102F70001397009719F0F8018C01F6CF8D919C9171
:102F800098012E5F3F4F820F931F2091D302309103
:102F9000D4022817390769F4309729F41092D60221
:102FA0001092D50202C0138212821093D4020093B1
:102FB000D302DF91CF911F910F91089581E090E0AE
:0A2FC000F8940C94E317F894FFCF87
:102FCA000000D7028000000000001B019700E40007
:102FDA00C200D600620100000000BD028D02850217
:0C2FEA00710262026102484B4146000087
:00000001FF
