:100000000C945D000C9485000C9485000C94850084
:100010000C9485000C9485000C9485000C9485004C
:100020000C9485000C9485000C9485000C9485003C
:100030000C9485000C9485000C9485000C9485002C
:100040000C94ED020C9485000C94BB020C94950268
:100050000C9485000C9485000C9485000C9485000C
:100060000C9485000C94850000000008000201003B
:100070000003040700000000000000000000000072
:10008000250028002B0000000000240027002A0083
:10009000040404040404040402020202020203032E
:1000A0000303030301020408102040800102040836
:1000B0001020010204081020E80511241FBECFEF14
:1000C000D8E0DEBFCDBF11E0A0E0B1E0E4E4FCE0A9
:1000D00002C005900D92A631B107D9F721E0A6E143
:1000E000B1E001C01D92AF3BB207E1F710E0CDE5F2
:1000F000D0E004C02197FE010E941506CC35D1073F
:10010000C9F70E9437030C9420060C940000CF928C
:10011000DF92EF92FF920F931F93CF93DF936C01C7
:100120007A018B01C0E0D0E0CE15DF0589F0D8015F
:100130006D918D01D601ED91FC910190F081E02D42
:10014000C6010995892B11F47E0102C02196ECCFDE
:10015000C701DF91CF911F910F91FF90EF90DF903A
:10016000CF900895FC01918D828D981761F0828D5A
:10017000DF01A80FB11D5D968C91928D9F5F9F73DB
:10018000928F90E008958FEF9FEF0895FC01918D7D
:10019000828D981731F0828DE80FF11D858D90E0EA
:1001A00008958FEF9FEF0895FC01918D228D892F87
:1001B00090E0805C9F4F821B91098F73992708956F
:1001C00082E291E00E94D40021E0892B09F420E032
:1001D000822F0895FC01848DDF01A80FB11DA35A61
:1001E000BF4F2C91848D90E001968F739927848F57
:1001F000A689B7892C93A089B1898C9180648C934E
:10020000938D848D981306C00288F389E02D808138
:100210008F7D80830895EF92FF920F931F93CF936A
:10022000DF93EC0181E0888F9B8D8C8D981305C046
:10023000E889F989808185FD24C0F62E0B8D10E0B8
:100240000F5F1F4F0F731127E02E8C8DE8120CC02B
:100250000FB607FCFACFE889F989808185FFF5CFD1
:10026000CE010E94EA00F1CF8B8DFE01E80FF11D57
:10027000E35AFF4FF0820B8FEA89FB89808180620D
:1002800007C0EE89FF896083E889F98980818064ED
:10029000808381E090E0DF91CF911F910F91FF90DB
:1002A000EF900895CF93DF93EC01888D8823C9F0F8
:1002B000EA89FB89808185FD05C0A889B9898C916F
:1002C00086FD0FC00FB607FCF5CF808185FFF2CF0A
:1002D000A889B9898C9185FFEDCFCE010E94EA00F3
:1002E000E7CFDF91CF91089580E090E0892B29F04E
:1002F0000E94E00081110C940000089590E0FC0140
:10030000E859FF4F3491FC01EC55FF4F2491FC015B
:10031000E057FF4FE491EE2309F43BC0332339F15A
:10032000333091F038F43130A9F0323001F584B532
:100330008F7D12C0373091F03830A1F03430B9F4ED
:10034000809180008F7D03C0809180008F778093A3
:1003500080000DC084B58F7784BD09C08091B00046
:100360008F7703C08091B0008F7D8093B000F0E064
:10037000EE0FFF1FE458FF4FA591B4918FB7F8948B
:10038000EC91611103C020952E2301C02E2B2C93DC
:100390008FBF08953FB7F89480911B0190911C0185
:1003A000A0911D01B0911E0126B5A89B05C02F3F4D
:1003B00019F00196A11DB11D3FBFBA2FA92F982F8B
:1003C0008827820F911DA11DB11DBC01CD0142E006
:1003D000660F771F881F991F4A95D1F70895CF920E
:1003E000DF92EF92FF920E94CA016B017C010E9492
:1003F000CA01DC01CB018C199D09AE09BF09883EF9
:100400009340A105B10598F3FF90EF90DF90CF9056
:1004100008959BB193709BB94BB190E09C01220F62
:10042000331F220F331F242B2BB925B12C7F25B965
:1004300025B166E0959587956A95E1F7822B85B998
:100440000895CF93C82F862F95B127EF3FEF0C2E3D
:1004500001C0220F0A94EAF7292325B90E94090254
:10046000419A419845B128E030E0C90101C0880FA8
:10047000CA95EAF7842B85B9CF9108958F929F9200
:10048000AF92BF92CF92DF92EF92FF926B017C010D
:10049000452BC1F0DC01CB012FE0B695A7959795D0
:1004A00087952A95D1F7DC0199278827E894D7F812
:1004B000EE24FF2420E8D20EE11CF11CC80ED91E48
:1004C000EA1EFB1E80911F018C1539F06C2D80E017
:1004D00090E00E942102C0921F018D2C9E2CAF2C17
:1004E000BB2480912001881539F0682D81E090E0CF
:1004F0000E942102809220016701EE24FF24809156
:1005000021018C1539F06C2D82E090E00E942102CF
:10051000C0922101FF90EF90DF90CF90BF90AF90FD
:100520009F908F9008950E941B061F920F920FB606
:100530000F9211242F933F934F935F936F937F9369
:100540008F939F93AF93BF93EF93FF9382E291E0DA
:100550000E94EA00FF91EF91BF91AF919F918F911F
:100560007F916F915F914F913F912F910F900FBEAF
:100570000F901F9018951F920F920FB60F92112493
:100580002F938F939F93EF93FF93E0913201F0911C
:1005900033018081E0913801F091390182FD12C070
:1005A000908180913B018F5F8F7320913C01821776
:1005B00051F0E0913B01F0E0EE5DFE4F958F8093AE
:1005C0003B0101C08081FF91EF919F918F912F910D
:1005D0000F900FBE0F901F9018951F920F920FB69D
:1005E0000F9211242F933F938F939F93AF93BF93B9
:1005F0008091170190911801A0911901B0911A01F1
:100600003091160123E0230F2D3720F40196A11D10
:10061000B11D05C026E8230F0296A11DB11D209330
:1006200016018093170190931801A0931901B093BC
:100630001A0180911B0190911C01A0911D01B091A4
:100640001E010196A11DB11D80931B0190931C01F9
:10065000A0931D01B0931E01BF91AF919F918F9107
:100660003F912F910F900FBE0F901F901895CF9331
:10067000DF9300D0CDB7DEB7789484B5826084BDB7
:1006800084B5816084BD85B5826085BD85B5816096
:1006900085BD80916E00816080936E001092810014
:1006A00080918100826080938100809181008160CF
:1006B0008093810080918000816080938000809190
:1006C000B10084608093B1008091B000816080931C
:1006D000B00080917A00846080937A0080917A00E3
:1006E000826080937A0080917A00816080937A00A2
:1006F00080917A00806880937A001092C1002AE08D
:1007000030E0F901EC55FF4F4491F901E057FF4FFC
:100710008491882399F090E0880F991FFC01EA5793
:10072000FF4FA591B491FC01E458FF4F859194913E
:100730008FB7F894EC91E42BEC938FBF2F5F3F4F72
:1007400024313105F1F660E08AE00E947E0161E02B
:100750008AE00E947E0161E08BE00E947E0161E000
:100760008CE00E947E0161E08DE00E947E0160E0ED
:100770008FE00E947E0160E08EE00E947E0160E0DA
:1007800080E10E947E0160E081E10E947E0161E0E3
:1007900082E10E947E0161E083E10E947E018AB1D4
:1007A0008C6F8AB984B1836084B960E080E090E0A6
:1007B0000E94210210921F0160E081E090E00E94FF
:1007C00021021092200160E082E090E00E9421026C
:1007D00010922101E0913201F091330182E0808397
:1007E000E0912E01F0912F011082E0913001F09103
:1007F000310181E0808310923A01E0913601F0915D
:10080000370186E08083E0913401F09135018081E9
:1008100080618083E0913401F091350180818860AE
:100820008083E0913401F09135018081806880837C
:10083000E0913401F091350180818F7D808382E2E7
:1008400091E00E94D400892BD1F382E291E00E94D2
:10085000B200782E99278136910509F4D3C064F44B
:1008600082359105D9F08735910509F406C18134A7
:10087000910509F0AAC1C6C08237910579F02CF420
:100880008336910509F49CC0A0C18637910509F40F
:100890008FC18737910509F4F0C097C182E291E0DA
:1008A0000E94D4000697D4F3BB24B39422E77212BB
:1008B000B12C82E291E00E94B2002C01990F6608EF
:1008C000770882E291E00E94B2006C0182E291E03E
:1008D0000E94B2000D2C000CEE08FF08FE2CED2C3F
:1008E000DC2CCC24AC01990F660B770BBA01552791
:1008F0004427C42AD52AE62AF72AC428D528E62878
:10090000F72882E291E00E94B2002C01990F66085C
:10091000770882E291E00E94B2008C0182E291E0CD
:100920000E94B200012E000C220B330B322F212F1C
:10093000102F0027092E000CAA0BBB0BDC019927F6
:100940008827802B912BA22BB32B482A592A6A2A5D
:100950007B2A4C0C5D1C6E1C7F1C0B2D10E0C414FC
:10096000D504E604F70408F030C1A801C701B601B8
:100970000E943E028AB183708AB984B18C7F84B9A7
:100980008FB78A83F8942A988A818FBF69B193B10F
:1009900020E4929FC001112466956695682B2A9ADF
:1009A0008AB18C6F8AB984B1836084B982E291E0A4
:1009B0000E940B018FEFC81AD80AE80AF80ACFCFB5
:1009C00082E291E00E94D40018161906CCF782E268
:1009D00091E00E94B200182F682F617080E10E94A0
:1009E0007E0111FB662760F981E10E947E0112FB06
:1009F000662760F982E10E947E0113FB662760F999
:100A000083E1D3C082E291E00E94D4000397D4F343
:100A100082E291E00E94B2006C01990FEE08FF089B
:100A200082E291E00E94B2005C0182E291E00E94C9
:100A3000B2008C0141E050E021E6721611F040E076
:100A400050E0C501BB0CAA0BBB0BBA2FA92F982FE6
:100A50008827012E000C220B330B98011127002749
:100A6000800F911FA21FB31FBC01CD016C0D7D1D16
:100A70008E1D9F1D0E943E02A8C0AA24A394B12CE3
:100A800087E7781611F0A12CB12C82E291E00E9448
:100A9000D40007971CF40E94EF01F7CF82E291E0A7
:100AA0000E94B2002C01990F6608770882E291E05B
:100AB0000E94B2006C0182E291E00E94B2000D2C13
:100AC000000CEE08FF08FE2CED2CDC2CCC24AC0135
:100AD000990F660B770BBA0155274427C40ED51E14
:100AE000E61EF71EC40CD51CE61CF71C82E291E042
:100AF0000E94B2002C01990F6608770882E291E00B
:100B00000E94B2008C0182E291E00E94B200012EAC
:100B1000000C220B330B322F212F102F0027092E10
:100B2000000CAA0BBB0BDC0199278827080F191FA3
:100B30002A1F3B1F400E511E621E731E8AB18C6F0E
:100B40008AB984B1836084B961E08EE00E947E013D
:100B50004C0C5D1C6E1C7F1CC414D504E604F70409
:100B600008F582E291E00E94D400892BC1F02A9A14
:100B7000A501C701B6010E943E028FB78983F89490
:100B80002A9889818FBF82E291E00E94B2000E9480
:100B900009022FEFC21AD20AE20AF20ADDCF0E943E
:100BA000EF01DACF2A9A60E08EE00E947E010DC04C
:100BB00044E050E060E171E082E291E00E94870051
:100BC00060E382E291E00E940B010E94740137CE43
:100BD000E2E2F1E01382128288EE93E0A0E0B0E05E
:100BE00084839583A683B78384E091E09183808397
:100BF00085EC90E09587848784EC90E097878687E2
:100C000080EC90E0918B808B81EC90E0938B828BD9
:100C100082EC90E0958B848B86EC90E0978B868BB2
:100C2000118E128E138E148E0895EE0FFF1F0590F5
:100C3000F491E02D099481E090E0F8940C94200662
:040C4000F894FFCF56
:100C4400000000000B018700D400B200C60052016E
:060C5400484B4146000080
:00000001FF
