:100000000C949F000C94C7000C94C7000C94C7007C
:100010000C94C7000C94C7000C94C7000C94C70044
:100020000C94C7000C94C7000C94C7000C94C70034
:100030000C94C7000C94C7000C94C7000C94C70024
:100040000C9467070C94C7000C94D7070C94B10765
:100050000C94C7000C94C7000C94C7000C94C70004
:100060000C9479020C94C7008F19781C781C781CAA
:10007000781C671AC71A781C781C781C781C781CA6
:10008000781C781C781C781C781C3419661BB21BF1
:10009000781C781CE71B781C781C5D1C781C781C6D
:1000A000781C781C781C781C8F19B619271A781CB4
:1000B000781C411A9D1A781CCC1A781C781C781C64
:1000C000781C781C781C781C781C3419521BB21BC5
:1000D000781C541CE71B781C781C5D1CED15FB1567
:1000E000091617162516331641164A160000000089
:1000F000240027002A0000000000250028002B0013
:1001000004040404040404040202020202020303BD
:1001100003030303010204081020408001020408C5
:100120001020010204081020000000080002010055
:100130000003040700000000000000007B1C1124E5
:100140001FBECFEFD8E0DEBFCDBF11E0A0E0B1E031
:10015000E4EDFFE302C005900D92AA36B107D9F78E
:1001600024E0AAE6B1E001C01D92A836B207E1F78B
:1001700010E0CFE9D0E004C02197FE010E94FA1CF4
:10018000CE39D107C9F70E9447180C94E81F0C9488
:100190000000FC01538D448D252F30E0842F90E02A
:1001A000821B930B541710F0CF9608950197089572
:1001B000FC01918D828D981761F0828DDF01A80F6F
:1001C000B11D5D968C91928D9F5F9F73928F90E091
:1001D00008958FEF9FEF0895FC01918D828D981700
:1001E00031F0828DE80FF11D858D90E008958FEF3D
:1001F0009FEF0895FC01918D228D892F90E0805C06
:100200009F4F821B91098F739927089580E090E09A
:10021000892B29F00E945B0781110C94000008953E
:1002200085ED8093BC008091BC0084FDFCCF1092D2
:100230000F03089540918C01262F30E0240F311DCB
:1002400021323105DCF420910F032430C9F4FC0184
:1002500080E090E0861758F430918C012191DC0108
:10026000A659BE4FA30FB11D2C930196F3CF8091D9
:100270008C01680F60938C0180E0089581E00895FF
:1002800082E00895089508950895E091C80280914C
:10029000C702E81730F4F0E0E753FD4F808190E0AB
:1002A00008958FEF9FEF08959091C8028091C70243
:1002B000981750F4E92FF0E0E753FD4F208130E02C
:1002C0009F5F9093C80202C02FEF3FEFC9010895CE
:1002D0008091C70290E02091C802821B9109089585
:1002E000CF92DF92EF92FF920F931F93CF93DF9302
:1002F0007C01CB018A0120911003222389F0EB01BC
:100300006B01C40ED51ECC15DD0569F06991D701CE
:10031000ED91FC910190F081E02DC7010995F3CF9B
:10032000642F0E941A01C801DF91CF911F910F9194
:10033000FF90EF90DF90CF900895CF93DF931F92BF
:10034000CDB7DEB76983209110032223D1F020912D
:100350003303203240F021E030E0FC01338322837C
:1003600080E090E015C080911103E82FF0E0EE5E90
:10037000FC4F998190838F5F8093110380933303A7
:1003800005C061E0CE0101960E941A0181E090E073
:100390000F90DF91CF910895089580E090E0089547
:1003A0009BB193709BB94BB190E09C01220F331F1E
:1003B000220F331F242B2BB925B12C7F25B925B152
:1003C00066E0959587956A95E1F7822B85B9089542
:1003D000FC01848DDF01A80FB11DA35ABF4F2C91E2
:1003E000848D90E001968F739927848FA689B789B1
:1003F0002C93A089B1898C91837080648C93938DA8
:10040000848D981306C00288F389E02D80818F7D4A
:1004100080830895EF92FF920F931F93CF93DF9302
:10042000EC0181E0888F9B8D8C8D981305C0E88945
:10043000F989808185FD26C0F62E0B8D10E00F5FB7
:100440001F4F0F731127E02E8C8DE8120CC00FB6D2
:1004500007FCFACFE889F989808185FFF5CFCE01C5
:100460000E94E801F1CF8B8DFE01E80FF11DE35AE8
:10047000FF4FF0829FB7F8940B8FEA89FB89808148
:1004800080620AC09FB7F894EE89FF896083E8898B
:10049000F98980818370806480839FBF81E090E0D0
:1004A000DF91CF911F910F91FF90EF900895CF931F
:1004B000DF93EC01888D8823C9F0EA89FB8980816C
:1004C00085FD05C0A889B9898C9186FD0FC00FB63E
:1004D00007FCF5CF808185FFF2CFA889B9898C917F
:1004E00085FFEDCFCE010E94E801E7CFDF91CF91EC
:1004F00008951F920F920FB60F9211242F933F93DE
:100500004F935F936F937F938F939F93AF93BF931B
:10051000EF93FF938091B900887F803609F49CC0E7
:1005200068F5883209F45BC090F4803109F454C056
:1005300038F4882309F4F6C0883009F44DC0F6C0B9
:10054000883109F44CC0803209F45DC0EFC08034BA
:1005500009F468C048F4803309F455C0883309F0C1
:10056000E5C080930D03D8C0803509F44FC08835AD
:1005700009F45DC0883409F0D9C0D6C0883909F4BF
:10058000C7C0A8F4883709F467C038F4883609F47E
:1005900063C0803709F460C0C9C0883809F4B8C0A6
:1005A000803909F45FC0803809F0C0C05BC0803B6F
:1005B00009F486C038F4803A09F466C0883A09F430
:1005C0007FC0B4C0803C09F4A7C0883C09F4A4C033
:1005D000883B09F48AC0AAC08091EA0210C09091B9
:1005E0000C0380910B03981770F5E0910C0381E0E8
:1005F0008E0F80930C03F0E0E551FD4F80818093D6
:10060000BB0085EC86C080930D038EC0E0910C0387
:1006100081E08E0F80930C038091BB00F0E0E551E8
:10062000FD4F808390910C0380910B036EC0E0918D
:100630000C0381E08E0F80930C038091BB00F0E0EF
:10064000E551FD4F808380910E0381116DC081E0E3
:100650008093E90284EA61C083E080930F031092E3
:10066000B001CFCF8091B001803208F051C0E0914D
:10067000B00181E08E0F8093B0018091BB00F0E06B
:10068000E057FE4F8083BDCF85EC8093BC00109275
:100690000F038091B001803230F4E091B001F0E0BE
:1006A000E057FE4F10826091B00170E0E0918E0142
:1006B000F0918F0180E991E009951092B00136C068
:1006C00084E080930F0310928D0110928C01E091D1
:1006D0008A01F0918B01099580918C01811105C0EF
:1006E00081E080938C0110926A01E0918D0181E09C
:1006F0008E0F80938D01F0E0E659FE4F808180934C
:10070000BB0090918D0180918C01981708F479CFEE
:1007100085E88093BC000AC085EC8093BC001092F1
:100720000F0304C010920D030E941001FF91EF917E
:10073000BF91AF919F918F917F916F915F914F91F9
:100740003F912F910F900FBE0F901F901895AF9271
:10075000BF92CF92DF92EF92FF920F931F93CF93AE
:10076000DF93D82EE62EF42EC22ED5E4D093BC0013
:100770001092C8021092C702109211031092330314
:1007800010920F03C1E0C0930E031092E90261E0E2
:1007900082E10E94341361E083E10E94341380916E
:1007A000B9008E7F8093B9008091B9008D7F8093CE
:1007B000B90088E48093B800D093BC0082E491E053
:1007C00090938B0180938A0183E491E090938F0151
:1007D00080938E0180915B04C09310038093320359
:1007E000109211031092330381E00E940C148111C6
:1007F00027C180E00E94831490E0880F892F881F12
:10080000990B0197B1F362E987EB0E94681480E4C9
:1008100098E7ADE7B1E080934A0490934B04A0932E
:100820004C04B0934D041092520410925304109251
:1008300054041092550420913604309137044091AD
:1008400038045091390460913A0470913B0400E0FF
:1008500010E080913C0490913D040E94580E20913C
:100860003E0430913F044091400450914104609116
:1008700042047091430401E010E08091440490919F
:1008800045040E94580E60E880E10E94681460E808
:1008900081E10E94681460E882E10E94681460E8C7
:1008A00083E10E94681460E884E10E94681460E8B3
:1008B00085E10E94681460E886E10E94681460E89F
:1008C00087E10E9468146CE080E10E9468146CE08B
:1008D00081E10E9468146CE082E10E9468146CE07F
:1008E00083E10E9468146CE084E10E9468146CE06B
:1008F00085E10E9468146CE086E10E9468146CE057
:1009000087E10E94681400E010E020E030E24FE54B
:1009100050EA62E170E080E090E00E94580E01E051
:1009200010E020E030E24FE550EA62E170E080E064
:1009300090E00E94580E1092E7031092E603109286
:10094000E9031092E8031092EB031092EA0310926D
:10095000ED031092EC031092EF031092EE0310924D
:10096000F1031092F00381E090E09093F303809301
:10097000F2039093F5038093F40360E070E080E06D
:1009800090E00E94C51260E070E081E090E00E947B
:10099000C51260E070E082E090E00E94C51260E065
:1009A00070E083E090E00E94C51260E070E084E0B7
:1009B00090E00E94C51260E070E085E090E00E9447
:1009C000C51261E070E086E090E00E94C51261E02F
:1009D00070E087E090E00E94C51260E082EA0E9429
:1009E000681460E083EA0E94681460E084EA0E9470
:1009F000681460E281EB0E94681460E881EB0E9459
:100A00006814C6EFD3E08CE5A82E84E0B82E00E091
:100A100010E0188219821A821B821C821D821E829B
:100A20001F82289660E0C8010E943515F5011192D9
:100A30005F010F5F1F4F0830110559F781E001C0BA
:100A400080E08093B401882309F452C000E010E0F4
:100A500020E030E24FE550EA62E170E080E090E0B3
:100A60000E94580E01E010E020E030E24FE550EA2D
:100A700062E170E080E090E00E94580E00E010E03B
:100A800020E637EB43E050E860E070E080E090E083
:100A90000E94200F01E010E0CC2029F020EC3AE881
:100AA00047E457E204C024EC33EF45E555E160E04C
:100AB00070E080E090E00E94200F02E010E020E073
:100AC00030E84FE452E160E070E080E090E00E94A6
:100AD000200F6D2D80E090E00E9435156E2D81E095
:100AE00090E00E9435156F2D82E090E00E94351550
:100AF0001092BC00DF91CF911F910F91FF90EF906A
:100B0000DF90CF90BF90AF900895CF93DF931F9267
:100B1000CDB7DEB742988AB183708AB984B18C7F31
:100B200084B98FB78983F8942A9889818FBF000090
:100B300000000000000000000000000000000000B5
:100B4000000000000000000000000000000089B16B
:100B500023B12A9A9AB19C6F9AB994B1936094B9CF
:100B6000429A8695869590E4299F90011124822BC4
:100B70000F90DF91CF910895CF93C82F862F95B115
:100B800027EF3FEF0C2E01C0220F0A94EAF729232A
:100B900025B90E94D001419A419825B188E090E0A2
:100BA00001C0880FCA95EAF7822B85B9CF910895C5
:100BB0001F93CF93DF93182FEB01442339F0110FCC
:100BC0008D2F881F8827881F182BD0682A9A80911C
:100BD000B1018C1731F06C2F80E00E94BC05C093EE
:100BE000B1018091B2018D1731F06D2F81E00E942B
:100BF000BC05D093B2018091B301181731F0612F79
:100C000082E00E94BC051093B301DF91CF911F9148
:100C100008951F93CF93DF931F92CDB7DEB7142FA4
:100C200040E00E94D805812F0E94D001409A8FB7E2
:100C30008983F8942A9889818FBF00000000000002
:100C400000000000000000000000449800000000C8
:100C50000000000000000000000000000000000094
:100C60000000000000000000000000000000000084
:100C70000000000000000000000000000000000074
:100C8000000000000000000000000000449A000086
:100C90000000000000000000000000000000000054
:100CA00000000000000000000000000000002A9A80
:100CB00040980F90DF91CF911F91089540E00E94DE
:100CC000D805000000000000000000000000000047
:100CD0000000000000000000000000000000000014
:100CE000000042980000000000000000000000002A
:100CF00000000000000000000000000000000000F4
:100D000000000000000000000000000000000000E3
:100D100000000000000000000000000000000000D3
:100D2000000000000E948505429A08950F931F93CA
:100D3000CF93DF9340E064E078E380E00E9409060F
:100D4000CBE8D1E0CE010197F1F74FEF64E078E313
:100D500080E00E9409062197F1F740E064E078E323
:100D600080E00E940906CCEF0BEF1CE764E078E31B
:100D700080E00E945E06811106C0C15031F0C801BA
:100D80000197F1F7F3CF80E001C081E0DF91CF91CF
:100D90001F910F91089564E078E380E00E945E0661
:100DA00084FDF9CF0895CF92DF92EF92FF920F93D7
:100DB0001F93CF93DF93C82FD62E0E94CB064C2FC4
:100DC00062E078E380E00E9409060E94CB06D0E052
:100DD000CC24C39483E2E82EF12CDD1591F100E0E0
:100DE00014E0C1E064E078E380E00E945E06817078
:100DF0008C258C2329F0CF5FC7010197F1F7F2CF43
:100E0000CC2331F060E078E380E00E945E0601C010
:100E100085E4682F84E393E00E940A0201501109DF
:100E200001F784E393E00E94FA0018161906CCF744
:100E300084E393E00E94D8008536910511F0DF5FCE
:100E4000CCCFDF91CF911F910F91FF90EF90DF906A
:100E5000CF9008959091C00095FFFCCF8093C6007D
:100E60000895CF92DF92EF92FF920F931F93CF934B
:100E7000DF936C017A018B01C0E0D0E0CE15DF0575
:100E800081F0D8016D918D01D601ED91FC91019019
:100E9000F081E02DC6010995892B11F02196EECF46
:100EA0007E01C701DF91CF911F910F91FF90EF90CD
:100EB000DF90CF90089584E393E00E94FA0021E050
:100EC000892B09F420E0822F08950E94E31F1F92CE
:100ED0000F920FB60F9211242F933F938F939F93EE
:100EE000AF93BF938091C3029091C402A091C502B9
:100EF000B091C6023091C20223E0230F2D3720F4B7
:100F00000196A11DB11D05C026E8230F0296A11D63
:100F1000B11D2093C2028093C3029093C402A09398
:100F2000C502B093C6028091BE029091BF02A0910B
:100F3000C002B091C1020196A11DB11D8093BE02F5
:100F40009093BF02A093C002B093C102BF91AF9132
:100F50009F918F913F912F910F900FBE0F901F90F7
:100F600018951F920F920FB60F9211242F933F9353
:100F70004F935F936F937F938F939F93AF93BF93A1
:100F8000EF93FF9384E393E00E94E801FF91EF91D8
:100F9000BF91AF919F918F917F916F915F914F9191
:100FA0003F912F910F900FBE0F901F9018951F9299
:100FB0000F920FB60F9211242F938F939F93EF935D
:100FC000FF93E0914403F09145038081E0914A034F
:100FD000F0914B0382FD12C0908180914D038F5F91
:100FE0008F7320914E03821751F0E0914D03F0E092
:100FF000EC5CFC4F958F80934D0301C08081FF9185
:10100000EF919F918F912F910F900FBE0F901F9096
:1010100018952F923F924F925F926F927F928F928C
:101020009F92AF92BF92CF92DF92EF92FF920F9377
:101030001F93CF93DF93CDB7DEB769970FB6F894C0
:10104000DEBF0FBECDBF29873A874B875C876D8790
:101050007E871C014A2CBB8ACC8ADD8AEE8AFF8AF5
:10106000088F198F988A8F862115E6ED3E07E1E1FA
:101070004E07EEE75E07E3E06E0771058105910517
:1010800009F068F52F37304F4A4F5240610571051E
:101090008105910509F008F459C02A2D3B2DA601C0
:1010A000B701C801A0E00E94A71E09F001C1A984F0
:1010B000BA84CB84DC84ED84FE84810120E033E2B9
:1010C00045E75EEE64E170E080E090E00E94B71DCD
:1010D000422E532E642E752E20FD1FC024C02A2DB3
:1010E0003B894C895D896E897F89888D998DA0E0C7
:1010F0000E94A71E09F028C125E0422E512C612C28
:10110000712C198626ED2A8731E13B874EE74C8703
:1011100053E05D871E86212C312C6FEF461A560A4C
:10112000660A760A06C075E0471651046104710428
:1011300039F08FEF481651046104710400F524C0A2
:1011400096E0492E512C612C712C1EC02A2D3B8912
:101150004C895D896E897F89888D998DA0E00E9478
:10116000A71E09F099C090E89987E0EFEA87FAEFA7
:10117000FB8722E02C871D861E86212C312C8EEFCA
:10118000482E512C612C712CA301920160E070E07B
:10119000CB01A984BA84CB84DC84ED84FE848101F4
:1011A00049823A834B835C836D837E838F839887E8
:1011B00060E070E080E090E00E94001DB22FA32F5D
:1011C000F42EE52E4B018C012115E4E03E07EBE601
:1011D0004E07E4EF5E07E4E16E07710581059105B6
:1011E000A1F098F0F2E04F1A510861087108A301CC
:1011F000920160E070E0CB0149823A834B835C83CB
:101200006D837E838F83988720C02F3F3745474467
:10121000584F6D4071058105910509F028F5F2E000
:101220004F0E511C611C711CA301920160E070E023
:10123000CB0149823A834B835C836D837E838F83AA
:101240009887A984BA84CB84DC84ED84FE848101F0
:1012500060E070E080E090E00E94001DB22FA32FBC
:10126000F42EE52E4B018C01552466247724EF855E
:10127000F8894082518262827382148215821682BA
:1012800017821086118612861386B9835A2E6F2C08
:101290007E2C098B1A8B62C020E8298730EF3A87B1
:1012A0004AEF4B8752E05C871D861E86212C312C2D
:1012B000A984BA84CB84DC84ED84FE848101242D4E
:1012C0003B894C895D896E897F89888D998D0E94C3
:1012D000B51D2983532E3A014B01898B9A8BA0E0CF
:1012E0000E94A71E41F5242D3B894C895D896E899A
:1012F0007F89888D998D0E94B71DC901DA01AC01E3
:10130000BD014650510961097109493F5105610507
:10131000710520F5EF85F88980839183A283B383DB
:101320001482158216821782108611861286138601
:10133000F1E0F98301C01982512C612C712C812CB0
:10134000912C198A1A8A0AC0198666ED6A8771E19A
:101350007B878EE78C8793E09D87A7CF2981352DEA
:10136000A301B40189899A8969960FB6F894DEBF02
:101370000FBECDBFDF91CF911F910F91FF90EF90E6
:10138000DF90CF90BF90AF909F908F907F906F90A5
:101390005F904F903F902F900895DF92EF92FF92D1
:1013A0000F931F93CF93DF93FC01E080F1800281C4
:1013B0001381D481C581B681D7809701A8016D2F93
:1013C0007C2F8B2F9D2D285938424C4151096109A2
:1013D000710981099109273938424C41510561054C
:1013E00071058105910509F098F49701A8016D2F09
:1013F0007C2F8B2F9D2D07E00E945B1E2083318365
:1014000042835383648375838683978387E001C116
:101410009701A8016D2F7C2F8B2F9D2D20533145D7
:101420004843510961097109810991092F323145F8
:1014300048435105610571058105910509F098F44E
:101440009701A8016D2F7C2F8B2F9D2D06E00E9408
:101450005B1E208331834283538364837583868339
:10146000978386E0D6C09701A8016D2F7C2F8B2F24
:101470009D2D2056324A4047510961097109810961
:1014800091092F35324A40475105610571058105A3
:10149000910509F098F49701A8016D2F7C2F8B2FEF
:1014A0009D2D05E00E945B1E208331834283538380
:1014B000648375838683978385E0ABC09701A80119
:1014C0006D2F7C2F8B2F9D2D205C3444414E510974
:1014D00061097109810991092F3B3444414E51053D
:1014E000610571058105910509F098F49701A8013E
:1014F0006D2F7C2F8B2F9D2D04E00E945B1E20837F
:10150000318342835383648375838683978384E026
:1015100080C09701A8016D2F7C2F8B2F9D2D205807
:101520003948424C514061097109810991092F37AD
:101530003948424C5140610571058105910509F01A
:1015400098F49701A8016D2F7C2F8B2F9D2D03E020
:101550000E945B1E2083318342835383648375839F
:101560008683978383E055C09701A8016D2F7C2F58
:101570008B2F9D2D335145485340610971098109D5
:1015800091092F3F3241454853406105710581055E
:10159000910509F098F49701A8016D2F7C2F8B2FEE
:1015A0009D2D02E00E945B1E208331834283538382
:1015B000648375838683978382E02BC09701A8019B
:1015C0006D2F7C2F8B2F9D2D36524A40574061093D
:1015D0007109810991092F3F35424A405740610501
:1015E00071058105910509F098F49701A8016D2F07
:1015F0007C2F8B2F9D2D01E00E945B1E2083318369
:1016000042835383648375838683978381E001C01B
:1016100080E0DF91CF911F910F91FF90EF90DF90CD
:1016200008952F923F924F925F926F927F928F9286
:101630009F92AF92BF92CF92DF92EF92FF920F9361
:101640001F93CF93DF93CDB7DEB768970FB6F894AB
:10165000DEBF0FBECDBF290149875A873B011C0160
:10166000A982B98ACA8ADB8AEC8AFD8A0E8B1F8B13
:10167000988A8F86211501EC30070AE140070DE3B7
:10168000500705E0600771058105910509F0C8F470
:101690002F3710EF31071AEF410712E051076105AC
:1016A00071058105910509F008F43BC12F3F354DC7
:1016B00041415E47634071058105910509F068F479
:1016C0000AC1412CF1EC5F2EFAE1F9870DE30A879C
:1016D000A5E06A2E712C212C312C298139894A8967
:1016E0005B896C897D898E899F89A0E00E94A71EF5
:1016F00009F077C09924939414E0E12EF12C00E0D6
:1017000010E0EB86FC860D871E87EB84FC840D853C
:101710001E85A801970160E070E0CB015201C984E9
:10172000DA847301810129833A834B835C836D835F
:101730007E838F83988760E070E080E090E00E9475
:10174000001D2983398B4A8B5B8B6C8B7D8B8E8B39
:101750009F8BFF24F3949F1409F409C110E0812C9E
:10176000912C5401839440E050E0BA0101C011E093
:10177000CB01BA01B7E0660F771F881F991FBA9592
:10178000D1F7CB84DC84ED84FE8407E0CC0CDD1C37
:10179000EE1CFF1C0A95D1F7A2E0DA1AE108F10865
:1017A000A50194010E94D81CC20ED31EE41EF51E92
:1017B000EF85F889C082D182E282F38264837583E7
:1017C0008683978380869186A286B386111103C192
:1017D000298139894A895B896C897D898E899F89AC
:1017E0000EC111E0188F5201C984DA84730181019E
:1017F000298139894A895B896C897D898E899F898C
:101800000E94B71D2B873C874D875E878B859C8503
:10181000AD85BE850697A105B10520F406E0A02E92
:10182000B12C0FC0EB84FC840D851E8529E0E216E7
:1018300027E0F20601051105C8F0B8E0AB2E17E06D
:10184000B12EC12CD12CE12CF12C00E010E029812B
:1018500039894A895B896C897D898E899F890E9433
:10186000B71D290149875A873B011C015201C984D0
:10187000DA8473018101298139894A895B896C89FC
:101880007D898E899F890E94B51DE0E4AE2EF2E429
:10189000BF2EAFE0CA2ED12CE12CF12C00E010E0DD
:1018A0000E94001D5201C984DA84730181010E94E3
:1018B000B71DA32FF42FE52F422F5A2F6F2F7E2F06
:1018C000411551056105710509F068C0812C912C05
:1018D000540183946AC0298139894A895B896C895A
:1018E0007D898E899F89A0E00E94A71EF1F5520193
:1018F000C984DA847301810120E034E04BE654EFBF
:1019000064E170E080E090E00E94B71D122FB32FD9
:10191000F42FE52FA7E00E94A71E01F516E0B0E026
:101920001BC0298139894A895B896C897D898E89A7
:101930009F89A0E00E94A71E09F053C020E8422E14
:1019400030EF532EBAEFB987E2E0EA87612C712CB1
:10195000212C312C18E0B7E0F0E0E0E0CF011B874C
:10196000BC879D87EE87912CD0CE188E3CCFAF855B
:10197000B8891D921D921D921C921397FD0114822D
:10198000158216821782C12CD12C7601C394189629
:10199000CD92DD92ED92FC921B9731C020E4822E15
:1019A00022E4922E2FE0A22EB12CF88DF13009F016
:1019B000DECEEF85F88910821182128213821482A2
:1019C00015821682178281E090E0A0E0B0E0808767
:1019D0009187A287B387920149855A85B301C101D6
:1019E0000EC0188E80E8482E90EF592E0AEF098716
:1019F00012E01A87612C712C212C312CF4CE6896C0
:101A00000FB6F894DEBF0FBECDBFDF91CF911F910F
:101A10000F91FF90EF90DF90CF90BF90AF909F908D
:101A20008F907F906F905F904F903F902F90089590
:101A3000DF92EF92FF920F931F93CF93DF93FC01FE
:101A4000E080F18002811381D481C581B681D78085
:101A50009701A8016D2F7C2F8B2F9D2D20583A4187
:101A60004640510961097109810991092F373A41AD
:101A700046405105610571058105910509F098F40D
:101A80009701A8016D2F7C2F8B2F9D2D07E00E94C1
:101A90005B1E2083318342835383648375838683F3
:101AA000978387E0FDC09701A8016D2F7C2F8B2FB6
:101AB0009D2D35534C4051096109710981099109E6
:101AC0002F3F34434C405105610571058105910557
:101AD00009F098F49701A8016D2F7C2F8B2F9D2D75
:101AE00006E00E945B1E208331834283538364831C
:101AF00075838683978386E0D3C09701A8016D2FF5
:101B00007C2F8B2F9D2D3A5648415109610971094F
:101B1000810991092F3F39464841510561057105F9
:101B20008105910509F098F49701A8016D2F7C2F8C
:101B30008B2F9D2D05E00E945B1E20833183428305
:101B40005383648375838683978385E0A9C0970157
:101B5000A8016D2F7C2F8B2F9D2D345D40435109A3
:101B600061097109810991092F3F334D40435105A6
:101B7000610571058105910509F098F49701A801A7
:101B80006D2F7C2F8B2F9D2D04E00E945B1E2083E8
:101B9000318342835383648375838683978384E090
:101BA0007FC09701A8016D2F7C2F8B2F9D2D385A58
:101BB0004146510961097109810991092F3F374A4D
:101BC00041465105610571058105910509F098F4BB
:101BD0009701A8016D2F7C2F8B2F9D2D03E00E9474
:101BE0005B1E2083318342835383648375838683A2
:101BF000978383E055C09701A8016D2F7C2F8B2F11
:101C00009D2D3055434C5109610971098109910994
:101C10002F3F3F44434C51056105710581059105F6
:101C200009F098F49701A8016D2F7C2F8B2F9D2D23
:101C300002E00E945B1E20833183428353836483CE
:101C400075838683978382E02BC09701A8016D2F4F
:101C50007C2F8B2F9D2D305A4648514061097109C8
:101C6000810991092F3F3F4946485140610571055F
:101C70008105910509F098F49701A8016D2F7C2F3B
:101C80008B2F9D2D01E00E945B1E208331834283B8
:101C90005383648375838683978381E001C080E0EA
:101CA000DF91CF911F910F91FF90EF90DF900895FA
:101CB0002F923F924F925F926F927F928F929F925C
:101CC000AF92BF92CF92DF92EF92FF920F931F934A
:101CD000CF93DF93CDB7DEB72E970FB6F894DEBF64
:101CE0000FBECDBF19013A014B018D879E87280198
:101CF000012BC9F4E0914604F0914704EE0FFF1F59
:101D0000EE0FFF1FEE5AFB4FA080B180C280D38040
:101D1000CE0101967C0189019301AB016D857E8521
:101D200080E090E018C0E0914804F0914904EE0F83
:101D3000FF1FEE0FFF1FEE5AFB4FA080B180C28045
:101D4000D380FE0131967F0181019A01AB016D853F
:101D50007E8581E090E00E946F1684E190E00E9411
:101D6000C21E8C0189859A85AB85BC85F80190835C
:101D7000818339814A812B81237022834383348379
:101D80002CE0B695A795979587952A95D1F7807FF2
:101D90002D813E819F819F70890F858336832783A4
:101DA00041145104C1F4A80168E08AE10E94511570
:101DB00020923604309237046092380470923904CD
:101DC00080923A0490923B04FD85F0933C048E850A
:101DD00080933D041AC04A944528B9F4A80168E0EC
:101DE00082E20E94511520923E0430923F0460929C
:101DF0004004709241048092420490924304ED8525
:101E0000E0934404FE85F0934504C8012E960FB676
:101E1000F894DEBF0FBECDBFDF91CF911F910F9120
:101E2000FF90EF90DF90CF90BF90AF909F908F90FA
:101E30007F906F905F904F903F902F900C945A1F1F
:101E40002F923F924F925F926F927F928F929F92CA
:101E5000AF92BF92CF92DF92EF92FF920F931F93B8
:101E6000CF93DF93CDB7DEB7E6970FB6F894DEBF1A
:101E70000FBECDBF29A33AA34BA35CA36DA37EA342
:101E80008FA398A71801980133273AA729A72630CE
:101E900031050CF0E3C129A13AA1AFEF0E949B1ECE
:101EA0002E373A414640510561057105810591057E
:101EB00009F058F480E889A38AE18AA386E08BA31D
:101EC0001CA21DA21EA21FA218A629A13AA14BA1C5
:101ED0005CA16DA17EA18FA198A52115314C4A412D
:101EE0005D43654071058105910569F060F019A2B7
:101EF00081EC8AA38AE18BA38DE38CA385E08DA37B
:101F00001EA21FA218A659A06AA07BA08CA09DA00B
:101F1000AEA00FA118A5252D362D472D582D692DC2
:101F20007A2DC8012115344E4B405445624071054D
:101F30008105910509F008F42DC1A6EF4A2EA3E012
:101F40005A2E2DED33E03CA72BA76901F201E12CBD
:101F5000F12CC101880F991FDC01AA51BC4F4D0122
:101F6000208131814281538164817581868197818D
:101F700038962115344E4B40544562407105810519
:101F8000910599F090F029A53AA52E153F0569F025
:101F9000D60119962D913C911A97D4018D919C915F
:101FA0002817390711F481E0D7C2BFEFEB1AFB0AFB
:101FB00012E0C10ED11C26E0E216F10489F609A553
:101FC0001AA5045A1B4FD8018C91811107C061E0FA
:101FD000C1010E94351581E0F801808329A13AA151
:101FE0004BA15CA16DA17EA18FA198A5A9A5BAA5C1
:101FF000E3E0AA0FBB1FEA95E1F7A352BC4FFD0136
:10200000799659962C9331834283538364837583E5
:1020100086839783DE011D964D01A12CB12CC12C26
:10202000D12CE12CF12C00E010E00E94110B29A72B
:102030003DA74EA75FA768AB79AB8AAB9BABC1014D
:10204000880F991FFC01E352FC4F4F010185128557
:102050008AA99BA90E94580E612C712C9401275FBC
:102060003F4F3EAB2DABD2018C9011969C901197B7
:102070001296AC90129713960C91139714961C918C
:1020800014971596BC91F201F680E780F8E04F0EA8
:10209000511C94014A2D502F612F7B2F8F2D9E2D87
:1020A000A0E00E94A71E09F455C0EBA5FCA5218560
:1020B0003285EDA9FEA9808191812817390709F0A1
:1020C00049C0898E9A8EAB8E0C8F1D8FBE8FFF8E6E
:1020D000E8A2CE0149960E94180D8CAB298D3A8D4D
:1020E0004B8D5C8D6D8D7E8DCE0101964C01A9A42A
:1020F000BDA4CEA4DFA4E8A8F9A80AA91BA98F8DC6
:1021000098A10E94110BAA24A394298D3A8D4B8D7E
:102110005C8D6D8D7E8D8F8D98A12F3F354D41410A
:102120005E47634071058105910509F008F4A12C13
:10213000AF928CA8C980DA80EB80FC800D811E8173
:102140002F81388549855A856B857C85C3010E941E
:1021500080150F90BFEF6B1A7B0AEBA5FCA532969A
:10216000FCA7EBA7F6E06F16710409F07CCFF10134
:10217000EE0FFF1FE352FC4F81859285009711F40B
:1021800060E204C0019709F0E6C160E881EB0E94BB
:102190006814E1C1A9A5BAA593E0AA0FBB1F9A953F
:1021A000E1F7A352BC4FFD01799659965C9261828A
:1021B000728283829482A5820683178309A51AA559
:1021C000045A1B4FD8018C91811107C061E0C101F5
:1021D0000E94351581E0F8018083CE0181960E942E
:1021E000180D782EF101EE0FFF1FE352FC4F018412
:1021F000F285E02D29A13AA14BA15CA16DA17EA1A0
:102200008FA198A5EF2BA1F4A0903604B0903704CD
:10221000C0903804D0903904E0903A04F0903B0428
:1022200000913C0410913D04DE011D964D0113C048
:10223000A0903E04B0903F04C0904004D090410470
:10224000E0904204F090430400914404109145044E
:10225000FE013D964F010E94110B6AC129A13AA1CE
:102260004BA15CA16DA17EA18FA198A5AFEF0E94AB
:102270009B1E263938424C41510561057105810587
:10228000910509F058F480E889A38AE18AA386E0E1
:102290008BA31CA21DA21EA21FA218A629A13AA1AF
:1022A0004BA15CA16DA17EA18FA198A52F3F354DBB
:1022B00041415E47634071058105910571F068F009
:1022C0008FEF89A385ED8AA381E18BA38EE78CA391
:1022D00083E08DA31EA21FA218A629A12BA73AA1B5
:1022E0003DA74BA05CA06DA07EA08FA098A486E027
:1022F0002816310409F048C020912E0430912F0493
:102300004091300450913104609132047091330453
:102310008091340490913504A0E00E94A71E09F03A
:1023200048C0A9A5BAA503E0AA0FBB1F0A95E1F70B
:10233000A352BC4FFD0179961BA559961C932DA560
:102340002183428253826482758286829782CE0183
:1023500081960E94CD09782E29A13AA14BA15CA1BA
:102360006DA17EA1CE010D964C01A12CB12CC12CEA
:10237000D12CE12CF12C00E010E08FA198A50E9457
:10238000090801E010E0D2C0209126043091270412
:10239000409128045091290460912A0470912B04E3
:1023A00080912C0490912D04A0E00E94A71E09F4B6
:1023B0007AC090913E049EA7A0913F04AFA7B09130
:1023C0004004B8ABE0914104E9ABF0914204FAABB0
:1023D000109143041BAB209144042CAB3091450475
:1023E0003DABABA4BDA4620173018401292F3A2F38
:1023F0004B2F5E2F6F2F7BA98CA99DA90E94B51D25
:10240000A0E00E94A71E09F0CECD2EA53FA548A9A9
:1024100059A96AA97BA98CA99DA90E94B71D217001
:1024200030E040E050E060E070E080E090E0A0E06C
:102430000E94A71E09F0B7CDA9A5BAA513E0AA0F5F
:10244000BB1F1A95E1F7A352BC4FFD01799659962F
:10245000AC92B18242825382648275828682978274
:10246000CE0181960E94CD09782EA0903E04B090B6
:102470003F04C0904004D0904104E0904204F090AA
:102480004304009144041091450429A13AA14BA1B1
:102490005CA16DA17EA1DE011D964D018FA198A5C5
:1024A0000E94090845C0E9A5FAA583E0EE0FFF1FC9
:1024B0008A95E1F7E352FC4FDF0159961BA5118F76
:1024C0002DA511962C93119712964C921297139654
:1024D0005C92139714966C92149715967C921597AC
:1024E00016968C92169717969C92CE0181960E9412
:1024F000CD09782E29A13AA14BA15CA16DA17EA1A5
:10250000CE010D964C01A12CB12CC12CD12CE12C6B
:10251000F12C00E010E08FA198A50E940908F101BC
:10252000EE0FFF1FE352FC4F018512850E94580EEB
:102530001F92872CA12CCD84DE84EF84F888098932
:102540001A892B893C894D895E896F89788DC101F3
:102550000E9480150F9080E0E6960FB6F894DEBFDB
:102560000FBECDBFDF91CF911F910F91FF90EF90E4
:10257000DF90CF90BF90AF909F908F907F906F90A3
:102580005F904F903F902F900895FF920F931F936D
:10259000CF93DF93EC018B01F82E80E1F80E8F2DA5
:1025A0000E9483140115110511F48F7D04C00130C0
:1025B000110509F48062682F8F2D0E946814DD27B1
:1025C000CC0FDD1FC352DC4F1A870987DF91CF91F3
:1025D0001F910F91FF9008958F929F92AF92BF929B
:1025E0000F931F93CF93DF93CDB7DEB7A1970FB6AD
:1025F000F894DEBF0FBECDBF19A2423008F44AE006
:102600008E010F5D1F4F842E912CA12CB12CA501A2
:1026100094010E94D81CE62FB901CA01015011098A
:10262000EA3014F4E05D01C0E95CD801EC93232B9F
:10263000242B252B61F7C8010E948113A1960FB6A8
:10264000F894DEBF0FBECDBFDF91CF911F910F91E8
:10265000BF90AF909F908F900895682F70E080E0BA
:1026600090E040E10C94EC1290E0FC01E85DFE4F3C
:102670002491FC01EC5EFE4F3491FC01E050FF4FD1
:10268000E491EE2309F43CC0222339F1233091F088
:1026900038F42130A9F0223001F584B58F7D12C0C5
:1026A000273091F02830A1F02430B9F480918000D7
:1026B0008F7D03C0809180008F77809380000DC054
:1026C00084B58F7784BD09C08091B0008F7703C037
:1026D0008091B0008F7D8093B000F0E0EE0FFF1F7F
:1026E000EA50FF4FA591B4919FB7F894611104C0CF
:1026F0008C913095382302C0EC913E2B3C939FBFC8
:102700000895009769F0FC0101900020E9F73197E6
:10271000AF01481B590BBC0184E393E00C943107D3
:1027200080E090E008950C948113CF92DF92EF92B5
:10273000FF926B017C01E0914403F091450382E03C
:102740008083C11481EED806E104F104B1F060E0A9
:1027500079E08DE390E0A70196010E94D81CDA0190
:10276000C9010197A109B109B695A79597958795D4
:102770009C01211580E13807B8F0E0914403F09105
:102780004503108260E874E88EE190E0A7019601AD
:102790000E94D81CDA01C9010197A109B109B695B7
:1027A000A795979587959C01E0914003F09141038F
:1027B0003083E0914203F0914303208310924C0355
:1027C000E0914803F091490386E08083E09146035D
:1027D000F0914703808180618083E0914603F0910E
:1027E0004703808188608083E0914603F09147032E
:1027F000808180688083E0914603F0914703808167
:102800008F7D8083FF90EF90DF90CF900895682FA9
:1028100084E393E00C940A02282F30913303313281
:1028200008F04AC080910F038111FCCF90913203D0
:1028300042E040930F0320930E032FEF20930D03EC
:1028400010920C0330930B03E2E1F3E0ABEEB2E045
:1028500020E0321721F041914D932F5FFACF109273
:10286000EA022091EA02990F922B9093EA0290914A
:10287000E902913061F41092E9029091EA0290939A
:10288000BB009091BC0093FDF8CF95EC01C095EE94
:102890009093BC0090910F039230E1F390910D035F
:1028A0009F3F79F080910D03803241F080910D03BC
:1028B000803331F084E005C081E003C082E001C0D4
:1028C00083E01092110310923303109210030895C5
:1028D000CF93C62F90915B0421E020931003909337
:1028E00032031092110310923303682F81ED93E0AD
:1028F0000E949D016C2F81ED93E00E949D0181E07B
:10290000CF910C940C14CF9390915B0421E0209311
:102910001003909332031092110310923303682F27
:1029200081ED93E00E949D0181E00E940C14809152
:102930005B0490910F039111FCCF91E090930F03F2
:1029400010920E032FEF20930D0310920C031092A0
:102950000B039093EA029091EA02880F892B8093EF
:10296000EA028091E902813061F41092E9028091DB
:10297000EA028093BB008091BC0083FDF8CF85EC18
:1029800001C085EE8093BC0080910F038130E1F39C
:1029900080910C03811103C0C0910C0301C0C1E000
:1029A000EBEEF2E0A9ECB2E080E08C1721F091911F
:1029B0009D938F5FFACF1092C802C093C70280E048
:1029C0009091C802C91729F081ED93E00E9454014B
:1029D000F7CFCF910895FF920F931F93CF93DF937B
:1029E0008C01C62FF42E8830910528F4FC01EA5F93
:1029F000FE4FD08101C0D0E08D2F0E94831406309D
:102A0000110544F48378F1108C6090E1C99FB00106
:102A100011240EC00630110519F4887F8C2B09C0D3
:102A20000730110531F490E1C99FB00111248F786E
:102A3000862B682F8D2FDF91CF911F910F91FF90E3
:102A40000C946814CF93DF93D62FC0E1C80F8C2F5E
:102A50000E948314682FD13011F4606401C06F7B31
:102A60008C2FDF91CF910C9468141F93CF93DF9339
:102A7000EC01162F83E00E9483149E01332761E04E
:102A800070E001C0660F2A95EAF7113019F46095DD
:102A9000682301C0682B83E0DF91CF911F910C94D4
:102AA0006814EF92FF920F931F93CF93DF93062F3B
:102AB0007A0190915B0421E02093100390933203FC
:102AC0001092110310923303682F81ED93E00E945E
:102AD0009D01E70110E0CE018E199F098017910733
:102AE00034F4699181ED93E00E949D01F4CF81E07F
:102AF000DF91CF911F910F91FF90EF900C940C14E8
:102B00002F923F924F925F926F927F928F929F92FD
:102B1000AF92BF92CF92DF92EF92FF920F931F93EB
:102B2000CF93DF93CDB7DEB72D970FB6F894DEBF06
:102B30000FBECDBF3C01C982DA82EB82FC820D83DD
:102B40001E832F83388749875A876B877C87BAA073
:102B50009C2C2D2C4E2C302E1D87522EC984DA84AD
:102B6000EB84FC8484E190E00E94C21E8C01C301CE
:102B7000992706973CF5F801D082C182862D880FEF
:102B8000880F880F845D0E948314942D93708C7F2E
:102B9000892BF801828323829482D701C6012CE01D
:102BA000B695A795979587952A95D1F7807F952D0E
:102BB0009F70C92EC80EC5828D858683932C37825F
:102BC00068E001C060E0E8E06E16710408F06CC0D7
:102BD000F301E259FF4F0C94FA1CA8018AE20E940B
:102BE00051156A2D80E090E00E9422154B2D682D32
:102BF00080E090E057C0A80182E30E9451156A2D41
:102C000081E090E00E9422154B2D682D81E090E03C
:102C100049C0A8018AE30E9451156A2D82E090E024
:102C20000E9422154B2D682D82E090E03BC0A80148
:102C300082E40E9451156A2D83E090E00E942215E3
:102C40004B2D682D83E090E02DC0A8018AE40E94FE
:102C500051156A2D84E090E00E9422154B2D682DBD
:102C600084E090E01FC0A80182E50E9451156A2D02
:102C700085E090E00E9422154B2D682D85E090E0C4
:102C800011C0692D8AE50E9468144B2D682D86E0DD
:102C900090E008C0692D8BE50E9468144B2D682DCB
:102CA00087E090E00E94EB14C8012D960FB6F894CF
:102CB000DEBF0FBECDBFDF91CF911F910F91FF906F
:102CC000EF90DF90CF90BF90AF909F908F907F90CC
:102CD0006F905F904F903F902F900C945A1F2F92BF
:102CE0003F924F925F926F927F928F929F92AF929C
:102CF000BF92CF92DF92EF92FF920F931F93CF93E9
:102D0000DF93CDB7DEB7A4970FB6F894DEBF0FBE42
:102D1000CDBF380149014C8F5E872B01FF8AEE8AB7
:102D2000892B29F4E0914604F091470404C0E09116
:102D30004804F0914904FF27EE0FFF1FEE0FFF1F1D
:102D4000E65BFB4F608171818281938124E630E0F4
:102D500040E050E00E94591D322E232E4D835E83A9
:102D60006F83788789879A8786017501110FEE082E
:102D7000FE2C87019501A6016E2D7E2D8E2D9E2D98
:102D80000FE10E945B1EA12CEAECBE2EFAE9CF2EC9
:102D9000ABE3DA2EE12CF12C00E010E00E94861D5E
:102DA000A32CB22CCD80DE80EF80F88409851A85B3
:102DB0000E94001D0FE10E94761E59016A01D60192
:102DC000C501BB0F880B982FDC0189839A83AB83E5
:102DD000BC839501A6016981762F862F962FA32C9F
:102DE000B22CCD80DE80EF80F88409851A850E94A0
:102DF000921E322E232E49835D836E837F838887C4
:102E000099879301A4016C8D7E85C2012F3FA7E5B0
:102E10003A07A7E44A07A8EF5A07ADE06A07710529
:102E200081059105A9F0A0F0211534404B46544F7F
:102E30006441710581059105B9F0B0F0612C04E0A1
:102E4000702E8BE6882E94EF992EF4E1FC8F09C04A
:102E5000612C28E5722E37E4832E48EF942EEDE0A6
:102E6000EC8F1E86412C512CA32CB22CC980DD8006
:102E7000EE80FF80088519859301A4016C8D7E8505
:102E8000C2010E94B71D288F398F4A8F5B8F2A8716
:102E90003B874C875D878A859B85AC85BD850F9771
:102EA000A105B10518F41FE0A12E0BC08A859B85F2
:102EB000AC85BD858B359105A105B105C0F0BAE59E
:102EC000AB2EB12CC12CD12CE12CF12C00E010E068
:102ED000232D322D49815D816E817F818885998581
:102EE0000E94001D39014A016C8F7E872C01A32CA2
:102EF000B22CC980DD80EE80FF80088519859301A2
:102F0000A4016C8D7E85C2010E94B51DE0E4AE2E49
:102F1000F2E4BF2EAFE0CA2ED12CE12CF12C00E060
:102F200010E00E94001DA32CB22CC980DD80EE8031
:102F3000FF80088519850E94B71DC901DA01009735
:102F4000A105B10529F4412C512C3201439407C04D
:102F500060E4462E62E4562E6FE0662E712C5C0112
:102F60006D0187E0AA0CBB1CCC1CDD1C8A95D1F737
:102F7000AC8EBD8ECE8EDF8EA32CB22CC980DD80B0
:102F8000EE80FF800885198560E070E080E090E0C9
:102F90000E94001D63015201E12CF12C87014E8635
:102FA000BF86C88AD98AEA8AFB8A0C8B1D8BE12CE2
:102FB000F12C00E010E00E94B71D2E8738A349A332
:102FC0005AA34B018CA39BA3CA84DB84EC84FD84AD
:102FD00097E0CC0CDD1CEE1CFF1C9A95D1F702E0AB
:102FE000D01AE108F1086C8D7D8D8E8D9F8DA30127
:102FF00092010E94D81C89019A010C0D1D1D2E1DE5
:103000003F1DAE89BF890D931D932D933C9313975C
:10301000FD01648375838683978318964D925D9234
:103020006D927C921B97A32CB22CC980DD80EE8020
:10303000FF8008851985288D398D4A8D5B8D60E06C
:1030400070E080E090E00E94001DAE84B8A0C9A0AE
:10305000DAA074010CA11BA10E94921EA4960FB6C7
:10306000F894DEBF0FBECDBFDF91CF911F910F91BE
:10307000FF90EF90DF90CF90BF90AF909F908F9098
:103080007F906F905F904F903F902F900895CF93D7
:10309000DF93CDB7DEB72C970FB6F894DEBF0FBE27
:1030A000CDBF789484B5826084BD84B5816084BDD1
:1030B00085B5826085BD85B5816085BD80916E00D6
:1030C000816080936E001092810080918100826007
:1030D0008093810080918100816080938100809144
:1030E00080008160809380008091B1008460809333
:1030F000B1008091B00081608093B00080917A002F
:10310000846080937A0080917A00826080937A0054
:1031100080917A00816080937A0080917A00806843
:1031200080937A001092C1002AE030E0F901EC5E51
:10313000FE4F6491F901E050FF4F8491882399F08C
:1031400090E0880F991FFC01E451FF4FA591B491C5
:10315000FC01EA50FF4F459154918FB7F894EC91E0
:103160006E2B6C938FBF2F5F3F4F24313105F1F6EB
:1031700060E08AE00E94341361E08AE00E94341328
:1031800061E08BE00E94341361E08CE00E94341314
:1031900061E08DE00E94341360E08FE00E94341300
:1031A00060E08EE00E94341361E080E10E943413FD
:1031B00061E081E10E94341361E082E10E943413F6
:1031C00060E083E10E9434138AB18C6F8AB984B1C4
:1031D000836084B92A9A60E080E00E94BC05109266
:1031E000B10160E081E00E94BC051092B20160E094
:1031F00082E00E94BC051092B30120E041E060E053
:1032000081E00E94A70361E080E10E94341360E046
:1032100081E10E94341361E082E10E94341361E095
:1032200083E10E94341360E072EC81E090E00E9440
:1032300095130BEB802E02E0902E84E393E00E9426
:10324000FA00892BD1F384E393E00E94D800182F71
:10325000FC01FF27E154F109EA33F10508F048C306
:10326000EC5CFF4F0C94FA1CEE24E394823709F0D7
:10327000E12C84E393E00E94FA000597D4F384E301
:1032800093E00E94D8009C878B8784E393E00E94A0
:10329000D8008A8319822B853C8549815A81242B49
:1032A000352B3C872B8784E393E00E94D800F82ECF
:1032B00084E393E00E94D8008C0184E393E00E94B1
:1032C000D8008C831B828B819C81082B192BEB856A
:1032D000FC850E0F1F1F4E2D6B857C858F2D0E9448
:1032E000D805000000000000000000000000000001
:1032F00000000000000000000000000000000000CE
:1033000000000E9485050E942A072B853C852F5FBF
:103310003F4F3C872B8702171307E9F6E9C284E386
:1033200093E00E94FA000397D4F384E393E00E94B1
:10333000D8009C878B8784E393E00E94D8008E831B
:103340001D824B855C858D819E81482B592B5C8726
:103350004B8784E393E00E94D80041E0113609F0E6
:1033600040E06B857C850E94D805C2C284E393E06F
:103370000E94FA000497D4F384E393E00E94D800FB
:103380009C878B8784E393E00E94D8008C0184E3C0
:1033900093E00E94D800012E000C220B330B722FF9
:1033A000612F502F44278C01990F220B330BD8012A
:1033B000992788278A019B01082B192B2A2B3B2B45
:1033C000EB85FC85CF01FF0FAA0BBB0B68017901D0
:1033D000C82AD92AEA2AFB2A84E393E00E94D8006B
:1033E000092E000CAA0BBB0BB82FAA2799278827F8
:1033F0001C012D012C283D284E285F2884E393E0F2
:103400000E945702E0914603F091470380818F7E2E
:103410008083E0914603F09147038081877F80831A
:10342000E0914603F091470380818F778083E0919C
:103430004603F091470380818F7D808380914E0306
:1034400080934D03C201B1010E94951351C284E3E0
:1034500093E00E94FA0018161906CCF784E393E073
:103460000E94D8008B87682F6695617081E10E9469
:103470003413FB85F3FB662760F983E10E94341364
:1034800037C284E393E00E94FA0018161906CCF7BD
:1034900084E393E00E94D8008093BE020BEB12E01D
:1034A00025EB32E03C872B87F80141918F01EB85BA
:1034B000FC8561917191FC87EB878091B4020E9439
:1034C00009062B853C858216930671F711C284E3A9
:1034D00093E00E94FA000A97D4F384E393E00E94F9
:1034E000D8008093B40245EB52E05C874B87FBEB3E
:1034F000EF2EF2E0FF2E84E393E00E94D8008C01CF
:1035000084E393E00E94D80088871F828F8198858A
:10351000082B192BEB85FC8501931193FC87EB8716
:1035200084E393E00E94D800F70181937F012B850B
:103530003C8582169306F9F6DBC184E393E00E9492
:10354000FA0018161906CCF784E393E00E94D8001D
:103550009C01207F33272033310599F49C0143E0FF
:10356000369527954A95E1F72170AC015695479518
:10357000569547954170BC0176956795617081704D
:1035800004C020E041E060E081E00E94A703809158
:10359000B401806390E08EC18EE391E00E948113BC
:1035A00084E390E00E94071483E491E00E94931367
:1035B0008091B401811103C088E391E002C082E3ED
:1035C00091E00E94931389E491E00E94931380910B
:1035D000B3010E942D138091B2010E942D1380919E
:1035E000B1010E942D1380E591E00E949313809118
:1035F000B4020E942D136091B5027091B60280E072
:1036000090E040E10E94EC128EE491E00E9493135E
:103610008091BB020E942D1388E591E00E949313D4
:103620008091B4020E942D136091B7027091B8028C
:1036300080E090E040E10E94EC128EE491E00E9474
:1036400093138091BC020E942D1388E591E00E94A3
:1036500093138091B4020E942D136091B90270916E
:10366000BA0280E090E040E10E94EC1286E591E031
:103670000E94931340EC5FEF5C874B876B857C85E2
:1036800080E00E945E06682F84E393E00E940A02B5
:103690008B859C8501969C878B878C9679F786E530
:1036A00091E015C160E070E080EC0E945E06682F3A
:1036B00084E393E00E940A0244E060E272E280E068
:1036C0000E94090660E070E080EC44C061E080E1A7
:1036D0000E94341360E081E10E94341361E082E1D2
:1036E0000E94341361E083E10E94341349E060E0FA
:1036F00074E280E00E94090660E074E280E00E94CB
:103700005E0648E261E074E280E00E94090644E857
:1037100061E074E280E00E94090646E060E074E245
:1037200080E00E94090649E360E074E280E00E94C4
:10373000090660E074E280E00E945E068A3219F4B5
:103740008BE591E002C08EE591E00E94931360E06A
:1037500074E280E00E945E06682F84E393E00E949A
:103760000A02C6C084E393E00E94FA000497D4F3EF
:1037700084E393E00E94D800082F84E393E00E9442
:10378000D8009C878B8784E393E00E94D800782E32
:10379000612C2B853C85262937293C872B8784E3A0
:1037A00093E00E94D800143759F4000F9C85991FAC
:1037B0009927991F092B4B855C8550685C874B873F
:1037C000482F6B857C85802F0E94090691C084E379
:1037D00093E00E94FA000597D4F384E393E00E94FB
:1037E000D8009C878B8784E393E00E94D8008A8767
:1037F00019868B859C85E985FA858E2B9F2B9C8766
:103800008B8784E393E00E94D800582E84E393E0F2
:103810000E94D8008C0184E393E00E94D800449A6F
:10382000409AB82EA12C0A291B292B853C85020F12
:10383000131FFF24FA943FEFF3121BC082E50E948E
:103840002A0785EBE82E81E0F82E84E393E00E94BE
:10385000FA0018161906CCF784E393E00E94D8000A
:10386000F70181937F01F4EBEF16F2E0FF0669F7B1
:10387000F12CEF2DF0E0EB54FE4F40816B857C8501
:10388000852D0E9409062B853C852F5F3F4F3C8785
:103890002B87F3940217130771F6449A2A9A4098DB
:1038A00085E40E942A0724C08EE391E00E948113E0
:1038B00084E390E00E9407141BC061E081E10E9454
:1038C00034130E949606882329F081E691E00E9435
:1038D00093130EC083E590E00E94071460E883EF25
:1038E0000E94D30660E284EF0E94D3060E949606EF
:1038F0000E940601A2CCE4E3F3E01382128288EE78
:1039000093E0A0E0B0E084839583A683B78322E1AF
:1039100031E03183208325EC30E03587248724ECA7
:1039200030E03787268720EC30E0318B208B21EC8C
:1039300030E0338B228B22EC30E0358B248B26EC6D
:1039400030E0378B268B118E128E138E148EE1EDA4
:10395000F3E01382128284839583A683B78384E283
:1039600091E091838083EDEDF3E085E0DF011D922E
:103970008A95E9F7158216821782108680E6809371
:103980005B0480E498E7ADE7B1E080934A0490934C
:103990004B04A0934C04B0934D0410924704109232
:1039A0004604109249041092480410925A04089553
:1039B000A1E21A2EAA1BBB1BFD010DC0AA1FBB1F33
:1039C000EE1FFF1FA217B307E407F50720F0A21BA5
:1039D000B30BE40BF50B661F771F881F991F1A9412
:1039E00069F760957095809590959B01AC01BD013C
:1039F000CF010895EE0FFF1F0590F491E02D09947B
:103A0000DF93CF931F930F939A9DF02D219FF00D7D
:103A10008B9DF00D8A9DE02DF10D039FF00D029F0F
:103A2000E00DF11D4E9DE00DF11D5E9DF00D4F9DD1
:103A3000F00D7F936F93BF92AF925F934F93D50139
:103A40000E94B31E8B01AC01D7010E94B31EEB0193
:103A5000E80FF91FD6010E94501D2F913F91D6010A
:103A60000E94B31EC60FD71FE81FF91FAF91BF9169
:103A70000E94501D2F913F910E94B31EC60FD71F69
:103A8000E81FF91FD6010E94B31EE60FF71F980129
:103A9000BE01CF0111240F911F91CF91DF910895A5
:103AA0000E94B31E460F571FC81FD91F08F4319636
:103AB0000895E894DF93CF93FC01DB010E94B31ECD
:103AC0007F936F93E9019A01AC01BF93AF933F934A
:103AD0002F93DF010E94B31E26F46C1B7D0B820B1B
:103AE000930B9E01EB01FC010E94501DAF91BF9111
:103AF0002F913F910E94501DBE01CF01F9012F91DE
:103B00003F91CF91DF910895689401C0E894F92F17
:103B1000F12B12F00C94B81DA0E0B0E0E2E9FDE159
:103B20000C942A1E092E059422F40E94141E1123BF
:103B300092F4F0E80F26FFEFE094F09400951095D2
:103B4000B094C094D094A194BF0ACF0ADF0AEF0AC0
:103B5000FF0A0F0B1F0B0E94C31D07FC0E94141EBF
:103B6000CDB7DEB7ECE00C94461E689401C0E89433
:103B70008F929F92CF93DF930E94C31DDF91CF91CD
:103B80009F908F90089588249924F401E401B0E473
:103B90009F93AA279A158B049C04ED05FE05CF057B
:103BA000D007A10798F4AD2FDC2FCF2FFE2FE92DE2
:103BB000982C892E982F872F762F652F542F432FDF
:103BC000322F2227B85031F7BF9127C01B2EBF914B
:103BD000BB27220F331F441F551F661F771F881FE7
:103BE000991F881C991CEE1FFF1FCC1FDD1FAA1FE9
:103BF000BB1F8A149B04EC05FD05CE05DF05A0075D
:103C0000B10748F08A189B08EC09FD09CE09DF09C5
:103C1000A00BB10B21601A94E1F62EF49401AF01D0
:103C2000BE01CD01000C089560957095809590952A
:103C300030954095509521953F4F4F4F5F4F6F4FB7
:103C40007F4F8F4F9F4F08952F923F924F925F92D9
:103C50006F927F928F929F92AF92BF92CF92DF929C
:103C6000EF92FF920F931F93CF93DF93CDB7DEB701
:103C7000CA1BDB0B0FB6F894DEBF0FBECDBF099495
:103C80002A88398848885F846E847D848C849B84EC
:103C9000AA84B984C884DF80EE80FD800C811B81FA
:103CA000AA81B981CE0FD11D0FB6F894DEBF0FBE29
:103CB000CDBFED0108950F93083090F0982F872F16
:103CC000762F652F542F432F322F22270850F4CF01
:103CD000220F331F441F551F661F771F881F991F10
:103CE0000A95B2F70F91089597FB10F81694000803
:103CF0000F93083098F00850232F342F452F562F5C
:103D0000672F782F892F902DF4CF0594979587955D
:103D10007795679557954795379527950A95AAF70B
:103D20000F9108952A0D3B1D4C1D5D1D6E1D7F1DBD
:103D3000801F911F08950024A7FD00942A0F301DB5
:103D4000401D501D601D701D801D901D0895002494
:103D5000A7FD00942A173005400550056005700541
:103D6000800590050895A29FB001B39FC001A39F55
:103D7000700D811D1124911DB29F700D811D1124A4
:103D8000911D08950F931F93CF93DF938230910578
:103D900010F482E090E0E0916604F091670420E086
:103DA00030E0A0E0B0E0309719F14081518102810C
:103DB000138148175907C8F08417950769F41097BD
:103DC00031F012960C93129713961C9327C0009310
:103DD00066041093670422C02115310519F04217BB
:103DE000530718F49A01BD01EF01DF01F801DBCFA1
:103DF00021153105F9F0281B390B2430310580F4E9
:103E00008A819B816115710521F0FB019383828377
:103E100004C09093670480936604FE01329644C008
:103E2000FE01E20FF31F81939193225031093983F0
:103E300028833AC02091640430916504232B41F417
:103E400020910201309103013093650420936404B2
:103E500020910001309101012115310541F42DB768
:103E60003EB74091040150910501241B350BE091B0
:103E70006404F0916504E217F307A0F42E1B3F0BD6
:103E80002817390778F0AC014E5F5F4F24173507CC
:103E900048F04E0F5F1F5093650440936404819374
:103EA000919302C0E0E0F0E0CF01DF91CF911F914C
:103EB0000F910895CF93DF93009709F481C0FC011F
:103EC000329713821282A0916604B0916704109712
:103ED00081F420813181820F931F209164043091FD
:103EE00065042817390751F5F0936504E0936404DD
:103EF00067C0ED0120E030E0CE17DF0740F44A81D3
:103F00005B819E0141155105F1F0EA01F5CFD383A4
:103F1000C28340815181840F951FC817D90759F476
:103F200088819981840F951F0296918380838A816D
:103F30009B81938382832115310529F4F0936704D3
:103F4000E09366043DC0E901FB83EA8349915991FE
:103F5000C40FD51FEC17FD0761F480819181840F98
:103F6000951F0296E90199838883828193819B83BF
:103F70008A83E0E0F0E012968D919C911397009770
:103F800019F0FD01DC01F7CF8D919C9111979D01F6
:103F90002E5F3F4F820F931F209164043091650480
:103FA0002817390769F4309729F4109267041092A2
:103FB000660402C013821282B0936504A093640465
:103FC000DF91CF91089581E090E0F8940C94E81F80
:043FD000F894FFCF93
:103FD4000000680480002C343C444C545C5C0000B9
:103FE40000000A023107C9005702FA00D800EC00A9
:103FF400000000009D017001CD01440168015401DD
:1040040045015B636F6E5D005B6469735D00484BE3
:104014004146002D43494320000A414275733A004A
:104024000A466173683A0A002C09004F4B004E4758
:0A4034000052535420455252000080
:107E0000112484B714BE81FFF0D085E080938100F7
:107E100082E08093C00088E18093C10086E0809377
:107E2000C20080E18093C4008EE0C9D0259A86E02C
:107E300020E33CEF91E0309385002093840096BBD3
:107E4000B09BFECF1D9AA8958150A9F7CC24DD24C4
:107E500088248394B5E0AB2EA1E19A2EF3E0BF2EE7
:107E6000A2D0813461F49FD0082FAFD0023811F036
:107E7000013811F484E001C083E08DD089C08234E0
:107E800011F484E103C0853419F485E0A6D080C0E4
:107E9000853579F488D0E82EFF2485D0082F10E0AE
:107EA000102F00270E291F29000F111F8ED06801E7
:107EB0006FC0863521F484E090D080E0DECF843638
:107EC00009F040C070D06FD0082F6DD080E0C81688
:107ED00080E7D80618F4F601B7BEE895C0E0D1E017
:107EE00062D089930C17E1F7F0E0CF16F0E7DF06D8
:107EF00018F0F601B7BEE89568D007B600FCFDCFD4
:107F0000A601A0E0B1E02C9130E011968C91119780
:107F100090E0982F8827822B932B1296FA010C0160
:107F200087BEE89511244E5F5F4FF1E0A038BF0790
:107F300051F7F601A7BEE89507B600FCFDCF97BE46
:107F4000E89526C08437B1F42ED02DD0F82E2BD052
:107F50003CD0F601EF2C8F010F5F1F4F84911BD097
:107F6000EA94F801C1F70894C11CD11CFA94CF0C13
:107F7000D11C0EC0853739F428D08EE10CD085E9AC
:107F80000AD08FE07ACF813511F488E018D01DD067
:107F900080E101D065CF982F8091C00085FFFCCF94
:107FA0009093C60008958091C00087FFFCCF809118
:107FB000C00084FD01C0A8958091C6000895E0E648
:107FC000F0E098E1908380830895EDDF803219F02E
:107FD00088E0F5DFFFCF84E1DECF1F93182FE3DFCA
:107FE0001150E9F7F2DF1F91089580E0E8DFEE27F6
:047FF000FF270994CA
:027FFE00040479
:0400000300007E007B
:00000001FF
