:100000000C946D010C9495010C9495010C94950140
:100010000C9495010C9495010C9495010C94950108
:100020000C9495010C9495010C9495010C949501F8
:100030000C9495010C9495010C9495010C949501E8
:100040000C94961D0C9495010C9425150C94FF149A
:100050000C9495010C9495010C9495010C949501C8
:100060000C941D160C9495018103E007E007E0074E
:10007000E0078F066B05E007E007E007E007E00711
:10008000E007E007E007E007E0077D02F30545062B
:10009000E007E0071B04E007E007E007E007E007F0
:1000A000E007E007E007E007810379055D03E0076B
:1000B000E007CB063E05E007F906E007E007E007AA
:1000C000E007E007E007E007E0077D027406450669
:1000D000E00722051B04330D490D5F0D750D8B0DD7
:1000E000A10DB70DC60D2F1733173317331733175D
:1000F0003317331733173D163317331733173317A7
:100100003317331733173D16331733173317331796
:10011000331733173317451633173317331733177E
:100120003317331733176B16331733173317331748
:10013000331733173317451633173317331733175E
:100140003317331733177116331733173317331722
:10015000331733173317771633173317331733170C
:100160003317331733178C163317331733173317E7
:10017000331733173317B6163317331733173317AD
:1001800033173317331780163317331733173317D3
:100190003317331733179A163317331733173317A9
:1001A000331733173317B91633173317331733177A
:1001B000331733173317B91633173317331733176A
:1001C000331733173317B91633173317331733175A
:1001D000331733173317B91633173317331733174A
:1001E000331733173317C216331733173317331731
:1001F000331733173317F6163317331733173317ED
:10020000331733173317C216331733173317331710
:10021000331733173317F6163317331733173317CC
:10022000331733173317DA163317331733173317D8
:10023000331733173317FA163317331733173317A8
:10024000331733173317FA16331733173317331798
:100250003317331733170F17331733173317331772
:100260003317331733172917331733173317331748
:100270003317331733172917D51C8F1CDA1C941C1E
:10028000991C9E1CCC1CCC1C0000000025002800E2
:100290002B0000000000240027002A0004040404AE
:1002A0000404040402020202020203030303030320
:1002B00001020408102040800102040810200102FD
:1002C00004081020000000080002010000030407D9
:1002D0000000000000000000391D11241FBECFEFF8
:1002E000D8E0DEBFCDBF11E0A0E0B1E0E8EBF1E483
:1002F00002C005900D92AA35B107D9F723E0AAE50F
:10030000B1E001C01D92A936B207E1F711E0CDE6D8
:10031000D1E004C02197FE010E94021ECC36D10715
:10032000C9F70E9497010C94DA200C940000CF9337
:10033000DF93CDB7DEB762970FB6F894DEBF0FBE7E
:10034000CDBF789484B5826084BD84B5816084BD5E
:1003500085B5826085BD85B5816085BDEEE6F0E03E
:10036000808181608083E1E8F0E01082808182609A
:100370008083808181608083E0E8F0E0808181601B
:100380008083E1EBF0E0808184608083E0EBF0E04B
:10039000808181608083EAE7F0E0808184608083EF
:1003A0008081826080838081816080838081806899
:1003B00080831092C10020E041E060E081E00E9473
:1003C000530E2AE030E0C9019927FC01E055FD4FAA
:1003D0004491FC01E456FD4F8491882399F090E00C
:1003E000880F991FFC01EE56FD4FA591B4918857D7
:1003F0009D4FFC01859194918FB7F8949C91492B66
:100400004C938FBF2F5F3F4F24313105E1F660E001
:100410008AE00E94C61561E08AE00E94C61561E08C
:100420008BE00E94C61561E08CE00E94C61561E079
:100430008DE00E94C61560E08FE00E94C61560E066
:100440008EE00E94C61560E080E10E94C61560E063
:1004500081E10E94C61561E082E10E94C61561E05B
:1004600083E10E94C6158AB18C6F8AB984B183601A
:1004700084B92A9A60E080E00E94AB110AE511E09D
:10048000D8011C9260E081E00E94AB11F80111825A
:1004900060E082E00E94AB11D80112961C9226E027
:1004A00040E052EC61E070E08CE292E00E945D1569
:1004B0000F2EFEE64F2EF1E05F2EF02D380100ECFE
:1004C00010E00F2EF6EC2F2E312CF02D8CE292E066
:1004D0000E94FF12892BD1F38CE292E00E94DD1280
:1004E000982E9927FC01E154F109E733F10508F052
:1004F00067C5EC5CFF4F0C94021E8CE292E00E94F8
:10050000FF120597D4F38CE292E00E94DD127C0189
:100510008CE292E00E94DD1288871F82EF81F885CD
:10052000EE2AFF2A8CE292E00E94DD12B82E8CE2C5
:1005300092E00E94DD126C018CE292E00E94DD12DA
:100540008A87198649855A854C295D294E0D5F1D7C
:100550007B2D770F6B2DE92DE23741F4FF2DFF1F27
:10056000FF27FF1FF72BC701906802C0C701F62FB6
:100570002A9AD3012C91281709F12B982BB12370BB
:100580002BB9DBB09C013327D901AA0FBB1FAA0FDF
:10059000BB1FAD29ABB9A5B1AC7FA5B9A5B1022EE2
:1005A000232F000C221F330B000C221F331F2A2B7A
:1005B00025B9419A41982B9AD3018C93D301119676
:1005C0002C91291721F185B18E7E85B98BB183706D
:1005D0008BB98BB1292F30E0D901AA0FBB1FAA0F0D
:1005E000BB1FA82BABB985B18C7F85B985B1022E15
:1005F000232F000C221F330B000C221F331F282B2C
:1006000025B9419A41982C9AD30111969C93D30114
:1006100012968C918F1721F185B18C7D85B98BB1A4
:1006200083708BB9ABB18F2F90E09C01220F331FE9
:10063000220F331F2A2B2BB925B12C7F25B925B1C9
:10064000082E892F000C881F990B000C881F991FFA
:10065000822B85B9419A41982D9AD3011296FC9329
:1006600042988AB183708AB984B18C7F84B98FB77C
:100670008A83F8942A988A818FBF39B123B1B0E474
:100680002B9FC0011124932F96959695982B2A9A0B
:100690008AB18C6F8AB984B1836084B9429AD801D7
:1006A0008C9185FFFCCFD1019C93BFEFEB1AFB0A25
:1006B000E416F50609F050CF83C48CE292E00E9464
:1006C000FF1218161906CCF78CE292E00E94DD1298
:1006D000F82E682F617080E10E94C615F1FA662736
:1006E00060F981E10E94C615F2FA662760F982E19D
:1006F0000E94C615F3FA662760F983E10E94C615C9
:100700005FC48CE292E00E94FF120397D4F38CE264
:1007100092E00E94DD127C018CE292E00E94DD12E8
:100720008C871B86EB85FC85EE2AFF2A8CE292E003
:100730000E94DD12F1E69F1208C0880F9F2D991FBD
:100740009927991F892B6894F7F82A9AD3019C91CD
:100750009E1501F12B989BB193709BB99BB19701AA
:100760003327A901440F551F440F551F492B4BB97F
:1007700095B19C7F95B995B1022E232F000C221FB5
:10078000330B000C221F331F292B25B9419A4198A6
:100790002B9AEC92F30191819F1511F195B19E7EF8
:1007A00095B99BB193709BB99BB12F2D30E0A901F6
:1007B000440F551F440F551F492B4BB995B19C7FD2
:1007C00095B995B1022E232F000C221F330B000C7C
:1007D000221F331F292B25B9419A41982C9AF18267
:1007E000D30112969C911297981709F4E9C395B119
:1007F0009C7D95B99BB193709BB99BB1282F30E03C
:10080000A901440F551F440F551F492B4BB995B1F2
:100810009C7F95B995B1022E232F000C221F330B1C
:10082000000C221F331F292B25B9419A41982D9A7C
:1008300012968C93C5C38CE292E00E94FF1205973A
:10084000D4F38CE292E00E94DD126C018CE292E023
:100850000E94DD128E871D86ED85FE85CE2ADF2A59
:100860008CE292E00E94DD128D838CE292E00E9485
:10087000DD127C018CE292E00E94DD12449A409AE3
:10088000888B1F868F859889E82AF92A5701AC0C36
:10089000BD1C8D80880C40E1FD801E830D83192DC9
:1008A0009F2C4031C0F00F2EFEE5EF2EF1E0FF2E21
:1008B000F02D8CE292E00E94FF1218161906CCF778
:1008C0008CE292E00E94DD12D7018D937D01A41588
:1008D000B50579F740E0173741F45D2D551F5527D1
:1008E000551F5829C601906802C0C601592D2A9A81
:1008F000F3012081281709F12B982BB123702BB914
:10090000EBB19C013327B901660F771F660F771F84
:100910006E2B6BB965B16C7F65B965B1022E232F63
:10092000000C221F330B000C221F331F262B25B96E
:10093000419A41982B9AD3018C93F3012181291775
:1009400011F185B18E7E85B98BB183708BB98BB176
:10095000292F30E0B901660F771F660F771F682BCC
:100960006BB985B18C7F85B985B1022E232F000C20
:10097000221F330B000C221F331F282B25B9419A4D
:1009800041982C9A9183D30112968C9112978517D6
:1009900019F185B18C7D85B98BB183708BB96BB141
:1009A000852F90E09C01220F331F220F331F262B2F
:1009B0002BB925B12C7F25B925B1082E892F000C24
:1009C000881F990B000C881F991F822B85B9419AAB
:1009D00041982D9A12965C93E42FF0E0E25AFE4F74
:1009E00080819BB193709BB95BB190E09C01220F19
:1009F000331F220F331F252B2BB925B12C7F25B98F
:100A000025B1082E892F000C881F990B000C881F18
:100A1000991F822B85B98FB78983F8942A98898189
:100A20008FBF4498BFEFCB1ADB0A4F5FAC14BD04F5
:100A300019F0449A2A9A35CF0D811E81449A2A9A38
:100A40004098BEC20F2EFCE2EF2EF2E0FF2EF02DFA
:100A5000D701ED91FC910280F381E02D44E050E05C
:100A600066E371E0C7010995D701ED91FC91019012
:100A7000F081E02D63E3C7010995A2C28CE292E008
:100A80000E94FF1218161906CCF78CE292E00E9421
:100A9000DD129C01207F332720333105B1F49C0106
:100AA0003695279536952795369527952170AC0173
:100AB00056954795569547954170BC017695679533
:100AC000617081700E94530E06C020E041E060E03A
:100AD00081E00E94530EE0912C02F0912D02609172
:100AE0005D0160630190F081E02D8CE292E0099558
:100AF00067C28CE292E00E94FF120497D4F38CE26A
:100B000092E00E94DD127C018CE292E00E94DD12F4
:100B10004C018CE292E00E94DD12092C000CAA0824
:100B2000BB08BA2CA92C982C8824092E000CAA0BDF
:100B3000BB0BDC019927882788299929AA29BB2979
:100B40004701FF0CAA08BB086C017D01C828D92801
:100B5000EA28FB288CE292E00E94DD124C01990FFA
:100B6000AA08BB08782D6627552744274601570158
:100B7000842A952AA62AB72A0F2EFCE2EF2EF2E04D
:100B8000FF2EF02DD701ED91FC910680F781E02D2D
:100B9000C7010995D7015296ED91FC915397808139
:100BA0008F7E80835296ED91FC9153978081877F51
:100BB00080835296ED91FC91539780818F7780834B
:100BC0005296ED91FC91539780818F7D80835A9648
:100BD0008C915A9759968C9326E0B501A401C701D0
:100BE0000E945D15EDC161E080E10E94C61560E0E4
:100BF00081E10E94C61561E082E10E94C61561E0B4
:100C000083E10E94C61549E060E074E280E00E9442
:100C1000D01060E074E280E00E94DF1148E261E001
:100C200074E280E00E94D01044E861E074E280E069
:100C30000E94D01046E060E074E280E00E94D01094
:100C400049E360E074E280E00E94D01060E074E26A
:100C500080E00E94DF118A3239F46BE371E08CE2AC
:100C600092E00E94E91406C06EE371E08CE292E02B
:100C70000E94E91460E074E280E00E94DF11682FB6
:100C80008CE292E00E943F139BC18CE292E00E94B2
:100C9000FF120497D4F38CE292E00E94DD12D82E6A
:100CA0008CE292E00E94DD127C018CE292E00E94D4
:100CB000DD128A8B198AE989FA89EE2AFF2A8CE2E9
:100CC00092E00E94DD12F4E79F1208C0DD0C9F2D18
:100CD000991F9927991FD92A6894F7F8482FB701C7
:100CE0008D2D0E94D0106CC160E070E080EC0E94FD
:100CF000DF11682F8CE292E00E94E11444E060E290
:100D000072E280E00E94D01060E070E080EC0E940F
:100D1000DF11682F8CE292E00E94E11451C18CE255
:100D200092E00E94FF120A97D4F38CE292E00E94B4
:100D3000DD12809377010F2EF1E7CF2EF1E0DF2E49
:100D4000F02D0F2EFEE68F2EF1E09F2EF02D0F2EB0
:100D5000F7E7AF2EF1E0BF2EF02D8CE292E00E947B
:100D6000DD127C018CE292E00E94DD128C831B82FA
:100D70008B819C81E82AF92AD601ED92FD926D01C2
:100D80008CE292E00E94DD12F40181934F01CA14BB
:100D9000DB0419F715C18CE292E00E94FF121816CD
:100DA0001906CCF78CE292E00E94DD12809371016B
:100DB0000F2EFEE6CF2EF1E0DF2EF02D0F2EF1E705
:100DC000EF2EF1E0FF2EF02D0F2EF7E7AF2EF1E022
:100DD000BF2EF02DD6014D916D01F70161917191FA
:100DE0007F01809177010E94D010EA14FB0491F7F3
:100DF000E7C00F2EFCE2EF2EF2E0FF2EF02DD70120
:100E0000ED91FC910280F381E02D44E050E066E337
:100E100071E0C7010995D701ED91FC910190F08136
:100E2000E02D63E3C701099561E471E0C7010E9409
:100E3000E91480915D01811103C060E371E002C09B
:100E40006AE271E08CE292E00E94E91467E471E0EA
:100E50008CE292E00E94E914F301428150E060E0EC
:100E600070E020E18CE292E00E948214D30111969E
:100E70004C9150E060E070E020E18CE292E00E9452
:100E80008214F301408150E060E070E020E18CE2E8
:100E900092E00E9482146EE471E08CE292E00E9483
:100EA000E9144091770150E060E070E020E18CE2CD
:100EB00092E00E948214A1E7B1E04D915C9160E064
:100EC00070E020E18CE292E00E9482146CE471E018
:100ED0008CE292E00E94E914EEE6F1E0408150E0FD
:100EE00060E070E020E18CE292E00E94821466E50E
:100EF00071E08CE292E00E94E9144091770150E0A9
:100F000060E070E020E18CE292E00E948214409167
:100F100073015091740160E070E020E18CE292E096
:100F20000E9482146CE471E08CE292E00E94E91469
:100F300040916F0150E060E070E020E18CE292E0CF
:100F40000E94821466E571E08CE292E00E94E9144E
:100F50004091770150E060E070E020E18CE292E0A7
:100F60000E948214409175015091760160E070E01A
:100F700020E18CE292E00E94821464E571E08CE250
:100F800092E00E94E9140F2EF0ECEF2EFF24FA9469
:100F9000F02DB70180E00E94DF11682F8CE292E013
:100FA0000E94E114FFEFEF1AFF0A84EDE8168FEFBD
:100FB000F80679F764E571E08CE292E00E94E914AA
:100FC0000E94B01383CADF92EF92FF920F931F9398
:100FD000CF93DF937C01EB018A01D62E80E1D80EFE
:100FE0006D2DC7010E94E71B0115110511F48F7DBE
:100FF00004C00130110509F48062482F6D2DC7012E
:101000000E945B1CDD27CC0FDD1FCE0DDF1D1A8774
:101010000987DF91CF911F910F91FF90EF90DF90A3
:1010200008950F931F93CF93DF93EC01062F142F96
:1010300063E00E94E71B113051F441E050E002C030
:10104000440F551F0A95E2F74095482308C041E038
:1010500050E002C0440F551F0A95E2F7482B63E0A9
:10106000CE010E945B1CDF91CF911F910F910895DB
:101070002F923F924F925F926F927F928F929F92A8
:10108000AF92BF92CF92DF92EF92FF920F931F9396
:10109000CF93DF93CDB7DEB762970FB6F894DEBF7C
:1010A0000FBECDBF3C01202E312E2D873E874F87AE
:1010B000588B698B7A8B2701EF2829F5FC01E759BA
:1010C000FF4F0190F081E02DEE0FFF1FEE0FFF1F8D
:1010D000E80FF91FEB58FF4F80809180A280B3800A
:1010E0001F92CE0101966C01E02EF12E0D851E851A
:1010F0002F85388949895A8960E070E0C3010E94D0
:10110000A7170F9023C0FC01E559FF4F0190F08114
:10111000E02DEE0FFF1FEE0FFF1FE80FF91FEB583A
:10112000FF4F80809180A280B3801F92FE01319694
:101130006F01E02EF12E0D851E852F853889498996
:101140005A8961E070E00E94A7170F9084E190E057
:101150000E94A81F8C0189859A85AB85BC85F80102
:101160009083818339814A812B8123702283438339
:101170003483072E7CE0B695A795979587957A9549
:10118000D1F7702D807F2D813E819F819F70890FC7
:1011900085833683278341145104C1F4980148E0C4
:1011A0006AE1C3010E94EE1CF301E75AFF4F20825F
:1011B00031828D8582839E8593838F8584839889F0
:1011C0009583898986839A8997831AC04A9445288A
:1011D000B9F4980148E062E2C3010E94EE1CF301F9
:1011E000EF59FF4F208231828D8582839E859383C4
:1011F0008F85848398899583898986839A89978343
:10120000C8010E943D2062960FB6F894DEBF0FBE63
:10121000CDBFDF91CF911F910F91FF90EF90DF90A5
:10122000CF90BF90AF909F908F907F906F905F9086
:101230004F903F902F9008952F923F924F925F9240
:101240006F927F928F929F92AF92BF92CF92DF92D6
:10125000EF92FF920F931F93CF93DF93CDB7DEB73B
:101260006A970FB6F894DEBF0FBECDBF98878F8305
:10127000422E532E642EB52FF62FE72F292CA98648
:101280007B2CCA86DC8AED8AFE8A202F312F442DE2
:10129000552D662D7B2F8F2F9E2FAFEF0E94781F2D
:1012A0002E373A414640510561057105810591058A
:1012B00009F008F47AC409831A834B825C826D8238
:1012C0003B2E9F2EEE83202F312F442D552D662D42
:1012D0007B2F8F2F9E2F2115314C4A415D43654056
:1012E00071058105910569F060F01982E1ECEA83EE
:1012F000FAE1FB832DE32C8385E08D83312C912C47
:101300001E82AFA5B8A9BB27AA0FBB1FAA0FBB1F80
:10131000AA0FBB1FEF81F885AE0FBF1FFD017996A5
:10132000298159962C938A8181839B819283AC81F8
:10133000A383BD81B483358296822E8127838FA5B6
:1013400098A9998F888FFC01EE0FFF1FAF81B88598
:10135000EA0FFB1FE184F284082D122D2985372D19
:101360004A855C896D897E89CD010E94380841E0FB
:101370006FA578A98F8198850E94110829813A81EB
:101380004B815C816D81732D892D9E8120583A415E
:101390004640510961097109810991092F373A4184
:1013A00046405105610571058105910509F0B0F4CC
:1013B00029813A814B815C816D81732D892D9E81BC
:1013C00007E00E94381F29833A834B835C836D8337
:1013D000372E982E9E83E7E0EA8F1BC129813A8140
:1013E0004B815C816D81732D892D9E8135534C40DD
:1013F000510961097109810991092F3F34434C401A
:101400005105610571058105910509F0B0F4298147
:101410003A814B815C816D81732D892D9E8106E01F
:101420000E94381F29833A834B835C836D83372E58
:10143000982E9E8326E02A8FECC029813A814B8129
:101440005C816D81732D892D9E813A5648415109E9
:1014500061097109810991092F3F394648415105B8
:10146000610571058105910509F0B0F429813A8182
:101470004B815C816D81732D892D9E8105E00E94D9
:10148000381F29833A834B835C836D83372E982ED4
:101490009E83B5E0BA8FBDC029813A814B815C81C2
:1014A0006D81732D892D9E81345D40435109610901
:1014B0007109810991092F3F334D40435105610561
:1014C00071058105910509F0B0F429813A814B81BC
:1014D0005C816D81732D892D9E8104E00E94381FEF
:1014E00029833A834B835C836D83372E982E9E83AA
:1014F000F4E0FA8F8EC029813A814B815C816D8145
:10150000732D892D9E81385A41465109610971090F
:10151000810991092F3F374A4146510561057105FF
:101520008105910509F0B0F429813A814B815C81F4
:101530006D81732D892D9E8103E00E94381F2983C0
:101540003A834B835C836D83372E982E9E83B3E062
:10155000BA8F5FC029813A814B815C816D81732D87
:10156000892D9E813055434C5109610971098109CA
:1015700091092F3F3F44434C510561057105810599
:10158000910509F0B0F429813A814B815C816D812C
:10159000732D892D9E8102E00E94381F29833A8392
:1015A0004B835C836D83372E982E9E83F2E0FA8FF7
:1015B00030C029813A814B815C816D81732D892DE9
:1015C0009E81305A4648514061097109810991094B
:1015D0002F3F3F49464851406105710581059105FE
:1015E00009F0B0F429813A814B815C816D81732DC2
:1015F000892D9E8101E00E94381F29833A834B8305
:101600005C836D83372E982E9E83B1E0BA8F01C024
:101610001A8EE981EB87FA81FC872B812D878C81DB
:101620008E879D819F87432C692C5E802E2F3F2FB4
:101630004B81582F692F732D892D952D2115314CF4
:101640004A415D43654071058105910569F060F08F
:101650001B86B1ECBC87EAE1ED87FDE3FE8725E060
:101660002F87412C612C512C2B853C854D855E8527
:101670006F85742D862D952D2F37A0EF3A07AAEF91
:101680004A07A2E05A07610571058105910509F035
:1016900008F4D1C2B1E0BF8B2F3F354D41415E47C9
:1016A000634071058105910509F008F41F8A282D12
:1016B000322D4985572D6A857C898D899E89A0E0C8
:1016C0000E948D1F09F04FC0FF89F1113CC0AB840F
:1016D000BC84CD84DE84EF84F42C062D152D20E00F
:1016E00034E04BE654EF64E170E080E090E00E946B
:1016F000941ED22EE32EF42E052FA5E00E948D1FFE
:1017000061F0A7E00E948D1FC1F40F2EF6E0DF2EDE
:10171000F02DE12CF12C00E010C06894DD24D2F80B
:10172000E12CF12C00E009C06894DD24D3F80F2EE1
:10173000F7E0EF2EF02DF12C00E0D88AE98AFA8A42
:101740000B8B1F8A08C084E090E0A0E0B0E0888B9B
:10175000998BAA8BBB8BC12CD12C7601C39480E0D2
:1017600090E0DC01CAC0AB84BC84CD84DE84EF840D
:10177000F42C062D152D282D322D4985572D6A85DF
:101780007C898D899E890E94941E288B398B4A8B77
:101790005B8B88899989AA89BB890697A105B105C0
:1017A000E8F40F2EF6E0AF2EF02DB12CC12CD12C89
:1017B000E12CF12C00E010E0282D322D4985572D29
:1017C0006A857C898D899E890E94941E2B873C871F
:1017D0004D875E876F87472E682E592E8889998995
:1017E000AA89BB8989309740A105B105F8F06894B2
:1017F000AA24A3F80F2EF7E0BF2EF02DC12CD12C78
:10180000E12CF12C00E010E0282D322D4985572DD8
:101810006A857C898D899E890E94941E2B873C87CE
:101820004D875E876F87472E682E592EAB84BC8408
:10183000CD84DE84EF84F42C062D152D282D322D39
:101840004985572D6A857C898D899E890E94921EC3
:10185000F22FA32FB42F752E6987E72F282E892EFC
:1018600005E00E94381FAF2EBA2ECB2ED72CE9846C
:10187000FE2E022D182D0E94841FA22EB32EC42EE0
:10188000D52EE62EF72E8A87192F06E00E94381FE4
:101890000A850E94841F03E00E94381FAF2EBA2ED3
:1018A000CB2ED72CE984FE2E022D182D0E946F1FFF
:1018B00006E00E94381FAB84BC84CD84DE84EF84B4
:1018C000F42C062D152D0E94941EF22FE32F8F2F3E
:1018D0009E2FA42FB52F0097A105B10529F4C12C87
:1018E000D12C7601C39409C00F2EF0E4CF2EF2E480
:1018F000DF2EFFE0EF2EF12CF02DFF89F13009F4FF
:101900004EC0880F991FAA1FBB1F880F991FAA1FBF
:10191000BB1F880F991FAA1FBB1F880F991FAA1FE3
:10192000BB1F880F991FAA1FBB1F880F991FAA1FD3
:10193000BB1FBC01CD01660F771F881F991F488808
:1019400059886A887B88440C551C661C771C440C9B
:10195000551C661C771C440C551C661C771C440CDB
:10196000551C661C771C440C551C661C771C440CCB
:10197000551C661C771C440C551C661C771C22E009
:10198000521A61087108A70196010E94E01D420EDB
:10199000531E641E751EB62EA72E882E0AC0C12C9B
:1019A000D12C7601C394B12CA12C812C412C512C2B
:1019B00032012224239429813A814B815C816D81FB
:1019C000732D892D9E812F3F354D41415E476340E8
:1019D00071058105910509F008F4212C84E190E05E
:1019E0000E94A81F8C01BFA5B63088F5FC01D082EB
:1019F000C1826B2F660F660F660F645D8F819885BD
:101A00000E94E71B8C7F962D9370892BD80112962C
:101A10008C93129713965C92139714964C92D7015D
:101A2000C601072E7CE0B695A795979587957A9580
:101A3000D1F7702D982F907F882D8F70C82EC90EEA
:101A4000F801C582A6824B2CB78248E001C040E075
:101A5000888D998D8830910508F008C1FC01E55901
:101A6000FF4F0C94021E98016AE28F8198850E94B4
:101A7000EE1C422D6FA578A98F8198850E941E1DAE
:101A8000222D4A8D6FA578A98F8198850E947A1C96
:101A9000EDC0980162E38F8198850E94EE1C422D73
:101AA0006FA578A98F8198850E941E1D222D4A8DD1
:101AB0006FA578A98F8198850E947A1CD7C098015C
:101AC0006AE38F8198850E94EE1C422D6FA578A94C
:101AD0008F8198850E941E1D222D4A8D6FA578A9A1
:101AE0008F8198850E947A1CC1C0980162E48F8121
:101AF00098850E94EE1C422D6FA578A98F8198854C
:101B00000E941E1D222D4A8D6FA578A98F81988570
:101B10000E947A1CABC098016AE48F8198850E946C
:101B2000EE1C422D6FA578A98F8198850E941E1DFD
:101B3000222D4A8D6FA578A98F8198850E947A1CE5
:101B400095C0980162E58F8198850E94EE1C422D18
:101B50006FA578A98F8198850E941E1D222D4A8D20
:101B60006FA578A98F8198850E947A1C7FC0442D2B
:101B70006AE58F8198850E945B1C222D4A8D6FA596
:101B800078A98F8198850E947A1C70C0442D6BE5DE
:101B90008F8198850E945B1C222D4A8D6FA578A9A4
:101BA0008F8198850E947A1C61C0AFA5B8A9BB2718
:101BB000AA0FBB1FAA0FBB1FAA0FBB1FEF81F8857F
:101BC000AE0FBF1FFD01799680E859968C938AE18C
:101BD000818386E0828313821482158216821782A3
:101BE0008FA598A9998F888FFC01EE0FFF1FAF81F9
:101BF000B885EA0FFB1FE184F284082D192D298591
:101C00003B2D4A855C896D897E89CD010E9438080B
:101C100041E06FA578A98F8198850E941108B0E8EE
:101C2000B983EAE1EA83F6E0FB831C821D82312C52
:101C3000912C1E82BDCB282D322D4985572D6A85CA
:101C40007C898D899E89A0E00E948D1F09F46CCD4E
:101C50001F8A20E82B8780EF8C879AEF9D87A2E070
:101C6000AE871F86412C612C512C7DCDC8010E946E
:101C70003D2080E06A960FB6F894DEBF0FBECDBF60
:101C8000DF91CF911F910F91FF90EF90DF90CF9058
:101C9000BF90AF909F908F907F906F905F904F908C
:101CA0003F902F9008954F925F926F927F928F9204
:101CB0009F92AF92BF92CF92DF92EF92FF920F93DB
:101CC0001F93CF93DF93582E662E742E422ECCEBAB
:101CD000D0E005E4088310927D0110927C011092FF
:101CE000790110927A0110927E0111E01093800127
:101CF00010927F0161E082E10E94C61561E083E1FC
:101D00000E94C615E9EBF0E080818E7F80838081A0
:101D10008D7F808388E48093B8000883809153038B
:101D200010937B01809378011092790110927A01CF
:101D300061E089EC92E00E944417811137C160E0B4
:101D400085ED92E00E94E71BE82FF0E0EE0FEF2F09
:101D5000EE1FFF0B319799F342E967EB85ED92E0B7
:101D60000E945B1CC5EDD2E080E498E7ADE7B1E0EE
:101D70008093420390934303A0934403B09345039D
:101D800010924A0310924B0310924C0310924D0391
:101D9000EEE2F3E00081118122813381448155819B
:101DA00066817781E12CF12CCE010E943808E6E3B0
:101DB000F3E0008111812281338144815581668164
:101DC0007781EE24E394F12CCE010E94380840E89C
:101DD00060E1CE010E945B1C40E861E1CE010E94FF
:101DE0005B1C40E862E1CE010E945B1C40E863E1BD
:101DF000CE010E945B1C40E864E1CE010E945B1CA6
:101E000040E865E1CE010E945B1C40E866E1CE013E
:101E10000E945B1C40E867E1CE010E945B1C4CE025
:101E200060E1CE010E945B1C4CE061E1CE010E94AA
:101E30005B1C4CE062E1CE010E945B1C4CE063E164
:101E4000CE010E945B1C4CE064E1CE010E945B1C51
:101E50004CE065E1CE010E945B1C4CE066E1CE01E6
:101E60000E945B1C4CE067E1CE010E945B1CE12CF0
:101E7000F12C00E010E22FE530EA42E150E060E0B2
:101E800070E0CE010E943808EE24E394F12C2FE597
:101E900030EA42E150E060E070E0CE010E94380894
:101EA0001A8619861C861B861E861D86188A1F8622
:101EB0001A8A198A1C8A1B8A81E090E09E8B8D8B7E
:101EC000988F8F8B40E050E060E070E0CE010E9480
:101ED000E30740E050E061E070E0CE010E94E307DC
:101EE00040E050E062E070E0CE010E94E30740E095
:101EF00050E063E070E0CE010E94E30740E050E074
:101F000064E070E0CE010E94E30740E050E065E04D
:101F100070E0CE010E94E30741E050E066E070E02F
:101F2000CE010E94E30741E050E067E070E0CE019F
:101F30000E94E30740E062EACE010E945B1C40E0A1
:101F400063EACE010E945B1C40E064EACE010E947D
:101F50005B1C40E261EBCE010E945B1C40E861EB40
:101F6000CE010E945B1CCEEED2E00F2EF4E5EF2EE8
:101F7000F3E0FF2EF02D00E010E0188219821A82A3
:101F80001B821C821D821E821F82289640E0B8019F
:101F900085ED92E00E941108F70111927F010F5F19
:101FA0001F4F0830110549F781E001C080E08093A0
:101FB0005D0140E261EB85ED92E00E945B1C40E830
:101FC00061EB85ED92E00E945B1C80915D018823AE
:101FD00009F4D3C0E12CF12C00E010E22FE530EA47
:101FE00042E150E060E070E085ED92E00E94380848
:101FF000EE24E394F12C2FE530EA42E150E060E07A
:1020000070E085ED92E00E9438081F921F92812CAB
:102010006894992495F80F2EFFE5AF2EF02D0F2E22
:10202000F0EABF2EF02D0F2EF2E1CF2EF02DD12CA5
:10203000E12CF12C00E617EB23E030E840E050E023
:1020400060E070E085ED92E00E941C090F900F9017
:10205000442091F01F9281E08F9300E816E32EEB6D
:1020600036E240E050E060E070E085ED92E00E94F2
:102070001C090F900F9024C01F9281E08F93812C38
:102080006894992495F80F2EFFE5AF2EF02D0F2EB2
:10209000F0EABF2EF02D0F2EF2E1CF2EF02DD12C35
:1020A000E12CF12C04EC13EF25E535E140E050E0A4
:1020B00060E070E085ED92E00E941C090F900F90A7
:1020C0001F9282E08F93812C6894992495F80F2EAB
:1020D000FFE5AF2EF02D0F2EF0EABF2EF02D0F2EC4
:1020E000F2E1CF2EF02DD12CE12CF12C00E010E804
:1020F0002FE432E140E050E060E070E085ED92E0F6
:102100000E941C09452D60E070E085ED92E00E9480
:102110001108462D61E070E085ED92E00E94110803
:10212000472D62E070E085ED92E00E94110860E1C9
:1021300085ED92E00E94E71B482F406160E185ED4C
:1021400092E00E945B1C61E185ED92E00E94E71B3A
:10215000482F406161E185ED92E00E945B1C62E1E5
:1021600085ED92E00E94E71B482F406162E185ED1A
:1021700092E00E945B1C0F900F901092BC00DF91C8
:10218000CF911F910F91FF90EF90DF90CF90BF9074
:10219000AF909F908F907F906F905F904F90089539
:1021A000CF93DF931F92CDB7DEB72A9A90915A0151
:1021B000961709F12B989BB193709BB99BB19B012A
:1021C0003327F901EE0FFF1FEE0FFF1FE92BEBB9CD
:1021D00095B19C7F95B995B1022E232F000C221F3B
:1021E000330B000C221F331F292B25B9419A41982C
:1021F0002B9A60935A0190915B01971719F195B151
:102200009E7E95B99BB193709BB99BB1272F30E00F
:10221000F901EE0FFF1FEE0FFF1FE92BEBB995B190
:102220009C7F95B995B1022E232F000C221F330BF2
:10223000000C221F331F292B25B9419A41982C9A53
:1022400070935B0190915C01891719F195B19C7DA8
:1022500095B99BB193709BB99BB1282F30E0B90120
:10226000660F771F660F771F692B6BB995B19C7F3F
:1022700095B995B1022E232F000C221F330B000CB1
:10228000221F331F292B25B9419A41982D9A8093FB
:102290005C018BB183708BB92BB150E0CA01880F00
:1022A000991F880F991F822B8BB985B18C7F85B9B7
:1022B00085B1042E452F000C441F550B000C441F04
:1022C000551F482B45B9409A8FB78983F8942A98AF
:1022D00089818FBF429A00000000000000000000CA
:1022E0000000000000004498000000000000000012
:1022F00000000000000000000000000000000000DE
:1023000000000000000000000000000000000000CD
:1023100000000000000000000000000000000000BD
:102320000000000000000000449A000000000000CF
:10233000000000000000000000000000000000009D
:10234000000000000000000000002A9A40980F9052
:10235000DF91CF910895482F85B127EF3FEF042EED
:1023600002C0220F331F0A94E2F7282325B99BB13C
:1023700093709BB98BB170E09B01220F331F220F2A
:10238000331F282B2BB995B19C7F95B985B1062EAB
:10239000672F000C661F770B000C661F771F682BDA
:1023A00065B9419A419855B128E030E0C90102C0B1
:1023B000880F991F4A95E2F7852B85B90895CF9329
:1023C000DF931F92CDB7DEB70000000000000000D1
:1023D00000000000000000000000000000000000FD
:1023E000000000000000000042982A9A90915A01D3
:1023F000961709F12B989BB193709BB99BB19B01E8
:102400003327A901440F551F440F551F492B4BB9C2
:1024100095B19C7F95B995B1022E232F000C221FF8
:10242000330B000C221F331F292B25B9419A4198E9
:102430002B9A60935A0190915B01971719F195B10E
:102440009E7E95B99BB193709BB99BB1272F30E0CD
:10245000A901440F551F440F551F492B4BB995B186
:102460009C7F95B995B1022E232F000C221F330BB0
:10247000000C221F331F292B25B9419A41982C9A11
:1024800070935B0190915C01891719F195B19C7D66
:1024900095B99BB193709BB99BB1282F30E0A901EE
:1024A000440F551F440F551F492B4BB995B19C7FC5
:1024B00095B995B1022E232F000C221F330B000C6F
:1024C000221F331F292B25B9419A41982D9A8093B9
:1024D0005C0100000000000000000000000000009F
:1024E00000000000000000000000000000000000EC
:1024F000000042988AB183708AB984B18C7F84B914
:102500008FB78983F8942A9889818FBF89B123B1C5
:102510002A9A9AB19C6F9AB994B1936094B9429AED
:10252000429A90E4299F9001112486958695822BEA
:102530000F90DF91CF910895CF92DF92EF92FF92AB
:102540000F931F93CF93DF9341155105C1F06A019B
:102550008C01E62EF72EC0E0D0E0D7016D917D0111
:10256000D801ED91FC910190F081E02DC801099511
:10257000892B39F02196CC16DD0679F702C0C0E030
:10258000D0E0CE01DF91CF911F910F91FF90EF909E
:10259000DF90CF900895FC01238D348D231738F000
:1025A0008FE390E0821B9109830F911D0895832F83
:1025B00090E0821B910901970895FC01918D828D15
:1025C000981761F0828DDF01A80FB11D5D968C9187
:1025D000928D9F5F9F73928F90E008958FEF9FEF92
:1025E0000895FC01918D828D981731F0828DE80F4E
:1025F000F11D858D90E008958FEF9FEF0895FC0108
:10260000918D228D892F90E0805C9F4F821B9109D4
:102610008F73992708958CE292E00E94FF1221E0C7
:10262000892B09F420E0822F0895FC01848DDF01BD
:10263000A80FB11DA35ABF4F8C91248D30E02F5F9E
:102640003F4F2F733078332334F421503109206CFD
:102650003F6F2F5F3F4F248FA689B7898C93A08946
:10266000B1898C9180648C93938D848D981306C06E
:102670000288F389E02D80818F7D808308950F93F8
:102680001F93CF93DF93FC0181E0808F938D848D26
:10269000981322C0A089B1898C9185FD2FC01CC0E0
:1026A0000FB607FC08C0E889F989808185FF03C05F
:1026B000CE010E9415139C8D091791F38B8DFE019D
:1026C000E80FF11DE35AFF4F10830B8FEA89FB8956
:1026D0008081806280831BC0238D30E02F5F3F4F5D
:1026E0002F733078332334F421503109206C3F6F3D
:1026F0002F5F3F4F162FEF01022FDDCFA689B7893D
:102700006C930088F189E02D80818064808381E072
:1027100090E0DF91CF911F910F910895CF93DF93B8
:10272000EC01888D81110FC018C00FB607FC0DC0D9
:10273000908195FF0AC0A889B9898C9185FF05C051
:10274000CE010E941513EA89FB89908195FDEDCF9A
:10275000A889B9898C9186FFE8CFDF91CF91089540
:1027600080E090E0892B29F00E940B1381110E94D8
:102770000000089585ED8093BC00ECEBF0E08081D3
:1027800084FDFDCF10927E0108954091E301262F34
:1027900030E0240F311D21323105ECF420917E010F
:1027A0002430D9F4662381F0A82FB92F80E090E07F
:1027B0003091E3012D91FC01EF53FE4FE30FF11D2A
:1027C000208301968617A0F38091E301680F609340
:1027D000E30180E0089581E0089582E0089508957E
:1027E000E0917D0180917C01E81730F4F0E0EF5535
:1027F000FE4F808190E008958FEF9FEF08959091B4
:102800007D0180917C01981750F4E92FF0E0EF559D
:10281000FE4F208130E09F5F90937D0102C02FEF3B
:102820003FEFC901089580917C0190E020917D01E6
:10283000821B91090895CF92DF92EF92FF920F933E
:102840001F93CF93DF938C01CB016A0120917B0111
:102850002223A1F041155105A1F0EB017B01E40E0B
:10286000F51E6991D801ED91FC910190F081E02D68
:10287000C8010995CE15DF05A1F703C0642F0E949A
:10288000C513C601DF91CF911F910F91FF90EF907B
:10289000DF90CF900895CF93DF931F92CDB7DEB72F
:1028A000FC01698390917B019923D9F090917A0181
:1028B000903238F081E090E09383828380E090E072
:1028C00017C080917901E82FF0E0EF57FE4F998112
:1028D00090838F5F8093790180937A0181E090E00B
:1028E00007C061E0CE0101960E94C51381E090E02F
:1028F0000F90DF91CF910895089580E090E00895C2
:102900000E94D5208F929F92AF92BF92EF92FF923A
:102910000F931F93CF93DF93CDB7DEB7A1970FB679
:10292000F894DEBF0FBECDBF7C01CB01BA0119A266
:10293000223008F42AE08E010F5D1F4F822E912C69
:10294000A12CB12CA50194010E94E01DE62F622F5D
:10295000732F842F952F01501109EA3014F4E05D94
:1029600001C0E95CD801EC93611571058105910501
:1029700049F70115110591F0F80101900020E9F7E0
:102980003197AF01401B510BD701ED91FC910280B3
:10299000F381E02DB801C701099502C080E090E005
:1029A000A1960FB6F894DEBF0FBECDBFDF91CF91D9
:1029B0001F910F91FF90EF90BF90AF909F908F90DD
:1029C0000895DC01ED91FC910190F081E02D0995D5
:1029D00008956115710581F0FB0101900020E9F770
:1029E0003197AF01461B570BDC01ED91FC91028042
:1029F000F381E02D0995089580E090E008951F92FD
:102A00000F920FB60F9211242F933F934F935F9322
:102A10006F937F938F939F93AF93BF93EF93FF93A6
:102A20008CE292E00E941513FF91EF91BF91AF915C
:102A30009F918F917F916F915F914F913F912F91D6
:102A40000F900FBE0F901F9018951F920F920FB608
:102A50000F9211242F938F939F93AF93BF93EF9374
:102A6000FF93E0913C02F0913D02808182FD14C011
:102A7000ECE2F2E0A689B7892C91818D8F5F8F738C
:102A8000928D891771F0DF01E18DF0E0E45DFD4F7B
:102A9000258F59968C9305C0E0914202F091430234
:102AA0008081FF91EF91BF91AF919F918F912F9175
:102AB0000F900FBE0F901F901895BF92CF92DF928C
:102AC000EF92FF920F931F93CF93DF93EC016A0174
:102AD0007B01B22EE889F98982E080834115514E4D
:102AE00061057105B1F060E079E08DE390E0A70148
:102AF00096010E94E01D89019A01015011092109E6
:102B000031093695279517950795011580E1180726
:102B1000A8F0E889F989108260E874E88EE190E015
:102B2000A70196010E94E01DDA01C9010197A109E0
:102B3000B109B695A795979587958C01EC85FD858C
:102B40001083EE85FF850083188EEC89FD89B082A5
:102B5000EA89FB89808180618083EA89FB898081A1
:102B600088608083EA89FB89808180688083EA8924
:102B7000FB8980818F7D8083DF91CF911F910F91A1
:102B8000FF90EF90DF90CF90BF90089590E0FC0110
:102B9000EC53FD4F2491FC01E055FD4F3491FC01B5
:102BA000E456FD4F8491882309F446C0222371F135
:102BB000233069F028F42130B1F02230C1F026C072
:102BC0002730C9F02830E9F0243001F506C0E0E8EC
:102BD000F0E090819F77908319C0E0E8F0E0908169
:102BE0009F7D908313C094B59F7794BD0FC094B51B
:102BF0009F7D94BD0BC0E0EBF0E090819F779083C8
:102C000005C0E0EBF0E090819F7D9083E82FF0E03D
:102C1000EE0FFF1FE857FD4FA591B4918FB7F894C1
:102C2000611106C09C91E32FE095E923EC9303C06A
:102C3000EC91E32BEC938FBF08951F920F920FB688
:102C40000F9211242F933F934F935F936F937F9332
:102C50008F939F93AF93BF93EF93FF938091B900AE
:102C6000E82FE87F8E2F90E0893C910508F0FBC0AB
:102C7000FC01ED58FF4F0C94021E80912B028093B3
:102C8000BB0085EC8093BC00EEC090912A0280913D
:102C90002902981780F4E0912A0281E08E0F809338
:102CA0002A02F0E0E75FFD4F80818093BB0085EC56
:102CB0008093BC00D8C080918001882319F00E94C5
:102CC000BA13D1C081E080937F0184EA8093BC0075
:102CD00010927E01C8C080E2809308020E94BA135D
:102CE000C2C080E3809308020E94BA13BCC088E38C
:102CF0008093080285EC8093BC0010927E01B3C0E3
:102D0000E0912A0281E08E0F80932A028091BB001D
:102D1000F0E0E75FFD4F808390912A0280912902C5
:102D2000981720F485EC8093BC009DC085E88093C3
:102D3000BC0099C0E0912A0281E08E0F80932A02A4
:102D40008091BB00F0E0E75FFD4F808380918001C0
:102D5000882319F00E94BA1386C081E080937F0116
:102D600084EA8093BC0010927E017DC00E94BA1359
:102D70007AC083E080937E011092070285EC8093F5
:102D8000BC0071C080910702803280F4E09107029C
:102D900081E08E0F809307028091BB00F0E0E95143
:102DA000FE4F808385EC8093BC005DC085E88093F6
:102DB000BC0059C085EC8093BC0010927E018091CC
:102DC0000702803230F4E0910702F0E0E951FE4F53
:102DD00010826091070270E0E091E501F091E60158
:102DE00087EE91E00995109207023DC085E8809337
:102DF000BC0039C084E080937E011092E4011092FF
:102E0000E301E091E101F091E20109958091E30194
:102E1000811105C081E08093E3011092C101E0912E
:102E2000E40181E08E0F8093E401F0E0EF53FE4F68
:102E300080818093BB009091E4018091E301981719
:102E400020F485EC8093BC000EC085E88093BC0024
:102E50000AC085EC8093BC0010927E0104C01092E1
:102E600008020E94BA13FF91EF91BF91AF919F9119
:102E70008F917F916F915F914F913F912F910F9023
:102E80000FBE0F901F90189520917A014091780104
:102E9000213208F050C080917E018111FCCF92E078
:102EA00090937E01609380019FEF909308021092AF
:102EB0002A0220932902222369F0E1E8F1E0A9E047
:102EC000B2E0215030E02E573E4F91919D93E21792
:102ED000F307D9F710922B0290912B02440F492B44
:102EE00040932B0290917F01913081F410927F01E9
:102EF000ABEBB0E0ECEBF0E090912B029C93908177
:102F000093FDFACF95EC9093BC0003C095EE90939F
:102F1000BC0090917E019230E1F3909108029F3FB6
:102F200079F080910802803241F08091080280336C
:102F300031F084E005C081E003C082E001C083E09D
:102F40001092790110927A0110927B0108952F92CC
:102F50003F924F925F926F927F928F929F92AF9229
:102F6000BF92CF92DF92EF92FF920F931F93CF9376
:102F7000DF93CDB7DEB76A970FB6F894DEBF0FBE0A
:102F8000CDBFE98AFA8A0B8B1C8B2D8B3E8B4F8B26
:102F9000588FDA8EC98E89829A82AB82BC82672B67
:102FA00009F05EC0FC01E759FF4F0190F081E02D70
:102FB000FF27EE0FFF1FEE0FFF1F8E0F9F1FFC015D
:102FC000E359FF4F80819181A281B3811C012D01C2
:102FD000282F332D442D552D60E070E080E090E0E7
:102FE00002E00E94381FA22CB32CC42CD52CE12C5B
:102FF000F12C00E010E00E94841F29873A874B875C
:103000005C87B62FA72FF82FE92F7A2F8F2F9E2FAF
:1030100005E00E94381FA22EB32EC42ED52EE62E18
:10302000F72E082F192F29853A854B855C856B2F44
:103030007A2F8F2F9E2F0E946F1FA22CB32CC42C8F
:10304000D52CE12CF12C00E010E00E946F1F322EF5
:10305000432E542E652E762E79878A87292E5DC0C1
:10306000FC01E559FF4F0190F081E02DFF27EE0FA5
:10307000FF1FEE0FFF1F8E0F9F1FFC01E359FF4F35
:1030800080819181A281B3811C012D01282F332DD4
:10309000442D552D60E070E080E090E002E00E9459
:1030A000381FA22CB32CC42CD52CE12CF12C00E021
:1030B00010E00E94841F29873A874B875C87B62FD0
:1030C000A72FF82FE92F7A2F8F2F9E2F05E00E9430
:1030D000381FA22EB32EC42ED52EE62EF72E082F83
:1030E000192F29853A854B855C856B2F7A2F8F2F79
:1030F0009E2F0E946F1FA22CB32CC42CD52CE12C28
:10310000F12C00E010E00E946F1F322E432E542E4F
:10311000652E762E79878A87292EC980DA80EB8002
:10312000FC80FF0CCC08DC2C760129813A814B8194
:103130005C816C2D7C2D8C2D9C2D0FE10E94381F05
:10314000A12C0F2EFAECBF2EF02D0F2EFAE9CF2E68
:10315000F02D0F2EFBE3DF2EF02DE12CF12C00E003
:1031600010E00E94631EA22EB32EC42ED52EE62E92
:10317000F72E082F192F232D342D452D562D672D71
:1031800079858A85922D0E94081E0FE10E94531FA7
:10319000822E932EA42EB52EA5019401550F220B3D
:1031A000322FA90129833A834B835C83282D392D43
:1031B0004A2D5B2D6981762F862F962FA32CB42C58
:1031C000C52CD62CE72CF9840A85122D0E946F1F7E
:1031D00029873A874B875C876D877E878F87988B97
:1031E00029893A894B895C896D897E898F89988D77
:1031F0002F3F37454744584F6D4071058105910574
:1032000009F060F4198AB8E5BA8BE7E4EB8BF8EFC4
:10321000FC8B2DE02D8B1E8A1F8A188E49885A88B8
:103220006B887C888D889E882F88388C242D352D3E
:10323000462D572D682D792D822D932D2115344043
:103240004B46544F6441710581059105A1F098F0FA
:10325000412C6894552452F80F2EFBE66F2EF02D6A
:103260000F2EF4EF7F2EF02D0F2EF4E18F2EF02D88
:10327000912C212C312CA984BA84CB84DC84ED845C
:10328000FE840F851889242D352D462D572D682D48
:10329000792D822D932D0E94941E298B3A8B4B8B76
:1032A0005C8B322F2A8939832A834B835C83298163
:1032B0003A814B815C812F30310541055105B0F4D5
:1032C0002A2D3B2D4C2D5D2D6E2D7F2D802F912F86
:1032D00004E00E94381F0F850E94841F422E532E47
:1032E000642E752E862E972E282E392E49815A81CE
:1032F0006B817C814B3551056105710570F1298524
:103300003A854B855C856D857E858F85988902E041
:103310000E94381FA984BA84CB84DC84ED84FE84A7
:103320000F8518890E94841FA22EB32EC42ED52E7D
:10333000E62EF72EE82F192F04E00E94381F0E2FDB
:103340000E94841F01E00E94381F422E532E642EDB
:10335000752E862E972E282E392E8FA5882309F4B8
:1033600008C1A984BA84CB84DC84ED84FE840F85F3
:103370001889242D352D462D572D682D792D822D18
:10338000932D0E94921E722E832E942EB52FA62F5F
:10339000F72FE82F592E05E00E94381FA72CB82CD4
:1033A000C92CDB2EEA2EFF2E0E2F152D0E94841F16
:1033B000A22EB32EC42ED52EE62EF72E682E192F50
:1033C00006E00E94381F062D0E94841F03E00E9421
:1033D000381FA72CB82CC92CDB2EEA2EFF2E0E2F5F
:1033E000152D0E946F1F06E00E94381FA984BA8421
:1033F000CB84DC84ED84FE840F8518890E94941EA2
:1034000029873A874B875C87C980DA80EB80FC800C
:10341000CC0CDD1CEE1CFF1CCC0CDD1CEE1CFF1CC0
:10342000CC0CDD1CEE1CFF1CCC0CDD1CEE1CFF1CB0
:10343000CC0CDD1CEE1CFF1CCC0CDD1CEE1CFF1CA0
:10344000CC0CDD1CEE1CFF1C822F932FA42FB52F5C
:10345000880F991FAA1FBB1F880F991FAA1FBB1F88
:10346000880F991FAA1FBB1F880F991FAA1FBB1F78
:10347000880F991FAA1FBB1F880F991FAA1FBB1F68
:10348000BC01CD01660F771F881F991F26013701E8
:1034900052E0551A610871080F2EF0E48F2EF2E405
:1034A0009F2EFFE0AF2EB12CF02DA50194010E94BC
:1034B000E01D89019A01040D151D261D371DA98DDA
:1034C000BA8D0D931D932D933C931397FD01648347
:1034D00075838683978318968D929D92AD92BC9248
:1034E0001B97160127012C2D332D442D552D60E0FF
:1034F00070E080E090E005E00E94381FAC2CB32C17
:10350000C42CD52CE12CF12C00E010E00E94841F8B
:10351000A22EB32EC42ED52EE62EF72EE82F192F6D
:1035200006E00E94381F0E2F0E94841F03E00E94B5
:10353000381FA22CB32CC42CD52CE12CF12C00E08C
:1035400010E00E946F1F06E00E94381FA22EB32ECB
:10355000C42ED52EE62EF72E082F192F29853A8551
:103560004B855C8560E070E080E090E00E946F1F1A
:1035700015C1A984BA84CB84DC84ED84FE840F85D4
:103580001889242D352D462D572D682D792D822D06
:10359000932D0E94921EF22FA32FB42F952E862ECC
:1035A000772E682E592E05E00E94381FAF2EBA2EB6
:1035B000CB2ED92CE82CF72C062D152D0E94841F1C
:1035C000A22EB32EC42ED52EE62EF72EE82F192FBD
:1035D00006E00E94381F0E2F0E94841F03E00E9405
:1035E000381FAF2EBA2ECB2ED92CE82CF72C062D57
:1035F000152D0E946F1F06E00E94381FA984BA840F
:10360000CB84DC84ED84FE840F8518890E94941E8F
:10361000822E932EA42EB52E81149104A104B10400
:1036200029F4412C512C3201439409C00F2EF0E4AF
:103630004F2EF2E45F2EFFE06F2E712CF02DD5019E
:10364000C401880F991FAA1FBB1F880F991FAA1FAB
:10365000BB1F880F991FAA1FBB1F880F991FAA1F86
:10366000BB1F880F991FAA1FBB1F880F991FAA1F76
:10367000BB1FBC01CD01660F771F881F991FC98032
:10368000DA80EB80FC80CC0CDD1CEE1CFF1CCC0C2B
:10369000DD1CEE1CFF1CCC0CDD1CEE1CFF1CCC0C3E
:1036A000DD1CEE1CFF1CCC0CDD1CEE1CFF1CCC0C2E
:1036B000DD1CEE1CFF1CCC0CDD1CEE1CFF1CB2E064
:1036C000DB1AE108F108A30192010E94E01D8901C3
:1036D0009A010C0D1D1D2E1D3F1DE98DFA8D0083D5
:1036E0001183228333836483758386839783408623
:1036F000518662867386A501940160E070E0CB017B
:1037000089823A834B835C836D837E838F83988722
:10371000A984BA84CB84DC84ED84FE840F85188967
:1037200060E070E080E090E00E94081E120123013A
:10373000A22CB32CC42CD52CE12CF12C00E010E0F1
:103740000E94941E222E332E442E552E662E772E46
:10375000882E992EA984BA84CB84DC84ED84FE84DF
:103760000F85188929893A894B895C8960E070E066
:1037700080E090E00E94081EA22EB32EC42ED52E0B
:10378000E62EF72E082F192F222D332D442D552DDF
:10379000662D772D882D992D0E946F1F6A960FB682
:1037A000F894DEBF0FBECDBFDF91CF911F910F9177
:1037B000FF90EF90DF90CF90BF90AF909F908F9051
:1037C0007F906F905F904F903F902F900895CF9390
:1037D000DF93EC01C258DF4F888191E090937B0129
:1037E000809378011092790110927A0189EC92E02D
:1037F0000E944B1461E089EC92E00E94441788819A
:1038000090917E019111FCCF91E090937E011092F6
:1038100080012FEF2093080210922A0210922902B1
:1038200090932B0290912B02880F892B80932B026F
:1038300080917F01813081F410927F01ABEBB0E089
:10384000ECEBF0E080912B028C93808183FDFACF2A
:1038500085EC8093BC0003C085EE8093BC00809112
:103860007E018130E1F380912A02811105C0C0916F
:103870002A02C11102C00CC0C1E029E032E0A1EA75
:10388000B1E0F90181918D938E2F821B8C17D0F3BB
:1038900010927D01C0937C01CC2349F089EC92E029
:1038A0000E94FF1390917D01C913F8CF01C080E001
:1038B000DF91CF910895CF93C42FFC01E258FF4FC1
:1038C000808191E090937B0180937801109279013F
:1038D00010927A0189EC92E00E944B146C2F89ECD3
:1038E00092E00E944B1461E089EC92E00E94441740
:1038F000CF910895AF92BF92DF92EF92FF920F9314
:103900001F93CF93DF938C01EB01F42ED22E6830FE
:103910007105C8F4FB01E45CFE4F0C94021E0F2EEF
:10392000F4E3EF2EF02D4AC00F2EF4E4EF2EF02D2D
:1039300045C00F2EFCE4EF2EF02D40C00F2EF4E515
:10394000EF2EF02D3BC060E00E94E71B482FC630F1
:10395000D1055CF4E12C942F9378D1109C6080E128
:10396000F89EA0011124492B12C0E12CC630D105CC
:1039700029F4942F987F492F4F2909C0279739F4AC
:10398000942F9F7880E1F89EA0011124492B6E2D81
:10399000C8010E945B1C18C06CE50E94E71B482F01
:1039A0000F2EFCE5EF2EF02DE1CF0F2EFCE2EF2ED7
:1039B000F02D04C00F2EFCE3EF2EF02D6E2DC8016C
:1039C0000E94E71B482FC7CFDF91CF911F910F9126
:1039D000FF90EF90DF90BF90AF900895FF920F930C
:1039E0001F93CF93DF93F42E8901FC01E258FF4F20
:1039F000808191E090937B0180937801109279010E
:103A000010927A0189EC92E00E944B14FF2059F049
:103A1000E8010F0D111D699189EC92E00E944B1491
:103A2000C017D107C1F761E089EC92E00E9444170A
:103A3000DF91CF911F910F91FF9008950F931F93E6
:103A4000CF93DF938C01D42FC0E1C60F6C2F0E945F
:103A5000E71BD13019F4482F406402C0482F4F7B38
:103A60006C2FC8010E945B1CDF91CF911F910F91B9
:103A70000895ECE2F2E01382128288EE93E0A0E077
:103A8000B0E084839583A683B7832AE031E0318355
:103A9000208325EC30E03587248724EC30E037871D
:103AA000268720EC30E0318B208B21EC30E0338B0B
:103AB000228B22EC30E0358B248B26EC30E0378BE8
:103AC000268B118E128E138E148EE9ECF2E0138287
:103AD000128284839583A683B7838CE191E09183DE
:103AE0008083E5EDF2E085E0DF011D928A95E9F73C
:103AF000158216821782108680E68093530380E435
:103B000098E7ADE7B1E08093420390934303A0931D
:103B10004403B093450310923F0310923E0310926A
:103B20004103109240031092520308951F920F9286
:103B30000FB60F9211242F933F938F939F93AF93C0
:103B4000BF938091610390916203A0916303B09150
:103B500064033091600323E0230F2D3720F4019696
:103B6000A11DB11D05C026E8230F0296A11DB11DA0
:103B7000209360038093610390936203A093630397
:103B8000B093640380915C0390915D03A0915E0308
:103B9000B0915F030196A11DB11D80935C039093CA
:103BA0005D03A0935E03B0935F03BF91AF919F91BC
:103BB0008F913F912F910F900FBE0F901F901895EE
:103BC000A1E21A2EAA1BBB1BFD010DC0AA1FBB1F21
:103BD000EE1FFF1FA217B307E407F50720F0A21B93
:103BE000B30BE40BF50B661F771F881F991F1A9400
:103BF00069F760957095809590959B01AC01BD012A
:103C0000CF010895EE0FFF1F0590F491E02D099468
:103C1000DF93CF931F930F939A9DF02D219FF00D6B
:103C20008B9DF00D8A9DE02DF10D039FF00D029FFD
:103C3000E00DF11D4E9DE00DF11D5E9DF00D4F9DBF
:103C4000F00D7F936F93BF92AF925F934F93D50127
:103C50000E94991F8B01AC01D7010E94991FEB01B3
:103C6000E80FF91FD6010E94581E2F913F91D601EF
:103C70000E94991FC60FD71FE81FF91FAF91BF9170
:103C80000E94581E2F913F910E94991FC60FD71F67
:103C9000E81FF91FD6010E94991FE60FF71F980130
:103CA000BE01CF0111240F911F91CF91DF91089593
:103CB0000E94991F460F571FC81FD91F08F431963D
:103CC0000895689401C0E894F92FF12B12F00C9438
:103CD000951EA0E0B0E0EFE6FEE10C94071F092E70
:103CE000059422F40E94F11E112392F4F0E80F26AD
:103CF000FFEFE094F09400951095B094C094D094A8
:103D0000A194BF0ACF0ADF0AEF0AFF0A0F0B1F0BAD
:103D10000E94A01E07FC0E94F11ECDB7DEB7ECE0AA
:103D20000C94231F689401C0E8948F929F92CF93C4
:103D3000DF930E94A01EDF91CF919F908F900895F6
:103D400088249924F401E401B0E49F93AA279A15EA
:103D50008B049C04ED05FE05CF05D007A10798F460
:103D6000AD2FDC2FCF2FFE2FE92D982C892E982FE9
:103D7000872F762F652F542F432F322F2227B850AD
:103D800031F7BF9127C01B2EBF91BB27220F331FD6
:103D9000441F551F661F771F881F991F881C991C79
:103DA000EE1FFF1FCC1FDD1FAA1FBB1F8A149B0421
:103DB000EC05FD05CE05DF05A007B10748F08A1820
:103DC0009B08EC09FD09CE09DF09A00BB10B2160AE
:103DD0001A94E1F62EF49401AF01BE01CD01000C5E
:103DE0000895609570958095909530954095509583
:103DF00021953F4F4F4F5F4F6F4F7F4F8F4F9F4FDB
:103E000008952F923F924F925F926F927F928F927E
:103E10009F92AF92BF92CF92DF92EF92FF920F9359
:103E20001F93CF93DF93CDB7DEB7CA1BDB0B0FB663
:103E3000F894DEBF0FBECDBF09942A883988488820
:103E40005F846E847D848C849B84AA84B984C884B6
:103E5000DF80EE80FD800C811B81AA81B981CE0FAD
:103E6000D11D0FB6F894DEBF0FBECDBFED01089592
:103E70000F93083090F0982F872F762F652F542FAF
:103E8000432F322F22270850F4CF220F331F441F15
:103E9000551F661F771F881F991F0A95B2F70F914C
:103EA000089597FB10F8169400080F93083098F0C7
:103EB0000850232F342F452F562F672F782F892F07
:103EC000902DF4CF0594979587957795679557959D
:103ED0004795379527950A95AAF70F9108952A0DCA
:103EE0003B1D4C1D5D1D6E1D7F1D801F911F089584
:103EF0000024A7FD00942A0F301D401D501D601D99
:103F0000701D801D901D08952A193B094C095D09FB
:103F10006E097F09800B910B08950024A7FD009482
:103F20002A1730054005500560057005800590058D
:103F30000895A29FB001B39FC001A39F700D811D82
:103F40001124911DB29F700D811D1124911D0895A2
:103F5000CF93DF938230910510F482E090E0E091FE
:103F60006703F091680320E030E0C0E0D0E03097D4
:103F700011F14081518148175907C0F0481759077E
:103F800061F482819381209719F09B838A832BC0EF
:103F9000909368038093670326C02115310519F0BB
:103FA0004217530718F49A01BE01DF01EF010280A6
:103FB000F381E02DDCCF2115310509F1281B390BE8
:103FC0002430310590F412968D919C9113976115D0
:103FD000710521F0FB019383828304C090936803F1
:103FE00080936703FD01329644C0FD01E20FF31F89
:103FF00081939193225031092D933C933AC02091A3
:10400000650330916603232B41F420910201309126
:1040100003013093660320936503209100013091E2
:1040200001012115310541F42DB73EB7409104013E
:1040300050910501241B350BE0916503F091660357
:10404000E217F307A0F42E1B3F0B2817390778F06F
:10405000AC014E5F5F4F2417350748F04E0F5F1FCE
:1040600050936603409365038193919302C0E0E00F
:10407000F0E0CF01DF91CF9108950F931F93CF937D
:10408000DF93009709F48CC0FC01329713821282EF
:1040900000916703109168030115110581F42081D7
:1040A0003181820F931F2091650330916603281799
:1040B000390779F5F0936603E093650371C0D80181
:1040C00040E050E0AE17BF0750F412962D913C919E
:1040D0001397AD012115310509F1D901F3CF9D01E8
:1040E000DA013383228360817181860F971F8217E3
:1040F000930769F4EC0128813981260F371F2E5F61
:104100003F4F318320838A819B8193838283452B18
:1041100029F4F0936803E093670342C01396FC937D
:10412000EE931297ED01499159919E01240F351F8D
:10413000E217F30771F480819181840F951F029635
:1041400011969C938E938281938113969C938E9368
:104150001297E0E0F0E0D80112968D919C911397B0
:10416000009719F0F8018C01F6CF8D919C91980180
:104170002E5F3F4F820F931F20916503309166039E
:104180002817390769F4309729F4109268031092C0
:10419000670302C0138212821093660300936503C3
:1041A000DF91CF911F910F91089581E090E0F894F5
:0841B0000C94DA20F894FFCF13
:1041B800000069038000000000003F139C12CB122E
:1041C8008E13FF12DD12F112000000004B141B14B5
:1041D8007D14EF131314FF13F0135B636F6E5D0010
:1041E8005B6469735D00484B4146004F4B004E4786
:1041F800002D43494320000A414275733A000A469C
:0A4208006173683A0A002C090000F7
:00000001FF
