:100000000C945D000C9485000C9485000C94850084
:100010000C9485000C9485000C9485000C9485004C
:100020000C9485000C9485000C9485000C9485003C
:100030000C9485000C9485000C9485000C9485002C
:100040000C9432050C9485000C944E080C94800896
:100050000C9485000C9485000C9485000C9485000C
:100060000C9485000C94850000000008000201003B
:100070000003040700000000000000000102040863
:100080001020408001020408102001020408102002
:10009000040404040404040402020202020203032E
:1000A0000303030300000000250028002B000000CC
:1000B0000000240027002A00B00811241FBECFEF43
:1000C000D8E0DEBFCDBF11E0A0E0B1E0E4ECF2E1AA
:1000D00002C005900D92A031B107D9F721E0A0E14F
:1000E000B1E001C01D92A93BB207E1F710E0CAEBF5
:1000F000D0E004C02297FE010E945C09C83BD107F2
:10010000C9F70E9423090C9460090C940000CF9356
:100110008AB18C6F8AB984B1836084B9CAE061E026
:100120008C2F0E944A06CF5FC431C9F761E08AE094
:100130000E94880661E08BE00E94880661E08CE006
:100140000E94880661E08DE00E94880660E08FE0F2
:100150000E94880660E08EE00E94880660E080E1F0
:100160000E94880660E081E10E94880661E082E1E9
:100170000E94880661E083E10E9488068091100158
:10018000882381F02B988BB183708BB98BB18BB99D
:1001900085B18C7F85B985B185B9419A41982B9AF3
:1001A0001092100180911101882391F085B18E7E0B
:1001B00085B98BB183708BB98BB18BB985B18C7FCD
:1001C00085B985B185B9419A41982C9A109211014F
:1001D00080911201882391F085B18C7D85B98BB116
:1001E00083708BB98BB18BB985B18C7F85B985B1A3
:1001F00085B9419A41982D9A1092120126E040E269
:1002000051EA67E070E08CE191E0CF910C94E60751
:100210004F925F926F927F928F929F92AF92BF9216
:10022000CF92DF92EF92FF920F931F93CF93DF93C2
:10023000EC0106C061E070E080E090E00E947C0587
:100240008CE191E00E94DC060797A4F38CE191E039
:100250000E94F5064C01AA2497FCA094BA2C8CE1CC
:1002600091E00E94F5066C018CE191E00E94F50698
:10027000EE24D7FCE094FE2CFE2CED2CDC2CCC24C0
:10028000AA2797FDA095BA2FDC0199278827C80EC9
:10029000D91EEA1EFB1EC80CD91CEA1CFB1C8CE1F3
:1002A00091E00E94F5064C01AA2497FCA094BA2C78
:1002B0008CE191E00E94F5068C018CE191E00E94B6
:1002C000F5062801662457FC6094762C762C652C64
:1002D000542C4424AA2797FDA095BA2FDC01992716
:1002E0008827480E591E6A1E7B1E480C591C6A1C22
:1002F0007B1C8AB18C6F8AB984B1836084B961E058
:100300008EE00E9488064C0C5D1C6E1C7F1CC41481
:10031000D504E604F70408F0CAC08CE191E00E941D
:10032000DC06892B09F4D8C02A9A209709F4DBC08F
:10033000D701C6014FE0B695A795979587954A9541
:10034000D1F7DC0199278827B701A6015F776627D7
:10035000772750586F4F7F4F480F591F6A1F7B1FD9
:1003600080911001841709F12B988BB183708BB9A0
:10037000EBB1842F90E09C01220F331F220F331F1B
:10038000E22BEBB925B12C7F25B925B1082E892F99
:10039000000C881F990B000C881F991F282B25B96A
:1003A000419A41982B9A40931001852E962EA72EA4
:1003B000BB2480911101881519F185B18E7E85B914
:1003C0008BB183708BB9EBB1882D90E09C01220F2B
:1003D000331F220F331FE22BEBB925B12C7F25B938
:1003E00025B1082E892F000C881F990B000C881F3F
:1003F000991F282B25B9419A41982C9A8092110176
:10040000AB016627772780911201841719F185B116
:100410008C7D85B98BB183708BB9EBB1842F90E063
:100420009C01220F331F220F331FE22BEBB925B1A2
:100430002C7F25B925B1082E892F000C881F990B18
:10044000000C881F991F282B25B9419A41982D9A95
:100450004093120160E08AE00E9488068CE191E0FE
:100460000E94F5062BB123702BB94BB199279C0143
:10047000220F331F220F331F422B4BB925B12C7F84
:1004800025B925B1082E892F000C881F990B000C67
:10049000881F991F282B25B98FEFC81AD80AE80A98
:1004A000F80AC414D504E604F70408F436CF2A9AEF
:1004B00060E08EE0DF91CF911F910F91FF90EF9060
:1004C000DF90CF90BF90AF909F908F907F906F9074
:1004D0005F904F900C94880661E070E080E090E0BF
:1004E0000E947C0514CFB701A6013ACF4F925F92CC
:1004F0006F927F928F929F92AF92BF92CF92DF9234
:10050000EF92FF92CF93DF938CE191E00E94DC06A3
:1005100002970CF406C28CE191E00E94F506C82F08
:100520008F7D823539F1C53609F40AC2C33609F424
:1005300060C2813409F448C1C73509F490C2C73795
:1005400009F0EFC181E090E0DF91CF91FF90EF9053
:10055000DF90CF90BF90AF909F908F907F906F90E3
:100560005F904F900C94080161E070E080E090E0B3
:100570000E947C058CE191E00E94DC060697A4F3C2
:100580008CE191E00E94F5064C01AA2497FCA0940E
:10059000BA2C8CE191E00E94F5066C018CE191E0AF
:1005A0000E94F506EE24D7FCE094FE2CFE2CED2CE8
:1005B000DC2CCC24AA2797FDA095BA2FDC01992723
:1005C0008827C80ED91EEA1EFB1EC80CD91CEA1CBF
:1005D000FB1C8CE191E00E94F5062C01662457FC7F
:1005E0006094762C8CE191E00E94F5064C018CE140
:1005F00091E00E94F506AA2497FCA094BA2CBA2C8C
:10060000A92C982C8824AA2797FDA095BA2FDC0145
:1006100099278827880E991EAA1EBB1E840C951C3C
:10062000A61CB71C8C0C9D1CAE1CBF1CC814D90486
:10063000EA04FB0408F4BCC074C1B701A601FFE0E2
:100640007695679557954795FA95D1F7BA0155274D
:100650004427D701C6019F77AA27BB279058AF4FE1
:10066000BF4F840F951FA61FB71F20911001281799
:1006700009F12B982BB123702BB96BB1282F30E0E7
:10068000A901440F551F440F551F642B6BB945B189
:100690004C7F45B945B1022E232F000C221F330B8E
:1006A000000C221F331F422B45B9419A41982B9AC7
:1006B00080931001492E5A2E6B2E77242091110120
:1006C000241519F125B12E7E25B92BB123702BB934
:1006D0006BB1242D30E0A901440F551F440F551F65
:1006E000642B6BB945B14C7F45B945B1022E232F20
:1006F000000C221F330B000C221F331F422B45B965
:10070000419A41982C9A40921101CD01AA27BB270A
:1007100020911201281719F125B12C7D25B92BB193
:1007200023702BB96BB1282F30E0A901440F551F5E
:10073000440F551F642B6BB945B14C7F45B945B18A
:10074000022E232F000C221F330B000C221F331FFD
:10075000422B45B9419A41982D9A809312018AB152
:1007600083708AB984B18C7F84B960E08AE00E948A
:10077000880669B183B12A9A9AB19C6F9AB994B1EB
:10078000936094B920E4829FC00111246695669518
:10079000682B8CE191E00E9409078FEFC81AD80AF4
:1007A000E80AF80AC814D904EA04FB0408F0B9C03E
:1007B000C23709F442CFD701C60157CF61E070E0DC
:1007C00080E090E00E947C058CE191E00E94DC06D4
:1007D0000397A4F3C13609F4CAC08CE191E00E94EA
:1007E000F5066C01EE24D7FCE094FE2C8CE191E040
:1007F0000E94F506EC018CE191E00E94F506AE0145
:10080000662757FD6095762F762F652F542F442746
:10081000AA2797FDA095BA2FDC0199278827480FB2
:10082000591F6A1F7B1F4C0D5D1D6E1D7F1D809122
:100830001001841709F12B988BB183708BB9EBB140
:10084000842F90E09C01220F331F220F331FE22BD5
:10085000EBB925B12C7F25B925B1082E892F000CC5
:10086000881F990B000C881F991F282B25B9419AC6
:1008700041982B9A40931001BB27A72F962F852FC5
:1008800020911101281719F125B12E7E25B92BB120
:1008900023702BB9CBB1282F30E0F901EE0FFF1FE9
:1008A000EE0FFF1FCE2BCBB9E5B1EC7FE5B9E5B17B
:1008B000022E232F000C221F330B000C221F331F8C
:1008C000E22BE5B9419A41982C9A80931101AB0132
:1008D0006627772780911201841719F185B18C7DE5
:1008E00085B98BB183708BB9EBB1842F90E09C01FB
:1008F000220F331F220F331FE22BEBB925B12C7FC0
:1009000025B925B1082E892F000C881F990B000CE2
:10091000881F991F282B25B9419A41982D9A4093F9
:100920001201DF91CF91FF90EF90DF90CF90BF90B9
:10093000AF909F908F907F906F905F904F900895B1
:100940008CE191E00E94DC0618161906CCF78CE1C8
:1009500091E00E94F506E0911C01F0911D010190CB
:10096000F081E02D682F8CE191E00995E9CF8CE1D1
:1009700091E00E94F5066C01EE24D7FCE094FE2C79
:100980008CE191E00E94F5065C018CE191E00E940F
:10099000F506AC01662757FD6095762FBA015527FD
:1009A0004427C501AA2797FDA095BA2FBA2FA92FD2
:1009B000982F8827480F591F6A1F7B1F4C0D5D1DFC
:1009C0006E1D7F1DDB01CA013FE0B695A795979587
:1009D00087953A95D1F7DC01992788275F776627B5
:1009E000772750586F4F7F4F480F591F6A1F7B1F43
:1009F0001ECF8CE191E00E94F506EC01682F61703A
:100A000080E10E948806CE0196958795682F6170D7
:100A100081E10E948806CE019695879596958795E7
:100A2000682F617082E10E948806CE0196958795B5
:100A30009695879596958795682F617083E1DF91EC
:100A4000CF91FF90EF90DF90CF90BF90AF909F90AD
:100A50008F907F906F905F904F900C94880680E00D
:100A600090E072CD1F920F920FB60F9211242F9328
:100A70003F938F939F93AF93BF9380911401909175
:100A80001501A0911601B09117013091130123E0D7
:100A9000230F2D3768F126E8230F0296A11DB11D03
:100AA000209313018093140190931501A0931601D4
:100AB000B09317018091180190911901A0911A012A
:100AC000B0911B010196A11DB11D80931801909357
:100AD0001901A0931A01B0931B01BF91AF919F918F
:100AE0008F913F912F910F900FBE0F901F901895EF
:100AF0000196A11DB11DD4CF8F929F92AF92BF924C
:100B0000CF92DF92EF92FF92CF93DF9300D000D08D
:100B1000CDB7DEB73FB7F894C0901801D090190157
:100B2000E0901A01F0901B0126B5A89B07C02F3F4B
:100B300029F04FEFC41AD40AE40AF40A3FBFFE2C8E
:100B4000ED2CDC2CCC24C20ED11CE11CF11CCC0CF5
:100B5000DD1CEE1CFF1CCC0CDD1CEE1CFF1C61150B
:100B600071058105910509F44BC069837A838B83F4
:100B70009C830E94370969817A818B819C813FB770
:100B8000F8948090180190901901A0901A01B090EB
:100B90001B0126B5A89B07C02F3F29F0FFEF8F1A36
:100BA0009F0AAF0ABF0A3FBFBA2CA92C982C8824F1
:100BB000820E911CA11CB11C880C991CAA1CBB1C88
:100BC000880C991CAA1CBB1C8C189D08AE08BF0879
:100BD00028EE821623E09206A104B10408F4BFCFE8
:100BE0006150710981099109E8EECE0EE3E0DE1E45
:100BF000E11CF11C611571058105910509F0BFCF5C
:100C00000F900F900F900F90DF91CF91FF90EF908A
:100C1000DF90CF90BF90AF909F908F900895789481
:100C200084B5826084BD84B5816084BD85B58260F1
:100C300085BD85B5816085BDEEE6F0E0808181608F
:100C40008083E1E8F0E0108280818260808380818F
:100C500081608083E0E8F0E0808181608083E1EB67
:100C6000F0E0808184608083E0EBF0E0808181604F
:100C70008083EAE7F0E08081846080838081826005
:100C800080838081816080838081806880831092EE
:100C9000C1000895CF93DF9390E0FC01E458FF4F2B
:100CA0002491FC01E057FF4F84918823B9F090E034
:100CB000880F991FFC01E255FF4FA591B4918C5507
:100CC0009F4FFC01C591D4919FB7662351F06230CC
:100CD000A1F0F8948C91822B8C939FBFDF91CF91E0
:100CE0000895F8948C91209582238C938881822397
:100CF00088839FBFDF91CF910895F8948C91322F14
:100D0000309583238C938881822B88839FBFE6CF85
:100D100090E0FC01E859FF4F2491FC01E458FF4F9B
:100D20003491FC01E057FF4F8491882399F0211101
:100D300016C0E82FF0E0EE0FFF1FEC55FF4FA59116
:100D4000B4918FB7F8949C91611105C030959323AD
:100D50009C938FBF0895932B9C938FBFFBCF233021
:100D600029F160F02730E1F02830A1F0243009F7B4
:100D7000909180009F7D90938000DBCF213031F0F7
:100D80002230B9F694B59F7D94BDD3CF94B59F77AB
:100D900094BDCFCF9091B0009F7D9093B000C9CF0C
:100DA0009091B0009F779093B000C3CF9091800056
:100DB0009F7790938000BDCFFC01818D228D90E0C4
:100DC000805C9F4F821B91098F7399270895FC01C6
:100DD000918D828D981731F0828DE80FF11D858DF0
:100DE00090E008958FEF9FEF0895FC01918D828D23
:100DF000981761F0828DDF01A80FB11D5D968C916F
:100E0000928D9F5F9F73928F90E008958FEF9FEF79
:100E10000895FC0181E0808F938D848D981709F4EB
:100E200043C0838D90E001968F739927482F03C0AC
:100E30000FB607FE14C0248D4217D1F3938DDF0146
:100E4000A90FB11DA35ABF4F6C93838F0288F389FA
:100E5000E02D80818062808381E090E00895A08908
:100E6000B1892C9125FFE7CF248DDF01A20FB11DA1
:100E7000A35ABF4F5C91248D30E02F5F3F4F2F73FB
:100E80003327248FA689B7895C93A089B1892C91D7
:100E900020642C93338D248D3213CDCFA289B38956
:100EA0002C912F7D2C93C7CFA089B1898C9185FF80
:100EB000B8CFA689B7896C930088F189E02D80812D
:100EC0008064808381E090E00895CF93DF93DC011C
:100ED00058968C915897882309F446C05296ED9104
:100EE000FC9153975096CD91DC915197808185FF6D
:100EF00038C00FB607FCFACF808185FFF7CF888115
:100F000085FFF4CF5C968C915C97FD01E80FF11D95
:100F1000E35AFF4F20815C968C915C9790E001969C
:100F20008F7399275C968C935C975696ED91FC9104
:100F3000579720835096ED91FC9151978081806462
:100F400080835B969C915B975C968C915C979813E1
:100F5000C5CF5296ED91FC91539780818F7D808310
:100F6000BDCF888186FFC5CFDF91CF91089586EAF6
:100F700098E0892B49F080E090E0892B29F00E94CD
:100F8000A60881110C9400000895FC01848DDF01F6
:100F9000A80FB11DA35ABF4F2C91848D90E00196EC
:100FA0008F739927848FA689B7892C93A089B189DB
:100FB0008C9180648C93938D848D9813089502880E
:100FC000F389E02D80818F7D80830895BF92CF9239
:100FD000DF92EF92FF920F931F93CF93DF93EC0179
:100FE0006A017B01B22EE889F98982E0808341158C
:100FF00081EE580761057105A9F060E079E08DE3A5
:1010000090E0A70196010E94380921503109410959
:10101000510956954795379527958901211580E106
:101020003807A0F0E889F989108260E874E88EE159
:1010300090E0A70196010E94380921503109410929
:10104000510956954795379527958901EC85FD857A
:101050001083EE85FF850083188EEC89FD89B082B0
:10106000EA89FB89808180618083EA89FB898081AC
:1010700088608083EA89FB89808180688083EA892F
:10108000FB8980818F7D8083DF91CF911F910F91AC
:10109000FF90EF90DF90CF90BF9008951F920F9236
:1010A0000FB60F9211242F938F939F93EF93FF937B
:1010B000E0912C01F0912D018081E0913201F091BD
:1010C000330182FD1BC02081809135018F5F8F73BA
:1010D00090913601891741F0E0913501F0E0E45E2E
:1010E000FE4F258F80933501FF91EF919F918F9156
:1010F0002F910F900FBE0F901F9018958081F4CF05
:101100001F920F920FB60F9211242F933F934F937C
:101110005F936F937F938F939F93AF93BF93EF935F
:10112000FF938CE191E00E94C507FF91EF91BF9181
:10113000AF919F918F917F916F915F914F913F916F
:101140002F910F900FBE0F901F9018958CE191E09A
:101150000E94DC0621E0892B09F420E0822F08950B
:1011600010921F0110921E0188EE93E0A0E0B0E003
:101170008093200190932101A0932201B093230139
:1011800084E091E090931D0180931C0185EC90E038
:10119000909329018093280184EC90E090932B0197
:1011A00080932A0180EC90E090932D0180932C0194
:1011B00081EC90E090932F0180932E0182EC90E0DF
:1011C000909331018093300186EC90E0909333014D
:1011D000809332011092350110923601109237013E
:1011E000109238010895CF92DF92EF92FF920F9301
:1011F0001F93CF93DF937C016A0141155105F9F0EC
:101200008B01C0E0D0E004C02196CC16DD0669F069
:10121000D8016D918D01D701ED91FC910190F08184
:10122000E02DC7010995892B79F7CE01DF91CF9188
:101230001F910F91FF90EF90DF90CF900895C0E045
:10124000D0E0F3CF08950E940F060E9422090E9469
:10125000870087EB97E0892B29F00E9476020E9495
:10126000B707FBCF0E9476020E947602FBCF08955B
:10127000A1E21A2EAA1BBB1BFD010DC0AA1FBB1F9A
:10128000EE1FFF1FA217B307E407F50720F0A21B0C
:10129000B30BE40BF50B661F771F881F991F1A9479
:1012A00069F760957095809590959B01AC01BD01A3
:1012B000CF010895EE0FFF1F0590F491E02D0994E2
:0412C000F894FFCFD0
:1012C400000000000907F308DC06F506E7066507D9
:107E0000112484B714BE81FFF0D085E080938100F7
:107E100082E08093C00088E18093C10086E0809377
:107E2000C20080E18093C4008EE0C9D0259A86E02C
:107E300020E33CEF91E0309385002093840096BBD3
:107E4000B09BFECF1D9AA8958150A9F7CC24DD24C4
:107E500088248394B5E0AB2EA1E19A2EF3E0BF2EE7
:107E6000A2D0813461F49FD0082FAFD0023811F036
:107E7000013811F484E001C083E08DD089C08234E0
:107E800011F484E103C0853419F485E0A6D080C0E4
:107E9000853579F488D0E82EFF2485D0082F10E0AE
:107EA000102F00270E291F29000F111F8ED06801E7
:107EB0006FC0863521F484E090D080E0DECF843638
:107EC00009F040C070D06FD0082F6DD080E0C81688
:107ED00080E7D80618F4F601B7BEE895C0E0D1E017
:107EE00062D089930C17E1F7F0E0CF16F0E7DF06D8
:107EF00018F0F601B7BEE89568D007B600FCFDCFD4
:107F0000A601A0E0B1E02C9130E011968C91119780
:107F100090E0982F8827822B932B1296FA010C0160
:107F200087BEE89511244E5F5F4FF1E0A038BF0790
:107F300051F7F601A7BEE89507B600FCFDCF97BE46
:107F4000E89526C08437B1F42ED02DD0F82E2BD052
:107F50003CD0F601EF2C8F010F5F1F4F84911BD097
:107F6000EA94F801C1F70894C11CD11CFA94CF0C13
:107F7000D11C0EC0853739F428D08EE10CD085E9AC
:107F80000AD08FE07ACF813511F488E018D01DD067
:107F900080E101D065CF982F8091C00085FFFCCF94
:107FA0009093C60008958091C00087FFFCCF809118
:107FB000C00084FD01C0A8958091C6000895E0E648
:107FC000F0E098E1908380830895EDDF803219F02E
:107FD00088E0F5DFFFCF84E1DECF1F93182FE3DFCA
:107FE0001150E9F7F2DF1F91089580E0E8DFEE27F6
:047FF000FF270994CA
:027FFE00040479
:0400000300007E007B
:00000001FF
