:100000000C946D010C9495010C9495010C94950140
:100010000C9495010C9495010C9495010C94950108
:100020000C9495010C9495010C9495010C949501F8
:100030000C9495010C9495010C9495010C949501E8
:100040000C94F81C0C9495010C9459140C943314D2
:100050000C9495010C9495010C9495010C949501C8
:100060000C9451150C94950168034207420742070E
:100070004207C504290542074207420742074207D3
:1000800042074207420742074207870239068B06AA
:1000900042074207BA0642074207420742074207A1
:1000A00042074207420742076803020478044207F6
:1000B00042079C04FC0442073705420742074207F7
:1000C0004207420742074207420787021E068B0685
:1000D00042072707BA06670C7D0C930CA90CBF0CCE
:1000E000D50CEB0CFA0C63166716671667166716C5
:1000F000671667166716711567166716671667160F
:1001000067166716671671156716671667166716FE
:1001100067166716671679156716671667166716E6
:100120006716671667169F156716671667166716B0
:1001300067166716671679156716671667166716C6
:10014000671667166716A51567166716671667168A
:10015000671667166716AB15671667166716671674
:10016000671667166716C01567166716671667164F
:10017000671667166716EA15671667166716671615
:10018000671667166716B41567166716671667163B
:10019000671667166716CE15671667166716671611
:1001A000671667166716ED156716671667166716E2
:1001B000671667166716ED156716671667166716D2
:1001C000671667166716ED156716671667166716C2
:1001D000671667166716ED156716671667166716B2
:1001E000671667166716F615671667166716671699
:1001F0006716671667162A16671667166716671654
:10020000671667166716F615671667166716671678
:100210006716671667162A16671667166716671633
:100220006716671667160E1667166716671667163F
:100230006716671667162E1667166716671667160F
:100240006716671667162E166716671667166716FF
:1002500067166716671643166716671667166716DA
:100260006716671667165D166716671667166716B0
:100270006716671667165D16091CC31B0E1CC81B84
:10028000CD1BD21B001C001C000000002500280014
:100290002B0000000000240027002A0004040404AE
:1002A0000404040402020202020203030303030320
:1002B00001020408102040800102040810200102FD
:1002C00004081020000000080002010000030407D9
:1002D00000000000000000009B1C11241FBECFEF97
:1002E000D8E0DEBFCDBF11E0A0E0B1E0ECE7F0E484
:1002F00002C005900D92AA35B107D9F724E0AAE50E
:10030000B1E001C01D92A835B207E1F711E0CDE6DA
:10031000D1E004C02197FE010E94641DCC36D107B4
:10032000C9F70E9497010C943C200C940000CF93D5
:10033000DF93CDB7DEB761970FB6F894DEBF0FBE7F
:10034000CDBF789484B5826084BD84B5816084BD5E
:1003500085B5826085BD85B5816085BDEEE6F0E03E
:10036000808181608083E1E8F0E01082808182609A
:100370008083808181608083E0E8F0E0808181601B
:100380008083E1EBF0E0808184608083E0EBF0E04B
:10039000808181608083EAE7F0E0808184608083EF
:1003A0008081826080838081816080838081806899
:1003B00080831092C10020E041E060E081E00E9473
:1003C000870D2AE030E0C9019927FC01E055FD4F77
:1003D0004491FC01E456FD4F8491882399F090E00C
:1003E000880F991FFC01EE56FD4FA591B4918857D7
:1003F0009D4FFC01859194918FB7F8949C91492B66
:100400004C938FBF2F5F3F4F24313105E1F660E001
:100410008AE00E94FA1461E08AE00E94FA1461E026
:100420008BE00E94FA1461E08CE00E94FA1461E013
:100430008DE00E94FA1460E08FE00E94FA1460E000
:100440008EE00E94FA1460E080E10E94FA1460E0FD
:1004500081E10E94FA1461E082E10E94FA1461E0F5
:1004600083E10E94FA148AB18C6F8AB984B18360E7
:1004700084B92A9A60E080E00E94DF100AE511E06A
:10048000D8011C9260E081E00E94DF10F801118227
:1004900060E082E00E94DF10D80112961C9226E0F4
:1004A00040E052EC61E070E08BE193E00E94911437
:1004B0000F2EFEE54F2EF2E05F2EF02D0F2EF0EC0A
:1004C000CF2ED12CF02D0F2EF6EC2F2E312CF02D1F
:1004D0000DE512E00F2EFAE56F2EF1E07F2EF02DE4
:1004E0008BE193E00E943312892BD1F38BE193E0EF
:1004F0000E941112982E9927FC01E154F109E7336B
:10050000F10508F0BFC4EC5CFF4F0C94641D8BE157
:1005100093E00E9433120597D4F38BE193E00E949D
:1005200011127C018BE193E00E9411128D831C82D9
:10053000EC81FD81EE2AFF2A8BE193E00E941112EB
:10054000882E8BE193E00E9411125C018BE193E015
:100550000E9411128F831E826E817F816A297B29FE
:100560006E0D7F1D582D550FE92DF52F982CE23774
:1005700049F4BF2DBB1FBB27BB1FAB2EAF2AC70142
:10058000906802C0C701A92C2A9AD3012C91281780
:1005900001F12B982BB123702BB9BBB09C013327F1
:1005A000A901440F551F440F551F4B294BB945B1A5
:1005B0004C7F45B945B1022E232F000C221F330B6F
:1005C000000C221F331F242B25B9419A41982B9AE6
:1005D0008C93D30111962C911197291719F185B19C
:1005E0008E7E85B98BB183708BB98BB1292F30E0AA
:1005F000A901440F551F440F551F482B4BB985B116
:100600008C7F85B985B1022E232F000C221F330B5E
:10061000000C221F331F282B25B9419A41982C9A90
:1006200011969C93D30112968C9112978A1519F109
:1006300085B18C7D85B98BB183708BB94BB18A2D17
:1006400090E09C01220F331F220F331F242B2BB964
:1006500025B12C7F25B925B1082E892F000C881FC4
:10066000990B000C881F991F822B85B9419A4198DC
:100670002D9A1296AC9242988AB183708AB984B14D
:100680008C7F84B98FB78983F8942A9889818FBF2A
:1006900029B183B1B0E48B9FC0011124922F9695AC
:1006A0009695982B2A9A8AB18C6F8AB984B1836007
:1006B00084B9429AD6018C9185FFFCCFD1019C93DD
:1006C000BFEFEB1AFB0AE616F70609F050CFDAC3C4
:1006D0008BE193E00E9433120397D4F38BE193E014
:1006E0000E9411127C018BE193E00E941112898714
:1006F0001886E885F985EE2AFF2A8BE193E00E94AF
:100700001112F1E69F1208C0880F9F2D991F99279B
:10071000991F892B6894F7F82A9AD3019C919E150A
:1007200001F12B989BB193709BB99BB19701332733
:10073000A901440F551F440F551F492B4BB995B1C3
:100740009C7F95B995B1022E232F000C221F330BED
:10075000000C221F331F292B25B9419A41982B9A4F
:10076000EC92F30191819F1511F195B19E7E95B99F
:100770009BB193709BB99BB12F2D30E0A901440F21
:10078000551F440F551F492B4BB995B19C7F95B907
:1007900095B1022E232F000C221F330B000C221FB9
:1007A000331F292B25B9419A41982C9AF182D30104
:1007B00012969C911297981709F464C395B19C7D89
:1007C00095B99BB193709BB99BB1282F30E0A901DB
:1007D000440F551F440F551F492B4BB995B19C7FB2
:1007E00095B995B1022E232F000C221F330B000C5C
:1007F000221F331F292B25B9419A41982D9A129611
:100800008C9340C38BE193E00E9433120497D4F39E
:100810008BE193E00E9411127C018BE193E00E9436
:1008200011125C018BE193E00E9411124501BB0C97
:10083000AA08BB08BA2CA92C982C8824092E000CD5
:10084000AA0BBB0BDC019927882788299929AA299B
:10085000BB294701FF0CAA08BB08882A992AAA2AA3
:10086000BB2A8BE193E00E941112AC01990F660B39
:10087000770B742F662755274427842A952AA62AA2
:10088000B72A0F2EFBE1EF2EF3E0FF2EF02DD7015C
:10089000ED91FC910680F781E02DC7010995D70104
:1008A0005296ED91FC91539780818F7E8083529672
:1008B000ED91FC9153978081877F80835296ED91D3
:1008C000FC91539780818F7780835296ED91FC91B4
:1008D000539780818F7D80835A968C915A97599631
:1008E0008C9326E0B501A401C7010E949114CAC2ED
:1008F0008BE193E00E94331218161906CCF78BE1B6
:1009000093E00E941112F82E682F617080E10E941E
:10091000FA14F1FA662760F981E10E94FA14F2FAFA
:10092000662760F982E10E94FA14F3FA662760F9FB
:1009300083E10E94FA14A6C28BE193E00E94331275
:1009400018161906CCF78BE193E00E9411128093E0
:1009500067020F2EF4E68F2EF2E09F2EF02D72012B
:100960000F2EF4E6AF2EF2E0BF2EF02DF4014191F0
:100970004F01D7016D917D917D0180915D020E94B3
:100980000410EA14FB0491F77DC28BE193E00E940E
:1009900033120A97D4F38BE193E00E9411128093F3
:1009A0005D02E4E6F2E0FB83EA830F2EF4E68F2E8D
:1009B000F2E09F2EF02D52018BE193E00E94111284
:1009C0007C018BE193E00E9411128B871A868A8545
:1009D0009B85E82AF92AD501ED92FD925D018BE114
:1009E00093E00E941112EA81FB818193FB83EA83E9
:1009F000A814B90409F746C28BE193E00E943312B0
:100A000018161906CCF78BE193E00E9411129C0195
:100A1000207F332720333105B1F49C01369527958B
:100A200036952795369527952170AC0156954795B3
:100A3000569547954170BC017695679561708170B8
:100A40000E94870D06C020E041E060E081E00E9446
:100A5000870DE0911B03F0911C0360915D016063C1
:100A60000190F081E02D8BE193E009950BC20F2EF0
:100A7000FBE1EF2EF3E0FF2EF02DD701ED91FC917D
:100A80000280F381E02D44E050E066E371E0C701AD
:100A90000995D701ED91FC910190F081E02D63E380
:100AA000C70109956BE371E0C7010E941D14809195
:100AB0005D01811103C060E371E002C06AE271E090
:100AC0008BE193E00E941D1461E471E08BE193E0FF
:100AD0000E941D14F301428150E060E070E020E1CB
:100AE0008BE193E00E94B613D30111964C9150E034
:100AF00060E070E020E18BE193E00E94B613F30127
:100B0000408150E060E070E020E18BE193E00E94E2
:100B1000B61368E471E08BE193E00E941D144091EC
:100B20005D0250E060E070E020E18BE193E00E9424
:100B3000B613D2014D915C9160E070E020E18BE151
:100B400093E00E94B61366E471E08BE193E00E94AB
:100B50001D14E4E6F2E0408150E060E070E020E146
:100B60008BE193E00E94B61360E571E08BE193E0C6
:100B70000E941D1440915D0250E060E070E020E1B1
:100B80008BE193E00E94B613D20112964D915C91D5
:100B9000139760E070E020E18BE193E00E94B613D0
:100BA00066E471E08BE193E00E941D1440916502C0
:100BB00050E060E070E020E18BE193E00E94B6132A
:100BC00060E571E08BE193E00E941D1440915D02AD
:100BD00050E060E070E020E18BE193E00E94B6130A
:100BE000F2014481558160E070E020E18BE193E007
:100BF0000E94B6136EE471E08BE193E00E941D1435
:100C00000F2EF0ECEF2EFF24FA94F02DB70180E0C8
:100C10000E941311682F8BE193E00E941514FFEFDF
:100C2000EF1AFF0A34EDE3163FEFF30679F76EE4AF
:100C300071E08BE193E00E941D1424C160E070E03C
:100C400080EC0E941311682F8BE193E00E94151431
:100C500044E060E272E280E00E94041060E070E034
:100C600080EC0E941311682F8BE193E00E94151411
:100C700009C161E080E10E94FA1460E081E10E9414
:100C8000FA1461E082E10E94FA1461E083E10E94BB
:100C9000FA1449E060E074E280E00E94041060E031
:100CA00074E280E00E94131148E261E074E280E0A7
:100CB0000E94041044E861E074E280E00E940410A5
:100CC00046E060E074E280E00E94041049E360E0E6
:100CD00074E280E00E94041060E074E280E00E9410
:100CE00013118A3239F463E571E08BE193E00E94DD
:100CF0001D1406C066E571E08BE193E00E941D14AF
:100D000060E074E280E00E941311682F8BE193E0B1
:100D10000E947312B7C08BE193E00E9433120497D4
:100D2000D4F38BE193E00E941112B82E8BE193E093
:100D30000E9411127C018BE193E00E9411128D87B9
:100D40001C868C859D85E82AF92A8BE193E00E9418
:100D5000111294E7991208C0BB0C9F2D991F992777
:100D6000991FB92A6894F7F8482FB7018B2D0E9474
:100D7000041088C08BE193E00E9433120597D4F3EE
:100D80008BE193E00E9411125C018BE193E00E94E1
:100D900011128F871E86AE85BF85AA2ABB2A8BE1DA
:100DA00093E00E9411128A838BE193E00E9411125A
:100DB0007C018BE193E00E941112449A409A898B46
:100DC000188AE889F989EE2AFF2A47018A0C9B1CB8
:100DD000FF24FA94FFEFFF121FC0D6018C9185FF0C
:100DE000FCCF32E5F10130830F2EFEE5EF2EF1E06E
:100DF000FF2EF02D8BE193E00E9433121816190696
:100E0000CCF78BE193E00E941112D7018D937D0105
:100E1000A017B10779F7F12CEF2DF0E0E25AFE4F61
:100E20004081B5018A810E940410BFEFAB1ABB0A52
:100E3000F3948A149B0471F6449A2A9A4098F60116
:100E4000808185FFFCCF85E4D1018C931BC00F2EE0
:100E5000FBE1EF2EF3E0FF2EF02DD701ED91FC9199
:100E60000280F381E02D44E050E066E371E0C701C9
:100E70000995D701ED91FC910190F081E02D63E39C
:100E8000C70109950E94E4122BCB0F931F93CF93B8
:100E9000DF93EC01062F142F63E00E941B1B11301F
:100EA00051F441E050E002C0440F551F0A95E2F7AB
:100EB0004095482308C041E050E002C0440F551F50
:100EC0000A95E2F7482B63E0CE010E948F1BDF9169
:100ED000CF911F910F9108952F923F924F925F9261
:100EE0006F927F928F929F92AF92BF92CF92DF923A
:100EF000EF92FF920F931F93CF93DF93CDB7DEB79F
:100F000062970FB6F894DEBF0FBECDBF3C01202E16
:100F1000312E2D873E874F87588B698B7A8B27011F
:100F2000EF2829F5FC01E759FF4F0190F081E02DF2
:100F3000EE0FFF1FEE0FFF1FE80FF91FEB58FF4FDB
:100F400080809180A280B3801F92CE0101966C01B7
:100F5000E02EF12E0D851E852F85388949895A8905
:100F600060E070E0C3010E94DB160F9023C0FC011B
:100F7000E559FF4F0190F081E02DEE0FFF1FEE0FBE
:100F8000FF1FE80FF91FEB58FF4F80809180A28070
:100F9000B3801F92FE0131966F01E02EF12E0D8578
:100FA0001E852F85388949895A8961E070E00E9441
:100FB000DB160F9084E190E00E940A1F8C01898566
:100FC0009A85AB85BC85F8019083818339814A81FC
:100FD0002B812370228343833483072E7CE0B695D4
:100FE000A795979587957A95D1F7702D807F2D815C
:100FF0003E819F819F70890F8583368327834114AB
:101000005104C1F4980148E06AE1C3010E94221C26
:10101000F301E75AFF4F208231828D8582839E85BE
:1010200093838F85848398899583898986839A8918
:1010300097831AC04A944528B9F4980148E062E2BF
:10104000C3010E94221CF301EF59FF4F208231821D
:101050008D8582839E8593838F85848398899583EC
:10106000898986839A899783C8010E949F1F629607
:101070000FB6F894DEBF0FBECDBFDF91CF911F91A9
:101080000F91FF90EF90DF90CF90BF90AF909F9027
:101090008F907F906F905F904F903F902F9008952A
:1010A0002F923F924F925F926F927F928F929F9278
:1010B000AF92BF92CF92DF92EF92FF920F931F9366
:1010C000CF93DF93CDB7DEB76A970FB6F894DEBF44
:1010D0000FBECDBF98878F83422E532E642EB52F1F
:1010E000F62FE72F292CA9867B2CCA86DC8AED8A6D
:1010F000FE8A202F312F442D552D662D7B2F8F2FCB
:101100009E2FAFEF0E94DA1E2E373A41464051051E
:10111000610571058105910509F008F47AC4098318
:101120001A834B825C826D823B2E9F2EEE83202F92
:10113000312F442D552D662D7B2F8F2F9E2F21155E
:10114000314C4A415D43654071058105910569F067
:1011500060F01982E1ECEA83FAE1FB832DE32C8352
:1011600085E08D83312C912C1E82AFA5B8A9BB27B9
:10117000AA0FBB1FAA0FBB1FAA0FBB1FEF81F885C9
:10118000AE0FBF1FFD017996298159962C938A8154
:1011900081839B819283AC81A383BD81B48335829B
:1011A00096822E8127838FA598A9998F888FFC011D
:1011B000EE0FFF1FAF81B885EA0FFB1FE184F284B9
:1011C000082D122D2985372D4A855C896D897E89E8
:1011D000CD010E946C0741E06FA578A98F819885A9
:1011E0000E94450729813A814B815C816D81732D75
:1011F000892D9E8120583A41464051096109710963
:10120000810991092F373A41464051056105710521
:101210008105910509F0B0F429813A814B815C8107
:101220006D81732D892D9E8107E00E949A1E29836E
:101230003A834B835C836D83372E982E9E83E7E041
:10124000EA8F1BC129813A814B815C816D81732DAD
:10125000892D9E8135534C405109610971098109DD
:1012600091092F3F34434C405105610571058105BB
:10127000910509F0B0F429813A814B815C816D813F
:10128000732D892D9E8106E00E949A1E29833A8340
:101290004B835C836D83372E982E9E8326E02A8FA6
:1012A000ECC029813A814B815C816D81732D892D40
:1012B0009E813A5648415109610971098109910994
:1012C0002F3F39464841510561057105810591055A
:1012D00009F0B0F429813A814B815C816D81732DD5
:1012E000892D9E8105E00E949A1E29833A834B83B3
:1012F0005C836D83372E982E9E83B5E0BA8FBDC078
:1013000029813A814B815C816D81732D892D9E816C
:10131000345D4043510961097109810991092F3FE9
:10132000334D40435105610571058105910509F073
:10133000B0F429813A814B815C816D81732D892DB7
:101340009E8104E00E949A1E29833A834B835C832A
:101350006D83372E982E9E83F4E0FA8F8EC02981FC
:101360003A814B815C816D81732D892D9E81385A24
:101370004146510961097109810991092F3F374A95
:1013800041465105610571058105910509F0B0F4EB
:1013900029813A814B815C816D81732D892D9E81DC
:1013A00003E00E949A1E29833A834B835C836D83FA
:1013B000372E982E9E83B3E0BA8F5FC029813A8181
:1013C0004B815C816D81732D892D9E813055434CFD
:1013D000510961097109810991092F3F3F44434C2B
:1013E0005105610571058105910509F0B0F4298168
:1013F0003A814B815C816D81732D892D9E8102E044
:101400000E949A1E29833A834B835C836D83372E17
:10141000982E9E83F2E0FA8F30C029813A814B8169
:101420005C816D81732D892D9E81305A46485140D3
:1014300061097109810991092F3F3F49464851408F
:10144000610571058105910509F0B0F429813A81A2
:101450004B815C816D81732D892D9E8101E00E94FD
:101460009A1E29833A834B835C836D83372E982E93
:101470009E83B1E0BA8F01C01A8EE981EB87FA81B1
:10148000FC872B812D878C818E879D819F87432CA4
:10149000692C5E802E2F3F2F4B81582F692F732D83
:1014A000892D952D2115314C4A415D4365407105CB
:1014B0008105910569F060F01B86B1ECBC87EAE11B
:1014C000ED87FDE3FE8725E02F87412C612C512C11
:1014D0002B853C854D855E856F85742D862D952DDC
:1014E0002F37A0EF3A07AAEF4A07A2E05A07610593
:1014F00071058105910509F008F4D1C2B1E0BF8BF7
:101500002F3F354D41415E4763407105810591058F
:1015100009F008F41F8A282D322D4985572D6A8538
:101520007C898D899E89A0E00E94EF1E09F04FC042
:10153000FF89F1113CC0AB84BC84CD84DE84EF8490
:10154000F42C062D152D20E034E04BE654EF64E139
:1015500070E080E090E00E94F61DD22EE32EF42E83
:10156000052FA5E00E94EF1E61F0A7E00E94EF1E8C
:10157000C1F40F2EF6E0DF2EF02DE12CF12C00E06F
:1015800010C06894DD24D2F8E12CF12C00E009C0F1
:101590006894DD24D3F80F2EF7E0EF2EF02DF12C18
:1015A00000E0D88AE98AFA8A0B8B1F8A08C084E097
:1015B00090E0A0E0B0E0888B998BAA8BBB8BC12C0C
:1015C000D12C7601C39480E090E0DC01CAC0AB84EA
:1015D000BC84CD84DE84EF84F42C062D152D282DBB
:1015E000322D4985572D6A857C898D899E890E9477
:1015F000F61D288B398B4A8B5B8B88899989AA8940
:10160000BB890697A105B105E8F40F2EF6E0AF2ED1
:10161000F02DB12CC12CD12CE12CF12C00E010E0EC
:10162000282D322D4985572D6A857C898D899E8983
:101630000E94F61D2B873C874D875E876F87472E5C
:10164000682E592E88899989AA89BB898930974043
:10165000A105B105F8F06894AA24A3F80F2EF7E0CD
:10166000BF2EF02DC12CD12CE12CF12C00E010E08C
:10167000282D322D4985572D6A857C898D899E8933
:101680000E94F61D2B873C874D875E876F87472E0C
:10169000682E592EAB84BC84CD84DE84EF84F42C78
:1016A000062D152D282D322D4985572D6A857C89CB
:1016B0008D899E890E94F41DF22FA32FB42F752EC1
:1016C0006987E72F282E892E05E00E949A1EAF2EEB
:1016D000BA2ECB2ED72CE984FE2E022D182D0E9477
:1016E000E61EA22EB32EC42ED52EE62EF72E8A8706
:1016F000192F06E00E949A1E0A850E94E61E03E04A
:101700000E949A1EAF2EBA2ECB2ED72CE984FE2E25
:10171000022D182D0E94D11E06E00E949A1EAB8455
:10172000BC84CD84DE84EF84F42C062D152D0E941C
:10173000F61DF22FE32F8F2F9E2FA42FB52F00978A
:10174000A105B10529F4C12CD12C7601C39409C09F
:101750000F2EF0E4CF2EF2E4DF2EFFE0EF2EF12C7F
:10176000F02DFF89F13009F44EC0880F991FAA1F90
:10177000BB1F880F991FAA1FBB1F880F991FAA1F85
:10178000BB1F880F991FAA1FBB1F880F991FAA1F75
:10179000BB1F880F991FAA1FBB1FBC01CD01660F7D
:1017A000771F881F991F488859886A887B88440C4E
:1017B000551C661C771C440C551C661C771C440C7D
:1017C000551C661C771C440C551C661C771C440C6D
:1017D000551C661C771C440C551C661C771C440C5D
:1017E000551C661C771C22E0521A61087108A7017B
:1017F00096010E94421D420E531E641E751EB62E97
:10180000A72E882E0AC0C12CD12C7601C394B12CEE
:10181000A12C812C412C512C32012224239429818A
:101820003A814B815C816D81732D892D9E812F3F83
:10183000354D41415E47634071058105910509F0D1
:1018400008F4212C84E190E00E940A1F8C01BFA5BE
:10185000B63088F5FC01D082C1826B2F660F660F0F
:10186000660F645D8F8198850E941B1B8C7F962D6F
:101870009370892BD80112968C93129713965C92D1
:10188000139714964C92D701C601072E7CE0B695AB
:10189000A795979587957A95D1F7702D982F907F7A
:1018A000882D8F70C82EC90EF801C582A6824B2CD8
:1018B000B78248E001C040E0888D998D883091055D
:1018C00008F008C1FC01E559FF4F0C94641D980114
:1018D0006AE28F8198850E94221C422D6FA578A90B
:1018E0008F8198850E94521C222D4A8D6FA578A960
:1018F0008F8198850E94AE1BEDC0980162E38F81B5
:1019000098850E94221C422D6FA578A98F81988509
:101910000E94521C222D4A8D6FA578A98F8198852F
:101920000E94AE1BD7C098016AE38F8198850E9400
:10193000221C422D6FA578A98F8198850E94521C88
:10194000222D4A8D6FA578A98F8198850E94AE1BA4
:10195000C1C0980162E48F8198850E94221C422DAB
:101960006FA578A98F8198850E94521C222D4A8DDF
:101970006FA578A98F8198850E94AE1BABC0980196
:101980006AE48F8198850E94221C422D6FA578A958
:101990008F8198850E94521C222D4A8D6FA578A9AF
:1019A0008F8198850E94AE1B95C0980162E58F815A
:1019B00098850E94221C422D6FA578A98F81988559
:1019C0000E94521C222D4A8D6FA578A98F8198857F
:1019D0000E94AE1B7FC0442D6AE58F8198850E94CE
:1019E0008F1B222D4A8D6FA578A98F8198850E9423
:1019F000AE1B70C0442D6BE58F8198850E948F1BB4
:101A0000222D4A8D6FA578A98F8198850E94AE1BE3
:101A100061C0AFA5B8A9BB27AA0FBB1FAA0FBB1FE8
:101A2000AA0FBB1FEF81F885AE0FBF1FFD0179968E
:101A300080E859968C938AE1818386E082831382C1
:101A400014821582168217828FA598A9998F888F84
:101A5000FC01EE0FFF1FAF81B885EA0FFB1FE18489
:101A6000F284082D192D29853B2D4A855C896D89C5
:101A70007E89CD010E946C0741E06FA578A98F8116
:101A800098850E944507B0E8B983EAE1EA83F6E069
:101A9000FB831C821D82312C912C1E82BDCB282DF4
:101AA000322D4985572D6A857C898D899E89A0E0D4
:101AB0000E94EF1E09F46CCD1F8A20E82B8780EF6F
:101AC0008C879AEF9D87A2E0AE871F86412C612C00
:101AD000512C7DCDC8010E949F1F80E06A960FB6F1
:101AE000F894DEBF0FBECDBFDF91CF911F910F9154
:101AF000FF90EF90DF90CF90BF90AF909F908F902E
:101B00007F906F905F904F903F902F9008954F92ED
:101B10005F926F927F928F929F92AF92BF92CF927D
:101B2000DF92EF92FF920F931F93CF93DF93582E84
:101B3000662E742E422ECCEBD0E005E40883109282
:101B40006C0210926B02109268021092690210925D
:101B50006D0211E010936F0210926E0261E082E15B
:101B60000E94FA1461E083E10E94FA14E9EBF0E0CC
:101B700080818E7F808380818D7F808388E48093C5
:101B8000B80008838091420410936A028093670230
:101B9000109268021092690261E088EB93E00E9463
:101BA0007816811137C160E084EC93E00E941B1B22
:101BB000E82FF0E0EE0FEF2FEE1FFF0B319799F3B8
:101BC00042E967EB84EC93E00E948F1BC4ECD3E006
:101BD00080E498E7ADE7B1E080933104909332045C
:101BE000A0933304B09334041092390410923A0451
:101BF00010923B0410923C04EDE1F4E0008111816D
:101C0000228133814481558166817781E12CF12CD9
:101C1000CE010E946C07E5E2F4E00081118122818F
:101C200033814481558166817781EE24E394F12CE0
:101C3000CE010E946C0740E860E1CE010E948F1B3C
:101C400040E861E1CE010E948F1B40E862E1CE01D5
:101C50000E948F1B40E863E1CE010E948F1B40E889
:101C600064E1CE010E948F1B40E865E1CE010E9435
:101C70008F1B40E866E1CE010E948F1B40E867E1C0
:101C8000CE010E948F1B4CE060E1CE010E948F1BB1
:101C90004CE061E1CE010E948F1B4CE062E1CE017D
:101CA0000E948F1B4CE063E1CE010E948F1B4CE031
:101CB00064E1CE010E948F1B4CE065E1CE010E94E1
:101CC0008F1B4CE066E1CE010E948F1B4CE067E168
:101CD000CE010E948F1BE12CF12C00E010E22FE5D9
:101CE00030EA42E150E060E070E0CE010E946C0713
:101CF000EE24E394F12C2FE530EA42E150E060E07D
:101D000070E0CE010E946C071A8619861C861B861D
:101D10001E861D86188A1F861A8A198A1C8A1B8AA3
:101D200081E090E09E8B8D8B988F8F8B40E050E010
:101D300060E070E0CE010E946D1C40E050E061E088
:101D400070E0CE010E946D1C40E050E062E070E067
:101D5000CE010E946D1C40E050E063E070E0CE01D7
:101D60000E946D1C40E050E064E070E0CE010E94F3
:101D70006D1C40E050E065E070E0CE010E946D1CFB
:101D800041E050E066E070E0CE010E946D1C41E051
:101D900050E067E070E0CE010E946D1C40E062EA16
:101DA000CE010E948F1B40E063EACE010E948F1B90
:101DB00040E064EACE010E948F1B40E261EBCE015D
:101DC0000E948F1B40E861EBCE010E948F1BCDED7E
:101DD000D3E00F2EF3E4EF2EF4E0FF2EF02D00E021
:101DE00010E0188219821A821B821C821D821E82B8
:101DF0001F82289640E0B80184EC93E00E944507DA
:101E0000F70111927F010F5F1F4F0830110549F74D
:101E100081E001C080E080935D0140E261EB84ECF1
:101E200093E00E948F1B40E861EB84EC93E00E94FA
:101E30008F1B80915D01882309F4D3C0E12CF12C24
:101E400000E010E22FE530EA42E150E060E070E0AF
:101E500084EC93E00E946C07EE24E394F12C2FE5D0
:101E600030EA42E150E060E070E084EC93E00E94F0
:101E70006C071F921F92812C6894992495F80F2E5D
:101E8000FFE5AF2EF02D0F2EF0EABF2EF02D0F2E16
:101E9000F2E1CF2EF02DD12CE12CF12C00E617EB46
:101EA00023E030E840E050E060E070E084EC93E054
:101EB0000E9450080F900F90442091F01F9281E0F3
:101EC0008F9300E816E32EEB36E240E050E060E04E
:101ED00070E084EC93E00E9450080F900F9024C0B3
:101EE0001F9281E08F93812C6894992495F80F2E8E
:101EF000FFE5AF2EF02D0F2EF0EABF2EF02D0F2EA6
:101F0000F2E1CF2EF02DD12CE12CF12C04EC13EFCB
:101F100025E535E140E050E060E070E084EC93E0DE
:101F20000E9450080F900F901F9282E08F93812C97
:101F30006894992495F80F2EFFE5AF2EF02D0F2E03
:101F4000F0EABF2EF02D0F2EF2E1CF2EF02DD12C86
:101F5000E12CF12C00E010E82FE432E140E050E009
:101F600060E070E084EC93E00E945008452D60E052
:101F700070E084EC93E00E944507462D61E070E03C
:101F800084EC93E00E944507472D62E070E084EC0A
:101F900093E00E94450760E184EC93E00E941B1BE4
:101FA000482F406160E184EC93E00E948F1B61E167
:101FB00084EC93E00E941B1B482F406161E184EC9C
:101FC00093E00E948F1B62E184EC93E00E941B1B54
:101FD000482F406162E184EC93E00E948F1B0F90D8
:101FE0000F901092BC00DF91CF911F910F91FF9045
:101FF000EF90DF90CF90BF90AF909F908F907F90A9
:102000006F905F904F900895CF93DF931F92CDB75D
:10201000DEB72A9A90915A01961709F12B989BB135
:1020200093709BB99BB19B013327F901EE0FFF1F02
:10203000EE0FFF1FE92BEBB995B19C7F95B995B1D8
:10204000022E232F000C221F330B000C221F331FE4
:10205000292B25B9419A41982B9A60935A01909166
:102060005B01971719F195B19E7E95B99BB193705D
:102070009BB99BB1272F30E0F901EE0FFF1FEE0F48
:10208000FF1FE92BEBB995B19C7F95B995B1022E55
:10209000232F000C221F330B000C221F331F292B70
:1020A00025B9419A41982C9A70935B0190915C01FB
:1020B000891719F195B19C7D95B99BB193709BB926
:1020C0009BB1282F30E0B901660F771F660F771F8D
:1020D000692B6BB995B19C7F95B995B1022E232FD1
:1020E000000C221F330B000C221F331F292B25B994
:1020F000419A41982D9A80935C018BB183708BB982
:102100002BB150E0CA01880F991F880F991F822BAD
:102110008BB985B18C7F85B985B1042E452F000C14
:10212000441F550B000C441F551F482B45B9409ABE
:102130008FB78983F8942A9889818FBF429A0000CB
:1021400000000000000000000000000000004498B3
:10215000000000000000000000000000000000007F
:10216000000000000000000000000000000000006F
:10217000000000000000000000000000000000005F
:10218000000000000000000000000000000000004F
:10219000449A000000000000000000000000000061
:1021A000000000000000000000000000000000002F
:1021B00000002A9A40980F90DF91CF910895482F00
:1021C00085B127EF3FEF042E02C0220F331F0A9480
:1021D000E2F7282325B99BB193709BB98BB170E0CE
:1021E0009B01220F331F220F331F282B2BB995B1D0
:1021F0009C7F95B985B1062E672F000C661F770B63
:10220000000C661F771F682B65B9419A419855B13C
:1022100028E030E0C90102C0880F991F4A95E2F713
:10222000852B85B90895CF93DF931F92CDB7DEB785
:10223000000000000000000000000000000000009E
:10224000000000000000000000000000000000008E
:1022500042982A9A90915A01961709F12B989BB1AE
:1022600093709BB99BB19B013327A901440F551F64
:10227000440F551F492B4BB995B19C7F95B995B12A
:10228000022E232F000C221F330B000C221F331FA2
:10229000292B25B9419A41982B9A60935A01909124
:1022A0005B01971719F195B19E7E95B99BB193701B
:1022B0009BB99BB1272F30E0A901440F551F440F54
:1022C000551F492B4BB995B19C7F95B995B1022EFD
:1022D000232F000C221F330B000C221F331F292B2E
:1022E00025B9419A41982C9A70935B0190915C01B9
:1022F000891719F195B19C7D95B99BB193709BB9E4
:102300009BB1282F30E0A901440F551F440F551FE2
:10231000492B4BB995B19C7F95B995B1022E232FCE
:10232000000C221F330B000C221F331F292B25B951
:10233000419A41982D9A80935C01000000000000B2
:10234000000000000000000000000000000000008D
:102350000000000000000000000042988AB1837075
:102360008AB984B18C7F84B98FB78983F8942A980D
:1023700089818FBF89B123B12A9A9AB19C6F9AB98A
:1023800094B1936094B9429A429A90E4299F900143
:10239000112486958695822B0F90DF91CF91089519
:1023A000CF92DF92EF92FF920F931F93CF93DF9321
:1023B00041155105C1F06A018C01E62EF72EC0E0EF
:1023C000D0E0D7016D917D01D801ED91FC91019094
:1023D000F081E02DC8010995892B39F02196CC16A2
:1023E000DD0679F702C0C0E0D0E0CE01DF91CF91E9
:1023F0001F910F91FF90EF90DF90CF900895FC0117
:10240000238D348D231738F08FE390E0821B9109E0
:10241000830F911D0895832F90E0821B91090197EE
:102420000895FC01918D828D981761F0828DDF01F6
:10243000A80FB11D5D968C91928D9F5F9F73928FB7
:1024400090E008958FEF9FEF0895FC01918D828DAC
:10245000981731F0828DE80FF11D858D90E0089579
:102460008FEF9FEF0895FC01918D228D892F90E0D1
:10247000805C9F4F821B91098F73992708958BE190
:1024800093E00E94331221E0892B09F420E0822F8F
:102490000895FC01848DDF01A80FB11DA35ABF4F21
:1024A0008C91248D30E02F5F3F4F2F733078332392
:1024B00034F421503109206C3F6F2F5F3F4F248F40
:1024C000A689B7898C93A089B1898C9180648C93FB
:1024D000938D848D981306C00288F389E02D808146
:1024E0008F7D808308950F931F93CF93DF93FC011B
:1024F00081E0808F938D848D981322C0A089B1894B
:102500008C9185FD2FC01CC00FB607FC08C0E88960
:10251000F989808185FF03C0CE010E9449129C8DFC
:10252000091791F38B8DFE01E80FF11DE35AFF4F60
:1025300010830B8FEA89FB898081806280831BC0B6
:10254000238D30E02F5F3F4F2F733078332334F4E7
:1025500021503109206C3F6F2F5F3F4F162FEF0145
:10256000022FDDCFA689B7896C930088F189E02D11
:1025700080818064808381E090E0DF91CF911F9122
:102580000F910895CF93DF93EC01888D81110FC0D7
:1025900018C00FB607FC0DC0908195FF0AC0A8892E
:1025A000B9898C9185FF05C0CE010E944912EA8944
:1025B000FB89908195FDEDCFA889B9898C9186FF23
:1025C000E8CFDF91CF91089580E090E0892B29F04A
:1025D0000E943F1281110E940000089585ED8093B2
:1025E000BC00ECEBF0E0808184FDFDCF10926D0229
:1025F00008954091D202262F30E0240F311D213260
:102600003105ECF420916D022430D9F4662381F079
:10261000A82FB92F80E090E03091D2022D91FC01DB
:10262000E055FD4FE30FF11D208301968617A0F3BF
:102630008091D202680F6093D20280E0089581E019
:10264000089582E008950895E0916C0280916B02F4
:10265000E81730F4F0E0E057FD4F808190E00895F6
:102660008FEF9FEF089590916C0280916B02981705
:1026700050F4E92FF0E0E057FD4F208130E09F5FFC
:1026800090936C0202C02FEF3FEFC9010895809133
:102690006B0290E020916C02821B91090895CF9209
:1026A000DF92EF92FF920F931F93CF93DF938C01F2
:1026B000CB016A0120916A022223A1F04115510544
:1026C000A1F0EB017B01E40EF51E6991D801ED91BB
:1026D000FC910190F081E02DC8010995CE15DF0530
:1026E000A1F703C0642F0E94F912C601DF91CF91B8
:1026F0001F910F91FF90EF90DF90CF900895CF93AF
:10270000DF931F92CDB7DEB7FC01698390916A0217
:102710009923D9F090916902903238F081E090E0ED
:102720009383828380E090E017C080916802E82F55
:10273000F0E0E059FD4F998190838F5F80936802AC
:102740008093690281E090E007C061E0CE010196CC
:102750000E94F91281E090E00F90DF91CF910895EF
:10276000089580E090E008950E9437208F929F9214
:10277000AF92BF92EF92FF920F931F93CF93DF938D
:10278000CDB7DEB7A1970FB6F894DEBF0FBECDBFB1
:102790007C01CB01BA0119A2223008F42AE08E0193
:1027A0000F5D1F4F822E912CA12CB12CA5019401FD
:1027B0000E94421DE62F622F732F842F952F015008
:1027C0001109EA3014F4E05D01C0E95CD801EC9332
:1027D000611571058105910549F70115110591F004
:1027E000F80101900020E9F73197AF01401B510B30
:1027F000D701ED91FC910280F381E02DB801C70172
:10280000099502C080E090E0A1960FB6F894DEBF73
:102810000FBECDBFDF91CF911F910F91FF90EF9031
:10282000BF90AF909F908F900895DC01ED91FC9147
:102830000190F081E02D099508956115710581F0F1
:10284000FB0101900020E9F73197AF01461B570BC0
:10285000DC01ED91FC910280F381E02D0995089552
:1028600080E090E008951F920F920FB60F9211240E
:102870002F933F934F935F936F937F938F939F9388
:10288000AF93BF93EF93FF938BE193E00E944912C4
:10289000FF91EF91BF91AF919F918F917F916F9138
:1028A0005F914F913F912F910F900FBE0F901F900E
:1028B00018951F920F920FB60F9211242F938F939A
:1028C0009F93AF93BF93EF93FF93E0912B03F0910E
:1028D0002C03808182FD14C0EBE1F3E0A689B78967
:1028E0002C91818D8F5F8F73928D891771F0DF012D
:1028F000E18DF0E0E55EFC4F258F59968C9305C085
:10290000E0913103F09132038081FF91EF91BF910B
:10291000AF919F918F912F910F900FBE0F901F90AD
:102920001895BF92CF92DF92EF92FF920F931F9371
:10293000CF93DF93EC016A017B01B22EE889F9891C
:1029400082E080834115514E61057105B1F060E070
:1029500079E08DE390E0A70196010E94421D890174
:102960009A010150110921093109369527951795CA
:102970000795011580E11807A8F0E889F989108208
:1029800060E874E88EE190E0A70196010E94421D84
:10299000DA01C9010197A109B109B695A7959795E3
:1029A00087958C01EC85FD851083EE85FF8500837E
:1029B000188EEC89FD89B082EA89FB89808180616B
:1029C0008083EA89FB89808188608083EA89FB892A
:1029D000808180688083EA89FB8980818F7D808304
:1029E000DF91CF911F910F91FF90EF90DF90CF90EB
:1029F000BF90089590E0FC01EC53FD4F2491FC0141
:102A0000E055FD4F3491FC01E456FD4F849188233D
:102A100009F446C0222371F1233069F028F42130F3
:102A2000B1F02230C1F026C02730C9F02830E9F0DB
:102A3000243001F506C0E0E8F0E090819F779083B4
:102A400019C0E0E8F0E090819F7D908313C094B5B9
:102A50009F7794BD0FC094B59F7D94BD0BC0E0EBF4
:102A6000F0E090819F77908305C0E0EBF0E09081EB
:102A70009F7D9083E82FF0E0EE0FFF1FE857FD4F9A
:102A8000A591B4918FB7F894611106C09C91E32F82
:102A9000E095E923EC9303C0EC91E32BEC938FBF1B
:102AA00008951F920F920FB60F9211242F933F9308
:102AB0004F935F936F937F938F939F93AF93BF9346
:102AC000EF93FF938091B900E82FE87F8E2F90E07D
:102AD000893C910508F0FBC0FC01ED58FF4F0C94B8
:102AE000641D80911A038093BB0085EC8093BC0029
:102AF000EEC09091190380911803981780F4E0912B
:102B0000190381E08E0F80931903F0E0E850FD4F28
:102B100080818093BB0085EC8093BC00D8C08091FD
:102B20006F02882319F00E94EE12D1C081E08093D9
:102B30006E0284EA8093BC0010926D02C8C080E2ED
:102B40008093F7020E94EE12C2C080E38093F702E6
:102B50000E94EE12BCC088E38093F70285EC80935C
:102B6000BC0010926D02B3C0E091190381E08E0F9A
:102B7000809319038091BB00F0E0E850FD4F808303
:102B80009091190380911803981720F485EC809395
:102B9000BC009DC085E88093BC0099C0E0911903FA
:102BA00081E08E0F809319038091BB00F0E0E85024
:102BB000FD4F808380916F02882319F00E94EE12EE
:102BC00086C081E080936E0284EA8093BC001092FC
:102BD0006D027DC00E94EE127AC083E080936D0288
:102BE0001092F60285EC8093BC0071C08091F602D1
:102BF000803280F4E091F60281E08E0F8093F6023D
:102C00008091BB00F0E0EA52FD4F808385EC809319
:102C1000BC005DC085E88093BC0059C085EC809302
:102C2000BC0010926D028091F602803230F4E09187
:102C3000F602F0E0EA52FD4F10826091F60270E079
:102C4000E091D402F091D50286ED92E009951092C0
:102C5000F6023DC085E88093BC0039C084E08093D3
:102C60006D021092D3021092D202E091D002F09144
:102C7000D10209958091D202811105C081E0809333
:102C8000D2021092B002E091D30281E08E0F8093C5
:102C9000D302F0E0E055FD4F80818093BB0090911E
:102CA000D3028091D202981720F485EC8093BC0067
:102CB0000EC085E88093BC000AC085EC8093BC0000
:102CC00010926D0204C01092F7020E94EE12FF9162
:102CD000EF91BF91AF919F918F917F916F915F9194
:102CE0004F913F912F910F900FBE0F901F9018950D
:102CF0002091690240916702213208F050C0809112
:102D00006D028111FCCF92E090936D0260936F028F
:102D10009FEF9093F7021092190320931803222338
:102D200069F0E0E7F2E0A8EFB2E0215030E02F5880
:102D30003D4F91919D93E217F307D9F710921A0333
:102D400090911A03440F492B40931A0390916E02FD
:102D5000913081F410926E02ABEBB0E0ECEBF0E05E
:102D600090911A039C93908193FDFACF95EC9093E8
:102D7000BC0003C095EE9093BC0090916D02923020
:102D8000E1F39091F7029F3F79F08091F702803252
:102D900041F08091F702803331F084E005C081E09A
:102DA00003C082E001C083E01092680210926902C1
:102DB00010926A0208952F923F924F925F926F9203
:102DC0007F928F929F92AF92BF92CF92DF92EF92BB
:102DD000FF920F931F93CF93DF93CDB7DEB76A9720
:102DE0000FB6F894DEBF0FBECDBFE98AFA8A0B8B0F
:102DF0001C8B2D8B3E8B4F8B588FDA8EC98E898220
:102E00009A82AB82BC82672B09F05EC0FC01E75955
:102E1000FF4F0190F081E02DFF27EE0FFF1FEE0F17
:102E2000FF1F8E0F9F1FFC01E359FF4F808191818F
:102E3000A281B3811C012D01282F332D442D552D46
:102E400060E070E080E090E002E00E949A1EA22C18
:102E5000B32CC42CD52CE12CF12C00E010E00E9406
:102E6000E61E29873A874B875C87B62FA72FF82F56
:102E7000E92F7A2F8F2F9E2F05E00E949A1EA22EF7
:102E8000B32EC42ED52EE62EF72E082F192F298506
:102E90003A854B855C856B2F7A2F8F2F9E2F0E9452
:102EA000D11EA22CB32CC42CD52CE12CF12C00E08B
:102EB00010E00E94D11E322E432E542E652E762E07
:102EC00079878A87292E5DC0FC01E559FF4F019063
:102ED000F081E02DFF27EE0FFF1FEE0FFF1F8E0F7B
:102EE0009F1FFC01E359FF4F80819181A281B38133
:102EF0001C012D01282F332D442D552D60E070E04D
:102F000080E090E002E00E949A1EA22CB32CC42C18
:102F1000D52CE12CF12C00E010E00E94E61E298760
:102F20003A874B875C87B62FA72FF82FE92F7A2F88
:102F30008F2F9E2F05E00E949A1EA22EB32EC42E24
:102F4000D52EE62EF72E082F192F29853A854B8589
:102F50005C856B2F7A2F8F2F9E2F0E94D11EA22C63
:102F6000B32CC42CD52CE12CF12C00E010E00E94F5
:102F7000D11E322E432E542E652E762E79878A87C7
:102F8000292EC980DA80EB80FC80FF0CCC08DC2C79
:102F9000760129813A814B815C816C2D7C2D8C2DB1
:102FA0009C2D0FE10E949A1EA12C0F2EFAECBF2E31
:102FB000F02D0F2EFAE9CF2EF02D0F2EFBE3DF2E92
:102FC000F02DE12CF12C00E010E00E94C51DA22E96
:102FD000B32EC42ED52EE62EF72E082F192F232D13
:102FE000342D452D562D672D79858A85922D0E9489
:102FF0006A1D0FE10E94B51E822E932EA42EB52EBF
:10300000A5019401550F220B322FA90129833A8380
:103010004B835C83282D392D4A2D5B2D6981762FBA
:10302000862F962FA32CB42CC52CD62CE72CF984F4
:103030000A85122D0E94D11E29873A874B875C870B
:103040006D877E878F87988B29893A894B895C8920
:103050006D897E898F89988D2F3F37454744584F1A
:103060006D4071058105910509F060F4198AB8E594
:10307000BA8BE7E4EB8BF8EFFC8B2DE02D8B1E8AEF
:103080001F8A188E49885A886B887C888D889E880C
:103090002F88388C242D352D462D572D682D792DD0
:1030A000822D932D211534404B46544F64417105B8
:1030B00081059105A1F098F0412C6894552452F8AF
:1030C0000F2EFBE66F2EF02D0F2EF4EF7F2EF02D3E
:1030D0000F2EF4E18F2EF02D912C212C312CA98470
:1030E000BA84CB84DC84ED84FE840F851889242D7A
:1030F000352D462D572D682D792D822D932D0E942B
:10310000F61D298B3A8B4B8B5C8B322F2A893983A6
:103110002A834B835C8329813A814B815C812F30E8
:10312000310541055105B0F42A2D3B2D4C2D5D2D67
:103130006E2D7F2D802F912F04E00E949A1E0F8507
:103140000E94E61E422E532E642E752E862E972E3A
:10315000282E392E49815A816B817C814B3551054E
:103160006105710570F129853A854B855C856D8512
:103170007E858F85988902E00E949A1EA984BA8470
:10318000CB84DC84ED84FE840F8518890E94E61EC2
:10319000A22EB32EC42ED52EE62EF72EE82F192FF1
:1031A00004E00E949A1E0E2F0E94E61E01E00E947B
:1031B0009A1E422E532E642E752E862E972E282E62
:1031C000392E8FA5882309F408C1A984BA84CB8439
:1031D000DC84ED84FE840F851889242D352D462D41
:1031E000572D682D792D822D932D0E94F41D722E5E
:1031F000832E942EB52FA62FF72FE82F592E05E0FA
:103200000E949A1EA72CB82CC92CDB2EEA2EFF2E6A
:103210000E2F152D0E94E61EA22EB32EC42ED52EE3
:10322000E62EF72E682E192F06E00E949A1E062D14
:103230000E94E61E03E00E949A1EA72CB82CC92CFF
:10324000DB2EEA2EFF2E0E2F152D0E94D11E06E03A
:103250000E949A1EA984BA84CB84DC84ED84FE8407
:103260000F8518890E94F61D29873A874B875C874E
:10327000C980DA80EB80FC80CC0CDD1CEE1CFF1CCE
:10328000CC0CDD1CEE1CFF1CCC0CDD1CEE1CFF1C52
:10329000CC0CDD1CEE1CFF1CCC0CDD1CEE1CFF1C42
:1032A000CC0CDD1CEE1CFF1CCC0CDD1CEE1CFF1C32
:1032B000822F932FA42FB52F880F991FAA1FBB1FF2
:1032C000880F991FAA1FBB1F880F991FAA1FBB1F1A
:1032D000880F991FAA1FBB1F880F991FAA1FBB1F0A
:1032E000880F991FAA1FBB1FBC01CD01660F771F56
:1032F000881F991F2601370152E0551A610871088D
:103300000F2EF0E48F2EF2E49F2EFFE0AF2EB12CB3
:10331000F02DA50194010E94421D89019A01040D1E
:10332000151D261D371DA98DBA8D0D931D932D9347
:103330003C931397FD016483758386839783189666
:103340008D929D92AD92BC921B97160127012C2D58
:10335000332D442D552D60E070E080E090E005E0D5
:103360000E949A1EAC2CB32CC42CD52CE12CF12C31
:1033700000E010E00E94E61EA22EB32EC42ED52E31
:10338000E62EF72EE82F192F06E00E949A1E0E2F28
:103390000E94E61E03E00E949A1EA22CB32CC42CAD
:1033A000D52CE12CF12C00E010E00E94D11E06E0AB
:1033B0000E949A1EA22EB32EC42ED52EE62EF72ED4
:1033C000082F192F29853A854B855C8560E070E0D0
:1033D00080E090E00E94D11E15C1A984BA84CB84FC
:1033E000DC84ED84FE840F851889242D352D462D2F
:1033F000572D682D792D822D932D0E94F41DF22FCB
:10340000A32FB42F952E862E772E682E592E05E0E9
:103410000E949A1EAF2EBA2ECB2ED92CE82CF72C58
:10342000062D152D0E94E61EA22EB32EC42ED52EDB
:10343000E62EF72EE82F192F06E00E949A1E0E2F77
:103440000E94E61E03E00E949A1EAF2EBA2ECB2EDB
:10345000D92CE82CF72C062D152D0E94D11E06E044
:103460000E949A1EA984BA84CB84DC84ED84FE84F5
:103470000F8518890E94F61D822E932EA42EB52E3C
:1034800081149104A104B10429F4412C512C32017E
:10349000439409C00F2EF0E44F2EF2E45F2EFFE0BC
:1034A0006F2E712CF02DD501C401880F991FAA1F12
:1034B000BB1F880F991FAA1FBB1F880F991FAA1F28
:1034C000BB1F880F991FAA1FBB1F880F991FAA1F18
:1034D000BB1F880F991FAA1FBB1FBC01CD01660F20
:1034E000771F881F991FC980DA80EB80FC80CC0C85
:1034F000DD1CEE1CFF1CCC0CDD1CEE1CFF1CCC0CE0
:10350000DD1CEE1CFF1CCC0CDD1CEE1CFF1CCC0CCF
:10351000DD1CEE1CFF1CCC0CDD1CEE1CFF1CCC0CBF
:10352000DD1CEE1CFF1CB2E0DB1AE108F108A30170
:1035300092010E94421D89019A010C0D1D1D2E1D34
:103540003F1DE98DFA8D00831183228333836483C9
:103550007583868397834086518662867386A5012C
:10356000940160E070E0CB0189823A834B835C83F5
:103570006D837E838F839887A984BA84CB84DC840F
:10358000ED84FE840F85188960E070E080E090E0B3
:103590000E946A1D12012301A22CB32CC42CD52C2D
:1035A000E12CF12C00E010E00E94F61D222E332EBB
:1035B000442E552E662E772E882E992EA984BA84F5
:1035C000CB84DC84ED84FE840F85188929893A89AF
:1035D0004B895C8960E070E080E090E00E946A1DA9
:1035E000A22EB32EC42ED52EE62EF72E082F192F7D
:1035F000222D332D442D552D662D772D882D992D77
:103600000E94D11E6A960FB6F894DEBF0FBECDBFE2
:10361000DF91CF911F910F91FF90EF90DF90CF90AE
:10362000BF90AF909F908F907F906F905F904F90E2
:103630003F902F900895CF93DF93EC01C258DF4F56
:10364000888191E090936A028093670210926802E9
:103650001092690288EB93E00E947F1361E088EB8F
:1036600093E00E947816888190916D029111FCCFB1
:1036700091E090936D0210926F022FEF2093F7026A
:10368000109219031092180390931A0390911A0341
:10369000880F892B80931A0380916E02813081F408
:1036A00010926E02ABEBB0E0ECEBF0E080911A030D
:1036B0008C93808183FDFACF85EC8093BC0003C09E
:1036C00085EE8093BC0080916D028130E1F38091A2
:1036D0001903811105C0C0911903C11102C00CC0AA
:1036E000C1E028EF32E0A0E9B2E0F90181918D93C9
:1036F0008E2F821B8C17D0F310926C02C0936B023A
:10370000CC2349F088EB93E00E94331390916C0234
:10371000C913F8CF01C080E0DF91CF910895CF9316
:10372000C42FFC01E258FF4F808191E090936A0220
:1037300080936702109268021092690288EB93E00E
:103740000E947F136C2F88EB93E00E947F1361E04F
:1037500088EB93E00E947816CF910895AF92BF92C4
:10376000DF92EF92FF920F931F93CF93DF938C0121
:10377000EB01F42ED22E68307105C8F4FB01E45C35
:10378000FE4F0C94641D0F2EF4E3EF2EF02D4AC073
:103790000F2EF4E4EF2EF02D45C00F2EFCE4EF2E9B
:1037A000F02D40C00F2EF4E5EF2EF02D3BC060E071
:1037B0000E941B1B482FC630D1055CF4E12C942FCE
:1037C0009378D1109C6080E1F89EA0011124492BD0
:1037D00012C0E12CC630D10529F4942F987F492FCF
:1037E0004F2909C0279739F4942F9F7880E1F89EDC
:1037F000A0011124492B6E2DC8010E948F1B18C0F7
:103800006CE50E941B1B482F0F2EFCE5EF2EF02DC0
:10381000E1CF0F2EFCE2EF2EF02D04C00F2EFCE3C3
:10382000EF2EF02D6E2DC8010E941B1B482FC7CF15
:10383000DF91CF911F910F91FF90EF90DF90BF909C
:10384000AF900895FF920F931F93CF93DF93F42EC1
:103850008901FC01E258FF4F808191E090936A0258
:1038600080936702109268021092690288EB93E0DD
:103870000E947F13FF2059F0E8010F0D111D69917F
:1038800088EB93E00E947F13C017D107C1F761E076
:1038900088EB93E00E947816DF91CF911F910F91F2
:1038A000FF9008950F931F93CF93DF938C01D42F34
:1038B000C0E1C60F6C2F0E941B1BD13019F4482F9A
:1038C000406402C0482F4F7B6C2FC8010E948F1BA1
:1038D000DF91CF911F910F910895DF92EF92FF92A8
:1038E0000F931F93CF93DF937C01EB018A01D62EB8
:1038F00080E1D80E6D2DC7010E941B1B011511051B
:1039000011F48F7D04C00130110509F48062482F45
:103910006D2DC7010E948F1BDD27CC0FDD1FCE0D43
:10392000DF1D1A870987DF91CF911F910F91FF90BB
:10393000EF90DF900895EBE1F3E01382128288EEBE
:1039400093E0A0E0B0E084839583A683B7832AE068
:1039500031E03183208325EC30E03587248724EC67
:1039600030E03787268720EC30E0318B208B21EC4C
:1039700030E0338B228B22EC30E0358B248B26EC2D
:1039800030E0378B268B118E128E138E148EE8EB5F
:10399000F3E01382128284839583A683B7838CE13C
:1039A00091E091838083E4ECF3E085E0DF011D92F8
:1039B0008A95E9F7158216821782108680E6809331
:1039C000420480E498E7ADE7B1E08093310490933E
:1039D0003204A0933304B093340410922E04109256
:1039E0002D041092300410922F0410924104089577
:1039F0001F920F920FB60F9211242F933F938F9324
:103A00009F93AF93BF938091500490915104A091E4
:103A10005204B091530430914F0423E0230F2D370B
:103A200020F40196A11DB11D05C026E8230F0296C2
:103A3000A11DB11D20934F04809350049093510415
:103A4000A0935204B093530480914B0490914C0482
:103A5000A0914D04B0914E040196A11DB11D80931B
:103A60004B0490934C04A0934D04B0934E04BF912B
:103A7000AF919F918F913F912F910F900FBE0F901B
:103A80001F901895A1E21A2EAA1BBB1BFD010DC0A9
:103A9000AA1FBB1FEE1FFF1FA217B307E407F507FE
:103AA00020F0A21BB30BE40BF50B661F771F881FDA
:103AB000991F1A9469F760957095809590959B0170
:103AC000AC01BD01CF010895EE0FFF1F0590F491E9
:103AD000E02D0994DF93CF931F930F939A9DF02DC0
:103AE000219FF00D8B9DF00D8A9DE02DF10D039F20
:103AF000F00D029FE00DF11D4E9DE00DF11D5E9D4C
:103B0000F00D4F9DF00D7F936F93BF92AF925F9337
:103B10004F93D5010E94FB1E8B01AC01D7010E947F
:103B2000FB1EEB01E80FF91FD6010E94BA1D2F9171
:103B30003F91D6010E94FB1EC60FD71FE81FF91F39
:103B4000AF91BF910E94BA1D2F913F910E94FB1E21
:103B5000C60FD71FE81FF91FD6010E94FB1EE60FF4
:103B6000F71F9801BE01CF0111240F911F91CF9132
:103B7000DF9108950E94FB1E460F571FC81FD91FD3
:103B800008F431960895689401C0E894F92FF12B58
:103B900012F00C94F71DA0E0B0E0E1EDFDE10C9413
:103BA000691E092E059422F40E94531E112392F4DB
:103BB000F0E80F26FFEFE094F09400951095B09494
:103BC000C094D094A194BF0ACF0ADF0AEF0AFF0A7B
:103BD0000F0B1F0B0E94021E07FC0E94531ECDB745
:103BE000DEB7ECE00C94851E689401C0E8948F92D7
:103BF0009F92CF93DF930E94021EDF91CF919F90FF
:103C00008F90089588249924F401E401B0E49F93EF
:103C1000AA279A158B049C04ED05FE05CF05D00755
:103C2000A10798F4AD2FDC2FCF2FFE2FE92D982C74
:103C3000892E982F872F762F652F542F432F322FC1
:103C40002227B85031F7BF9127C01B2EBF91BB2749
:103C5000220F331F441F551F661F771F881F991F90
:103C6000881C991CEE1FFF1FCC1FDD1FAA1FBB1F46
:103C70008A149B04EC05FD05CE05DF05A007B107FE
:103C800048F08A189B08EC09FD09CE09DF09A00B52
:103C9000B10B21601A94E1F62EF49401AF01BE013C
:103CA000CD01000C089560957095809590953095A4
:103CB0004095509521953F4F4F4F5F4F6F4F7F4F2E
:103CC0008F4F9F4F08952F923F924F925F926F9226
:103CD0007F928F929F92AF92BF92CF92DF92EF929C
:103CE000FF920F931F93CF93DF93CDB7DEB7CA1B1D
:103CF000DB0B0FB6F894DEBF0FBECDBF09942A8848
:103D0000398848885F846E847D848C849B84AA84EF
:103D1000B984C884DF80EE80FD800C811B81AA817C
:103D2000B981CE0FD11D0FB6F894DEBF0FBECDBF47
:103D3000ED0108950F93083090F0982F872F762F7C
:103D4000652F542F432F322F22270850F4CF220FF4
:103D5000331F441F551F661F771F881F991F0A9521
:103D6000B2F70F91089597FB10F8169400080F937F
:103D7000083098F00850232F342F452F562F672FE7
:103D8000782F892F902DF4CF059497958795779567
:103D9000679557954795379527950A95AAF70F91F7
:103DA00008952A0D3B1D4C1D5D1D6E1D7F1D801F3E
:103DB000911F08950024A7FD00942A0F301D401D77
:103DC000501D601D701D801D901D08952A193B090E
:103DD0004C095D096E097F09800B910B0895002441
:103DE000A7FD00942A1730054005500560057005B1
:103DF000800590050895A29FB001B39FC001A39FC5
:103E0000700D811D1124911DB29F700D811D112413
:103E1000911D0895CF93DF938230910510F482E0D5
:103E200090E0E0915604F091570420E030E0C0E0CB
:103E3000D0E0309711F14081518148175907C0F007
:103E40004817590761F482819381209719F09B8369
:103E50008A832BC0909357048093560426C0211563
:103E6000310519F04217530718F49A01BE01DF011A
:103E7000EF010280F381E02DDCCF2115310509F13E
:103E8000281B390B2430310590F412968D919C91AA
:103E900013976115710521F0FB019383828304C0A0
:103EA0009093570480935604FD01329644C0FD015F
:103EB000E20FF31F81939193225031092D933C938C
:103EC0003AC02091540430915504232B41F42091A1
:103ED0000201309103013093550420935404209142
:103EE0000001309101012115310541F42DB73EB794
:103EF0004091040150910501241B350BE0915404BD
:103F0000F0915504E217F307A0F42E1B3F0B28177E
:103F1000390778F0AC014E5F5F4F2417350748F042
:103F20004E0F5F1F50935504409354048193919317
:103F300002C0E0E0F0E0CF01DF91CF9108950F9350
:103F40001F93CF93DF93009709F48CC0FC01329745
:103F50001382128200915604109157040115110525
:103F600081F420813181820F931F2091540430917C
:103F700055042817390779F5F0935504E093540454
:103F800071C0D80140E050E0AE17BF0750F4129660
:103F90002D913C911397AD012115310509F1D901FE
:103FA000F3CF9D01DA013383228360817181860F13
:103FB000971F8217930769F4EC0128813981260F36
:103FC000371F2E5F3F4F318320838A819B819383EC
:103FD0008283452B29F4F0935704E093560442C0A2
:103FE0001396FC93EE931297ED01499159919E011E
:103FF000240F351FE217F30771F480819181840F3C
:10400000951F029611969C938E93828193811396AD
:104010009C938E931297E0E0F0E0D80112968D9178
:104020009C911397009719F0F8018C01F6CF8D91B0
:104030009C9198012E5F3F4F820F931F2091540453
:10404000309155042817390769F4309729F41092F4
:1040500057041092560402C0138212821093550422
:1040600000935404DF91CF911F910F91089581E047
:0C40700090E0F8940C943C20F894FFCFF2
:10407C00000058048000000000007312D011FF11E2
:10408C00C212331211122512000000007F134F13BD
:10409C00B11323134713331324135B636F6E5D004B
:1040AC005B6469735D00484B4146002D43494320D6
:1040BC00000A414275733A000A466173683A0A0075
:0A40CC002C09004F4B004E47000086
:107E0000112484B714BE81FFF0D085E080938100F7
:107E100082E08093C00088E18093C10086E0809377
:107E2000C20080E18093C4008EE0C9D0259A86E02C
:107E300020E33CEF91E0309385002093840096BBD3
:107E4000B09BFECF1D9AA8958150A9F7CC24DD24C4
:107E500088248394B5E0AB2EA1E19A2EF3E0BF2EE7
:107E6000A2D0813461F49FD0082FAFD0023811F036
:107E7000013811F484E001C083E08DD089C08234E0
:107E800011F484E103C0853419F485E0A6D080C0E4
:107E9000853579F488D0E82EFF2485D0082F10E0AE
:107EA000102F00270E291F29000F111F8ED06801E7
:107EB0006FC0863521F484E090D080E0DECF843638
:107EC00009F040C070D06FD0082F6DD080E0C81688
:107ED00080E7D80618F4F601B7BEE895C0E0D1E017
:107EE00062D089930C17E1F7F0E0CF16F0E7DF06D8
:107EF00018F0F601B7BEE89568D007B600FCFDCFD4
:107F0000A601A0E0B1E02C9130E011968C91119780
:107F100090E0982F8827822B932B1296FA010C0160
:107F200087BEE89511244E5F5F4FF1E0A038BF0790
:107F300051F7F601A7BEE89507B600FCFDCF97BE46
:107F4000E89526C08437B1F42ED02DD0F82E2BD052
:107F50003CD0F601EF2C8F010F5F1F4F84911BD097
:107F6000EA94F801C1F70894C11CD11CFA94CF0C13
:107F7000D11C0EC0853739F428D08EE10CD085E9AC
:107F80000AD08FE07ACF813511F488E018D01DD067
:107F900080E101D065CF982F8091C00085FFFCCF94
:107FA0009093C60008958091C00087FFFCCF809118
:107FB000C00084FD01C0A8958091C6000895E0E648
:107FC000F0E098E1908380830895EDDF803219F02E
:107FD00088E0F5DFFFCF84E1DECF1F93182FE3DFCA
:107FE0001150E9F7F2DF1F91089580E0E8DFEE27F6
:047FF000FF270994CA
:027FFE00040479
:0400000300007E007B
:00000001FF
