:100000000C945D000C9485000C9485000C94850084
:100010000C9485000C9485000C9485000C9485004C
:100020000C9485000C9485000C9485000C9485003C
:100030000C9485000C9485000C9485000C9485002C
:100040000C94D5040C9485000C94E4070C941608C9
:100050000C9485000C9485000C9485000C9485000C
:100060000C9485000C94850000000008000201003B
:100070000003040700000000000000000102040863
:100080001020408001020408102001020408102002
:10009000040404040404040402020202020203032E
:1000A0000303030300000000250028002B000000CC
:1000B0000000240027002A00460811241FBECFEFAD
:1000C000D8E0DEBFCDBF11E0A0E0B1E0E0EFF1E1AC
:1000D00002C005900D92A031B107D9F721E0A0E14F
:1000E000B1E001C01D92A63BB207E1F710E0CAEBF8
:1000F000D0E004C02297FE010E94F208C83BD1075D
:10010000C9F70E948A080C94F6080C940000CF935B
:100110008AB18C6F8AB984B1836084B9CAE061E026
:100120008C2F0E94E005CF5FC431C9F761E08AE0FF
:100130000E941E0661E08BE00E941E0661E08CE0DA
:100140000E941E0661E08DE00E941E0660E08FE0C6
:100150000E941E0660E08EE00E941E0660E080E1C4
:100160000E941E0660E081E10E941E0661E082E1BD
:100170000E941E0661E083E10E941E062B988BB14F
:1001800083708BB98BB18BB985B18C7F85B985B103
:1001900085B9419A41982B9A85B18E7E85B98BB1EC
:1001A00083708BB98BB18BB985B18C7F85B985B1E3
:1001B00085B9419A41982C9A85B18C7D85B98BB1CE
:1001C00083708BB98BB18BB985B18C7F85B985B1C3
:1001D00085B9419A41982D9A26E040E251EA67E0BC
:1001E00070E089E191E0CF910C947C074F925F928F
:1001F0006F927F928F929F92AF92BF92CF92DF9237
:10020000EF92FF920F931F93CF93DF93EC0106C001
:1002100061E070E080E090E00E941F0589E191E0DC
:100220000E9472060797A4F389E191E00E948B0671
:100230004C01AA2497FCA094BA2C89E191E00E9479
:100240008B066C0189E191E00E948B06EE24D7FCBD
:10025000E094FE2CFE2CED2CDC2CCC24AA2797FD60
:10026000A095BA2FDC0199278827C80ED91EEA1E4F
:10027000FB1EC80CD91CEA1CFB1C89E191E00E9402
:100280008B064C01AA2497FCA094BA2C89E191E03A
:100290000E948B068C0189E191E00E948B06280167
:1002A000662457FC6094762C762C652C542C4424C0
:1002B000AA2797FDA095BA2FDC0199278827480E19
:1002C000591E6A1E7B1E480C591C6A1C7B1C8AB175
:1002D0008C6F8AB984B1836084B961E08EE00E943A
:1002E0001E064C0C5D1C6E1C7F1CC414D504E60459
:1002F000F70408F0B1C089E191E00E947206892BF1
:1003000009F4BFC02A9A209709F4C2C0D701C601D8
:100310004FE0B695A795979587954A95D1F7DC015B
:1003200099278827B701A6015F7766277727505856
:100330006F4F7F4F480F591F6A1F7B1F2B988BB140
:1003400083708BB9EBB1842F90E09C01220F331F97
:10035000220F331FE22BEBB925B12C7F25B925B134
:10036000082E892F000C881F990B000C881F991FDD
:10037000282B25B9419A41982B9A85B18E7E85B953
:100380008BB183708BB9EBB1852F90E09C01220F6C
:10039000331F220F331FE22BEBB925B12C7F25B978
:1003A00025B1082E892F000C881F990B000C881F7F
:1003B000991F282B25B9419A41982C9A85B18C7D9B
:1003C00085B98BB183708BB9EBB1862F90E09C011E
:1003D000220F331F220F331FE22BEBB925B12C7FE5
:1003E00025B925B1082E892F000C881F990B000C08
:1003F000881F991F282B25B9419A41982D9A60E0B2
:100400008AE00E941E0689E191E00E948B062BB1D2
:1004100023702BB94BB199279C01220F331F220F58
:10042000331F422B4BB925B12C7F25B925B1082E9E
:10043000892F000C881F990B000C881F991F282BEF
:1004400025B98FEFC81AD80AE80AF80AC414D504E7
:10045000E604F70408F44FCF2A9A60E08EE0DF91BB
:10046000CF911F910F91FF90EF90DF90CF90BF90B1
:10047000AF909F908F907F906F905F904F900C9473
:100480001E0661E070E080E090E00E941F052DCF25
:10049000B701A60153CF4F925F926F927F928F92D6
:1004A0009F92AF92BF92CF92DF92EF92FF92CF9343
:1004B000DF9389E191E00E94720602970CF4D4C1A7
:1004C00089E191E00E948B06C82F8F7D823539F13A
:1004D000C53609F4D8C1C33609F4ECC1813409F436
:1004E0002FC1C73509F45EC2C73709F0BDC181E02D
:1004F00090E0DF91CF91FF90EF90DF90CF90BF9091
:10050000AF909F908F907F906F905F904F900C94E2
:10051000F60061E070E080E090E00E941F0589E154
:1005200091E00E9472060697A4F389E191E00E948F
:100530008B064C01AA2497FCA094BA2C89E191E087
:100540000E948B066C0189E191E00E948B06EE24EB
:10055000D7FCE094FE2CFE2CED2CDC2CCC24AA271E
:1005600097FDA095BA2FDC0199278827C80ED91EC0
:10057000EA1EFB1EC80CD91CEA1CFB1C89E191E099
:100580000E948B062C01662457FC6094762C89E12E
:1005900091E00E948B064C0189E191E00E948B065C
:1005A000AA2497FCA094BA2CBA2CA92C982C8824A5
:1005B000AA2797FDA095BA2FDC0199278827880ED6
:1005C000991EAA1EBB1E840C951CA61CB71C8C0C65
:1005D0009D1CAE1CBF1CC814D904EA04FB0408F41B
:1005E000A3C042C1B701A601EFE076956795579584
:1005F0004795EA95D1F7BA0155274427D701C60197
:100600009F77AA27BB279058AF4FBF4F840F951FE6
:10061000A61FB71F2B982BB123702BB96BB1282FB6
:1006200030E0A901440F551F440F551F642B6BB9CF
:1006300045B14C7F45B945B1022E232F000C221F36
:10064000330B000C221F331F422B45B9419A4198AE
:100650002B9A25B12E7E25B92BB123702BB96BB106
:10066000292F30E0A901440F551F440F551F642B5B
:100670006BB945B14C7F45B945B1022E232F000C13
:10068000221F330B000C221F331F422B45B9419A06
:1006900041982C9A25B12C7D25B92BB123702BB90B
:1006A0004BB18A2F90E09C01220F331F220F331F82
:1006B000422B4BB925B12C7F25B925B1082E892FA6
:1006C000000C881F990B000C881F991F282B25B937
:1006D000419A41982D9A8AB183708AB984B18C7FEE
:1006E00084B960E08AE00E941E0669B183B12A9A4B
:1006F0009AB19C6F9AB994B1936094B920E4829FA7
:10070000C001112466956695682B89E191E00E94ED
:100710009F068FEFC81AD80AE80AF80AC814D90445
:10072000EA04FB0408F0A0C0C23709F45BCFD7018C
:10073000C60170CF61E070E080E090E00E941F058C
:1007400089E191E00E9472060397A4F3C13609F48F
:10075000E7C089E191E00E948B066C01EE24D7FC92
:10076000E094FE2C89E191E00E948B06EC0189E186
:1007700091E00E948B06AE01662757FD6095762FAB
:10078000762F652F542F4427AA2797FDA095BA2FBF
:10079000DC0199278827480F591F6A1F7B1F4C0DC2
:1007A0005D1D6E1D7F1D2B988BB183708BB9EBB1D6
:1007B000842F90E09C01220F331F220F331FE22B66
:1007C000EBB925B12C7F25B925B1082E892F000C56
:1007D000881F990B000C881F991F282B25B9419A57
:1007E00041982B9A85B18E7E85B98BB183708BB978
:1007F000EBB1852F90E09C01220F331F220F331F96
:10080000E22BEBB925B12C7F25B925B1082E892F14
:10081000000C881F990B000C881F991F282B25B9E5
:10082000419A41982C9A85B18C7D85B98BB18370A2
:100830008BB9EBB1862F90E09C01220F331F220F62
:10084000331FE22BEBB925B12C7F25B925B1082E3A
:10085000892F000C881F990B000C881F991F282BCB
:1008600025B9419A41982D9ADF91CF91FF90EF9051
:10087000DF90CF90BF90AF909F908F907F906F90C0
:100880005F904F90089589E191E00E9472061816DA
:100890001906CCF789E191E00E948B06E0911901DD
:1008A000F0911A010190F081E02D682F89E191E02B
:1008B0000995E9CF89E191E00E948B06EC01682F50
:1008C000617080E10E941E06CE0196958795682F83
:1008D000617081E10E941E06CE01969587959695DE
:1008E0008795682F617082E10E941E06CE01969561
:1008F00087959695879596958795682F617083E182
:10090000DF91CF91FF90EF90DF90CF90BF90AF90AD
:100910009F908F907F906F905F904F900C941E06E9
:1009200089E191E00E948B066C01EE24D7FCE094F3
:10093000FE2C89E191E00E948B065C0189E191E047
:100940000E948B06AC01662757FD6095762FBA0191
:1009500055274427C501AA2797FDA095BA2FBA2F7E
:10096000A92F982F8827480F591F6A1F7B1F4C0DEE
:100970005D1D6E1D7F1DDB01CA013FE0B695A79589
:10098000979587953A95D1F7DC01992788275F7766
:100990006627772750586F4F7F4F480F591F6A1FA0
:1009A0007B1F01CF80E090E0A4CD1F920F920FB685
:1009B0000F9211242F933F938F939F93AF93BF93E5
:1009C0008091110190911201A0911301B091140135
:1009D0003091100123E0230F2D3768F126E8230F13
:1009E0000296A11DB11D20931001809311019093D7
:1009F0001201A0931301B0931401809115019091FD
:100A00001601A0911701B09118010196A11DB11D09
:100A10008093150190931601A0931701B0931801CC
:100A2000BF91AF919F918F913F912F910F900FBEEA
:100A30000F901F9018950196A11DB11DD4CFCF9294
:100A4000DF92EF92FF920F931F93CF93DF9300D02B
:100A500000D0CDB7DEB73FB7F894C0901501D09065
:100A60001601E0901701F090180126B5A89B07C069
:100A70002F3F29F04FEFC41AD40AE40AF40A3FBF0B
:100A8000FE2CED2CDC2CCC24C20ED11CE11CF11C64
:100A9000CC0CDD1CEE1CFF1CCC0CDD1CEE1CFF1C6A
:100AA0008601611571058105910509F441C06983CD
:100AB0007A838B839C830E94CD083FB7F894C090C3
:100AC0001501D0901601E0901701F090180126B59D
:100AD00069817A818B819C81A89B07C02F3F29F077
:100AE000EFEFCE1ADE0AEE0AFE0A3FBFFE2CED2C17
:100AF000DC2CCC24C20ED11CE11CF11CCC0CDD1C66
:100B0000EE1CFF1CCC0CDD1CEE1CFF1C9601201BF8
:100B1000310B283E334028F2615071098109910957
:100B200008511C4F611571058105910509F0BFCF72
:100B30000F900F900F900F90DF91CF911F910F9119
:100B4000FF90EF90DF90CF900895789484B5826005
:100B500084BD84B5816084BD85B5826085BD85B561
:100B6000816085BDEEE6F0E0808181608083E1E810
:100B7000F0E0108280818260808380818160808348
:100B8000E0E8F0E0808181608083E1EBF0E080814B
:100B900084608083E0EBF0E0808181608083EAE71D
:100BA000F0E08081846080838081826080838081A6
:100BB000816080838081806880831092C100089565
:100BC000CF93DF9390E0FC01E458FF4F2491FC01A8
:100BD000E057FF4F84918823B9F090E0880F991F68
:100BE000FC01E255FF4FA591B4918C559F4FFC013C
:100BF000C591D4919FB7662351F06230A1F0F8946B
:100C00008C91822B8C939FBFDF91CF910895F894A4
:100C10008C91209582238C938881822388839FBF27
:100C2000DF91CF910895F8948C91322F30958323E2
:100C30008C938881822B88839FBFE6CF90E0FC0154
:100C4000E859FF4F2491FC01E458FF4F3491FC0117
:100C5000E057FF4F8491882399F0211116C0E82FA7
:100C6000F0E0EE0FFF1FEC55FF4FA591B4918FB749
:100C7000F8949C91611105C0309593239C938FBF8C
:100C80000895932B9C938FBFFBCF233029F160F005
:100C90002730E1F02830A1F0243009F7909180004E
:100CA0009F7D90938000DBCF213031F02230B9F668
:100CB00094B59F7D94BDD3CF94B59F7794BDCFCF8E
:100CC0009091B0009F7D9093B000C9CF9091B000FB
:100CD0009F779093B000C3CF909180009F779093BF
:100CE0008000BDCFFC01818D228D90E0805C9F4F04
:100CF000821B91098F7399270895FC01918D828D34
:100D0000981731F0828DE80FF11D858D90E00895E0
:100D10008FEF9FEF0895FC01918D828D981761F000
:100D2000828DDF01A80FB11D5D968C91928D9F5F22
:100D30009F73928F90E008958FEF9FEF0895FC01CD
:100D400081E0808F938D848D981709F443C0838D43
:100D500090E001968F739927482F03C00FB607FEC6
:100D600014C0248D4217D1F3938DDF01A90FB11D5B
:100D7000A35ABF4F6C93838F0288F389E02D808143
:100D80008062808381E090E00895A089B1892C91F0
:100D900025FFE7CF248DDF01A20FB11DA35ABF4F5E
:100DA0005C91248D30E02F5F3F4F2F733327248FCA
:100DB000A689B7895C93A089B1892C9120642C9372
:100DC000338D248D3213CDCFA289B3892C912F7D01
:100DD0002C93C7CFA089B1898C9185FFB8CFA68904
:100DE000B7896C930088F189E02D808180648083CD
:100DF00081E090E00895CF93DF93DC0158968C91C9
:100E00005897882309F446C05296ED91FC91539768
:100E10005096CD91DC915197808185FF38C00FB6F7
:100E200007FCFACF808185FFF7CF888185FFF4CF5B
:100E30005C968C915C97FD01E80FF11DE35AFF4F22
:100E400020815C968C915C9790E001968F73992736
:100E50005C968C935C975696ED91FC915797208306
:100E60005096ED91FC9151978081806480835B96D0
:100E70009C915B975C968C915C979813C5CF52962A
:100E8000ED91FC91539780818F7D8083BDCF8881C8
:100E900086FFC5CFDF91CF9108958CE398E0892B31
:100EA00049F080E090E0892B29F00E943C088111F4
:100EB0000C9400000895FC01848DDF01A80FB11D82
:100EC000A35ABF4F2C91848D90E001968F73992780
:100ED000848FA689B7892C93A089B1898C9180646D
:100EE0008C93938D848D981308950288F389E02D57
:100EF00080818F7D80830895BF92CF92DF92EF92A1
:100F0000FF920F931F93CF93DF93EC016A017B0154
:100F1000B22EE889F98982E08083411581EE580775
:100F200061057105A9F060E079E08DE390E0A7012B
:100F300096010E94CE082150310941095109569568
:100F40004795379527958901211580E13807A0F04D
:100F5000E889F989108260E874E88EE190E0A701E1
:100F600096010E94CE082150310941095109569538
:100F70004795379527958901EC85FD851083EE858A
:100F8000FF850083188EEC89FD89B082EA89FB8990
:100F9000808180618083EA89FB8980818860808389
:100FA000EA89FB89808180688083EA89FB89808166
:100FB0008F7D8083DF91CF911F910F91FF90EF90F4
:100FC000DF90CF90BF9008951F920F920FB60F92AF
:100FD00011242F938F939F93EF93FF93E091290117
:100FE000F0912A018081E0912F01F091300182FD82
:100FF0001BC02081809132018F5F8F7390913301EC
:10100000891741F0E0913201F0E0E75EFE4F258F55
:1010100080933201FF91EF919F918F912F910F90CB
:101020000FBE0F901F9018958081F4CF1F920F92E2
:101030000FB60F9211242F933F934F935F936F93AB
:101040007F938F939F93AF93BF93EF93FF9389E128
:1010500091E00E945B07FF91EF91BF91AF919F914B
:101060008F917F916F915F914F913F912F910F9051
:101070000FBE0F901F90189589E191E00E947206B3
:1010800021E0892B09F420E0822F089510921C01A1
:1010900010921B0188EE93E0A0E0B0E080931D0168
:1010A00090931E01A0931F01B093200184E091E072
:1010B00090931A018093190185EC90E0909326019A
:1010C0008093250184EC90E0909328018093270180
:1010D00080EC90E090932A018093290181EC90E0CC
:1010E00090932C0180932B0182EC90E090932E0141
:1010F00080932D0186EC90E09093300180932F0136
:101100001092320110923301109234011092350185
:10111000089508950E94A5050E9489080E948700ED
:101120008DE497E0892B29F00E944B020E944D0725
:10113000FBCF0E944B020E944B02FBCFCF92DF926B
:10114000EF92FF920F931F93CF93DF937C016A017D
:1011500041155105F9F08B01C0E0D0E004C02196A3
:10116000CC16DD0669F0D8016D918D01D701ED91A6
:10117000FC910190F081E02DC7010995892B79F749
:10118000CE01DF91CF911F910F91FF90EF90DF90F3
:10119000CF900895C0E0D0E0F3CF0895A1E21A2ED9
:1011A000AA1BBB1BFD010DC0AA1FBB1FEE1FFF1F0B
:1011B000A217B307E407F50720F0A21BB30BE40B5B
:1011C000F50B661F771F881F991F1A9469F76095A2
:1011D0007095809590959B01AC01BD01CF0108955C
:1011E000EE0FFF1F0590F491E02D0994F894FFCFC6
:1011F000000000009F069E0872068B067D06FB0617
:00000001FF
